:020000040800F2
:100000000050002029370008C1360008C336000818
:10001000C5360008C7360008C936000800000000D1
:10002000000000000000000000000000CB360008C7
:10003000CD36000800000000CF360008D136000899
:1000400071370008713700087137000871370008F0
:1000500071370008713700087137000871370008E0
:1000600071370008713700087137000871370008D0
:1000700071370008713700087137000871370008C0
:1000800071370008713700087137000871370008B0
:1000900071370008713700087137000871370008A0
:1000A0007137000871370008713700087137000890
:1000B0007137000871370008713700087137000880
:1000C0007137000871370008713700087137000870
:1000D0007137000871370008713700087137000860
:1000E0007137000871370008713700080000000000
:1000F0000000000000000000000000000000000000
:0C01000000000000000000005FF808F1A3
:10010C0010B5054C237833B9044B13B10448AFF345
:10011C0000800123237010BDAC0000200000000003
:10012C005847000808B5034B1BB103490348AFF30C
:10013C00008008BD00000000B000002058470008F7
:10014C0081F0004102E000BF83F0004330B54FEA7C
:10015C0041044FEA430594EA050F08BF90EA020FE9
:10016C001FBF54EA000C55EA020C7FEA645C7FEA7C
:10017C00655C00F0E2804FEA5454D4EB5555B8BF9F
:10018C006D420CDD2C4480EA020281EA030382EA10
:10019C00000083EA010180EA020281EA0303362DA2
:1001AC0088BF30BD11F0004F4FEA01314FF4801C75
:1001BC004CEA113102D0404261EB410113F0004F87
:1001CC004FEA03334CEA133302D0524263EB43033E
:1001DC0094EA050F00F0A780A4F10104D5F1200EDC
:1001EC000DDB02FA0EFC22FA05F2801841F1000137
:1001FC0003FA0EF2801843FA05F359410EE0A5F10B
:10020C0020050EF1200E012A03FA0EFC28BF4CF03B
:10021C00020C43FA05F3C01851EBE37101F00045F1
:10022C0007D54FF0000EDCF1000C7EEB00006EEBFE
:10023C000101B1F5801F1BD3B1F5001F0CD3490888
:10024C005FEA30004FEA3C0C04F101044FEA4452DF
:10025C0012F5800F80F09A80BCF1004F08BF5FEA66
:10026C00500C50F1000041EB045141EA050130BD46
:10027C005FEA4C0C404141EB0101013C28BFB1F558
:10028C00801FE9D291F0000F04BF01460020B1FAA3
:10029C0081F308BF2033A3F10B03B3F120020CDA76
:1002AC000C3208DD02F1140CC2F10C0201FA0CF054
:1002BC0021FA02F10CE002F11402D8BFC2F1200CB9
:1002CC0001FA02F120FA0CFCDCBF41EA0C0190406F
:1002DC00E41AA2BF01EB0451294330BD6FEA0404B8
:1002EC001F3C1CDA0C340EDC04F11404C4F12002A3
:1002FC0020FA04F001FA02F340EA030021FA04F3B5
:10030C0045EA030130BDC4F10C04C4F1200220FA0B
:10031C0002F001FA04F340EA0300294630BD21FA49
:10032C0004F0294630BD94F0000F83F4801306BF0F
:10033C0081F480110134013D4EE77FEA645C18BF03
:10034C007FEA655C29D094EA050F08BF90EA020F9A
:10035C0005D054EA000C04BF1946104630BD91EA92
:10036C00030F1EBF0021002030BD5FEA545C05D195
:10037C004000494128BF41F0004130BD14F58004D4
:10038C003CBF01F5801130BD01F0004545F0FE4148
:10039C0041F470014FF0000030BD7FEA645C1ABF7D
:1003AC00194610467FEA655C1CBF0B46024650EAB4
:1003BC00013406BF52EA033591EA030F41F40021E0
:1003CC0030BD00BF90F0000F04BF0021704730B566
:1003DC004FF4806404F132044FF000054FF000013B
:1003EC0050E700BF90F0000F04BF0021704730B5FC
:1003FC004FF4806404F1320410F0004548BF4042D1
:10040C004FF000013EE700BF42004FEAE2014FEA25
:10041C0031014FEA02701FBF12F07F4393F07F4F00
:10042C0081F06051704732F07F4208BF704793F003
:10043C007F4F04BF41F40021704730B54FF4607416
:10044C0001F0004521F000411CE700BF50EA010219
:10045C0008BF704730B54FF000050AE050EA0102C2
:10046C0008BF704730B511F0004502D5404261EB32
:10047C0041014FF4806404F132045FEA915C3FF473
:10048C00D8AE4FF003025FEADC0C18BF03325FEA10
:10049C00DC0C18BF033202EBDC02C2F1200300FAC1
:1004AC0003FC20FA02F001FA03FE40EA0E0021FAE6
:1004BC0002F11444BDE600BF80F0004002E000BF32
:1004CC0081F0004142001FBF5FEA410392EA030F33
:1004DC007FEA226C7FEA236C6AD04FEA1262D2EB7D
:1004EC001363C1BFD218414048404140B8BF5B4282
:1004FC00192B88BF704710F0004F40F4000020F01B
:10050C007F4018BF404211F0004F41F4000121F030
:10051C007F4118BF494292EA030F3FD0A2F101027A
:10052C0041FA03FC10EB0C00C3F1200301FA03F1B8
:10053C0000F0004302D5494260EB4000B0F5000FDB
:10054C0013D3B0F1807F06D340084FEA310102F19A
:10055C000102FE2A51D2B1F1004F40EBC25008BF4C
:10056C0020F0010040EA03007047490040EB000016
:10057C00013A28BFB0F5000FEDD2B0FA80FCACF117
:10058C00080CB2EB0C0200FA0CF0AABF00EBC25044
:10059C0052421843BCBFD0401843704792F0000F32
:1005AC0081F4000106BF80F400000132013BB5E785
:1005BC004FEA41037FEA226C18BF7FEA236C21D0FB
:1005CC0092EA030F04D092F0000F08BF0846704760
:1005DC0090EA010F1CBF0020704712F07F4F04D12E
:1005EC00400028BF40F00040704712F100723CBF41
:1005FC0000F50000704700F0004343F0FE4040F46B
:10060C00000070477FEA226216BF08467FEA236328
:10061C000146420206BF5FEA412390EA010F40F413
:10062C00800070474FF0000304E000BF10F000435F
:10063C0048BF40425FEA000C08BF704743F0964346
:10064C0001464FF000001CE050EA010208BF704761
:10065C004FF000030AE000BF50EA010208BF7047E8
:10066C0011F0004302D5404261EB41015FEA010CFD
:10067C0002BF84460146002043F0B64308BFA3F1F5
:10068C008053A3F50003BCFA8CF2083AA3EBC253D7
:10069C0010DB01FA02FC634400FA02FCC2F12002F6
:1006AC00BCF1004F20FA02F243EB020008BF20F02D
:1006BC000100704702F1200201FA02FCC2F1200293
:1006CC0050EA4C0021FA02F243EB020008BF20EA88
:1006DC00DC7070474FF0FF0C1CEAD0521EBF1CEAB6
:1006EC00D15392EA0C0F93EA0C0F6FD01A4480EAA4
:1006FC00010C400218BF5FEA41211ED04FF000638D
:10070C0043EA501043EA5111A0FB01310CF00040B8
:10071C00B1F5000F3EBF490041EAD3715B0040EADE
:10072C00010062F17F02FD2A1DD8B3F1004F40EBAE
:10073C00C25008BF20F00100704790F0000F0CF081
:10074C00004C08BF49024CEA502040EA51207F3A45
:10075C00C2BFD2F1FF0340EAC250704740F4000020
:10076C004FF00003013A5DDC12F1190FDCBF00F011
:10077C0000407047C2F10002410021FA02F1C2F1BF
:10078C00200200FA02FC5FEA310040F1000053EA5B
:10079C004C0308BF20EADC70704792F0000F00F0A9
:1007AC00004C02BF400010F4000F013AF9D040EAAF
:1007BC000C0093F0000F01F0004C02BF490011F443
:1007CC00000F013BF9D041EA0C018FE70CEAD15341
:1007DC0092EA0C0F18BF93EA0C0F0AD030F0004CC1
:1007EC0018BF31F0004CD8D180EA010000F0004075
:1007FC00704790F0000F17BF90F0004F084691F033
:10080C00000F91F0004F14D092EA0C0F01D142026C
:10081C000FD193EA0C0F03D14B0218BF084608D135
:10082C0080EA010000F0004040F0FE4040F400007F
:10083C00704740F0FE4040F4400070474FF0FF0C12
:10084C001CEAD0521EBF1CEAD15392EA0C0F93EA59
:10085C000C0F69D0A2EB030280EA010C49024FEAAB
:10086C00402037D04FF0805343EA111143EA101364
:10087C000CF000408B4238BF5B0042F17D024FF41C
:10088C00000C8B4224BF5B1A40EA0C00B3EB510FF7
:10089C0024BFA3EB510340EA5C00B3EB910F24BFE0
:1008AC00A3EB910340EA9C00B3EBD10F24BFA3EB65
:1008BC00D10340EADC001B0118BF5FEA1C1CE0D12D
:1008CC00FD2A3FF650AF8B4240EBC25008BF20F0E0
:1008DC00010070470CF0004C4CEA50207F32C2BF34
:1008EC00D2F1FF0340EAC250704740F400004FF0D1
:1008FC000003013A37E792F0000F00F0004C02BF02
:10090C00400010F4000F013AF9D040EA0C0093F0CB
:10091C00000F01F0004C02BF490011F4000F013B25
:10092C00F9D041EA0C0195E70CEAD15392EA0C0F8D
:10093C0008D142027FF47DAF93EA0C0F7FF470AFC5
:10094C00084676E793EA0C0F04D14B023FF44CAF08
:10095C0008466EE730F0004C18BF31F0004CCAD19D
:10096C0030F000427FF45CAF31F000437FF43CAFD9
:10097C005FE700BF4FF0FF3C06E000BF4FF0010CFB
:10098C0002E000BF4FF0010C4DF804CD4FEA4002DD
:10099C004FEA41037FEA226C18BF7FEA236C11D027
:1009AC0001B052EA530C18BF90EA010F58BFB2EBDA
:1009BC00030088BFC81738BF6FEAE17018BF40F05A
:1009CC00010070477FEA226C02D15FEA402C05D10E
:1009DC007FEA236CE4D15FEA412CE1D05DF8040B93
:1009EC00704700BF844608466146FFE70FB5FFF726
:1009FC00C9FF002848BF10F1000F0FBD4DF808EDDE
:100A0C00FFF7F4FF0CBF012000205DF808FB00BFCE
:100A1C004DF808EDFFF7EAFF34BF012000205DF828
:100A2C0008FB00BF4DF808EDFFF7E0FF94BF012075
:100A3C0000205DF808FB00BF4DF808EDFFF7D2FF72
:100A4C0094BF012000205DF808FB00BF4DF808EDB5
:100A5C00FFF7C8FF34BF012000205DF808FB00BF82
:100A6C004FEA4002B2F1FE4F0FD34FF09E03B3EBAF
:100A7C0012620DD94FEA002343F0004310F0004FEF
:100A8C0023FA02F018BF404270474FF00000704745
:100A9C0012F1610F01D1420205D110F0004008BFE4
:100AAC006FF0004070474FF00000704742000ED2CC
:100ABC00B2F1FE4F0BD34FF09E03B3EB126209D48D
:100ACC004FEA002343F0004323FA02F070474FF043
:100ADC000000704712F1610F01D1420202D14FF0B8
:100AEC00FF3070474FF00000704700BF2DE9F04316
:100AFC0087B002F03DFB124CD4F80C90B4F8148083
:100B0C00A0EB09056068FFF77FFC0646A0680F465E
:100B1C00FFF77AFCA47D0B4A0B4BCDE90001002CAE
:100B2C0018BF13464146CDE9035332463B460748AE
:100B3C00CDF8089002F0CEFB07B0BDE8F08300BF03
:100B4C00CC000020F4470008F8470008FB470008D9
:100B5C00C36A092923F47003C36201F01F034363C2
:100B6C0001EB41024FF0070316D80169934021EACB
:100B7C0003010161026913430361036823F002035B
:100B8C000360836843F48003836003689B07FCD590
:100B9C00C06CC0F30B007047C1681E3A934021EA49
:100BAC000301C160C2681343C360E6E72DE9F84353
:100BBC00102500271D4E08213046FFF7C9FF013DC7
:100BCC0015F0FF050744F6D1C7F30F173846FFF7AA
:100BDC0029FD1749FFF732FE1649FFF77BFD4FF051
:100BEC007A518146FFF776FD804602F0C1FA124C2D
:100BFC000646E06011494046A782C4F80490C4F848
:100C0C000080C4F80880FFF70DFF58B1236913B9B1
:100C1C002661BDE8F883F61AB6F57A7FF9D301237D
:100C2C00A375F6E72561A575F3E700BF0024014025
:100C3C0000F07F4533335340CC00002000002041AE
:100C4C0010B5074C2368002B08DA40F6B83005497C
:100C5C0002F0BAFA2060C043C00F10BD0120FCE7BF
:100C6C0000000020F90A0008FFF7A0BF20B1034BD9
:100C7C009A689B7D42600370704700BFCC000020D7
:100C8C0037B500240022354B354D1C80354BC3E95C
:100C9C0003449C825A601A609A609C75AB6943F05D
:100CAC000803AB6102F082F92F4B984209D92F4B04
:100CBC00984248D92E4B984247D92E4B98424AD845
:100CCC0003246B682C4A23F440436B606B6843EA43
:100CDC0084336B60136823F00F031360AB6943F428
:100CEC000073AB61254B9A6842F001029A600022B6
:100CFC000192019AB2F57A7F29D39A6842F00802E0
:100D0C009A601E4B9A681107FCD49A6842F0040250
:100D1C009A609A685207FCD401205A6822F48072B7
:100D2C005A609A6822F002029A609A6822F4602251
:100D3C009A609A6842F460229A609A6842F480122F
:100D4C009A6003B030BD0124BBE70224B9E700BFB1
:100D5C00019A0132CCE72046F3E700BFC80000201F
:100D6C0000100240CC000020013FAB01037E560373
:100D7C0005BD010507FCAC06000C01400024014038
:100D8C00434BF0B5D3F8002242F00102C3F8002225
:100D9C0011BBD3F81C2222F00102C3F81C22D3F899
:100DAC000C2242F00102C3F80C22D3F8042222F0E8
:100DBC000102C3F80422D3F8142222F00102C3F872
:100DCC0014220422C3F84012C3F84422D3F81C2284
:100DDC0042F00102C3F81C222D4B0127D3F81C2230
:100DEC0022F00202C3F81C22D3F80C2242F00202B9
:100DFC00C3F80C22D3F8042222F00202C3F8042216
:100E0C00D3F8142242F00202C3F814220422C3F8CD
:100E1C004822C3F84C22D3F81C2242F00202C3F839
:100E2C001C2200229446D4B2A14206D8D3F8002248
:100E3C0022F00102C3F80022F0BDD3F81C5207FACD
:100E4C0002F425EA0405C3F81C52D3F80C5230F80E
:100E5C0012602543C3F80C52D3F80452760525438F
:100E6C00C3F80452D3F8145225EA0405C3F81452FB
:100E7C00D50005F1804505F5C845C5F84062C5F8B3
:100E8C0044C2D3F81C5201322C43C3F81C42CAE7AB
:100E9C000064004070B588B001AA1546094B03F1F7
:100EAC001806144618685968083303C4B34222461E
:100EBC00F7D11B880D2128462380FFF761FF08B06E
:100ECC0070BD00BF70470008304B01469868F0B504
:100EDC00420139D4030139D410F0805033D00223AD
:100EEC0000201B0103F1804202F5C842C2F88001C8
:100EFC00487B0C6860BBD2F8800140EA4450C2F8D1
:100F0C008001D2F8840103F1804320F00F00C2F875
:100F1C008401D2F884010E798C7B3043C2F88401B1
:100F2C00002003F5C843C3F88801C3F88C011CB931
:100F3C000531E0B2864212D80120D2F8803143F05C
:100F4C000103C2F88031F0BD0023C9E70123C7E7D4
:100F5C00D2F8800140EAC40040F00400CFE7032C33
:100F6C0008784FEAC40508D8D3F88871A8403843EC
:100F7C00C3F8880101340131DBE7D3F88C71203DD3
:100F8C00A8403843C3F88C01F4E700BF006400406C
:100F9C00244B0246D968F0B589072BD1186910F09B
:100FAC00030026D001241F4904F11B03507B1B01B5
:100FBC00CB5808BB5B0D2101136001F1804303F595
:100FCC00C843D3F8B001D3F8B461C0F340009073B8
:100FDC0010460022134D06F00F0600F8046F29444A
:100FEC00D3B29E420AD8C4B9EB6843F02003EB603D
:100FFC000120F0BD0024D6E7DB08DCE7032A4FEA2A
:10100C00C20792BFD1F8B831D1F8BC31203FFB40B8
:10101C00DBB200F8013F0132E2E72B6943F0200319
:10102C002B61E5E70064004038B5334D334CAB69B8
:10103C0043F00903AB61EB6943F00073EB61304B98
:10104C005A6822F4C0425A605A6842F480425A608C
:10105C00D3F8042C22F00F02C3F8042CD3F8042C80
:10106C0042F00802C3F8042CD3F80C2C42F4807222
:10107C00C3F80C2CD3F8042C22F0F002C3F8042C87
:10108C00D3F8042C42F03002C3F8042CD3F8042C0F
:10109C0042F08002C3F8042C236823F0020323607F
:1010AC00236843F0010323606368DB07FCD52368E6
:1010BC0023F0FC03236001F05BFF124B984214D029
:1010CC00114B984214D1114BE3610C4B1A6822F06E
:1010DC0001021A60596811F00101FBD10846FFF7B3
:1010EC004FFEE869C0F3406004E04FF4E013EBE717
:1010FC000020E06138BD00BF0010024000640040D9
:10110C000000014000127A000051250203001E006D
:10111C0037B55D4C94F85C31002B00F0AF80206843
:10112C00FFF79EFC0546A068FFF79AFC01906068EB
:10113C00FFF796FC00902B46D4E90321534802F0AC
:10114C00C9F8E06EFFF78CFC0546606FFFF788FC72
:10115C000190206FFFF784FC00902B46D4E91E21F0
:10116C004B4802F0B7F8D4F88000FFF779FC05463D
:10117C00D4F88800FFF774FC0190D4F88400FFF7D2
:10118C006FFC00902B46D4E92321424802F0A2F8D0
:10119C00D4F89400FFF764FC0546D4F89C00FFF7E4
:1011AC005FFC0190D4F89800FFF75AFC00902B4696
:1011BC00D4E92821384802F08DF8D4F8A800FFF7BC
:1011CC004FFC0546D4F8B000FFF74AFC0190D4F868
:1011DC00AC00FFF745FC00902B46D4E92D212F489D
:1011EC0002F078F8D4F8BC00FFF73AFC0546D4F8C6
:1011FC00C400FFF735FC0190D4F8C000FFF730FCB9
:10120C0000902B46D4E93221254802F063F8D4F83B
:10121C00D000FFF725FC0546D4F8D800FFF720FCDA
:10122C000190D4F8D400FFF71BFC00902B46D4E9B6
:10123C0037211C4802F04EF8D4F8E400FFF710FCFC
:10124C000546D4F8EC00FFF70BFC0190D4F8E8004D
:10125C00FFF706FC00902B46D4E93C21124802F023
:10126C0039F8D4F8F800FFF7FBFBD4E94121034629
:10127C000E4803B0BDE8304002F02CB80C4803B067
:10128C00BDE8304002F026B8EC0000204B480008C6
:10129C00D148000851490008D1490008544A0008B7
:1012AC00D74A00085A4B0008DF4B0008654C000871
:1012BC00D84C000838B58B680C46CB60054602F05C
:1012CC0095FAA0602B885BBA23806B885BBA63802D
:1012DC00AB885BBAA38038BDF8B503680446A3F5A8
:1012EC0080730C2B00F21E82DFE813F00D00360029
:1012FC0052007F0088009800D30011013C016A0164
:10130C00A801D60104020123C44D85F85C31EB68B9
:10131C002B6102F06BFAE860B4F8050040BA80B2B9
:10132C00FFF784F9BE49FFF7D5F92860B4F8070038
:10133C0040BA80B2FFF77AF9B949FFF7CBF9686088
:10134C00B4F8090040BA80B2FFF770F9B449FFF75E
:10135C00C1F9A8600120F8BD0123B04D85F85C31BE
:10136C00EB692B6202F042FAE861B4F8050040BA6E
:10137C0080B2FFF75BF9AA49FFF7ACF96861B4F8E2
:10138C0007305BBA2B83B4F809305BBA6B83E1E7A7
:10139C000123A24D85F85C31AB6CEB6402F026FAAC
:1013AC000022A864B4F8053005F123005BBA9BB2A7
:1013BC0043FA02F1013201F00101102A00F8011F79
:1013CC00F6D10022B4F8073096485BBA9BB243FAC8
:1013DC0002F1013201F00101112A00F8011FF6D1CE
:1013EC00B4F80930A5F84630B4E701238B49053031
:1013FC0081F85C315031FFF75DFFABE70123874D7E
:10140C0085F85C316B6EAB6602F0F0F96866637957
:10141C0085F86030A37985F861309BE701237F4D17
:10142C00814E85F85C31AB6FEB6702F0DFF9A86792
:10143C00B4F8050040BA80B2FFF7F8F87B49FFF723
:10144C0049F97B49FFF73CF8E866FFF72FFB307052
:10145C00B4F8070040BA80B2FFF7E8F87349FFF719
:10146C0039F97349FFF72CF82867FFF71FFB7070E9
:10147C00B4F8090040BA80B2FFF7D8F86B49FFF70F
:10148C0029F96B49FFF71CF86867FFF70FFBB07081
:10149C0060E70123614D644E85F85C31D5F88C30E2
:1014AC00C5F8903002F0A2F9C5F88C00B4F805002C
:1014BC0040BA80B2FFF7BAF85C49FFF70BF95C4908
:1014CC00FEF7FEFFC5F88000FFF7F0FAC7B2B4F8DC
:1014DC000700F77040BA80B2FFF7A8F85349FFF73E
:1014EC00F9F85349FEF7ECFFC5F88400FFF7DEFA74
:1014FC0072783378C0B21344B27830711344052239
:10150C003B440344B3FBF2F34A4A137022E7434DC6
:10151C00D5F8A030C5F8A43002F068F9C5F8A000E1
:10152C00B4F8050040BA80B2FFF780F84249FFF7E3
:10153C0085F9C5F89400B4F8070040BA80B2FFF7FB
:10154C0075F83D49FFF77AF9C5F89800B4F8090029
:10155C0040BA80B2FFF76AF83749FFF76FF9C5F860
:10156C009C00F7E601232D4D85F85C31D5F8B4309D
:10157C00C5F8B83002F03AF9C5F8B400B4F8050073
:10158C0040BA80B2FFF752F82B49FFF757F9C5F86C
:10159C00A800B4F8070040BA80B2FFF747F8264914
:1015AC00FFF74CF9C5F8AC00B4F8090040BA80B2AA
:1015BC00FFF73CF82049FFF741F9C5F8B000C9E640
:1015CC000123164D85F85C31D5F8C830C5F8CC3000
:1015DC0002F00CF9C5F8C800B4F8050040BA80B2A6
:1015EC00FFF724F81449FFF729F9C5F8BC00B4F843
:1015FC00070040BA80B2FFF719F80F49FFF71EF940
:10160C00C5F8C000B4F8090040BA80B2FFF70EF874
:10161C000949FFF713F9C5F8C4009BE6EC0000205C
:10162C000AD7233C1F010020E5000020CDCCCC3D87
:10163C0033938843E400002000007A4401233A4DA0
:10164C0085F85C31D5F8DC30C5F8E03002F0CEF826
:10165C00C5F8DC00B4F8050040BA80B2FEF7E6FF2E
:10166C003249FFF7EBF8C5F8D000B4F8070040BAE0
:10167C0080B2FEF7DBFF2D49FFF7E0F8C5F8D40088
:10168C00B4F8090040BA80B2FEF7D0FF2749FFF743
:10169C00D5F8C5F8D8005DE60123234D85F85C31FB
:1016AC00D5F8F030C5F8F43002F0A0F8C5F8F00029
:1016BC00B4F8050040BA80B2FEF7B8FF1B49FFF73B
:1016CC00BDF8C5F8E400B4F8070040BA80B2FEF7E4
:1016DC00ADFF1649FFF7B2F8C5F8E800B4F80900F9
:1016EC0040BA80B2FEF7A2FF1049FFF7A7F8C5F881
:1016FC00EC002FE601230C4D85F85C31D5F8043154
:10170C00C5F8083102F072F8C5F80401B4F8050008
:10171C0040BA80B2FEF78AFF0449FFF78FF8C5F88C
:10172C00F80017E6002016E6EC00002000007A44D2
:10173C0010B5074C2368002B08DA40F6B830054981
:10174C0001F042FD2060C043C00F10BD0120FCE73A
:10175C00040000201D1100082DE9F84F3A4B3B4DB9
:10176C001B78044680F86C306B6883602B68436090
:10177C00B5F84630002B14BF0123002380F86D30E0
:10178C006B8B0370D5F89430C360D5F89830036137
:10179C00D5F89C304361D5F8A8308361D5F8AC30CE
:1017AC00C361D5F8B0300362D5F8BC304362D5F8CC
:1017BC00C0308362D5F8C430C362D5F8D03003632F
:1017CC00D5F8D4304363D5F8D8308363D5F8E430FA
:1017DC00C363D5F8E8300364D5F8EC30436430D0FB
:1017EC000346002100F5207283F86F1028339342D2
:1017FC00FAD100274FF0280A3E46BB46DFF850903E
:10180C00B5F84630FB40DB070FD50F2E0DD80AFB81
:10181C0006F808F16F00272249462044A0440136FF
:10182C0002F0FAFAF6B288F896B00137102F09F1E7
:10183C001409E5D184F86E60003E18BF012684F8C7
:10184C006D60BDE8F88F00BFE4000020EC000020C4
:10185C005A5E0008F0B5064600200F4604460146C5
:10186C00E519EB10082B0FBF0023F35C05F00705FF
:10187C002B4118BF03F00103A4F12005C4F1200C87
:10188C0003FA05F523FA0CFCA340013445EA0C05D8
:10189C00944240EA030041EA0501E1D1F0BD0000A9
:1018AC0038B56F4C94F84830002B00F0D68001F01E
:1018BC005FFC2369C51A6B4801F00CFD21696A486D
:1018CC0001F008FD2946694801F004FD21786848BB
:1018DC0001F000FD6178674801F0FCFCA1786648D6
:1018EC0001F0F8FCE178654801F0F4FCA18864484B
:1018FC0001F0F0FCA179634801F0ECFCE17962485D
:10190C0001F0E8FCA068FEF77FFD02460B465F483D
:10191C0001F0E0FCE068FEF777FD02460B465C4800
:10192C0001F0D8FC5B4801F0D5FC01F021FCA36A66
:10193C00C51A594801F0CEFCA16A4B4801F0CAFC0B
:10194C0029464A4801F0C6FC6069FEF75DFD024677
:10195C000B46524801F0BEFCA069FEF755FD02464D
:10196C000B464F4801F0B6FC217F4E4801F0B2FC0B
:10197C00617F4D4801F0AEFCA17F4C4801F0AAFC00
:10198C00206AFEF741FD02460B46494801F0A2FCD5
:10199C0094F82410474801F09DFC94F82610464812
:1019AC0001F098FC3B4801F095FC01F0E1FBE36B86
:1019BC00C51A424801F08EFCE16B2B4801F08AFC01
:1019CC0029462A4801F086FCB4F92C103C4801F059
:1019DC0081FCB4F92E103B4801F07CFC206BFEF727
:1019EC0013FD02460B46384801F074FC606BFEF7A1
:1019FC000BFD02460B46354801F06CFC218F344838
:101A0C0001F068FC234801F065FC01F0B1FB636C4C
:101A1C00C51A304801F05EFC616C134801F05AFCA9
:101A2C002946124801F056FC94F840102A4801F05F
:101A3C0051FC94F84110294801F04CFC94F84210E8
:101A4C00274801F047FC274894F8431001F042FC6A
:101A5C001048BDE8384001F03DBC2348F9E700BF11
:101A6C004C020020FC4C0008364D00085A4D000872
:101A7C007E4D00089E4D0008BE4D0008DE4D00084E
:101A8C00FE4D0008224E0008464E0008664E000827
:101A9C008A4E0008AE4E0008E64E0008204F0008A3
:101AAC00444F0008684F0008884F0008A84F0008F2
:101ABC00C84F0008EC4F00080C5000082F500008CD
:101ACC00695000088E500008B3500008D850000828
:101ADC00FD5000081F510008595100087D510008A5
:101AEC009E510008BF510008E0510008036870B512
:101AFC00113B0446032B49D8DFE803F002499EDA78
:101B0C0001267C4D053485F8486001F031FB02223A
:101B1C00286100212046FFF79DFE114628702046C3
:101B2C00FFF798FE3246687004212046FFF792FEBC
:101B3C000322A87005212046FFF78CFE1022E870C6
:101B4C0008212046FFF786FE0822A880182120468F
:101B5C00FFF780FE2021A8712046FFF77BFE0C22A8
:101B6C00E87128212046FFF775FEFEF76DFD6249EE
:101B7C00FEF7B0FD0C22A86034212046FFF76AFE68
:101B8C00FEF762FD5C49FEF7A5FDE86070BD01261D
:101B9C00584D053485F8486001F0EAFA1022A86225
:101BAC0000212046FFF756FEFEF74EFD5249FEF788
:101BBC0091FD1022686111462046FFF74BFEFEF79F
:101BCC0043FD4D49FEF786FD0422A86120212046E5
:101BDC00FFF740FE242128772046FFF73BFE3246D4
:101BEC00687728212046FFF735FE2921A877204663
:101BFC00FFF730FE0922E8772A212046FFF72AFE5C
:101C0C00FEF722FD3D49FEF765FD022228623321D5
:101C1C002046FFF71FFE032285F8240035212046BD
:101C2C00FFF718FE082285F8250038212046FFF71B
:101C3C0011FE85F82600A9E701232E4D053485F801
:101C4C00483001F095FA0822E86300212046FFF79E
:101C5C0001FE40B228381146A8852046FFF7FAFD50
:101C6C00102240B228381146E8852046FFF7F2FDD5
:101C7C00FEF7EAFC4FF07A51FEF72CFD2049FEF7F7
:101C8C001FFC1022286320212046FFF7E3FDFEF7FE
:101C9C00DBFC4FF07A51FEF71DFD1949FEF710FCE5
:101CAC001022686330212046FFF7D4FD28876DE7AA
:101CBC000123104D053485F8483001F059FA0822FB
:101CCC00686400212046FFF7C5FD114685F84000E9
:101CDC002046FFF7BFFD102185F841002046FFF795
:101CEC00B9FD202185F842002046FFF7B3FD85F8A9
:101CFC0043004BE74C020020CDCCCC3D0AD7233C13
:101D0C000080FF4310B5074C2368002B08DA40F61F
:101D1C00B830054901F058FA2060C043C00F10BD1F
:101D2C000120FCE708000020AD1800082DE9F04761
:101D3C00264E0446B3880022437573690360B36969
:101D4C004360B38DB5790372F38D437245B92B465D
:101D5C002820294600FB03420133D175DBB2F9E799
:101D6C00012383720346027500F55C71DA75283322
:101D7C008B42FBD100274FF02808B946DFF850A062
:101D8C0025FA07F3DB0710D5207D15280DD808FBA5
:101D9C00004027225146173002F03EF8237D08FB05
:101DAC000342013382F83E9023750137162F0AF156
:101DBC00140AE5D1737F0748003B18BF012384F850
:101DCC008733BDE8F04701F085BA00BF4C02002014
:101DDC009A5F0008065200082DE9F047B54CB64E44
:101DEC00B64D94F88516B64800290CBF31462946E5
:101DFC0001F070FA94F88916B24800290CBF3146EC
:101E0C00294601F067FA94F88816AF4800290CBFF0
:101E1C003146294601F05EFADFF8B08294F8771665
:101E2C00AB4FAC4800290CBF4146394601F052FA81
:101E3C0094F88416A84800290CBF4146394601F095
:101E4C0049FADFF8989294F88716DFF894A2A5481F
:101E5C0000290CBF5146494601F03CFAA24BA34A5B
:101E6C0094F88616A24800290CBF1146194601F0B9
:101E7C0031FA94F88A169F4800290CBF314629463E
:101E8C0001F028FA9C4801F025FADFF870829C4F8B
:101E9C0094F890169B4800290CBF4146394601F036
:101EAC0019FA94F80513984801F014FAD4F8FC12B6
:101EBC00964801F00FFAD4F80013954801F00AFA8D
:101ECC0094F87816934800290CBF3146294601F046
:101EDC0001FA94F87916904800290CBF314629462E
:101EEC0001F0F8F994F87A168C4800290CBF3146A9
:101EFC00294601F0EFF994F87B16894800290CBFAC
:101F0C003146294601F0E6F9864801F0E3F92178DB
:101F1C00854801F0DFF985496068FEF7DBFB642535
:101F2C00FEF7C4FDB0FBF5F105FB1102804801F092
:101F3C00D1F97E49A068FEF7CDFBFEF7B7FDB0FBEB
:101F4C00F5F105FB11027B4801F0C4F994F86C1013
:101F5C00794801F0BFF994F86D10784800290CBF4E
:101F6C004146394601F0B6F994F86E10744801F008
:101F7C00B1F9744801F0AEF96C49D4F8F002FEF7EF
:101F8C00A9FBFEF793FDB0FBF5F105FB11026E48C2
:101F9C0001F0A0F96549D4F8F402FEF79BFBFEF7BB
:101FAC0085FDB0FBF5F105FB1102684801F092F9D3
:101FBC0094F8F912664801F08DF994F8F812654816
:101FCC0001F088F994F8FA12634800290CBF4146D5
:101FDC00394601F07FF994F80413604801F07AF95E
:101FEC005F4801F077F95149D4F88006FEF772FB8F
:101FFC00FEF75CFDB0FBF5F105FB1102594801F051
:10200C0069F994F87C16584800290CBF494651468A
:10201C0001F060F9554801F05DF9554D94F88D16B5
:10202C00544800290CBF2946494601F053F994F84D
:10203C008E16514800290CBF2946494601F04AF931
:10204C0094F88F164D4800290CBF2946494601F0DB
:10205C0041F994F88B164A4800290CBF4146394681
:10206C0001F038F994F88C16464800290CBF41460B
:10207C00394601F02FF9444801F02CF901254FF4B1
:10208C007A76DFF80881424F0834414654F8040F41
:10209C00FEF720FBFEF70AFDB0FBF6F2294606FB25
:1020AC0012030135384601F015F9192DEDD1BDE8B3
:1020BC00F08700BF98020020165200081352000847
:1020CC003D5200085B520008795200081A52000871
:1020DC002D58000897520008B552000823520008EA
:1020EC0026520008D35200082E5200082A5200082B
:1020FC00F15200080F5300082D530008F847000850
:10210C00F44700086753000885530008A8530008DB
:10211C00C7530008E6530008045400082254000872
:10212C00405400085E540008975400080000C84250
:10213C00B8540008DF54000806550008265500085E
:10214C0044550008625500089B550008C25500080C
:10215C00E95500080956000829560008475600089A
:10216C00655600089E560008C5560008E356000840
:10217C00375200081C5700083A57000858570008F7
:10218C007657000894570008B257000800007A44AC
:10219C00EA5700084AF25A5310B586B0ADF804302D
:1021AC00D31C14468DF80630822340BAADF80800D3
:1021BC000DF10A008DF8073001F06EFEA11DC9B2B9
:1021CC0001A801F07CF806B010BD002307B502226F
:1021DC008DF8051001A98DF80430FFF7DBFF03B073
:1021EC005DF804FBFFF7F1BF07B5042209BA0191B2
:1021FC000DEB0201FFF7CEFF03B05DF804FB00000E
:10220C0038B5AF4C2046FFF7A7FA04F53C70FFF742
:10221C008DFD04F2846000F031FBAA4801F05AF8FD
:10222C0004F27C60FEF722FD4FF4805094F8851682
:10223C00FFF7D8FF41F2010094F88916FFF7D2FF9F
:10224C0041F2020094F87716FFF7CCFF41F203003D
:10225C0094F88416FFF7C6FF41F2040094F8871631
:10226C00FFF7C0FF41F2050094F87C16FFF7BAFFA8
:10227C0041F2060094F88616FFF7B4FF41F207000E
:10228C0094F88816FFF7AEFF41F2090094F878161F
:10229C00FFF7A8FF41F2100094F87916FFF7A2FFA0
:1022AC0041F2110094F87A16FFF79CFF41F21200EC
:1022BC0094F87B16FFF796FF41F2130094F89016F2
:1022CC00FFF790FF94F805134FF4A850FFF77DFF2C
:1022DC0094F80513002940F0E78041F21500FFF750
:1022EC0074FF217841F21650FFF76FFFD4F8FC12FF
:1022FC0041F20250FFF778FFD4F8001341F2065078
:10230C00FFF772FF94F8F91241F23850FFF75DFFB6
:10231C0094F8F81241F23650FFF757FF94F86C100E
:10232C004FF4AA50FFF751FF616848F29600FFF78F
:10233C005BFFA16848F20810FFF756FFD4F880162F
:10234C0041F23650FFF750FFD4F8F4124FF401402D
:10235C00FFF74AFFD4F8F01248F20410FFF744FFDD
:10236C0094F804134FF4A950FFF72FFF94F86E1054
:10237C0041F22250FFF729FF94F88D1641F22450B8
:10238C00FFF730FF94F88E1641F22650FFF72AFF24
:10239C0094F88F1641F22850FFF724FF94F88B160F
:1023AC0041F23050FFF71EFF94F88C1641F2325078
:1023BC00FFF718FFE1684FF40040FFF715FF2169A4
:1023CC0048F20400FFF710FF616948F20800FFF7BC
:1023DC000BFFA16948F21200FFF706FFE16948F212
:1023EC001600FFF701FF216A48F22000FFF7FCFE00
:1023FC00616A48F22400FFF7F7FEA16A48F2280050
:10240C00FFF7F2FEE16A48F23200FFF7EDFE216BB6
:10241C0048F23600FFF7E8FE616B48F24000FFF728
:10242C00E3FEA16B48F24400FFF7DEFEE16B48F2DD
:10243C004800FFF7D9FE216C48F25200FFF7D4FE9A
:10244C00616C48F25600FFF7CFFEA16C48F26000B9
:10245C00FFF7CAFEE16C48F26400FFF7C5FE216D80
:10246C0048F26800FFF7C0FE616D48F27200FFF79A
:10247C00BBFEA16D48F27600FFF7B6FEE16D48F2A7
:10248C008000FFF7B1FE216E48F28400FFF7ACFE2E
:10249C00616E48F28800FFF7A7FEA16E48F2920029
:1024AC00BDE83840FFF7A0BE074D41F21500297872
:1024BC00FFF798FE2B7883F001032B7011E700BF18
:1024CC0098020020125800080C00002010B5074C90
:1024DC002368002B08DA40F6B830054900F074FE8A
:1024EC002060C043C00F10BD0120FCE7100000208D
:1024FC00E51D0008064B1B78984207D21C22054BA1
:10250C0002FB0033187E10B1D87C70470020704756
:10251C002D090020300900202DE9F8439846164B70
:10252C0016461B789DF820901BB310B3134F3D78C3
:10253C00072D1ED81C226A43114B9C189850A18061
:10254C0000F016FEA06000F013FE0023E3750123DB
:10255C0023763B78E0600133A4F8108084F8129065
:10256C00E6742675667584F816903B702846BDE8AF
:10257C00F883FF25FAE700BF2C0900202D09002065
:10258C00300900202DE9FF41434F444800F0A2FEE2
:10259C0008223978424800F09DFE0026414DDFF8B4
:1025AC0008813A78F4B2A24254D8404C404800F02A
:1025BC0091FE404800F08EFE3F4A404B2178404847
:1025CC00002914BF1146194600F084FE3D4E3E4DC5
:1025DC0061783E4800290CBF3146294600F07AFE4E
:1025EC003B4A3C4BA1783C48002914BF1146194684
:1025FC0000F070FEE178394800290CBF31462946BD
:10260C0000F068FE2179364800290CBF3146294676
:10261C0000F060FE334A344B6179344800290CBF1A
:10262C001146194600F056FEA179314800290CBF1D
:10263C003146294600F04EFEE1792E4800290CBFA8
:10264C003146294600F046FE2B4804B0BDE8F04167
:10265C0000F040BE1C236343E918087EC0B19442CD
:10266C0018DAE858898801F02FF9431E584258416E
:10267C001C226243AB18997D0391D97D0291D97CC0
:10268C00CDE90001214640469B88AA5800F022FE65
:10269C00013686E70020EBE72D09002034580008AE
:1026AC00575800083009002070580008100A002004
:1026BC00C54E0008C15800081A5200081C580008E2
:1026CC00F758000816520008135200080E5900085B
:1026DC002458000826520008235900083A590008CB
:1026EC00505900082B5800082D580008675900084D
:1026FC007E59000895590008AF4E0008012310B50B
:10270C0003FA01F1846889B20C4208BF002393429A
:10271C0004D0012A16BF0B040161036183680B42CC
:10272C0014BF01200020831A5842584110BD0000EC
:10273C00464B2DE9F0471B78002B3AD1444B454CC6
:10274C001868FFF7D7FE444B20701868FFF7D2FECD
:10275C00424B80F00100A0701868FFF7CBFE404B95
:10276C0080F0010060711868FFF7C4FE3D4B80F0EB
:10277C00010020711868FFF7BDFE3B4B80F0010093
:10278C00A0711868FFF7B6FE384B80F00100E071BD
:10279C001868FFF7AFFEE27880F001002072002A83
:1027AC0051D106213248FFF7A9FF00B16270BDE894
:1027BC00F08700F0DDFC00270546DFF8B890DFF865
:1027CC00B88099F800305FFA87FA5345B6D91C23C4
:1027DC0003FB0AF308EB0304227E002A31D0E268E3
:1027EC00218AAA1A8A422CD3A18858F80300E560E2
:1027FC0001F06AF8431E5E425E4100F0B9FCE37CD6
:10280C006375237DB34219D04FF48073A060267595
:10281C00E3821C2303FB0A83997D9C7C013199750F
:10282C00198A9A686143821A91420AD89A7DA24207
:10283C0021BF1A7DDA740022DA7502E0E37D002BE9
:10284C00E7D10137BDE70122ABE700BF2C0900201F
:10285C0030000020100A00202C0000202400002052
:10286C0028000020200000201C0000201800002060
:10287C00000801402D09002030090020064B9A78F1
:10288C00C2705A7982701A7802701A7942709A79E9
:10289C00DB79427103717047100A002010B5074CA8
:1028AC002368002B08DA40F6B830054900F08CFCA0
:1028BC002060C043C00F10BD0120FCE714000020B5
:1028CC00912500082DE9F74F00254FF00F0E4FF022
:1028DC0008084FF001094FF0040A6A4C6A4F22684D
:1028EC00002A00F0CA80A1880F2900F2C680BA42E3
:1028FC0094F806C040F099806448836943F004035F
:10290C008361072993BF1046A1F10803101D8B00AA
:10291C0088BF9B000668DBB20EFA03FB26EA0B06A7
:10292C000660BCF1000F40F0998002680AFA03F3CC
:10293C00134303600135072D04F10804CFD1534A2A
:10294C00534D93692C7843F00403936140233B610E
:10295C00504BD3F8002822F07062C3F80028D3F84B
:10296C00002842F04072C3F8002844B9E022214606
:10297C00494801F049FA494B1C7001232B7005257D
:10298C001E230122042146480095FFF7C5FDDFF800
:10299C0014A11E23CAF80000012207213A48009511
:1029AC00FFF7BAFD0022DFF800911146C9F80000CC
:1029BC001E2335480095FFF7AFFDDFF8F0801E238E
:1029CC00C8F8000000220D212F480095FFF7A4FD48
:1029DC000324374F23463860002201212A480094F3
:1029EC00FFF79AFD334E2346306000220221264821
:1029FC000094FFF791FD304B0022186021461E23F6
:102A0C0021480095FFF788FD2C4BD9F80020186061
:102A1C00DAF800301343D8F8002013433A68134314
:102A2C002BD43068C043C00F28E01D4B9A4204D110
:102A3C001648836943F0080362E7214B9A4204D19C
:102A4C001248836943F010035AE71E4B9A427FF4F5
:102A5C0058AF0E48836943F0200351E7066808FA23
:102A6C0003F333430360D36809FA01F1BCF1010F9E
:102A7C000CBF0B438B43D3605CE7002003B0BDE875
:102A8C00F08F00BF546100080008014000100240A4
:102A9C002C09002000000140300900202D090020E5
:102AAC00000C0140300000202C00002028000020E9
:102ABC0024000020200000201C0000201800002012
:102ACC00001001400014014045F255520E4B1A60A3
:102ADC0004225A6040F271225043B0F57A1F0ED294
:102AEC00B0F57A7F0ED34FF47A72B0FBF2F04AF65F
:102AFC00AA2298601A604CF6CC421A60704740F6D5
:102B0C00FF70F4E70120F2E7003000404AF6AA22F9
:102B1C00014B1A60704700BF0030004010B50446EE
:102B2C00012000F097FA032000F09EFA204600F0F6
:102B3C009BFAFF2000F098FA0446002000F08AFA75
:102B4C00204610BD08B50E20FFF7E8FF00F0E000AE
:102B5C0008BD38B505460C46012000F07BFA022072
:102B6C0000F082FA284600F07FFA204600F07CFA4A
:102B7C00BDE83840002000F06DBA70B506460D4631
:102B8C001446012000F066FA052000F06DFA30467C
:102B9C0000F06AFA284600F067FA204600F064FA62
:102BAC00BDE87040002000F055BA38B50246054625
:102BBC00E0210F20FFF7E1FF42F21074FFF7C2FF94
:102BCC00A84203D0013CF9D1204638BD0120FCE7D6
:102BDC0038B50446FFF7B6FF05468020FFF7E5FF42
:102BEC00002C14BF24242024FF212046FFF7B1FF22
:102BFC00601CE021FFF7ADFFA01C0021FFF7A9FF2F
:102C0C00E01C0021FFF7A5FF2846BDE83840FFF780
:102C1C00CCBF00002DE9F04705468A461446FFF765
:102C2C0091FF81468020FFF7C0FF052D3CD81F4B3C
:102C3C005FFA84F8585D471C861CC51CFFB2F6B2BF
:102C4C00EDB2BAF1000F1ED0C4F34751FFF781FF6C
:102C5C00610BC4F3014321F01F01194341F008013A
:102C6C00384601F0EB01FFF774FFC4F3072130463F
:102C7C00FFF76FFF41462846FFF76BFF4846BDE85C
:102C8C00F047FFF792BFC4F3C701FFF762FF4FEAAB
:102C9C004811384601F0E001FFF75BFF5146304622
:102CAC00FFF757FF5146E6E7BDE8F0878C61000857
:102CBC002DE9F041044601200E4600F0CBF92046E8
:102CCC0000F0D2F9FF2000F0CFF90746FF2000F00A
:102CDC00CBF90446FF2000F0C7F90546FF2000F0B1
:102CEC00C3F98046FF2000F0BFF904F00802002A67
:102CFC0014BF01220022034672731DD02D02620301
:102D0C0045EA475545EA080502F4E0122404154348
:102D1C0004F440342C43002503F00F02C3F380135A
:102D2C0034603271B3733379ECB2A34209D8BDE885
:102D3C00F041002000F08EB9C4F3471444EAC704F4
:102D4C00E9E7FF2000F090F9344460710135EAE7BF
:102D5C0007B5012000F07EF9C02000F085F90020B5
:102D6C0000F078F9002341F287320193019B9342E2
:102D7C001DDDFFF7E7FE80281DD100212A20FFF77B
:102D8C00E8FEB1212920FFF7E4FE85212820FFF77A
:102D9C00E0FE64216020FFF7DCFE60217020FFF76D
:102DAC00D8FE002003B05DF804EBFFF7FEBE019BDC
:102DBC0001330193DAE7002003B05DF804FB38B56A
:102DCC0004462C20FFF7AAFE820701D1002038BD53
:102DDC002C20FFF7A3FE10F001050AD0214690200D
:102DEC00FFF766FF002201212C20FFF7C6FE012011
:102DFC00EDE78307EAD521469420FFF759FF2A46D1
:102E0C000221F1E773B56B46154A6E46106851689E
:102E1C00002403C3FFF796FE05468020FFF7C5FE8E
:102E2C000020FFF7D5FE0120FFF7D2FEE0B2002113
:102E3C0036F8022B0134FFF7EDFE042CF6D12046B8
:102E4C0011220021FFF7E6FE112200210520FFF7D9
:102E5C00E1FE2846FFF7A9FE012002B070BD00BFBD
:102E6C008A4700081FB56846FEF792F830B96846E5
:102E7C00FFF7A5FF30B905B05DF804FB6846FEF717
:102E8C002BFAF0E76846FEF731FEF0E730B5114C4F
:102E9C00114B227885B033F81230002500930823AB
:102EAC008DF80430012368468DF80E308DF80D50E6
:102EBC00FEF70AF82378094A01331278DBB29A42FA
:102ECC004FF06400237098BF257000F095FC05B09E
:102EDC0030BD00BF190A002036000020340000204D
:102EEC000F4A536803F00C03082B17D15368DB030C
:102EFC0012D5536813F4003F0CBF01210221094B7A
:102F0C00B3FBF1F35268C2F383420D2A02F10200C3
:102F1C0008BF102058437047034BF3E70148704734
:102F2C000010024000127A0000093D0030B591B04B
:102F3C006C460D4D0FCD0FC40FCD0FC40FCD0FC46C
:102F4C0095E80F0084E80F00084B5C68FFF7C8FF9A
:102F5C00C4F3031410AB03EB840454F8403CB0FBF3
:102F6C00F3F011B030BD00BF9447000800100240D0
:102F7C0030B589B06C460B4D0FCD0FC495E80F00E2
:102F8C0084E80F00084B5C68FFF7D0FFC4F3022401
:102F9C0008AB03EB840454F8203CB0FBF3F009B00D
:102FAC0030BD00BFD44700080010024030B589B0D6
:102FBC006C460B4D0FCD0FC495E80F0084E80F0045
:102FCC00084B5C68FFF7B2FFC4F3C22408AB03EBF9
:102FDC00840454F8203CB0FBF3F009B030BD00BFC2
:102FEC00D447000800100240184B1A6842F4803293
:102FFC001A601A689103FCD5154A116841F0040156
:10300C001160116841F0100111605A6842F4E0122D
:10301C005A605A6842F480325A605A6842F48062AC
:10302C005A605A6822F460525A601A6842F08072F0
:10303C001A601A689201FCD55A6842F002025A6072
:10304C005A6802F00C02082AFAD1704700100240AC
:10305C00002002404FF48052024B08B15A61704775
:10306C001A617047000C01400D4B10B50D491C68DE
:10307C008A68920708D5C86018680A498A68D20716
:10308C0008D5C868C0B204E01A68121B092AEFD927
:10309C00FF2010BD1A68121A092AEFD9F8E700BFF1
:1030AC00BC0A002000380040304B9A6942F00802FC
:1030BC009A61DA6942F48042DA61A3F582335A6884
:1030CC0022F440325A605A6822F440225A605A68FC
:1030DC0042F440325A605A6822F440125A605A68DC
:1030EC0022F440025A605A6842F440125A605A68FC
:1030FC0042F400025A605A6822F040725A605A68D0
:10310C0022F040625A605A6842F080625A605A68F3
:10311C0022F040525A605A6822F040425A605A6873
:10312C0042F040525A605A6842F000425A604FF4E2
:10313C0080521A610022A3F554431A601A6842F0B7
:10314C0004021A601A6842F010021A601A6842F4FB
:10315C0000721A601A6842F480721A601A6842F09F
:10316C0040021A601868C0F38010704700100240CB
:10317C00014B1868704700BFBC0A002008B5FFF768
:10318C00D5FE4FF47A73B0FBF3F3013BB3F1807FC0
:10319C004FF0000007D24FF0E0221061536107237B
:1031AC0090610120136108BD0A210022054B0139F1
:1031BC00C3E900221A739A605A7303F11003F6D113
:1031CC00704700BF1C0A00200E4B70B51A460D4606
:1031DC000024197B69B9996859B9230102EB0416CB
:1031EC00D050FFF7C5FF0123C6E90105B381204686
:1031FC0070BD01340A2C03F11003EAD14FF0FF34F7
:10320C00F5E700BF1C0A0020092808D80023044A4F
:10321C00010102EB0010C0E9013353508381704768
:10322C001C0A002070B5FFF7A3FF002506460B4CC7
:10323C00237B6BB1A2685AB163682168F31A8B4285
:10324C0006D366609047637B13B12846FFF7DCFF1B
:10325C0001350A2D04F11004EAD170BD1C0A0020BE
:10326C0008B5FFF7A1FF012008BD0000054B064A79
:10327C001168090602D5506001207047013BF7D157
:10328C0018467047A086010000380140054B064ADD
:10329C001168090602D5506001207047013BF7D137
:1032AC0018467047A08601000048004010B5441E27
:1032BC0014F8010F00B910BDFFF7D8FFF8E738B5C7
:1032CC0004464518AC4200D138BD14F8010BFFF789
:1032DC00DDFFF7E70FB400B59BB01CAB53F8042B24
:1032EC00642101A8009300F081FD01A8FFF7DEFF27
:1032FC001BB05DF804EB04B07047000008B5FFF795
:10330C0055FE002836D04FF4E112B0FBF2F302FB6D
:10331C00130000F56140904235BF4FF4E1320020BC
:10332C00B0FBF2F0013350EA031023D0134B9A692F
:10333C0042F004029A619A6942F480429A61A3F5C0
:10334C0084335A6822F47F625A605A6842F0B002A1
:10335C005A605A6842F480625A6042F20C03084A7E
:10336C009060D360D36813F4005304D093681B1A95
:10337C005842584108BD1846FCE700BF00100240F7
:10338C000038014008B5FFF7F3FD002836D04FF4A4
:10339C00E112B0FBF2F302FB130000F56140904226
:1033AC0035BF4FF4E1320020B0FBF2F0013350EAAC
:1033BC00031023D0134B9A6942F008029A61DA6920
:1033CC0042F48022DA61A3F582335A6822F47F42F8
:1033DC005A605A6842F430625A605A6842F4804229
:1033EC005A6042F20C03084A9060D360D36813F41D
:1033FC00005304D093681B1A5842584108BD184614
:10340C00FCE700BF0010024000480040084A9369E6
:10341C0043F008039361074B1A6822F470621A6038
:10342C001A6842F400721A604FF480221A617047D5
:10343C0000100240000C014008B572B6FFF7E6FF21
:10344C000422034B1A611A6982F00402FAE700BFE6
:10345C00000C014000B591B02422002107A800F017
:10346C00D3FC1422002101A800F0CEFC0223012180
:10347C000693102306A8CDE90A1300F02BFA014697
:10348C0008B1FFF7D9FF0F23CDE90300CDE90130D7
:10349C00059001A800F0E0FB0028F2D111B05DF816
:1034AC0004FB000038B500F083F9FFF7D3FFFFF7FA
:1034BC009BFDFFF723FF08B9FFF7BEFF4E48FFF750
:1034CC0009FFFFF75FFF18B94C48FFF703FFF3E75D
:1034DC004B48FFF7FFFEFFF7E7FD08B94948F4E753
:1034EC004948FFF7F7FEFFF733FC08B94748ECE70C
:1034FC004748FFF7EFFEFFF785FC38B94548FFF763
:10350C00E9FEFFF73BFE18B94348DEE74348F6E710
:10351C004348FFF7DFFEFDF787FD08B94148D4E7C4
:10352C004148FFF7D7FEFDF7B5FC4048FFF7D2FE48
:10353C00FFF7C8F90028C7D03D48FFF7CBFEFDF7D1
:10354C009FFB08B93B48C0E73B48FFF7C3FEFFF7BA
:10355C0087FE002843D13948FFF7BCFEFFF79EF9E0
:10356C0000283ED13648FFF7B5FEFDF769FB002871
:10357C0039D13448FFF7AEFEFEF7C4FBA8BB324886
:10358C00FFF7A8FEFEF7D4F888BB3048FFF7A2FE81
:10359C00FEF79CFF68BB2E48FFF79CFE4FF47A7039
:1035AC00FFF792FA2B4DFFF7E3FD0446FFF7AEFA57
:1035BC00FFF76CFCFFF756FCFFF7BAF8FDF754FB6E
:1035CC00FEF71EFEFFF72EFE4FF4FA7000F014F912
:1035DC00FFF7CEFD011B2846FFF77CFEE3E71E48F4
:1035EC00BAE71E48BFE71E48C4E71E48C8E71E4896
:1035FC00CCE71E48D0E700BFAC590008CA590008F8
:10360C00EE5900080C5A00082F5A00084B5A0008B3
:10361C00725A0008925A0008E75A0008C15A00086A
:10362C000E5B00082E5B0008515B0008715B000804
:10363C00905B0008AE5B0008D25B0008EF5B0008F3
:10364C00385C00088D5C0008E65C00083E5D0008F4
:10365C00975D0008F85D0008185C0008645C0008C1
:10366C00BE5C0008175D00086F5D0008CC5D0008AB
:10367C000E4B82B09A6942F001029A619A6902F08B
:10368C0001020092009ADA6942F08052DA61DB6939
:10369C00074A03F080530193019B536823F0E063C6
:1036AC0043F08063536002B0704700BF00100240CB
:1036BC0000000140FEE7FEE7FEE7FEE7FEE770478D
:1036CC007047704708B500F085F8024A136801335B
:1036DC00136008BDBC0A00200B4A0346116810B5E4
:1036EC0009B90A491160106809490A4C0344091BBD
:1036FC008B4206D900F0A4FB0C2303604FF0FF3083
:10370C0010BD1360FCE700BFC00A0020100C0020A5
:10371C00005000200004000070470000FFF7FCFF81
:10372C000B480C490C4A002302E0D458C450043313
:10373C00C4188C42F9D3094A094C002301E01360E8
:10374C000432A242FBD300F081FBFFF7ABFE7047C3
:10375C0000000020AC000020BC610008AC00002080
:10376C00100C0020FEE7000038B50E4B05461A7809
:10377C004FF47A73B3FBF2F30B4A1068B0FBF3F01F
:10378C0000F08EF8044658B90F2D09D80246294688
:10379C004FF0FF3000F054F82046044B1D6038BD4C
:1037AC000120FCE7540000205000002058000020AD
:1037BC00074A08B51368032043F01003136000F0A8
:1037CC002DF80F20FFF7D0FFFFF752FF002008BDA8
:1037DC0000200240034A044B11681B780B44136011
:1037EC00704700BFC40A002054000020014B186829
:1037FC00704700BFC40A002038B50446FFF7F6FF37
:10380C000546631C1EBF044B1B78E418FFF7EEFF44
:10381C00431BA342FAD338BD5400002007490302CE
:10382C00CA6803F4E06322F4E0621204120C13433E
:10383C0043F0BF6343F40033CB60704700ED00E00E
:10384C00154B30B5DC68C4F30224C4F10703251D05
:10385C00042B28BF0423062D4FF0FF3594BF002402
:10386C00033C05FA03F321EA0303A54022EA05020F
:10387C00A340002843EA0203ACBF00F16040074AB2
:10388C004FEA0313DBB2ABBF00F5614000F00F0051
:10389C0080F80033135430BD00ED00E014ED00E06F
:1038AC000138B0F1807F0BD24FF0E023F021054AB4
:1038BC00586182F823100020072298611A61704722
:1038CC000120704700ED00E08368194214BF01200D
:1038DC00002070472DE9F341054638B30368DB0738
:1038EC0010D42B689F075ED42B68190700F19580C4
:1038FC002B685A0700F1C180EB69002B40F02C813A
:10390C00002029E0904C636803F00C03042B07D0D3
:10391C00636803F00C03082B0AD16368DE0307D538
:10392C0023689C03DDD56B68002BDAD1012013E0F2
:10393C006B68B3F5803F12D1236843F48033236066
:10394C00FFF754FF064623689803CAD4FFF74EFFCF
:10395C00801B6428F7D9032002B0BDE8F0819BB925
:10396C00236823F480332360236823F480232360AB
:10397C00FFF73CFF064623689903B2D5FFF736FFE5
:10398C00801B6428F7D9E6E7B3F5A02F236803D191
:10399C0043F480232360CFE723F480332360236830
:1039AC0023F48023CBE7684C636813F00C0F07D02B
:1039BC00636803F00C03082B10D16368DA030DD491
:1039CC0023689B0702D52B69012BAFD123686A6949
:1039DC0023F0F80343EAC203236085E72A695B4BB3
:1039EC006AB101221A60FFF701FF064623689F07A0
:1039FC00ECD4FFF7FBFE801B0228F7D9ABE71A606B
:103A0C00FFF7F4FE0646236898077FF56DAFFFF7C6
:103A1C00EDFE801B0228F6D99DE7AA694A4E4B4B56
:103A2C00E2B10122C3F88024FFF7E0FE0446736A7A
:103A3C009B070DD54FF4FA52454B1B68B3FBF2F3C1
:103A4C00019300BF019B5A1E0192002BF9D14FE745
:103A5C00FFF7CCFE001B0228E9D97CE7C3F88024D1
:103A6C00FFF7C4FE0446736A9F077FF541AFFFF76B
:103A7C00BDFE001B0228F6D96DE7334CE369D80074
:103A8C0024D40127E36943F08053E361E36903F035
:103A9C0080530093009B2F4E3368D90518D5EB68E3
:103AAC00012B26D1236A43F001032362FFF79EFE0C
:103ABC0041F288380646236A9B073FD5002F3FF416
:103ACC001BAFE36923F08053E36115E70027E2E7BE
:103ADC00336843F480733360FFF788FE80463368A5
:103AEC00DA05DCD4FFF782FEA0EB08006428F6D9D7
:103AFC0031E7ABB9236A41F2883823F00103236222
:103B0C00236A23F004032362FFF770FE0646236A40
:103B1C009807D3D5FFF76AFE801B4045F7D91AE703
:103B2C00052B236A03D143F004032362BAE723F085
:103B3C0001032362236A23F00403B6E7FFF756FE62
:103B4C00801B4045B7D906E70010024000004242F6
:103B5C0050000020007000402A4C626802F00C02F9
:103B6C00082A3ED00022022B274B1A662CD1FFF7D5
:103B7C003DFE06462368990120D42B6AB3F5803F9D
:103B8C0005D16268A96822F400320A436260696A4E
:103B9C0062680B4322F474121343012263601A4BC4
:103BAC001A66FFF723FE054623689A013FF5A8AE77
:103BBC00FFF71CFE401B0228F6D9CCE6FFF716FED9
:103BCC00801B0228D6D9C6E6FFF710FE05462368EF
:103BDC009B017FF595AEFFF709FE401B0228F6D935
:103BEC00B9E6012B3FF4A2AE60682B6A00F4803278
:103BFC009A427FF49BAE6B6A00F47010C01A18BF27
:103C0C000120A9E600100240000042420D4A536810
:103C1C0003F00C01082912D10B48C3F38341DB03D9
:103C2C00405C09D55368094AC3F340435043084AE2
:103C3C00D35CB0FBF3F07047064B58437047034816
:103C4C00704700BF00100240A461000800127A0007
:103C5C00A261000800093D002DE9F0410D46044623
:103C6C0010B90120BDE8F081444A136803F0070342
:103C7C008B4228D321688E0730D4CA0743D43F4ADD
:103C8C00136803F00703AB4265D822683C4D12F071
:103C9C00040F6CD1130706D56B68226923F46053AB
:103CAC0043EAC2036B60FFF7B1FF6B68354AC3F39D
:103CBC000313D35CD840344B1860344B1868FFF7AF
:103CCC0053FD0020CEE7136823F007030B4313606A
:103CDC00136803F007038B42C3D1CBE7284B11F0D9
:103CEC00040F1EBF5A6842F4E0625A60080742BFD4
:103CFC005A6842F460525A605A68A06822F0F00286
:103D0C0002435A60B9E762681D4E012A33681AD122
:103D1C0013F4003FA5D0736841F2883823F00303F5
:103D2C0013437360FFF762FD07467368626803F024
:103D3C000C03B3EB820FA2D0FFF758FDC01B40451C
:103D4C00F3D903208EE7022A02D113F0007FE1E7BA
:103D5C0013F0020FDEE7136823F007032B43136005
:103D6C00136803F00703AB427FF47BAF8DE76B68FE
:103D7C00E16823F4E0630B436B608BE700200240A7
:103D8C0000100240926100085000002058000020F2
:103D9C0030B51446002C05461A469BB005DA8B2329
:103DAC0003604FF0FF301BB030BD4FF40273ADF821
:103DBC000C304FF0000319930CBF234604F1FF3372
:103DCC00029305934FF6FF7300910491ADF80E30FA
:103DDC0069461E9B00F0C0F9431CBCBF8B232B60B3
:103DEC00002CE0D00022009B1A70DCE707B5009392
:103DFC0013460A46014603480068FFF7C9FF03B0A3
:103E0C005DF804FB5C00002003460244934200D1A1
:103E1C00704703F8011BF9E7034610B5013932B1BD
:103E2C0011F8014F013A03F8014B002CF7D1002196
:103E3C001A44934200D110BD03F8011BF9E70000AE
:103E4C00014B1868704700BF5C00002070B500265D
:103E5C000C4D0D4C641BA410A64209D100F076FC4D
:103E6C0000260A4D0A4C641BA410A64205D170BD55
:103E7C0055F8043B98470136EEE755F8043B984754
:103E8C000136F2E7B4610008B4610008B4610008BF
:103E9C00B8610008704770470A44914200F1FF3343
:103EAC0000D1704710B511F8014B914203F8014F46
:103EBC00F9D110BD38B50546002940D051F8043C65
:103ECC000C1F002BB8BFE41800F0DEF81C4A136876
:103EDC0033B9636014602846BDE8384000F0DAB8A6
:103EEC00A34208D9206821188B4201BF19685B686E
:103EFC0009182160EDE71A465B680BB1A342FAD9A9
:103F0C0011685018A0420BD120680144501883420C
:103F1C001160E0D118685B68084410605360DAE700
:103F2C0002D90C232B60D6E7206821188B4201BFE5
:103F3C0019685B680918216063605460CBE738BD71
:103F4C000C0C002070B50F4E0C463168054611B9AB
:103F5C0000F0A8FB30602146284600F0A3FB431C70
:103F6C0003D14FF0FF34204670BDC41C24F0030471
:103F7C00A042F8D0211A284600F094FB0130F2D16F
:103F8C00EFE700BF080C00202DE9F843CD1C25F00D
:103F9C00030508350C2D38BF0C25002D064601DB1A
:103FAC00A94204D90C2333600020BDE8F883DFF864
:103FBC00D48000F069F8D8F800301C4644BB294680
:103FCC003046FFF7BFFF431C044658D1D8F80040D9
:103FDC002746002F43D1002C4BD02368394630465E
:103FEC0004EB030900F05EFB814542D121683046A9
:103FFC006D1A2946FFF7A6FF01303AD023682B44EF
:10400C002360D8F800305A6862BBC8F800700FE023
:10401C002268521B20D40B2A17D96119A3422560A0
:10402C0018BF5960636808BFC8F8001062514B6034
:10403C00304600F02FF804F10B00231D20F0070090
:10404C00C21A1CBF1B1AA350AFE76268A3420CBF75
:10405C00C8F800205A60EBE723466468AEE73C469C
:10406C007F68B6E71A465B68A342FBD10023536016
:10407C00DEE70C233046336000F00CF894E7056063
:10408C00D6E700BF0C0C00200148FFF703BF00BFB0
:10409C00040C00200148FFF7FEBE00BF040C0020FA
:1040AC002DE9F0471F468E688246BE420C4690466C
:1040BC000B682DD8B1F90C2012F4906F26D06569DD
:1040CC00096905EB4505A3EB010905EBD5757B1CCF
:1040DC004B446D109D4238BF1D46530527D52946CC
:1040EC00FFF752FF064660B34A462169FFF7D4FE3C
:1040FC00A38923F4906343F08003A38126614E448B
:10410C0026603E466561A5EB0905A560BE4200D957
:10411C003E4632464146206800F0AAFA0020A368C9
:10412C009B1BA360236833442360BDE8F0872A46B9
:10413C0000F0D6FA06460028E0D150462169FFF778
:10414C00B9FE0C23CAF80030A3894FF0FF3043F0BE
:10415C004003A381E9E700002DE9F04F98468B89D5
:10416C0007461B060D4614469DB010D50B6973B956
:10417C004021FFF709FF2860286130B90C233B6010
:10418C004FF0FF301DB0BDE8F08F40236B61002372
:10419C00099320238DF8293030234FF00109CDF8F5
:1041AC000C80DFF898818DF82A3023469A4613F854
:1041BC00012B0AB1252AF9D1BAEB040B0BD05B46C3
:1041CC00224629463846FFF76BFF013000F0A780E6
:1041DC00099A5A4409929AF80030002B00F09F80FB
:1041EC0000234FF0FF32CDE905230AF1010A0493B5
:1041FC0007938DF853301A935446052214F8011B7B
:10420C004E4800F05FFA049AD8B9D00644BF202378
:10421C008DF85330110744BF2B238DF853309AF887
:10422C0000302A2B15D0544600204FF00A0C079A68
:10423C00214611F8013B303B092B4BD9B0B1079209
:10424C0014E0A0EB080309FA03F31343A24604930A
:10425C00D2E7039B191D1B680391002BBBBF5B426C
:10426C0042F0020207930793B8BF049223782E2BD7
:10427C000AD163782A2B32D1039B02341A1D1B6896
:10428C00039243EAE3730593DFF8B4A0032250468C
:10429C00217800F017FA38B14022049BA0EB0A00F9
:1042AC00824013430134049314F8011B0622254861
:1042BC008DF8281000F006FA002836D0224B1BBBD4
:1042CC00039B073323F0070308330393099B334401
:1042DC0009936AE70C4601200CFB0232A8E7002385
:1042EC004FF00A0C194601340593204610F8012BA7
:1042FC00303A092A03D9002BC6D00591C4E70446ED
:10430C0001230CFB0121F0E703AB00932A4638464E
:10431C000E4B04A9AFF30080421C0646D6D1AB89E4
:10432C005B063FF52DAF09982CE703AB00932A46AB
:10433C003846064B04A900F07DF8EDE7275E00082F
:10434C002D5E0008315E000800000000AD40000842
:10435C002DE9F047164698468A680B690746934242
:10436C00B8BF1346336091F843200C46DDF820901B
:10437C000AB1013333602368990642BF33680233B4
:10438C003360256815F0060506D104F1190AE368B7
:10439C0032689B1AAB422BDC94F843302268003B0A
:1043AC0018BF0123920630D44146384604F143022B
:1043BC00C847013023D02368226903F00603042B7D
:1043CC0014BF002533684FF0000608BFE56804F100
:1043DC001A0408BFED1A54F8123C08BF25EAE5751B
:1043EC009342C4BF9B1AED18B5421AD1002008E0C5
:1043FC000123524641463846C847013003D14FF09D
:10440C00FF30BDE8F0870135C1E73020E11881F8B5
:10441C0043005A1C94F845102244023382F843108E
:10442C00C2E70123224641463846C8470130E6D050
:10443C000136D9E72DE9FF470F7E9146782F80464C
:10444C000C469A460C9E01F1430207D8622F0AD8FB
:10445C00002F00F0D180582F00F0B88004F14206F4
:10446C0084F842703AE0A7F16303152BF6D801A14A
:10447C0051F823F0D9440008ED44000869440008C1
:10448C00694400086944000869440008ED440008C8
:10449C00694400086944000869440008694400083C
:1044AC00EB45000817450008A545000869440008BD
:1044BC00694400080D4600086944000817450008C7
:1044CC006944000869440008AD45000833681A1DAA
:1044DC001B68326004F1420684F8423001239CE0F0
:1044EC0033682068191D3160060601D51D6803E08C
:1044FC004506FBD5B3F90050002D03DA2D236D4290
:10450C0084F843300A23584811E0216833680806C0
:10451C0053F8045B02D4490648BFADB26F2F336029
:10452C0014BF0A2308235048002184F843106668FE
:10453C00002EA66005DB21682E4321F004012160CA
:10454C004BD01646B5FBF3F103FB1157C75D06F8CC
:10455C00017D2F46BB420D46F4D9082B0BD12368A5
:10456C00DF0708D5236961689942DEBF302306F85E
:10457C00013C06F1FF36921B22614B462146404618
:10458C00CDF800A003AAFFF7E3FE01304AD14FF0AB
:10459C00FF3004B0BDE8F087236843F020032360AC
:1045AC007827324884F84570236831681F0651F823
:1045BC00045B02D45F0648BFADB23160D90744BF7B
:1045CC0043F0200323601DB11023ADE72648E9E733
:1045DC00236823F020032360F6E71646BDE7336813
:1045EC002568181D616930602E061B6801D519609D
:1045FC0002E06806FBD51980002316462361BCE750
:10460C00336800211A1D32601E686268304600F063
:10461C0059F808B1801B606063682361002384F83B
:10462C004330AAE73246494640462369D047013019
:10463C00ADD023689B0713D4E068039B9842B8BFA6
:10464C001846A6E70123324649464046D04701307A
:10465C009DD00135E36803995B1AAB42F2DCEBE7C2
:10466C00002504F11906F5E7385E0008495E0008DC
:10467C00884210B501EB020402D98442234607D8C4
:10468C00431EA14208D011F8012B03F8012FF8E7C3
:10469C00014602448A4200D110BD13F8014D02F8C4
:1046AC00014DF7E738B50023054D044608462B604D
:1046BC00FFF712F8431C02D12B6803B1236038BDFD
:1046CC00000C0020034610B5C9B2024493421846B0
:1046DC0001D1002003E0047801338C42F6D110BDE7
:1046EC002DE9F041074614460D4621B91146BDE8A7
:1046FC00F041FFF749BC2AB9FFF7DCFB25462846F9
:10470C00BDE8F08100F01AF88442064602D8B4EBFA
:10471C00500FF4D821463846FFF736FC804608B9CE
:10472C004546ECE7B4422246294628BF3246FFF7FD
:10473C00B3FB29463846FFF7BDFBF1E751F8043CC3
:10474C00181F002BBCBF0B58C0187047F8B500BF22
:10475C00F8BC08BC9E467047F8B500BFF8BC08BC56
:04476C009E467047AE
:104770000001010102010301040105010601070115
:10478000080109010A010B010C01110012001300BC
:104790001400000001000000010000000100000002
:1047A0000100000001000000010000000100000005
:1047B00001000000020000000400000008000000EA
:1047C0001000000040000000800000000001000018
:1047D00000020000010000000100000001000000D4
:1047E00001000000020000000400000008000000BA
:1047F00010000000594553004E4F005261773D258F
:1048000075202050696E563D252E32665620204276
:10481000617474657279563D252E32665620204C9F
:10482000617374526561643D256C75206D73202041
:10483000456C61707365643D256C75206D73202037
:104840004661756C743D25730D0A002D2D2D2D2D9F
:104850002D2D2D2D2D2D2D49443D30583130302D0D
:104860002D2D2D2D2D2D2D2D2D2D2D2D0A4C617302
:10487000745F5258203A2564202043757272656E29
:10488000745F5278203A2564200A566F6C74616711
:1048900065203A25640A43757272656E74203A2564
:1048A000640A52534F43203A25640A2D2D2D2D2D95
:1048B0002D2D2D2D2D2D2D2D2D2D2D2D2D2D2D2D28
:1048C0002D2D2D2D2D2D2D2D2D2D2D2D2D2D2D0A3B
:1048D000002D2D2D2D2D2D2D2D2D2D2D2D49443DF2
:1048E00030583130352D2D2D2D2D2D2D2D2D2D2DBB
:1048F0002D2D0A4C6173745F5258203A2564202094
:1049000043757272656E745F5278203A2564200A8E
:104910004E544331203A25640A4E544332203A25FE
:10492000640A4E544333203A25640A2D2D2D2D2D33
:104930002D2D2D2D2D2D2D2D2D2D2D2D2D2D2D2DA7
:104940002D2D2D2D2D2D2D2D2D2D2D2D2D2D2D0ABA
:10495000002D2D2D2D2D2D2D2D2D2D2D2D49443D71
:1049600030583130362D2D2D2D2D2D2D2D2D2D2D39
:104970002D2D0A4C6173745F5258203A2564202013
:1049800043757272656E745F5278203A2564200A0E
:104990004E544334203A25640A4E544335203A2578
:1049A000640A4E544336203A25640A2D2D2D2D2DB0
:1049B0002D2D2D2D2D2D2D2D2D2D2D2D2D2D2D2D27
:1049C0002D2D2D2D2D2D2D2D2D2D2D2D2D2D2D0A3A
:1049D000002D2D2D2D2D2D2D2D2D2D2D2D49443DF1
:1049E00030583130372D2D2D2D2D2D2D2D2D2D2DB8
:1049F0002D2D0A4C6173745F5258203A2564202093
:104A000043757272656E745F5278203A2564200A8D
:104A100043454C4C31203A25640A43454C4C3220E6
:104A20003A25640A43454C4C33203A25640A2D2D1F
:104A30002D2D2D2D2D2D2D2D2D2D2D2D2D2D2D2DA6
:104A40002D2D2D2D2D2D2D2D2D2D2D2D2D2D2D2D96
:104A50002D2D0A002D2D2D2D2D2D2D2D2D2D2D2DD6
:104A600049443D30583130382D2D2D2D2D2D2D2DF3
:104A70002D2D2D2D2D0A4C6173745F5258203A252F
:104A800064202043757272656E745F5278203A25F7
:104A900064200A43454C4C34203A25640A43454C73
:104AA0004C35203A25640A43454C4C36203A25645F
:104AB0000A2D2D2D2D2D2D2D2D2D2D2D2D2D2D2D49
:104AC0002D2D2D2D2D2D2D2D2D2D2D2D2D2D2D2D16
:104AD0002D2D2D2D2D0A002D2D2D2D2D2D2D2D2D56
:104AE0002D2D2D49443D30583130392D2D2D2D2D72
:104AF0002D2D2D2D2D2D2D2D0A4C6173745F5258A7
:104B0000203A2564202043757272656E745F527876
:104B1000203A2564200A43454C4C37203A25640A44
:104B200043454C4C38203A25640A43454C4C3920C7
:104B30003A25640A2D2D2D2D2D2D2D2D2D2D2D2D8C
:104B40002D2D2D2D2D2D2D2D2D2D2D2D2D2D2D2D95
:104B50002D2D2D2D2D2D2D2D0A002D2D2D2D2D2DD5
:104B60002D2D2D2D2D2D49443D30583130412D2DE9
:104B70002D2D2D2D2D2D2D2D2D2D2D0A4C617374A8
:104B80005F5258203A2564202043757272656E7416
:104B90005F5278203A2564200A43454C4C3130203E
:104BA0003A25640A43454C4C31313A25640A434561
:104BB0004C4C3132203A25640A2D2D2D2D2D2D2DD2
:104BC0002D2D2D2D2D2D2D2D2D2D2D2D2D2D2D2D15
:104BD0002D2D2D2D2D2D2D2D2D2D2D2D2D0A002D55
:104BE0002D2D2D2D2D2D2D2D2D2D2D49443D305884
:104BF0003130422D2D2D2D2D2D2D2D2D2D2D2D2DC9
:104C00000A4C6173745F5258203A25642020437522
:104C10007272656E745F5278203A2564200A4345AB
:104C20004C4C3133203A25640A43454C4C313420F6
:104C30003A25640A43454C4C3135203A25640A2D07
:104C40002D2D2D2D2D2D2D2D2D2D2D2D2D2D2D2D94
:104C50002D2D2D2D2D2D2D2D2D2D2D2D2D2D2D2D84
:104C60002D2D2D0A002D2D2D2D2D2D2D2D2D2D2DC4
:104C70002D49443D30583130432D2D2D2D2D2D2DD6
:104C80002D2D2D2D2D2D0A4C6173745F5258203A15
:104C90002564202043757272656E745F5278203AE5
:104CA0002564200A43454C4C3136203A2564206D5A
:104CB000560A2D2D2D2D2D2D2D2D2D2D2D2D2D2D1E
:104CC0002D2D2D2D2D2D2D2D2D2D2D2D2D2D2D2D14
:104CD0002D2D2D2D2D2D0A005B494E464F5D203A7E
:104CE000424D53204D65737361676573204E6F7439
:104CF000205265636569766564200A000D0A3D3DB2
:104D00003D3D3D3D3D3D3D3D3D3D3D3D3D3D3D3DD3
:104D10003D204D4355204D534720307830313120D0
:104D20003D3D3D3D3D3D3D3D3D3D3D3D3D3D3D3DB3
:104D30003D3D3D0D0A0020204C61737420527820C7
:104D400054696D6520202020202020202020203A3A
:104D500020256C75206D730D0A002020456C617054
:104D60007365642054696D65202020202020202058
:104D70002020203A20256C75206D730D0A0020201C
:104D80004765617220506F736974696F6E202020CF
:104D9000202020202020203A2025750D0A002020E8
:104DA00048696768202F204C6F7720476561722023
:104DB000202020202020203A2025750D0A002020C8
:104DC000526561647920537461746520202020202D
:104DD000202020202020203A2025750D0A002020A8
:104DE0004D435520416C61726D204C6576656C2099
:104DF000202020202020203A2025750D0A00202088
:104E00004D6F746F722053706565642020202020E0
:104E1000202020202020203A2025752052504D0DA2
:104E20000A00202054726F75626C6520436F6465C0
:104E300020202020202020202020203A20307825EB
:104E40003032580D0A0020204C6F7720506F776564
:104E500072204D6F64652020202020202020203AE1
:104E60002025750D0A002020414320566F6C746187
:104E70006765202020202020202020202020203A8C
:104E800020252E316620560D0A0020204143204364
:104E9000757272656E742020202020202020202032
:104EA0002020203A20252E316620410D0A003D3D6C
:104EB0003D3D3D3D3D3D3D3D3D3D3D3D3D3D3D3D22
:104EC0003D3D3D3D3D3D3D3D3D3D3D3D3D3D3D3D12
:104ED0003D3D3D3D3D3D3D3D3D3D3D3D3D3D3D3D02
:104EE0003D3D3D0D0A000D0A3D3D3D3D3D3D3D3DF5
:104EF0003D3D3D3D3D3D3D3D3D3D3D204D435520EE
:104F00004D5347203078303132203D3D3D3D3D3DD1
:104F10003D3D3D3D3D3D3D3D3D3D3D3D3D0D0A0061
:104F20002020444320566F6C746167652020202048
:104F30002020202020202020203A20252E316620ED
:104F4000560D0A00202044432043757272656E742A
:104F5000202020202020202020202020203A202532
:104F60002E316620410D0A002020447269766520AA
:104F70004D6F746F7220537461746520202020205F
:104F8000203A2025750D0A0020204272616B6520B1
:104F9000506564616C20537461746520202020206A
:104FA000203A2025750D0A002020502047656172A7
:104FB0002053746174652020202020202020202090
:104FC000203A2025750D0A0020204163632050659A
:104FD00064616C205369676E616C20566F6C74203D
:104FE000203A20252E326620560D0A0020204861E6
:104FF00072647769726520476561722053746174C9
:1050000065202020203A2025750D0A0020204163CC
:105010006320506564616C204F70656E696E672017
:1050200020202020203A2025752025250D0A000D5E
:105030000A3D3D3D3D3D3D3D3D3D3D3D3D3D3D3DD3
:105040003D3D3D3D204D4355204D53472030783068
:105050003133203D3D3D3D3D3D3D3D3D3D3D3D3DB3
:105060003D3D3D3D3D3D0D0A0020204D6F746F726A
:105070002054656D7020202020202020202020201A
:1050800020203A20256420646567430D0A00202013
:10509000436F6E74726F6C6C65722054656D702016
:1050A000202020202020203A2025642064656743AA
:1050B0000D0A002020546F7271756520526571755C
:1050C0006573742020202020202020203A20252EC7
:1050D0003266204E6D0D0A0020204D6F746F7220D5
:1050E000546F727175652020202020202020202000
:1050F000203A20252E3266204E6D0D0A0020204DCC
:105100006F746F72204F757470757420506F77656F
:105110007220202020203A20257520570D0A000DEE
:105120000A3D3D3D3D3D3D3D3D3D3D3D3D3D3D3DE2
:105130003D3D3D3D204D4355204D53472030783077
:105140003134203D3D3D3D3D3D3D3D3D3D3D3D3DC1
:105150003D3D3D3D3D3D0D0A0020204D4355204342
:105160006F64652020202020202020202020202067
:1051700020203A203078253032580D0A002020486F
:10518000617264776172652056657273696F6E2013
:105190002020202020203A207625750D0A0020208E
:1051A000536F6674776172652056657273696F6EAE
:1051B000202020202020203A207625750D0A00206E
:1051C00020536D616C6C2056657273696F6E202080
:1051D00020202020202020203A207625750D0A004E
:1051E0005B494E464F5D203A4D6F746F72204D659E
:1051F000737361676573204E6F74205265636569D0
:10520000766564200A006D637520696E20656E64A2
:105210000A0D004F4E004F46460052454C45415343
:105220004544004F4B004C4F57004E4F54204445CF
:10523000544543544544004552524F52004865611D
:1052400064204C69676874202020202020202020C2
:10525000202020203A2025730D0A004C656674201A
:10526000496E64696361746F7220202020202020C1
:1052700020203A2025730D0A00526967687420497E
:105280006E64696361746F722020202020202020CA
:105290003A2025730D0A00506564616C20427261EA
:1052A0006B652020202020202020202020203A2054
:1052B00025730D0A0048616E64204272616B65209F
:1052C0002020202020202020202020203A2025736C
:1052D0000D0A004272616B6520466C75696420207E
:1052E000202020202020202020203A2025730D0A75
:1052F0000043686172676572204465746563746910
:105300006F6E2020202020203A2025730D0A004DAA
:1053100050505420202020202020202020202020F9
:105320002020202020203A2025730D0A000D0A2D70
:105330002D2D2D2D2D2D2D2D2D2D2D2D2D2D2D20AA
:1053400056454849434C45202D2D2D2D2D2D2D2DD5
:105350002D2D2D2D2D2D2D2D2D2D2D2D2D2D2D2D7D
:105360002D2D2D2D0D0A00526561647920202020FD
:1053700020202020202020202020202020203A2013
:1053800025730D0A0056656869636C652053706566
:105390006564202020202020202020203A20257510
:1053A000206B6D2F680D0A004F444F2020202020D5
:1053B0002020202020202020202020202020203AD3
:1053C00020256C750D0A0054726970202020202061
:1053D00020202020202020202020202020203A20B3
:1053E000256C750D0A00466F72776172642020206B
:1053F000202020202020202020202020203A20258E
:10540000730D0A0052657665727365202020202096
:1054100020202020202020202020203A2025730D2D
:105420000A004E65757472616C20202020202020B7
:105430002020202020202020203A2025730D0A0043
:1054400045636F2F426F6F7374202020202020202F
:10545000202020202020203A2025730D0A000D0A4C
:105460002D2D2D2D2D2D2D2D2D2D2D2D2D2D2D2D6C
:1054700020424D53202D2D2D2D2D2D2D2D2D2D2D1B
:105480002D2D2D2D2D2D2D2D2D2D2D2D2D2D2D2D4C
:105490002D2D2D2D0D0A00534F432020202020209C
:1054A00020202020202020202020202020203A20E2
:1054B00025752025250D0A005061636B20566F6C01
:1054C0007461676520202020202020202020203AA1
:1054D00020256C752E2530326C7520560D0A005033
:1054E00061636B2043757272656E742020202020EA
:1054F0002020202020203A20256C752E2530326C6B
:105500007520410D0A004176657261676520426130
:1055100074746572792054656D702020203A2025BE
:105520007520430D0A00424D53204661756C74206E
:10553000202020202020202020202020203A20254C
:10554000730D0A00424D53204661756C7420436F01
:10555000756E7420202020202020203A2025750DF3
:105560000A000D0A2D2D2D2D2D2D2D2D2D2D2D2DFE
:105570002D2D2D2D204D4355202D2D2D2D2D2D2D17
:105580002D2D2D2D2D2D2D2D2D2D2D2D2D2D2D2D4B
:105590002D2D2D2D2D2D2D2D0D0A004D4355205037
:1055A00061636B20566F6C7461676520202020203A
:1055B00020203A20256C752E2530326C7520560D32
:1055C0000A004D43552043757272656E7420202089
:1055D0002020202020202020203A20256C752E25F8
:1055E00030326C7520410D0A004D43552050434226
:1055F0002054656D70202020202020202020202095
:105600003A20257520430D0A004D6F746F722054A7
:10561000656D7020202020202020202020202020A8
:105620003A20257520430D0A004D435520466175EB
:105630006C742020202020202020202020202020CA
:105640003A2025730D0A004D4355204661756C7450
:1056500020436F756E7420202020202020203A20C7
:1056600025750D0A000D0A2D2D2D2D2D2D2D2D2DDD
:105670002D2D2D2D2D2D2D203132562053595354A3
:10568000454D202D2D2D2D2D2D2D2D2D2D2D2D2D1F
:105690002D2D2D2D2D2D2D2D2D2D2D0D0A003132A1
:1056A0005620566F6C7461676520202020202020D2
:1056B00020202020203A20256C752E2530326C7554
:1056C00020560D0A00313256204261747465727999
:1056D0002053746174757320202020203A20257394
:1056E0000D0A000D0A2D2D2D2D2D2D2D2D2D2D2D9D
:1056F0002D2D2D2D2D2053595354454D20535441BC
:10570000545553202D2D2D2D2D2D2D2D2D2D2D2D61
:105710002D2D2D2D2D2D2D2D2D0D0A00424D5320DB
:1057200043414E2020202020202020202020202007
:105730002020203A2025730D0A004D435520434177
:105740004E2020202020202020202020202020202B
:10575000203A2025730D0A0047656E6572616C2042
:1057600043414E2020202020202020202020203AAD
:105770002025730D0A005761746368646F672052B7
:10578000657365742020202020202020203A2025C9
:10579000730D0A0053797374656D2048617264203B
:1057A0004661756C742020202020203A2025730D3E
:1057B0000A000D0A2D2D2D2D2D2D2D2D2D2D2D2DAC
:1057C0002D2D2D2D2043454C4C20564F4C544147F8
:1057D0004553202D2D2D2D2D2D2D2D2D2D2D2D2DC8
:1057E0002D2D2D2D2D2D2D0D0A0043656C6C2025A2
:1057F0003032752020202020202020202020202032
:1058000020203A20256C752E2530336C7520560DDE
:105810000A0041444320737461727400454E47414D
:10582000474544004E4F524D414C00494E41435470
:10583000495645000D0A3D3D3D2053696D706C652C
:10584000204465626F756E6365205374617475736F
:10585000203D3D3D0D0A00526567697374657265B0
:10586000642050696E733A2025642F25640D0A0068
:1058700050696E2025643A20506F72743D3078254F
:1058800030386C582C2050696E3D307825303458B3
:105890002C205261773D25642C20537461626C6525
:1058A0003D25642C204465626F756E63696E673DAB
:1058B00025642C2053616D706C65733D25640D0A61
:1058C000003D3D3D3D3D3D3D3D3D3D3D3D3D496E08
:1058D0007075745F4F75747075745F446174613D69
:1058E0003D3D3D3D3D3D3D3D3D3D3D3D3D3D3D3DE8
:1058F0003D3D3D3D0D0A0048616E64204272616B82
:10590000652020202020203A2025730D0A004250D7
:105910005F52454C41592020202020203A202573F9
:105920000D0A004272616B6520466C756964202027
:105930002020203A2025730D0A004D5050545F4915
:105940005020202020202020203A2025730D0A00FE
:1059500048656164204C69676874202020202020FD
:105960003A2025730D0A0043686172676520416320
:105970006B2020202020203A2025730D0A004C6542
:10598000667420496E64696361746F7220203A20E6
:1059900025730D0A00526967687420496E64696353
:1059A00061746F72203A2025730D0A005B494E46E0
:1059B0004F5D20554152543120496E697469616CC4
:1059C000697A65642E2E2E0D0A005B4552524F52A5
:1059D0005D204661696C656420746F20696E69742E
:1059E00069616C697A65204750494F0D0A005B492F
:1059F0004E464F5D20554152543320496E697469BB
:105A0000616C697A65642E2E2E0D0A005B45525238
:105A10004F525D204661696C656420746F20696E29
:105A2000697469616C697A65205350490D0A005B9D
:105A3000494E464F5D2053504920496E6974696153
:105A40006C697A65642E2E2E0D0A005B4552524F0A
:105A5000525D204661696C656420746F20696E69CF
:105A60007469616C697A65204D4350323531350D6A
:105A70000A005B494E464F5D204D4350323531356B
:105A800020496E697469616C697A65642E2E2E0DE9
:105A90000A005B4552524F525D204661696C656455
:105AA00020746F2020436F6E6669677572655F4D65
:105AB0006370323531355F43616E5F4964730D0A3F
:105AC000005B494E464F5D20436F6E666967757295
