:020000040800F2
:1000000000500020A552000825520008295200087F
:100010002D5200083152000835520008000000003F
:10002000000000000000000000000000395200083D
:100030003D520008000000004152000845520008EF
:10004000ED520008ED520008ED520008ED52000894
:10005000ED520008ED520008ED520008ED52000884
:10006000ED520008ED520008ED520008ED52000874
:10007000ED520008ED520008ED520008ED52000864
:10008000ED520008ED520008ED520008ED52000854
:10009000ED520008ED520008ED520008ED52000844
:1000A000ED520008ED520008ED520008ED52000834
:1000B000ED520008ED520008ED520008ED52000824
:1000C000ED520008ED520008ED520008ED52000814
:1000D000ED520008ED520008ED520008ED52000804
:1000E000ED520008ED520008ED520008000000003B
:1000F0000000000000000000000000000000000000
:0C01000000000000000000005FF808F1A3
:10010C0010B5054C237833B9044B13B10448AFF345
:10011C0000800123237010BDC800002000000000E7
:10012C007063000808B5034B1BB103490348AFF3D8
:10013C00008008BD00000000CC00002070630008A7
:10014C00034613F8012B002AFBD1181A013870470B
:10015C004FF0FF0C1CEAD0521EBF1CEAD15392EA9E
:10016C000C0F93EA0C0F6FD01A4480EA010C40027A
:10017C0018BF5FEA41211ED04FF0006343EA5010D4
:10018C0043EA5111A0FB01310CF00040B1F5000F16
:10019C003EBF490041EAD3715B0040EA010062F1C5
:1001AC007F02FD2A1DD8B3F1004F40EBC25008BFAF
:1001BC0020F00100704790F0000F0CF0004C08BFCD
:1001CC0049024CEA502040EA51207F3AC2BFD2F19A
:1001DC00FF0340EAC250704740F400004FF00003A8
:1001EC00013A5DDC12F1190FDCBF00F000407047E2
:1001FC00C2F10002410021FA02F1C2F1200200FA20
:10020C0002FC5FEA310040F1000053EA4C0308BFE6
:10021C0020EADC70704792F0000F00F0004C02BF37
:10022C00400010F4000F013AF9D040EA0C0093F0B2
:10023C00000F01F0004C02BF490011F4000F013B0C
:10024C00F9D041EA0C018FE70CEAD15392EA0C0F7A
:10025C0018BF93EA0C0F0AD030F0004C18BF31F0E5
:10026C00004CD8D180EA010000F00040704790F0BB
:10027C00000F17BF90F0004F084691F0000F91F05F
:10028C00004F14D092EA0C0F01D142020FD193EA25
:10029C000C0F03D14B0218BF084608D180EA0100AD
:1002AC0000F0004040F0FE4040F40000704740F089
:1002BC00FE4040F44000704781F0004102E000BF76
:1002CC0083F0004330B54FEA41044FEA430594EA0A
:1002DC00050F08BF90EA020F1FBF54EA000C55EA45
:1002EC00020C7FEA645C7FEA655C00F0E2804FEA16
:1002FC005454D4EB5555B8BF6D420CDD2C4480EAF8
:10030C00020281EA030382EA000083EA010180EA27
:10031C00020281EA0303362D88BF30BD11F0004F75
:10032C004FEA01314FF4801C4CEA113102D04042AB
:10033C0061EB410113F0004F4FEA03334CEA1333E6
:10034C0002D0524263EB430394EA050F00F0A780FE
:10035C00A4F10104D5F1200E0DDB02FA0EFC22FAF9
:10036C0005F2801841F1000103FA0EF2801843FAED
:10037C0005F359410EE0A5F120050EF1200E012ADE
:10038C0003FA0EFC28BF4CF0020C43FA05F3C0181C
:10039C0051EBE37101F0004507D54FF0000EDCF195
:1003AC00000C7EEB00006EEB0101B1F5801F1BD33E
:1003BC00B1F5001F0CD349085FEA30004FEA3C0C42
:1003CC0004F101044FEA445212F5800F80F09A8038
:1003DC00BCF1004F08BF5FEA500C50F1000041EB3C
:1003EC00045141EA050130BD5FEA4C0C404141EB40
:1003FC000101013C28BFB1F5801FE9D291F0000F3B
:10040C0004BF01460020B1FA81F308BF2033A3F1E9
:10041C000B03B3F120020CDA0C3208DD02F1140CE0
:10042C00C2F10C0201FA0CF021FA02F10CE002F11B
:10043C001402D8BFC2F1200C01FA02F120FA0CFC14
:10044C00DCBF41EA0C019040E41AA2BF01EB04515D
:10045C00294330BD6FEA04041F3C1CDA0C340EDC5B
:10046C0004F11404C4F1200220FA04F001FA02F39E
:10047C0040EA030021FA04F345EA030130BDC4F15C
:10048C000C04C4F1200220FA02F001FA04F340EA51
:10049C000300294630BD21FA04F0294630BD94F002
:1004AC00000F83F4801306BF81F480110134013DE9
:1004BC004EE77FEA645C18BF7FEA655C29D094EA5A
:1004CC00050F08BF90EA020F05D054EA000C04BFD8
:1004DC001946104630BD91EA030F1EBF00210020C3
:1004EC0030BD5FEA545C05D14000494128BF41F062
:1004FC00004130BD14F580043CBF01F5801130BDC6
:10050C0001F0004545F0FE4141F470014FF0000050
:10051C0030BD7FEA645C1ABF194610467FEA655C01
:10052C001CBF0B46024650EA013406BF52EA0335A3
:10053C0091EA030F41F4002130BD00BF90F0000F91
:10054C0004BF0021704730B54FF4806404F13204CD
:10055C004FF000054FF0000150E700BF90F0000F86
:10056C0004BF0021704730B54FF4806404F13204AD
:10057C0010F0004548BF40424FF000013EE700BF7D
:10058C0042004FEAE2014FEA31014FEA02701FBF0D
:10059C0012F07F4393F07F4F81F06051704732F03F
:1005AC007F4208BF704793F07F4F04BF41F4002196
:1005BC00704730B54FF4607401F0004521F00041F4
:1005CC001CE700BF50EA010208BF704730B54FF07E
:1005DC0000050AE050EA010208BF704730B511F07F
:1005EC00004502D5404261EB41014FF4806404F1B7
:1005FC0032045FEA915C3FF4D8AE4FF003025FEA3D
:10060C00DC0C18BF03325FEADC0C18BF033202EBC0
:10061C00DC02C2F1200300FA03FC20FA02F001FA1A
:10062C0003FE40EA0E0021FA02F11444BDE600BFBD
:10063C0080F0004002E000BF81F0004142001FBF8B
:10064C005FEA410392EA030F7FEA226C7FEA236C94
:10065C006AD04FEA1262D2EB1363C1BFD218414089
:10066C0048404140B8BF5B42192B88BF704710F01F
:10067C00004F40F4000020F07F4018BF404211F0C2
:10068C00004F41F4000121F07F4118BF494292EA2A
:10069C00030F3FD0A2F1010241FA03FC10EB0C0056
:1006AC00C3F1200301FA03F100F0004302D54942E3
:1006BC0060EB4000B0F5000F13D3B0F1807F06D390
:1006CC0040084FEA310102F10102FE2A51D2B1F188
:1006DC00004F40EBC25008BF20F0010040EA03007D
:1006EC007047490040EB0000013A28BFB0F5000FFD
:1006FC00EDD2B0FA80FCACF1080CB2EB0C0200FAB3
:10070C000CF0AABF00EBC25052421843BCBFD04001
:10071C001843704792F0000F81F4000106BF80F47B
:10072C0000000132013BB5E74FEA41037FEA226C3E
:10073C0018BF7FEA236C21D092EA030F04D092F009
:10074C00000F08BF0846704790EA010F1CBF00203D
:10075C00704712F07F4F04D1400028BF40F000409A
:10076C00704712F100723CBF00F50000704700F0BA
:10077C00004343F0FE4040F4000070477FEA2262E1
:10078C0016BF08467FEA23630146420206BF5FEAB2
:10079C00412390EA010F40F4800070474FF00003B2
:1007AC0004E000BF10F0004348BF40425FEA000C79
:1007BC0008BF704743F0964301464FF000001CE021
:1007CC0050EA010208BF70474FF000030AE000BF77
:1007DC0050EA010208BF704711F0004302D54042B5
:1007EC0061EB41015FEA010C02BF84460146002027
:1007FC0043F0B64308BFA3F18053A3F50003BCFA42
:10080C008CF2083AA3EBC25310DB01FA02FC6344EE
:10081C0000FA02FCC2F12002BCF1004F20FA02F2F5
:10082C0043EB020008BF20F00100704702F12002E8
:10083C0001FA02FCC2F1200250EA4C0021FA02F249
:10084C0043EB020008BF20EADC7070474FF0FF3C1E
:10085C0006E000BF4FF0010C02E000BF4FF0010CAE
:10086C004DF804CD4FEA40024FEA41037FEA226C77
:10087C0018BF7FEA236C11D001B052EA530C18BF99
:10088C0090EA010F58BFB2EB030088BFC81738BFFE
:10089C006FEAE17018BF40F0010070477FEA226CEC
:1008AC0002D15FEA402C05D17FEA236CE4D15FEAE8
:1008BC00412CE1D05DF8040B704700BF844608461C
:1008CC006146FFE70FB5FFF7C9FF002848BF10F1DD
:1008DC00000F0FBD4DF808EDFFF7F4FF0CBF012022
:1008EC0000205DF808FB00BF4DF808EDFFF7EAFFAC
:1008FC0034BF012000205DF808FB00BF4DF808ED67
:10090C00FFF7E0FF94BF012000205DF808FB00BF5B
:10091C004DF808EDFFF7D2FF94BF012000205DF8E1
:10092C0008FB00BF4DF808EDFFF7C8FF34BF0120EE
:10093C0000205DF808FB00BF4FEA4002B2F1FE4F09
:10094C000FD34FF09E03B3EB12620DD94FEA002385
:10095C0043F0004310F0004F23FA02F018BF40425E
:10096C0070474FF00000704712F1610F01D1420245
:10097C0005D110F0004008BF6FF0004070474FF0F9
:10098C000000704742000ED2B2F1FE4F0BD34FF075
:10099C009E03B3EB126209D44FEA002343F00043E9
:1009AC0023FA02F070474FF00000704712F1610F0C
:1009BC0001D1420202D14FF0FF3070474FF00000DE
:1009CC00704700BF2DE9F04387B004F009F9134CD0
:1009DC0005466068FFF7D4FD0646A0680F46FFF792
:1009EC00CFFDD4F80C80B4F81490CDE90001A5EB40
:1009FC000805039594F816C0094D0A4C3246BCF113
:100A0C00000F18BF2C463B4649460748CDF80880D6
:100A1C00049404F0D7F907B0BDE8F083E800002097
:100A2C00F0630008F4630008FC630008F8B50021CB
:100A3C0010240820244BDA6A22F47002DA6258631C
:100A4C001A6922F0E0621A611A6942F0E0621A61D6
:100A5C001A6822F002021A609A6842F480029A60C4
:100A6C001A689207FCD5DA6C013CC2F30B0214F045
:100A7C00FF041144DFD1C1F30F152846FFF78EFE9A
:100A8C001249FFF765FB4FF07A510746FFF760FB01
:100A9C00064604F0A5F84CF2E4120D4B95425F604B
:100AAC009D821E609E60D86008D81A694AB1801A6F
:100ABC00B0F57A7F01D301229A75F8BD1C619C7543
:100ACC00F8BD1861F8BD00BF002401406840533ADE
:100ADC00E800002010B5084C2368002B01DB012036
:100AEC0010BD064940F6B83004F09AF80346C043EE
:100AFC002360C00F10BD00BF00000020D10900080A
:100B0C00FFF794BF70B500240022394B82B0C3E9C3
:100B1C00034438491A605A609A609C829C758B69B0
:100B2C00354843F0080304808B6103F031FF334BED
:100B3C00984204D9324B98424CD84FF4804400264A
:100B4C002C4B304D5A68304922F440425A605A6856
:100B5C0014435C602A6822F00F022A609A6942F4FE
:100B6C0000729A618B6843F001038B600196019BC4
:100B7C00B3F57A7F07D200BF019B01330193019B30
:100B8C00B3F57A7FF7D3204A936843F00803936058
:100B9C0093681907FCD491681B4B41F004019160D8
:100BAC009A685207FCD401205A6822F480725A6069
:100BBC009A6822F002029A609A6822F460229A6083
:100BCC009A6842F460229A609A6842F480129A60A1
:100BDC0002B070BD0D4B984205D90D4B984205D80B
:100BEC004FF44044ABE74FF40044A8E72046EFE74E
:100BFC00E800002000100240E4000020013FAB019F
:100C0C00037E5603000C01400024014005BD010584
:100C1C0007FCAC0610B40424FD4B0022D3F80012E0
:100C2C004FF0005041F00101C3F80012D3F81C1230
:100C3C0021F00201C3F81C12D3F80C1241F002018E
:100C4C00C3F80C12D3F8041221F00201C3F80412F9
:100C5C00D3F8141241F00201C3F81412C3F848423D
:100C6C00C3F84C42D3F81C124FF0015441F002016E
:100C7C00C3F81C12D3F81C1221F00101C3F81C128A
:100C8C00D3F80C1241F00101C3F80C12D3F8041282
:100C9C0041F00101C3F80412D3F8141221F0010140
:100CAC00C3F81412C3F84002C3F84422D3F81C1240
:100CBC0000F5001041F00101C3F81C12D3F81C120E
:100CCC0021F00201C3F81C12D3F80C1241F00201FE
:100CDC00C3F80C12D3F8041241F00201C3F8041249
:100CEC00D3F8141221F00201C3F81412C3F848020D
:100CFC00C3F84C22D3F81C124FF0025041F0020101
:100D0C00C3F81C12D3F81C1221F00401C3F81C12F6
:100D1C00D3F80C1241F00401C3F80C12D3F80412EE
:100D2C0041F00401C3F80412D3F8141221F00401A9
:100D3C00C3F81412C3F85042C3F85422D3F81C124F
:100D4C0004F5001441F00401C3F81C12D3F81C1272
:100D5C0021F00801C3F81C12D3F80C1241F0080161
:100D6C00C3F80C12D3F8041241F00801C3F80412B2
:100D7C00D3F8141221F00801C3F81412C3F8584226
:100D8C00C3F85C22D3F81C124FF0035441F0080155
:100D9C00C3F81C12D3F81C1221F01001C3F81C125A
:100DAC00D3F80C1241F01001C3F80C12D3F8041252
:100DBC0041F01001C3F80412D3F8141221F0100101
:100DCC00C3F81412C3F86002C3F86422D3F81C12DF
:100DDC0000F5001041F01001C3F81C12D3F81C12DE
:100DEC0021F02001C3F81C12D3F80C1241F02001A1
:100DFC00C3F80C12D3F8041241F02001C3F804120A
:100E0C00D3F8141221F02001C3F81412C3F86802AD
:100E1C00C3F86C22D3F81C124FF0045041F020019F
:100E2C00C3F81C12D3F81C1221F04001C3F81C1299
:100E3C00D3F80C1241F04001C3F80C12D3F8041291
:100E4C0041F04001C3F80412D3F8141221F0400110
:100E5C00C3F81412C3F87042C3F87422D3F81C12EE
:100E6C0004F5001441F04001C3F81C12D3F81C1215
:100E7C0021F08001C3F81C12D3F80C1241F0800150
:100E8C00C3F80C12D3F8041241F08001C3F8041219
:100E9C00D3F8141221F08001C3F81412C3F878426D
:100EAC00C3F87C22D3F81C124FF0055441F080019A
:100EBC00C3F81C12D3F81C1221F48071C3F81C1255
:100ECC00D3F80C1241F48071C3F80C12D3F804124D
:100EDC0041F48071C3F80412D3F8141221F4807118
:100EEC00C3F81412C3F88002C3F88422D3F81C127E
:100EFC0000F5001041F48071C3F81C12D3F81C12D9
:100F0C0021F40071C3F81C12D3F80C1241F40071D7
:100F1C00C3F80C12D3F8041241F40071C3F8041294
:100F2C00D3F8141221F40071C3F81412C3F8880218
:100F3C00C3F88C22D3F81C124FF0065041F4007108
:100F4C00C3F81C12D3F81C1221F48061C3F81C12D4
:100F5C00D3F80C1241F48061C3F80C12D3F80412CC
:100F6C0041F48061C3F80412D3F8141221F48061A7
:100F7C00C3F81412C3F89042C3F89422D3F81C128D
:100F8C0004F5001441F48061C3F81C12D3F81C1250
:100F9C0021F40061C3F81C12D3F80C1241F4006167
:100FAC00C3F80C12D3F8041241F40061C3F8041214
:100FBC00D3F8141221F40061C3F81412C3F8984248
:100FCC00C3F89C22D3F81C1241F40061C3F81C1224
:100FDC00D3F81C1221F48051C3F81C12D3F80C1254
:100FEC0010BC41F48051C3F80C12D3F8041241F434
:100FFC008051C3F80412D3F8141221F48051C3F8B1
:10100C001412C3F8A002C3F8A422D3F81C2201E0E6
:10101C000064004042F48052C3F81C22D3F8002232
:10102C0022F00102C3F80022704700BF5F4B9B689F
:10103C0059014FD41A0105D413F0805340F09F800E
:10104C0018467047012270B400251201417B02F151
:10105C00804303F5C8430468C3F8805189BBD3F8B7
:10106C00801141EA4451C3F880110025D3F8841152
:10107C00867B21F00F01C3F88411D3F88411047915
:10108C002143C3F8841102F1804101F5C841C1F834
:10109C008851C1F88C5166B95CB1D1F88861457939
:1010AC00012C45EA0605C1F8885104F1FF35EDB273
:1010BC0012D170BC0120D3F880210243C3F88021E7
:1010CC007047D3F8801141EAC40141F00401C3F820
:1010DC008011CAE70022B6E7D1F8886190F806C003
:1010EC00012D46EA0C26C1F888614AD802218C42AF
:1010FC00DFD902F1804202F5C84245186D79D2F869
:10110C008C613543C2F88C514D1CAC42D1D9461977
:10111C007679CD1EED0006FA05F5D2F88C613543D3
:10112C00C2F88C518D1CAC42C3D9461976798D1EF0
:10113C00ED0006FA05F5D2F88C613543C2F88C51F6
:10114C00CD1CAC42B5D9461976794D1EED0006FA88
:10115C0005F5D2F88C613543C2F88C510D1DAC42AB
:10116C00A7D928444079CD00A840D2F88C5105313C
:10117C0028438C42C2F88C019BD9D2F88C310222C4
:10118C0061E7D1F8886190F807C0022D46EA0C4659
:10119C00C1F8886101D80321A9E7D1F88851067AF2
:1011AC0045EA0665C1F888510421A0E700640040B7
:1011BC00544B70B5DA68920732D11B6913F00303F4
:1011CC0001D1184670BD0123427B1C464D496ABBB8
:1011DC0003F11B0212018958490D1B0103F18042D6
:1011EC0002F5C8420160D2F8B011D2F8B451C1F383
:1011FC00400205F00F018273017151B103F180427D
:10120C0002F5C842D2F8B8614D1E0129EDB2467103
:10121C0019D18CB13B4A136943F02003136110E0E0
:10122C000023427B1C463749002AD1D003F11B0214
:10123C0012018958C908D0E7324AD36843F0200319
:10124C00D360012070BDD2F8B861012D4FEA16268B
:10125C00867148D802229142DBD903F1804303F511
:10126C00C843D3F8BC6102F1010C851861456E715D
:10127C00CFD9D3F8BC51A2F1030E4FEACE0E844461
:10128C0025FA0EFE8CF805E002F1020C6145C0D97E
:10129C00D3F8BC51A2F1020E4FEACE0E844425FACB
:1012AC000EF58CF8055002F1030C6145B1D9D3F859
:1012BC00BC5102F1FF3E4FEACE0E844425FA0EF5E6
:1012CC008CF8055002F1040C6145A2D9D3F8BC513D
:1012DC0060444FEAC20C053225FA0CF59142457177
:1012EC0097D9D3F8BC31D2F8B861022D4FEA164623
:1012FC00C67101D80322AEE7D2F8B821120E0272E1
:10130C000422A8E700640040564910B58869564A83
:10131C0040F009008861C869544B40F00070C86106
:10132C005168534C21F4C0415160516841F48041E3
:10133C0051605A6822F00F025A605A6842F0080253
:10134C005A60DA6842F48072DA605A6822F0F0026D
:10135C005A605A6842F030025A605A6842F0800271
:10136C005A60236823F002032360236843F00103CF
:10137C0023606368DB07FCD5236823F0FC03236040
:10138C0003F0AAFA3B4B984267D03B4B984260D192
:10139C003A4BE361364B1A6822F001021A605A6824
:1013AC0012F00102FBD10421D3F800422D4844F085
:1013BC000104C3F80042D3F81C4224F00104C3F822
:1013CC001C42D3F80C4244F00104C3F80C42D3F88D
:1013DC00044224F00104C3F80442D3F8144224F06C
:1013EC000104C3F81442C3F84022C3F84412D3F8E2
:1013FC001C2242F00102C3F81C22D3F81C2222F05A
:10140C000202C3F81C22D3F80C2242F00202C3F8E9
:10141C000C22D3F8042222F00202C3F80422D3F8DF
:10142C00142242F00202C3F81422C3F84812C3F883
:10143C004C12D3F81C2242F00202C3F81C22D3F83F
:10144C00002222F00102C3F80022C069C0F3406000
:10145C0010BD00231846E36110BD4FF4E013E361A7
:10146C0098E700BF0010024000000140000C014052
:10147C000064004000127A000051250203001E0097
:10148C002DE9F041694C82B094F85C31002B00F0EE
:10149C00C7802068FFF750FAD4E903870546A06897
:1014AC00FFF74AFA01906068FFF746FA06462B46AA
:1014BC004246394600965E4803F084FCE06EFFF726
:1014CC003BFAD4E91E870546606FFFF735FA0190A9
:1014DC00206FFFF731FA06462B46424639460096F6
:1014EC00544803F06FFCD4F88000FFF725FAD4E9D8
:1014FC0023870546D4F88800FFF71EFA0190D4F82C
:10150C008400FFF719FA06462B46424639460096E8
:10151C00494803F057FCD4F89400FFF70DFAD4E9CE
:10152C0028870546D4F89C00FFF706FA0190D4F8FA
:10153C009800FFF701FA06462B46424639460096BC
:10154C003E4803F03FFCD4F8A800FFF7F5F9D4E9C6
:10155C002D870546D4F8B000FFF7EEF90190D4F8CA
:10156C00AC00FFF7E9F906462B4642463946009691
:10157C00334803F027FCD4F8BC00FFF7DDF9D4E9BD
:10158C0032870546D4F8C400FFF7D6F90190D4F899
:10159C00C000FFF7D1F906462B4642463946009665
:1015AC00284803F00FFCD4F8D000FFF7C5F9D4E9B4
:1015BC0037870546D4F8D800FFF7BEF90190D4F868
:1015CC00D400FFF7B9F906462B4642463946009639
:1015DC001D4803F0F7FBD4F8E400FFF7ADF9D4E9AC
:1015EC003C870546D4F8EC00FFF7A6F90190D4F837
:1015FC00E800FFF7A1F906462B4642463946134848
:10160C00009603F0DFFBD4F8F800FFF795F9D4E966
:10161C00412103460E4802B0BDE8F04103F0D2BBB5
:10162C000C4802B0BDE8F04103F0CCBB0C0100202B
:10163C004C640008D464000854650008D4650008A4
:10164C0058660008DC66000860670008E867000858
:10165C0070680008E4680008036870B5A3F580732F
:10166C0004460C2B00F29982DFE813F026004E00A2
:10167C006A0001011A012A016501B401DF010D02A2
:10168C003B0269020D000123CA4DD5F8042185F8EF
:10169C005C31C5F8082103F067FEC5F80401B4F805
:1016AC00050040BA80B2FFF77DF8C349FEF750FD44
:1016BC00C5F8F800012070BD0123BE4DEA6885F81D
:1016CC005C312A6103F050FEE860B4F8050040BAC2
:1016DC0080B2FFF767F8B949FEF73AFDB4F8073066
:1016EC00286058BA80B2FFF75DF8B449FEF730FDB8
:1016FC00B4F80930686058BA80B2FFF753F8AF49B4
:10170C00FEF726FDA860D5E70123AA4DEA6985F806
:10171C005C312A6203F028FEE861B4F8050040BA97
:10172C0080B2FFF73FF8A549FEF712FD6861B4F8E7
:10173C0007305BBA2B83B4F809305BBA6B83B9E71B
:10174C0001239C4DAA6C85F85C31EA6403F00CFE15
:10175C00A864B4F8053000225BBA03F0010185F8E7
:10176C002410C3F3400185F82510C3F3800185F8DC
:10177C002610C3F3C00185F82710C3F3001185F8B8
:10178C002810C3F3401185F82910C3F3801185F894
:10179C002A10C3F3C01185F82B10C3F3002185F870
:1017AC002C10C3F3402185F82D10C3F3802185F84C
:1017BC002E10C3F3C02185F82F10C3F3003185F828
:1017CC003010C3F3403185F83110C3F38031C3F3CB
:1017DC00C03385F8321085F83330B4F807305BBA73
:1017EC0003F0010185F83410C3F3400185F835107E
:1017FC00C3F3800185F83610C3F3C00185F83710A8
:10180C00C3F3001185F83810C3F3401185F8391073
:10181C00C3F3801185F83A10C3F3C01185F83B105F
:10182C00C3F3002185F83C10C3F3402185F83D102B
:10183C00C3F3802185F83E10C3F3C02185F83F1017
:10184C00C3F3003185F84010C3F3403185F84110E3
:10185C00C3F38031C3F3C03385F8421085F84330AD
:10186C0085F84420B4F80930A5F8463022E7012366
:10187C00504DAA6D85F85C31EA6503F075FDA865DD
:10188C00B4F805305BBAA5F85030B4F807305BBA41
:10189C00A5F85230B4F809305BBAA5F8543009E712
:1018AC000123444D6A6E85F85C31AA6603F05CFD39
:1018BC006866637985F86030A37985F86130F9E65C
:1018CC0001233C4D3E4EAA6F85F85C31EA6703F06C
:1018DC004BFDA867B4F8050040BA80B2FEF762FF72
:1018EC003849FEF735FC3849FEF7A6FEE866FFF7E7
:1018FC0049F83070B4F8070040BA80B2FEF752FFD6
:10190C003049FEF725FC3049FEF796FE2867FFF7B5
:10191C0039F8B4F80930707058BA80B2FEF742FF4B
:10192C002849FEF715FC2849FEF786FE6867FFF785
:10193C0029F8B070BEE601231E4D214ED5F88C203F
:10194C0085F85C31C5F8902003F00EFDC5F88C00CD
:10195C00B4F8050040BA80B2FEF724FF1949FEF72F
:10196C00F7FB1949FEF768FEC5F88000FFF70AF887
:10197C00B4F80730C4B258BA80B2F470FEF712FF54
:10198C001049FEF7E5FB1049FEF756FEC5F884003A
:10199C00FEF7F8FF75783378C0B22B44B5780B4A54
:1019AC002B4423440344A2FB032309499B083071B5
:1019BC000B707FE60C0100206F12833A0AD7233C90
:1019CC0004010020CDCCCC3D33938843CDCCCCCC82
:1019DC0000010020724DD5F8A030C5F8A43003F0FA
:1019EC00C3FCC5F8A000B4F8050040BA80B2FEF7FD
:1019FC00D9FE6C49FEF7ACFBC5F89400B4F80700AF
:101A0C0040BA80B2FEF7CEFE6649FEF7A1FBC5F8E0
:101A1C009800B4F8090040BA80B2FEF7C3FE6149E1
:101A2C00FEF796FBC5F89C0044E601235C4DD5F807
:101A3C00B42085F85C31C5F8B82003F095FCC5F8E6
:101A4C00B400B4F8050040BA80B2FEF7ABFE5549BD
:101A5C00FEF77EFBC5F8A800B4F8070040BA80B2C8
:101A6C00FEF7A0FE4F49FEF773FBC5F8AC00B4F8C7
:101A7C00090040BA80B2FEF795FE4A49FEF768FBB2
:101A8C00C5F8B00016E60123454DD5F8C82085F8F9
:101A9C005C31C5F8CC2003F067FCC5F8C800B4F87D
:101AAC00050040BA80B2FEF77DFE3E49FEF750FBC2
:101ABC00C5F8BC00B4F8070040BA80B2FEF772FE5D
:101ACC003849FEF745FBC5F8C000B4F8090040BA28
:101ADC0080B2FEF767FE3349FEF73AFBC5F8C40047
:101AEC00E8E501232E4DD5F8DC2085F85C31C5F8EE
:101AFC00E02003F039FCC5F8DC00B4F8050040BA6E
:101B0C0080B2FEF74FFE2749FEF722FBC5F8D00046
:101B1C00B4F8070040BA80B2FEF744FE2149FEF744
:101B2C0017FBC5F8D400B4F8090040BA80B2FEF730
:101B3C0039FE1C49FEF70CFBC5F8D800BAE50123A9
:101B4C00174DD5F8F02085F85C31C5F8F42003F07A
:101B5C000BFCC5F8F000B4F8050040BA80B2FEF7F3
:101B6C0021FE1049FEF7F4FAC5F8E400B4F80700BA
:101B7C0040BA80B2FEF716FE0A49FEF7E9FAC5F83C
:101B8C00E800B4F8090040BA80B2FEF70BFE054934
:101B9C00FEF7DEFAC5F8EC008CE5002070BD00BF46
:101BAC000C0100206F12833A10B5084C2368002BEF
:101BBC0001DB012010BD064940F6B83003F030F8C7
:101BCC000346C0432360C00F10BD00BF04000020BB
:101BDC008D14000838B5724C94F84830002B00F086
:101BEC00DA8002F0FDFF054623696E48ED1A03F01A
:101BFC00E9F821696C4803F0E5F829466B4803F0D5
:101C0C00E1F821786A4803F0DDF86178694803F05F
:101C1C00D9F8A178684803F0D5F8E178674803F063
:101C2C00D1F8A188664803F0CDF8A179654803F096
:101C3C00C9F8E179644803F0C5F8A068FEF7A0FC88
:101C4C0002460B46614803F0BDF8E068FEF798FCCD
:101C5C0002460B465E4803F0B5F85E4803F0B2F856
:101C6C0002F0BEFF0546A36A5B48ED1A03F0AAF822
:101C7C00A16A4D4803F0A6F829464C4803F0A2F897
:101C8C006069FEF77DFC02460B46544803F09AF857
:101C9C00A069FEF775FC02460B46514803F092F81A
:101CAC00217F504803F08EF8617F4F4803F08AF88B
:101CBC00A17F4E4803F086F8206AFEF761FC0246CD
:101CCC000B464B4803F07EF894F82410494803F077
:101CDC0079F894F82610484803F074F83D4803F05E
:101CEC0071F802F07DFF0546E36B4448ED1A03F0F2
:101CFC0069F8E16B2C4803F065F829462B4803F092
:101D0C0061F8B4F92C103E4803F05CF8B4F92E10CD
:101D1C003C4803F057F8206BFEF732FC02460B46AA
:101D2C00394803F04FF8606BFEF72AFC02460B466D
:101D3C00364803F047F8218F354803F043F825481F
:101D4C0003F040F802F04CFF0546636C3148ED1A85
:101D5C0003F038F8616C144803F034F82946134842
:101D6C0003F030F894F840102B4803F02BF894F85B
:101D7C0041102A4803F026F894F84210284803F042
:101D8C0021F8284894F8431003F01CF8BDE83840BB
:101D9C00104803F017B82448BDE8384003F012B8D7
:101DAC006C02002008690008446900086869000892
:101DBC008C690008AC690008CC690008EC69000863
:101DCC000C6A0008306A0008546A0008746A00083B
:101DDC00986A0008BC6A0008F46A0008306B0008B6
:101DEC00546B0008786B0008986B0008B86B0008FF
:101DFC00D86B0008FC6B00081C6C0008406C0008D9
:101E0C007C6C0008A46C0008CC6C0008F46C000816
:101E1C001C6D0008406D00087C6D0008A06D00086A
:101E2C00C46D0008E86D00080C6E00082DE9F8433D
:101E3C0003680446113B032B00F2AA80DFE813F081
:101E4C009601BF000400AA000123C44D002685F8AA
:101E5C00483002F0C5FEE86394F90530283BAB85A9
:101E6C0094F90630283BEB85207AE37900F00101E8
:101E7C0003F0010242EA0121C3F34002921842EA44
:101E8C00010203F0FC0343EA0203C0F3400243EAFD
:101E9C004223C0F3800243EA8223C0F3C00243EA28
:101EAC00C223C0F3001243EA0233C0F3401243EAE8
:101EBC004233C0F3801243EA82334FEAD01046EB30
:101ECC00060143EAC030FEF77BFC4FF07A51FEF777
:101EDC003FF9A349FEF7B0FB2863A07A637A00F0C0
:101EEC00010103F0010242EA0121C3F340029218FE
:101EFC0042EA010203F0FC0343EA0203C0F340028E
:101F0C0043EA4223C0F3800243EA8223C0F3C002B7
:101F1C0043EAC223C0F3001243EA0233C0F3401277
:101F2C0043EA4233C0F3801243EA82334FEAD010C3
:101F3C0046EB060143EAC030FEF742FC4FF07A5103
:101F4C00FEF706F98649FEF777FB6863227BE37A96
:101F5C0002F0010143EA0123C2F3400143EA4123A9
:101F6C00C2F3800143EA8123C2F3C00143EAC123D7
:101F7C00C2F3001143EA0133C2F3401143EA413387
:101F8C00C2F3801143EA8133D20943EAC2332B876F
:101F9C00BDE8F8830123714D85F8483002F020FE2E
:101FAC006864637985F84030A37985F84130E3792A
:101FBC0085F84230637A85F84330BDE8F883012315
:101FCC00664D002685F8483002F00AFEA862A0791A
:101FDC00637900F0010103F0010242EA0121C3F32D
:101FEC004002921842EA010203F0FC0343EA0203A6
:101FFC00C0F3400243EA4223C0F3800243EA822347
:10200C00C0F3C00243EAC223C0F3001243EA023316
:10201C00C0F3401243EA4233C0F3801243EA8233E6
:10202C004FEAD01046EB060143EAC030FEF7C8FB7E
:10203C004C49FEF78DF86861207AE37900F00101D4
:10204C0003F0010242EA0121C3F34002921842EA72
:10205C00010203F0FC0343EA0203C0F3400243EA2B
:10206C004223C0F3800243EA8223C0F3C00243EA56
:10207C00C223C0F3001243EA0233C0F3401243EA16
:10208C004233C0F3801243EA82334FEAD01046EB5E
:10209C00060143EAC030FEF793FB3249FEF758F8CD
:1020AC00A861637A03F00F032B77627AC2F34013B3
:1020BC00C2F38011DB1843EA8103C2F300110B4316
:1020CC00D20943EAC2036B77A37A03F00103AB771F
:1020DC00A37AC3F34003EB77A27AE07AC2F38003CE
:1020EC0000F0010143EA8113C2F3C001491843EA2D
:1020FC00010346EB0601C2F3001643EA8603C2F362
:10210C00401643EAC603C2F3801643EA0613D2090B
:10211C0043EA4213C0F3400243EAC213C0F3800007
:10212C0043EA0020FEF74CFB0F49FEF711F828623A
:10213C00E37AC3F3C10385F82430E27AC2F3801347
:10214C00D109DB1843EA8103C2F34012134385F82B
:10215C002530237B85F82630BDE8F8836C020020FF
:10216C000080FF43CDCCCC3D0AD7233C0123564DF8
:10217C0085F8483002F034FD4FF0000E77462861A8
:10218C00E279A17902F0010094F80BC0A37A41EA3C
:10219C000021C2F34000667941EA4021C2F3800875
:1021AC0041EA88280CF0010903F00101C6F3801004
:1021BC0041EA0929C3F340010018491849EA010111
:1021CC0003F0FC0343EA0103C2F3C00148EAC12156
:1021DC0006F0030868F3070EC2F3001841EA083151
:1021EC00C6F3810868F30F2E4FEAD61840EA880030
:1021FC00C2F3401841EA4831CCF3400843EA482383
:10220C00C6F30018C6F3401640EA060068F3174EF2
:10221C0060F31F6EC2F3801041EA80314FEAD21294
:10222C0041EAC231CCF3800243EA8220237ACCF318
:10223C00C00CAB71637AC5F800E040EACC20EB71BE
:10224C00A98047EB0701FEF7BBFA2049FDF780FF99
:10225C00A860227BE07A02F00101C0F3001343EA8C
:10226C000113C0F34011491843EA0103C0F3801471
:10227C0043EA84034FEAD01043EAC003C2F34000A0
:10228C0043EA4013C2F3800043EA8013C2F3C00058
:10229C0043EAC013C2F3001043EA0023C2F3401018
:1022AC0043EA4023C2F3801043EA80234FEAD21062
:1022BC0047EB070143EAC020FEF782FA0349FDF71A
:1022CC0047FFE860BDE8F8836C020020CDCCCC3D24
:1022DC0010B5084C2368002B01DB012010BD06490A
:1022EC0040F6B83002F09CFC0346C0432360C00F9C
:1022FC0010BD00BF08000020E11B00082DE9F047CD
:10230C00BC4DDFF8F492BD4C95F88516BC480029FD
:10231C000CBF4946214602F055FD95F88916B9487F
:10232C0000290CBF4946214602F04CFD95F8881651
:10233C00B54800290CBF4946214602F043FDB34F76
:10234C00B34E95F87716B34800290CBF3946314681
:10235C0002F038FD95F88416AF4800290CBF3946B9
:10236C00314602F02FFDDFF8B48295F88716DFF8BE
:10237C00B0A2AC4800290CBF5146414602F022FDE8
:10238C00A94BAA4A95F88616A94800290CBF1146F4
:10239C00194602F017FD95F88A16A64800290CBFBD
:1023AC004946214602F00EFDA34802F00BFDA34F57
:1023BC00A34E95F89016A34800290CBF3946314618
:1023CC0002F000FD95F805139F4802F0FBFCD5F8D0
:1023DC00FC129E4802F0F6FCD5F800139C4802F063
:1023EC00F1FC95F878169B4800290CBF494621460C
:1023FC0002F0E8FC95F87916974800290CBF49467D
:10240C00214602F0DFFC95F87A16944800290CBF9F
:10241C004946214602F0D6FC95F87B1690480029D7
:10242C000CBF4946214602F0CDFC8E4802F0CAFC96
:10243C0029788D4802F0C6FC8C496868FDF788FE47
:10244C00FEF7A0FA02464FF06409894C8948A4FBB8
:10245C000231490909FB112202F0B4FC8349A86836
:10246C00FDF776FEFEF78EFA0246A4FB023149090F
:10247C0009FB1122804802F0A5FC95F86C107F48EE
:10248C0002F0A0FC95F86D107D4800290CBF394670
:10249C00314602F097FC95F86E107A4802F092FCE7
:1024AC00794802F08FFC7149D5F8F002FDF750FE27
:1024BC00FEF768FA0246A4FB0231490909FB112216
:1024CC00724802F07FFC6949D5F8F402FDF740FE32
:1024DC00FEF758FA0246A4FB0231490909FB112206
:1024EC006B4802F06FFC95F8F9126A4802F06AFC2E
:1024FC0095F8F812684802F065FC95F8FA126748EE
:10250C0000290CBF3946314602F05CFC95F80413E7
:10251C00634802F057FC634802F054FC5349D5F869
:10252C008006FDF715FEFEF72DFA0246A4FB0231DC
:10253C00490909FB11225C4802F044FC95F87C1611
:10254C005A4800290CBF4146514602F03BFC584802
:10255C0002F038FC574C95F88D16574800290CBFE3
:10256C002146414602F02EFC95F88E165348002960
:10257C000CBF2146414602F025FC95F88F165048B9
:10258C0000290CBF2146414602F01CFC95F88B1625
:10259C004C4800290CBF3946314602F013FC95F823
:1025AC008C16494800290CBF3946314602F00AFC0A
:1025BC00464802F007FC0124DFF81481454F464ED3
:1025CC000835414655F8040FFDF7C2FDFEF7DAF960
:1025DC0003464FF47A7CA7FB03E29209214630466E
:1025EC000CFB1233013402F0EDFB192CE9D1BDE8E0
:1025FC00F08700BFC8020020386E0008346E000857
:10260C00706E0008906E0008B06E0008446E0008F2
:10261C003C6E0008D06E0008F06E0008506E00088A
:10262C00546E0008106F00085C6E0008586E0008AD
:10263C00306F0008506F0008706F0008F4630008DA
:10264C00F0630008AC6F0008CC6F0008F06F000856
:10265C00107000083070000850700008707000088E
:10266C0090700008B0700008EC7000080000C842C0
:10267C001F85EB511071000838710008607100085B
:10268C0080710008A0710008C0710008FC7100087E
:10269C00247200084C7200086C7200088C720008DE
:1026AC00AC720008CC720008087300083073000884
:1026BC0050730008686E00088C730008AC73000837
:1026CC00CC730008EC7300080C7400082C74000820
:1026DC0000007A44D34D6210647400082DE9F04771
:1026EC0010230026E84CB2B0E84D94F8852608215A
:1026FC0068468DF80720ADF8043000958DF806601B
:10270C0002F046FB4FF4887294F88936082168462B
:10271C00ADF804208DF8073000958DF8066002F0B6
:10272C0037FB4FF4047294F8773608216846ADF8FD
:10273C0004208DF8073000958DF8066002F028FB18
:10274C004FF4447294F8843608216846ADF804209E
:10275C008DF8073000958DF8066002F019FB4FF4E8
:10276C00826294F8873608216846ADF804208DF80B
:10277C00073000958DF8066002F00AFB4FF4A26258
:10278C0094F87C3608216846ADF804208DF80730A3
:10279C0000958DF8066002F0FBFA4FF4C26294F8D3
:1027AC00863608216846ADF804208DF80730009570
:1027BC008DF8066002F0ECFA4FF4E26294F8883679
:1027CC0008216846ADF804208DF8073000958DF887
:1027DC00066002F0DDFA4FF4116294F878360821A5
:1027EC006846ADF804208DF8073000958DF806602A
:1027FC0002F0CEFA41F2100294F8793608216846BC
:10280C00ADF804208DF8073000958DF8066002F0C5
:10281C00BFFA41F2101294F87A3608216846ADF8E6
:10282C0004208DF8073000958DF8066002F0B0FAA0
:10283C0041F2102294F87B3608216846ADF804204A
:10284C008DF8073000958DF8066002F0A1FA41F280
:10285C00103294F8903608216846ADF804208DF8B3
:10286C00073000958DF8066002F092FA152294F864
:10287C000533082168468DF80730ADF80420009523
:10288C008DF8066002F084FA94F80533002B00F002
:10289C00FA8241F2105300957D4D08212A78684642
:1028AC00ADF804308DF806608DF8072002F070FA50
:1028BC002B7883F001032B70002641F21563734FC4
:1028CC002278082168468DF80720ADF8043000976F
:1028DC008DF8066002F05CFA40F21522D4F8FC3256
:1028EC006C4D1BBA0A216846ADF80420CDF80630B1
:1028FC00009502F04DFA40F21563ADF80430D4F8AF
:10290C0000330A211BBA68460095CDF8063002F058
:10291C003FFA43F6150343F21568ADF8043094F80A
:10292C00F9320821684600978DF807308DF806605B
:10293C0002F02EFA94F8F832082168460097ADF8A8
:10294C0004808DF807308DF8066002F021FA44F20D
:10295C001503ADF8043094F86C30082168460097E4
:10296C008DF807308DF8066002F012FA49F2806398
:10297C00ADF8043063680A211BBA68460095CDF89F
:10298C00063002F005FA40F68103ADF80430A36876
:10299C000A211BBA68460095CDF8063002F0F8F90A
:1029AC00D4F880360A211BBA6846ADF8048000952D
:1029BC00CDF8063002F0ECF98123ADF80430D4F8F0
:1029CC00F4320A211BBA68460095CDF8063002F0A5
:1029DC00DFF940F28143ADF80430D4F8F0320A212B
:1029EC001BBA68460095CDF8063002F0D1F942F2D8
:1029FC001503ADF8043094F80433082168460097A9
:102A0C008DF807308DF8066002F0C2F942F21523FA
:102A1C00ADF8043094F86E300821684600978DF8B4
:102A2C0007308DF8066002F0B3F942F21543ADF8A9
:102A3C00043094F88D360821684600978DF80730DD
:102A4C008DF8066002F0A4F942F21563ADF804307B
:102A5C0094F88E360821684600978DF807308DF86B
:102A6C00066002F095F942F61503ADF8043094F8BF
:102A7C008F360821684600978DF807308DF8066070
:102A8C0002F086F908E000BFC80200205AA50582B2
:102A9C000C0000205AA5078243F21503ADF8043050
:102AAC0094F88B360821684600978DF807308DF81E
:102ABC00066002F06DF943F2152394F88C26082178
:102ACC00684600978DF80720ADF804308DF8066045
:102ADC0002F05EF98022E3680A211BBA6846ADF861
:102AEC000420CDF80630009502F052F94FF49062B4
:102AFC0023690A211BBA6846ADF80420CDF80630CC
:102B0C00009502F045F94FF4086263690A211BBA7B
:102B1C006846ADF80420CDF80630009502F038F97F
:102B2C004FF49452A3690A211BBA6846ADF80420ED
:102B3C00CDF80630009502F02BF94FF4B452E3694E
:102B4C000A211BBA6846ADF80420CDF80630009572
:102B5C0002F01EF94FF40252236A0A211BBA68468E
:102B6C00ADF80420CDF80630009502F011F94FF4C1
:102B7C001252636A0A211BBA6846ADF80420CDF8DC
:102B8C000630009502F004F94FF42252A36A0A2190
:102B9C001BBA6846ADF80420CDF80630009502F05B
:102BAC00F7F84FF44A52E36A0A211BBA6846ADF8AB
:102BBC000420CDF80630009502F0EAF84FF45A5292
:102BCC00236B0A211BBA6846ADF80420CDF80630F9
:102BDC00009502F0DDF84FF48142636B0A211BBAB9
:102BEC006846ADF80420CDF80630009502F0D0F818
:102BFC004FF48942A36B0A211BBA6846ADF8042036
:102C0C00CDF80630009502F0C3F84FF49142E36B17
:102C1C000A211BBA6846ADF80420CDF806300095A1
:102C2C0002F0B6F84FF4A542236C0A211BBA684691
:102C3C00ADF80420CDF80630009502F0A9F84FF459
:102C4C00AD42636C0A211BBA6846ADF80420CDF87E
:102C5C000630009502F09CF84FF4C142A36C0A2197
:102C6C001BBA6846ADF80420CDF80630009502F08A
:102C7C008FF84FF4C942E36C0A211BBA6846ADF8D1
:102C8C000420CDF80630009502F082F84FF4D142C2
:102C9C00236D0A211BBA6846ADF80420CDF8063026
:102CAC00009502F075F84FF4E542636D0A211BBAEA
:102CBC006846ADF80420CDF80630009502F068F8AF
:102CCC004FF4ED42A36D0A211BBA6846ADF80420FF
:102CDC00CDF80630009502F05BF848F28002E36D07
:102CEC000A211BBA6846ADF80420CDF806300095D1
:102CFC0002F04EF848F28042236E0A211BBA684655
:102D0C00ADF80420CDF80630009502F041F848F6F5
:102D1C008002636E0A211BBA6846ADF80420CDF818
:102D2C000630009502F034F849F28022A36E0A2195
:102D3C001BBA68460095ADF80420CDF806304FF06C
:102D4C00600802F025F83546554FDFF8589194F895
:102D5C000423EBB24FEA431A9A42534E5FFA8AFAB3
:102D6C007AD93846FDF7ECF94AF25A52C3B2C82B5D
:102D7C001E46ADF8002028BFC82682228DF80320FD
:102D8C00F21C8DF805A00DF106008DF804808DF86D
:102D9C000220002B00F082803946324602F088FE79
:102DAC00B11DC9B26846013501F0F2FF042D07F1DF
:102DBC002807CCD100264FF065083C4FDFF8F09087
:102DCC0094F86E20F3B24FEA431A9A42394D5FFAE7
:102DDC008AFA2AD93846FDF7B3F94AF25A52C3B2E5
:102DEC00C82B1D46ADF8002028BFC82582228DF8BF
:102DFC000320EA1C8DF805A00DF106008DF8048067
:102E0C008DF80220002B47D039462A4602F050FE9E
:102E1C00A91DC9B2684601F0BBFF0136042E07F1AB
:102E2C002807CDD132B0BDE8F0870FCDCDF8060024
:102E3C002868CDF80A10CDF816001A216846CDF88E
:102E4C0000908DF804808DF805A0CDF80E20CDF8FB
:102E5C00123001F09DFFE0E70FCECDF80600306890
:102E6C003679CDF80A10CDF800901B218DF804802E
:102E7C008DF805A0CDF81600CDF80E20CDF8123047
:102E8C008DF81A608EE741F21053082168460095C0
:102E9C00019301F07DFF0FE50621BBE7062181E7D9
:102EAC00CF0500205AA518828C7400083703002027
:102EBC005AA51782A47400082DE9F04F8349844A5F
:102ECC000B788DB001335FFA83FBBBF1640F8ABFC3
:102EDC0000235B469B460B7013787E4C0133DBB2B0
:102EEC00772B059388BF002325687B4928461370F0
:102EFC0088BF0593FDF70CFD002840F0E4812846BF
:102F0C007649FDF79BFB034602902360744C754990
:102F1C0025682846FDF7FCFC002840F0D1812846A6
:102F2C004FF07C51FDF78AFB0346039023606E4CF7
:102F3C006E4925682846FDF7EBFC002840F0BD8162
:102F4C0028466B49FDF77AFB03460990694A2360D2
:102F5C001378694C0133DBB2632B069388BF1E23B5
:102F6C001370664A88BF0693137825680133DBB269
:102F7C004F2B079388BF19231370614A88BF07939F
:102F8C00137828460133DEB23B2E8CBF192333460F
:102F9C005C49137088BF1E46FDF7BAFC002840F050
:102FAC00898128465849FDF749FB0546034642F2FC
:102FBC000E714FF00008554A23601068544B0130D5
:102FCC0010601A68474601328A42089288BF002274
:102FDC004FF000091A6088BF08924E4A4E49137888
:102FEC000A9008780133DCB280F0010363F3070721
:102FFC00022C63F3070960F30F2763F3174704935D
:10300C000B7063F30F29234688BF002301941370C0
:10301C0088BF0193414B60F3070893F800C060F33D
:10302C000F280CF1010C5FFA8CFC60F31748BCF113
:10303C00040F0B9060F31F6860F31F6783F800C0E8
:10304C0072D90022364C1A7084F80423002384F8B9
:10305C00073384F82F3384F8573384F87F33A4F87C
:10306C006E3084F8973084F8BF30002384F8E73052
:10307C0084F800B04FF0000B029B84F86C60636026
:10308C00039B284EA360049BDFF87CA084F86D3072
:10309C005FFA8BF0FDF782FB5146FDF759F8294694
:1030AC00FDF7CCFA0BF1010BBBF1180F46F8040F2E
:1030BC00EED1019B002B00F0C780012B4FF00001DB
:1030CC0000F0048101200B46C0E000BFC5020020C7
:1030DC00C4020020200000209A995742CDCCCC3D50
:1030EC00C0020020000046421C00002033335F4128
:1030FC00CDCC4C3D1A0000201400002019000020FB
:10310C00180000207A1486400AD7233C10000020B7
:10311C00BC020020B9020020BA020020B802002034
:10312C00C8020020D0020020A84C84F804C3BCF1D3
:10313C00000F8BD0DFF898E2BCF1010FBEE80F0056
:10314C00C4F80703C4F81333DEF800009EF804300B
:10315C00C4F80B13C4F80F23C4F8170384F81B33FB
:10316C0000F01681DFF86CE2BCF1020FBEE80F0034
:10317C00C4F83B339EF80030C4F82F03C4F8331363
:10318C00C4F8372384F83F3300F0A280DFF848E21C
:10319C00BCF1030FBEE80F00C4F863339EF8003097
:1031AC00C4F85703C4F85B13C4F85F2384F867337F
:1031BC0000F0B880042384F86E30884BDFF820A22E
:1031CC0007CB1B88C4F87F03C4F88313C4F8872388
:1031DC00A4F88B33DFF80CE2BAE80F00C4F87B30AC
:1031EC009AF80030C4F86F00C4F87310C4F8772054
:1031FC0084F87F30DFF8F0C1BEE80F00C4F8A330CC
:10320C00BEF80030C4F89700C4F89B10C4F89F2097
:10321C00A4F8A730BCE80F00C4F8CB309CF8003001
:10322C00C4F8BF0084F8CF30704BC4F8C310C4F896
:10323C00C72007CB1B88C4F8E700C4F8EB10C4F810
:10324C00EF20A4F8F33013E701211846029A049DED
:10325C00C4F8F022039AA4F87B96C4F8F422069AD8
:10326C00C4F88C8684F8F822079A84F8FA5284F809
:10327C00F9220A9AC4F88476C4F8FC22089AC4F895
:10328C008876C4F80023059A84F80523099AC4F8B3
:10329C0080260B9A84F89026002265F3070261F3CE
:1032AC000F2260F3174263F31F62C4F877260DB048
:1032BC00BDE8F08F4E4B1D4679E64E4B099345E623
:1032CC000023039332E64C4B02931EE60846BDE7FF
:1032DC000023DFF80CE184F86EC084F85733DFF874
:1032EC0004C184F87F3384F8BF30BEE80F00C4F803
:1032FC007B309EF80030C4F86F00C4F87310C4F82B
:10330C00772084F87F30BCE80F00C4F8A330BCF8F9
:10331C000030C4F89700C4F89B10C4F89F20A4F8A0
:10332C00A730A2E60023DFF8B8E084F86EC084F87A
:10333C007F33DFF8B0C0BEE80F00C4F87B309EF8D6
:10334C000030DFF8A4A0C4F86F00C4F87310C4F800
:10335C00772084F87F30BCE80F00C4F8A330BCF8A9
:10336C000030C4F89700C4F89B10C4F89F20A4F850
:10337C00A730BAE80F00C4F8CB309AF80030C4F884
:10338C00BF00C4F8C310C4F8C72084F8CF306CE673
:10339C00002384F86EC0DFF848C084F82F3384F81B
:1033AC00573384F87F3384F8973084F8BF30BCE807
:1033BC000F00C4F87B309CF80030C4F86F00C4F8E0
:1033CC007310C4F8772084F87F304EE6C8020020D2
:1033DC00BC740008D4740008E8740008FC7400087D
:1033EC000C75000820750008347500084875000835
:1033FC00CDCC4C40000038410000404208B5FFF7EE
:10340C005BFDBDE80840FFF769B900BF10B5084C7B
:10341C002368002B01DB012010BD064940F6B830B3
:10342C0001F0FEFB0346C0432360C00F10BD00BF7C
:10343C0024000020092300082DE9F84F1F4C9DF8AB
:10344C0028802478B4B3A8B3DFF874B09BF800607C
:10345C00072E2FD8DFF86CA0C6EBC604A7000AEB2A
:10346C00840415469946A1804AF8070001F0B8FB80
:10347C00A06001F0B5FB4FF000024FF480719BF897
:10348C00003065F30702E06010370AF103000133E6
:10349C0065F30F22A4F8109084F812808BF800309A
:1034AC00C2530AF1070384F8168065753046D95368
:1034BC00BDE8F88FFF263046BDE8F88F9409002050
:1034CC00950900209809002070B5A24DA24884B03F
:1034DC0001F078FC08222978A04801F073FC2B78C5
:1034EC00A3B39F4C227E002A40F0BF80012B2DD924
:1034FC0094F83420002A40F0D180022B26D994F87D
:10350C005020002A77D1032B20D994F86C20002A64
:10351C0040F08D80042B19D994F88820002A40F0B3
:10352C00D880052B12D994F8A420002A40F04481AD
:10353C00062B0BD994F8C020002A40F05D81072B94
:10354C0004D994F8DC30002B40F0E480854C86489C
:10355C0001F038FC854801F035FC854A854B217813
:10356C008548002914BF1146194601F02BFC834EE7
:10357C00834D6178834800290CBF3146294601F000
:10358C0021FC814A814BA1788148002914BF114646
:10359C00194601F017FCE1787E4800290CBF314632
:1035AC00294601F00FFC21797B4800290CBF3146DC
:1035BC00294601F007FC794A794B61797948002951
:1035CC000CBF1146194601F0FDFBA1797648002984
:1035DC000CBF3146294601F0F5FBE179734800290F
:1035EC000CBF3146294601F0EDFB714804B0BDE833
:1035FC00704001F0E7BBA18FA06B01F033FF0346D5
:10360C00A3F10103B3FA83F394F84E205B09039200
:10361C00009394F84F20A38F029294F84B20022130
:10362C0001926448A26B01F0CDFB2B786BE7B4F8E8
:10363C005810606D01F016FF0346A3F10103B3FAB5
:10364C0083F394F86A205B090392009394F86B203F
:10365C00B4F85830029294F867200321019255482F
:10366C00626D01F0AFFB2B7854E7A188206801F064
:10367C00F9FE0346A3F10103B3FA83F3A27D5B09C0
:10368C0003920093E27DA3880292E27C00210192D6
:10369C004848226801F096FB2B7827E7218CE069DB
:1036AC0001F0E0FE012103465B1AB3FA83F394F8B0
:1036BC0032205B090392009394F83320238C0292FE
:1036CC0094F82F203B480192E26901F07BFB2B78A8
:1036DC0013E7B4F87410206F01F0C4FE0346A3F195
:1036EC000103B3FA83F394F886205B0903920093E9
:1036FC0094F88720B4F87430029294F88320042153
:10370C0001922C48226F01F05DFB2B78052B3FF6C4
:10371C000AAF1BE7B4F8C810D4F8C40001F0A2FE3D
:10372C000546A5F10105B5FA85F594F8DA306D0971
:10373C00039394F8DB300721029394F8D7301D489B
:10374C000193B4F8C830D4F8C420009501F03AFBCA
:10375C00FCE600BF950900207475000898750008F8
:10376C0098090020780A0020B4750008D875000864
:10377C00446E00085875000864760008386E00081E
:10378C00346E00087C76000860750008546E0008E2
:10379C0094760008AC760008C476000868750008BA
:1037AC003C6E0008DC760008F47600080C77000804
:1037BC002477000810760008B4F89010D4F88C0028
:1037CC0001F050FE0346A3F10103B3FA83F394F81E
:1037DC00A2205B090392009394F8A320B4F89030D4
:1037EC00029294F89F20052101921348D4F88C2062
:1037FC0001F0E8FA2B789BE6B4F8AC10D4F8A800EA
:10380C0001F030FE0346A3F10103B3FA83F394F8FD
:10381C00BE205B090392009394F8BF20B4F8AC303F
:10382C00029294F8BB20062101920348D4F8A820F8
:10383C0001F0C8FA2B7882E610760008A24B2DE92D
:10384C00F0411D78002D40F0EF80A04E3378A04A57
:10385C0012689A4280F05C819E49C2EBC20201EB75
:10386C008202117E01B1D17C9B4A9C4C1268217062
:10387C009A4280F0A6809749C2EBC20201EB820209
:10388C00117E002900F09D80D27C954982F00102C6
:10389C00A2700A689A4280F09B808E49C2EBC202E9
:1038AC0001EB8202117E002900F09280D27C8D49BE
:1038BC0082F0010262710A689A4280F09080854918
:1038CC00C2EBC20201EB8202117E002900F087805C
:1038DC00D57C85F00105844A257112689A4280F0E6
:1038EC0085807C49C2EBC20201EB8202117E002969
:1038FC007CD0D27C7D4982F0010222720A68002AB7
:10390C007ADB9A4278DA734BC2EBC20203EB820386
:10391C001A7E002A70D0764DDF7C01F061F92B788D
:10392C00BB4200F0C9806B68C31A002F6AD02B61B0
:10393C00012368602B760123E8602F706D4A6B764B
:10394C001368002B64DB3278934261DA614AC3EB73
:10395C00C30302EB83031A7E002A59D0DE7C01F0EC
:10396C003FF9654B1A78B24200F0CA805A68821A45
:10397C00002E53D01A61012258601A760122D860A9
:10398C001E705A76687E5D4BE178E271A0719A6880
:10399C0059B9510644BF4FF480021A61574B9B68CA
:1039AC0013F040030AD0BDE8F08152065CBF402200
:1039BC001A61524B9B685B06F5D501236370BDE819
:1039CC00F08101224649A2700A689A42FFF465AF61
:1039DC000122444962710A689A42FFF470AF0125D2
:1039EC00414A257112689A42FFF47BAF01223F498C
:1039FC0022720A68002A84DA3D4D01F0F1F82B7826
:103A0C00002B59D06B680027C31AA8606B6192E732
:103A1C0001F0E6F8384B1A78002A71D05A68002663
:103A2C00821A98605A61A9E701F0DAF8274E074626
:103A3C003378002B74D00025264C06E00135EAB211
:103A4C009A4204F11C04BFF402AF227E002AF5D086
:103A5C00E268218ABA1A8A42F0D3A1882068E7600A
:103A6C0001F000FDA0F10108B8FA88F801F0B8F8EF
:103A7C00E37C4FEA58186375237D43454AD00023F5
:103A8C00A3750123E375034684F81480A06094F8B1
:103A9C0012E0B4F810C0A27D0EFB0CFCC11A01326E
:103AAC00D2B28C453378A275C8D87245C6D30021E2
:103ABC00227DE175E274C1E7EB68C31AB3F5966F2A
:103ACC008CBF0023012339E79409002095090020BD
:103ADC00440000209809002040000020780A0020B3
:103AEC00380000203C0000202C0000203400002076
:103AFC0078090020300000205C09002000080140FB
:103B0C00DA68821AB2F5966F8CBF0022012238E770
:103B1C000021A9E6E27D3378002A8FD0A368B6E7AE
:103B2C000122024C2370A2706271D4E6780A002044
:103B3C0010B5084C2368002B01DB012010BD064991
:103B4C0040F6B83001F06CF80346C0432360C00F58
:103B5C0010BD00BF28000020D53400082DE9F04F1F
:103B6C00824B04204FF00F084FF0080B4FF0010A66
:103B7C007F4FDFF8009283B003F1380E25E0B94295
:103B8C009D7900F0DB80494500F0DE807A4A914255
:103B9C0000F0E080794A914200F0E280072800F2C0
:103BAC00C7800C468200D2B2266808FA02FC26EACC
:103BBC000C0626608DB9042101FA02F22168083343
:103BCC000A437345226019D09888196809B10F28E7
:103BDC00D5D9002003B0BDE8F08F26680BFA02F2AD
:103BEC0032432260CA68012D0AFA00F003F108037F
:103BFC000CBF024382437345CA60E5D1402460493F
:103C0C005B488A695F4B42F004028A610461D3F815
:103C1C0000285D4D22F07062C3F80028D3F800280C
:103C2C002C7842F04072C3F8002844B9E0222146B7
:103C3C00564801F009FF0123554A2B7014704FF0C0
:103C4C00050A1E2301220421CDF800A04948FFF7E4
:103C5C00F3FB0446DFF83C91CDF800A01E230122B3
:103C6C000721C9F800404248FFF7E6FB0022014655
:103C7C00DFF82481CDF800A01E23C8F800103C48C2
:103C8C001146FFF7D9FB0446444FCDF800A01E2384
:103C9C0000220D213C603648FFF7CEFB0324404E3A
:103CAC00234630600022012100943148FFF7C4FB09
:103CBC003C4D234628600022022100942C48FFF73B
:103CCC00BBFB394B21460022CDF800A018601E2307
:103CDC002748FFF7B1FBDFF8D4A00024CAF8000096
:103CEC0000F07EFF324BC3E90444C3E901001C70B1
:103CFC001C83D86000F074FFD8F80010D9F800309D
:103D0C002C4A0B43DAF80010C2E904440B4339681F
:103D1C00C2E901000B43316814700B431483D0606B
:103D2C003FF557AF2868A042B4BF0020012051E7EF
:103D3C00A0F108029200D2B20C1D35E7104CA2691A
:103D4C0042F00402A26129E70D4CA26942F008027C
:103D5C00A26123E70A4CA26942F01002A2611DE79E
:103D6C00074CA26942F02002A26117E7FC7B000815
:103D7C0000080140000C01400010014000140140FB
:103D8C000010024000000140940900209809002016
:103D9C009509002044000020400000203C00002039
:103DAC003800002034000020300000202C000020BF
:103DBC00780900205C09002040F2712C45F2555125
:103DCC0004220CFB00F00D4BB0F57A1F19605A6001
:103DDC0004D2B0F57A7F0CD2012001E040F6FF70DE
:103DEC004AF6AA214CF6CC42044B986019601A6032
:103DFC007047034BA3FB00308009F1E70030004013
:103E0C00D34D62104AF6AA22014B1A60704700BFCC
:103E1C00003000402DE9F041044601200E4600F030
:103E2C004BFE204600F052FEFF2000F04FFE0746EE
:103E3C00FF2000F04BFE0446FF2000F047FE054635
:103E4C00FF2000F043FE8046FF2000F03FFE04F010
:103E5C000803002B14BF012300230246737325D0E3
:103E6C002B02610343EA475343EA080301F4E011D0
:103E7C0024040B4304F440341C4302F00F03C2F33C
:103E8C00801234603371B2735BB10024351DFF2096
:103E9C0000F01CFE05F8010F33790134E4B2A342A3
:103EAC00F5D8BDE8F041002000F006BEC4F347147D
:103EBC0044EAC704E1E700BF2DE9F84F8146012031
:103ECC000F46904600F0F8FD032000F0FFFD0E2099
:103EDC0000F0FCFDFF2000F0F9FD0646002000F08C
:103EEC00EBFD012000F0E8FD052000F0EFFD0F20B8
:103EFC0000F0ECFDE02000F0E9FD802000F0E6FD94
:103F0C00002000F0D9FD42F2107501E0013D13D004
:103F1C00012000F0D1FD032000F0D8FD0E2000F0B0
:103F2C00D5FDFF2000F0D2FD0446002004F0E00493
:103F3C0000F0C2FD802CE9D1B9F1050F7DD8644B9E
:103F4C00012013F809405FFA88FB04F1010A04F11F
:103F5C000209E51C5FFA8AFA5FFA89F9EDB2002FC3
:103F6C006DD100F0A9FD022000F0B0FD204600F05C
:103F7C00ADFDC8F3C70000F0A9FD384600F09CFD6C
:103F8C00012000F099FD022000F0A0FD504600F049
:103F9C009DFD4FEA4B1000F0E00000F097FD384615
:103FAC0000F08AFD012000F087FD022000F08EFD5C
:103FBC00484600F08BFD384600F088FD384600F08E
:103FCC007BFD012000F078FD022000F07FFD2846EB
:103FDC0000F07CFD384600F079FD384600F06CFDB1
:103FEC00012000F069FD052000F070FD0F2000F0AD
:103FFC006DFD06F0E006E02000F068FD304600F0B4
:10400C0065FD002000F058FD42F2107501E0013D05
:10401C0013D0012000F050FD032000F057FD0E20BE
:10402C0000F054FDFF2000F051FD0446002004F088
:10403C00E00400F041FDA642E9D1BDE8F88F00F0A4
:10404C003BFD022000F042FD204600F03FFDC8F38E
:10405C00475000F03BFD002000F02EFD012000F049
:10406C002BFD022000F032FD504600F02FFD4FEAF0
:10407C005830C8F3014320F01F00184340F00800EB
:10408C0000F0EB0000F022FD002000F015FD0120F7
:10409C0000F012FD022000F019FD484600F016FD5C
:1040AC00C8F3072000F012FD002000F005FD0120F0
:1040BC0000F002FD022000F009FD284600F006FD8C
:1040CC00584600F003FD002000F0F6FC88E700BF26
:1040DC00347C000830B5012083B000F0EDFCC0202A
:1040EC0000F0F4FC002000F0E7FC002341F28732E2
:1040FC000193019B934205DC019B01330193019BCE
:10410C009342F9DD012000F0D7FC032000F0DEFC27
:10411C000E2000F0DBFCFF2000F0D8FC0446002051
:10412C0004F0E00400F0C8FC802C02D0002003B0A6
:10413C0030BD012000F0C0FC022000F0C7FC2A209A
:10414C0000F0C4FC002000F0C1FC002000F0B4FC26
:10415C00012000F0B1FC022000F0B8FC292000F096
:10416C00B5FCB12000F0B2FC002000F0A5FC012051
:10417C0000F0A2FC022000F0A9FC282000F0A6FC14
:10418C00852000F0A3FC002000F096FC012000F03C
:10419C0093FC022000F09AFC602000F097FC642055
:1041AC0000F094FC002000F087FC012000F084FC5F
:1041BC00022000F08BFC702000F088FC602000F0E6
:1041CC0085FC002000F078FC012000F075FC052037
:1041DC0000F07CFC0F2000F079FCE02000F076FC75
:1041EC00002000F073FC002000F066FC42F2107519
:1041FC0001E0013D9AD0012000F05EFC032000F0AC
:10420C0065FC0E2000F062FCFF2000F05FFC044611
:10421C00002000F051FC1F2CEBD8012003B030BD66
:10422C0070B50546012000F047FC032000F04EFC61
:10423C002C2000F04BFCFF2000F048FC0446002032
:10424C0000F03AFCA20701D1002070BD012000F063
:10425C0033FC032000F03AFC2C2000F037FCFF204C
:10426C0000F034FC0446002000F026FC14F001069B
:10427C0010D1A307E8D529469420FFF7CBFD0120E8
:10428C0000F01AFC052000F021FC2C2000F01EFC94
:10429C0002200DE029469020FFF7BCFD012000F024
:1042AC000BFC052000F012FC2C2000F00FFC012070
:1042BC0000F00CFC002000F009FC002000F0FCFBDE
:1042CC00012070BD2DE9F04F83B0E846DA4B42F285
:1042DC00107593E8030088E80300012000F0ECFB64
:1042EC00032000F0F3FB0E2000F0F0FBFF2000F0A9
:1042FC00EDFB8146002000F0DFFB012000F0DCFB31
:10430C00052000F0E3FB0F2000F0E0FBE02000F0C4
:10431C00DDFB802000F0DAFB002000F0CDFB01E09B
:10432C00013D13D0012000F0C7FB032000F0CEFBB1
:10433C000E2000F0CBFBFF2000F0C8FB0446002051
:10434C0004F0E00400F0B8FB802CE9D1012000F06F
:10435C00B3FB032000F0BAFB0E2000F0B7FBFF20EC
:10436C0000F0B4FB0546002000F0A6FB012000F095
:10437C00A3FB052000F0AAFB0F2000F0A7FBE02018
:10438C0000F0A4FB802000F0A1FB002000F094FBC7
:10439C0042F2107605F0E00501E0013E13D0012059
:1043AC0000F08AFB032000F091FB0E2000F08EFB46
:1043BC00FF2000F08BFB0446002004F0E00400F02A
:1043CC007BFB802CE9D1012000F076FB022000F071
:1043DC007DFB202000F07AFBFF2000F077FB002013
:1043EC0000F06AFB012000F067FB022000F06EFB7E
:1043FC00212000F06BFBE02000F068FB002000F0B7
:10440C005BFB012000F058FB022000F05FFB222038
:10441C0000F05CFB002000F059FB002000F04CFB8E
:10442C00012000F049FB022000F050FB232000F09B
:10443C004DFB002000F04AFB002000F03DFB01206A
:10444C0000F03AFB052000F041FB0F2000F03EFB92
:10445C00E02000F03BFB284600F038FB002000F089
:10446C002BFB42F2107601E0013E13D0012000F04C
:10447C0023FB032000F02AFB0E2000F027FBFF207B
:10448C0000F024FB0446002004F0E00400F014FBD0
:10449C00A542E9D1012000F00FFB032000F016FB30
:1044AC000E2000F013FBFF2000F010FB054600204F
:1044BC0000F002FB012000F0FFFA052000F006FBE3
:1044CC000F2000F003FBE02000F000FB802000F048
:1044DC00FDFA002000F0F0FA42F2107605F0E0054B
:1044EC0001E0013E13D0012000F0E6FA032000F0B9
:1044FC00EDFA0E2000F0EAFAFF2000F0E7FA04468D
:10450C00002004F0E00400F0D7FA802CE9D101205F
:10451C0000F0D2FA022000F0D9FA242000F0D6FAEA
:10452C00FF2000F0D3FA002000F0C6FA012000F0C2
:10453C00C3FA022000F0CAFA252000F0C7FAE020E6
:10454C0000F0C4FA002000F0B7FA012000F0B4FA31
:10455C00022000F0BBFA262000F0B8FA002000F090
:10456C00B5FA002000F0A8FA012000F0A5FA02200C
:10457C0000F0ACFA272000F0A9FA002000F0A6FA0F
:10458C00002000F099FA012000F096FA052000F0C6
:10459C009DFA0F2000F09AFAE02000F097FA2846D6
:1045AC0000F094FA002000F087FA42F2107601E055
:1045BC00013E13D0012000F07FFA032000F086FAB0
:1045CC000E2000F083FAFF2000F080FA0446002051
:1045DC0004F0E00400F070FAA542E9D1DFF85CA029
:1045EC000DF1080B012038F8027B00F065FA03206E
:1045FC0000F06CFA0E2000F069FAFF2000F066FA69
:10460C000646002000F058FA012000F055FA05206B
:10461C0000F05CFA0F2000F059FAE02000F056FA96
:10462C00802000F053FA002000F046FA42F2107598
:10463C0006F0E00606E000BF88630008347C000842
:10464C00013D13D0012000F037FA032000F03EFAB0
:10465C000E2000F03BFAFF2000F038FA0446002050
:10466C0004F0E00400F028FA802CE9D11AF8014B90
:10467C00012000F021FA022000F028FA204600F078
:10468C0025FAC7F3C70000F021FA002000F014FA55
:10469C00012000F011FA022000F018FA601CC0B2E0
:1046AC0000F014FA780100F0E00000F00FFA00209E
:1046BC0000F002FA012000F0FFF9022000F006FAE7
:1046CC00A01CC0B200F002FA002000F0FFF900209C
:1046DC0000F0F2F9012000F0EFF9022000F0F6F9F9
:1046EC00E01CC0B200F0F2F9002000F0EFF900205D
:1046FC0000F0E2F9012000F0DFF9052000F0E6F906
:10470C000F2000F0E3F9E02000F0E0F9304600F073
:10471C00DDF9002000F0D0F942F2107501E0013D06
:10472C0013D0012000F0C8F9032000F0CFF90E20BF
:10473C0000F0CCF9FF2000F0C9F90446002004F089
:10474C00E00400F0B9F9A642E9D1D8457FF44AAFAC
:10475C00112200210420FFF7AFFB112200210520BC
:10476C00FFF7AAFB012000F0A7F9052000F0AEF935
:10477C000F2000F0ABF909F0E009E02000F0A6F9F9
:10478C00484600F0A3F9002000F096F942F21075AB
:10479C0001E0013D13D0012000F08EF9032000F060
:1047AC0095F90E2000F092F9FF2000F08FF90446E5
:1047BC00002004F0E00400F07FF9A145E9D10120CC
:1047CC0003B0BDE8F08F00BF00B585B002E06846CD
:1047DC00FCF742FF6846FCF7EBFC0028F7D1684673
:1047EC00FFF71EFD38B16846FDF720FB6846FFF762
:1047FC0017FD0028F7D105B05DF804FB08224FF433
:10480C00807310B50E4C0F49207884B031F810101D
:10481C00684600918DF80420ADF80D30FCF706FCCD
:10482C00094B64201A7823780133DBB29A42237047
:10483C009CBF0023237000F09DFD04B010BD00BF91
:10484C00810A00204C0000204800002010B491B0D8
:10485C00EC461D4C0FCCACE80F000FCCACE80F00B5
:10486C000FCCACE80F0094E80F008CE80F00174950
:10487C004B684A68C3F3031302F00C02082A0AD0EF
:10488C00134A10A901EB830353F8400CB2FBF0F070
:10489C0011B010BC70474A68D20312D549680D4A52
:1048AC0011F4003F0A4818BF1046084A5168C1F37A
:1048BC0083410D2901F1020208BF102200FB02F214
:1048CC00DFE70448F1E700BF9063000800100240E6
:1048DC0000127A0000093D0030B599B0EC46284C26
:1048EC00284D0FCCACE80F0094E80F008CE80F00BB
:1048FC000DF1200EA4F1500CBCE80F006C68AEE872
:10490C000F00BCE80F00AEE80F00BCE80F00AEE8EB
:10491C000F009CE80F008EE80F006A686B68C4F308
:10492C00022403F00C03082BC2F303120FD0164B16
:10493C0018A901EB820252F8402C01EB8404B3FB62
:10494C00F2F354F8600CB3FBF0F019B030BD6B68A7
:10495C00DB0312D569680D4B11F4003F0A4818BFF0
:10496C001846084B5968C1F383410D2901F1020324
:10497C0008BF102300FB03F3DAE70448F1E700BF9C
:10498C00D06300080010024000127A0000093D00BC
:10499C0030B599B0EC46284C284D0FCCACE80F0044
:1049AC0094E80F008CE80F000DF1200EA4F1500CD0
:1049BC00BCE80F006C68AEE80F00BCE80F00AEE876
:1049CC000F00BCE80F00AEE80F009CE80F008EE86B
:1049DC000F006A686B68C4F3C22403F00C03082B45
:1049EC00C2F303120FD0164B18A901EB820252F836
:1049FC00402C01EB8404B3FBF2F354F8600CB3FBD2
:104A0C00F0F019B030BD6B68DB0312D569680D4B43
:104A1C0011F4003F0A4818BF1846084B5968C1F3F7
:104A2C0083410D2901F1020308BF102300FB03F39E
:104A3C00DAE70448F1E700BFD06300080010024039
:104A4C0000127A0000093D00194B1A6842F48032BA
:104A5C001A601A689203FCD51649154A086840F08A
:104A6C0004000860086840F010000860596841F4C0
:104A7C00E0115960596841F480315960596841F42A
:104A8C0080615960596821F460515960196841F08E
:104A9C008071196013689B01FCD55368044943F07D
:104AAC00020353604B6803F00C03082BFAD17047D8
:104ABC0000100240002002404FF48052024B08B11B
:104ACC005A6170471A617047000C01400E4A10B4CD
:104ADC000E49146803E013681B1B092B11D88B6853
:104AEC009B07F8D5C8601068084903E013681B1AC7
:104AFC00092B06D88B68DB07F8D5C86810BCC0B288
:104B0C007047FF2010BC7047240B00200038004079
:104B1C00314A10B49169314B41F008019161D1696E
:104B2C004FF4805441F48041D1615968002021F444
:104B3C00403159605968A2F5EC3221F4402159609A
:104B4C00596841F440315960596821F44011596059
:104B5C00596821F440015960596841F44011596079
:104B6C00596841F400015960596821F0407159604D
:104B7C00596821F040615960596841F08061596071
:104B8C00596821F040515960596821F040415960F1
:104B9C00596841F040515960596841F000415960E1
:104BAC001C611060136810BC43F00403136013689D
:104BBC0043F010031360136843F40073136013681D
:104BCC0043F480731360136843F040031360106860
:104BDC00C0F38010704700BF00100240000C014071
:104BEC00014B1868704700BF240B002010B5FFF76D
:104BFC002DFE0A4BA3FB00239B09013BB3F1807FE5
:104C0C0009D24FF0E02200210724116101205361E9
:104C1C009161146110BD002010BD00BFD34D621016
:104C2C00F8B52E4C0E46227B12B9A568002D36D055
:104C3C00227F12B9A269002A3FD094F82C2012B915
:104C4C00A26A002A3BD094F83C2012B9A26B002A2D
:104C5C0037D094F84C200AB9A26CA2B394F85C201B
:104C6C000AB9A26D8AB394F86C200AB9A26E72B319
:104C7C0094F87C200AB9A26F5AB394F88C2012B91C
:104C8C00D4F888203AB394F89C201AB14FF0FF3531
:104C9C002846F8BDD4F898200925002AF6D12F0112
:104CAC00E051FFF79DFF01220D4B04EB0514083773
:104CBC00C4E90106DA532846F8BD0125EFE70225C1
:104CCC00EDE70325EBE70425E9E70525E7E70625EE
:104CDC00E5E70725E3E70825E1E700BF840A0020A4
:104CEC00880A002070B5FFF77BFF06460C4C04F1D8
:104CFC00A005237B53B1A26842B1D4E90013F31A87
:104D0C008B4203D366609047637B1BB91034AC4273
:104D1C00EFD170BD0023C4E90033A360A381F5E794
:104D2C00840A00200022194B0120C3E90022C3E9A8
:104D3C000422C3E90822C3E90C22C3E91022C3E907
:104D4C001422C3E91822C3E91C229A609A819A6141
:104D5C009A839A629A859A639A879A64A3F84C20EC
:104D6C009A65A3F85C209A66A3F86C209A67A3F85E
:104D7C007C20C3F88820C3E92022C3E92422A3F8AD
:104D8C008C20C3F89820A3F89C207047840A00203C
:104D9C0091B18446094800B50CEB010E1CF8011BBF
:104DAC00074B01E0013B03D002681206FAD54160C3
:104DBC00F445F3D15DF804FB704700BF0048004098
:104DCC00A08601000FB400B59BB01CAB53F8042BAC
:104DDC00642101A8009300F029FE9DF8040070B135
:104DEC0009490DF1040C094B01E0013B03D00A68A1
:104DFC001206FAD548601CF8010F0028F3D11BB03D
:104E0C005DF804EB04B0704700380140A086010047
:104E1C0010B5FFF7BDFD002832D04FF4E1111D4A4B
:104E2C00A2FB00431B0D01FB130000F561408842FF
:104E3C0027D30133180142F20C04174A174B91691E
:104E4C0041F004019161916941F48041916159688B
:104E5C00A2F5584221F47F615960596841F0B001C4
:104E6C005960596841F4806159609060D460D3688E
:104E7C0013F400530CD09368181AB0FA80F0400960
:104E8C0010BDA2FB00201B0153EA1040D3D110BD72
:104E9C00184610BDC5B3A291001002400008014095
:104EAC0010B5FFF719FD002832D04FF4E1111D4A5F
:104EBC00A2FB00431B0D01FB130000F5614088426F
:104ECC0027D30133180142F20C04174A174B91698E
:104EDC0041F008019161D16941F48021D161596897
:104EEC00A2F5E43221F47F415960596841F43061F4
:104EFC005960596841F4804159609060D460D3681E
:104F0C0013F400530CD09368181AB0FA80F04009CF
:104F1C0010BDA2FB00201B0153EA1040D3D110BDE1
:104F2C00184610BDC5B3A29100100240000C014000
:104F3C0072B64FF4802404200A490B4A8B6943F063
:104F4C0008038B61136823F470631360136843F4D4
:104F5C000073136014611061136983F0040313610F
:104F6C00FAE700BF00100240000C014030B591B0D0
:104F7C002422002107A800F067FD0124002302224F
:104F8C00102506A8CDE90A45CDE90133CDE9033357
:104F9C000692059300F06CFA60B901460F2301A844
:104FAC00CDE90211CDE90411019300F04FFC08B9D1
:104FBC0011B030BDFFF7BCFF38B500F0B7F9FFF703
:104FCC00D5FFFFF741FDFFF723FF40B16248FFF724
:104FDC00F9FEFFF765FF20B96048FFF7F3FEFFF716
:104FEC00A7FF5F48FFF7EEFEFFF792FD50B15D485B
:104FFC00FFF7E8FEFFF76EF848B95B48FFF7E2FEF3
:10500C00FFF796FF5948FFF7DDFEFFF791FF584871
:10501C00FFF7D8FEFFF756F950B15648FFF7D2FE0E
:10502C00FFF7E4FD40B95448FFF7CCFEFFF780FFD3
:10503C005248FFF7C7FEF3E75148FFF7C3FEFCF7F2
:10504C0063F920B94F48FFF7BDFEFFF771FF4E48DB
:10505C00FFF7B8FEFBF7DEFD4C48FFF7B3FEFEF79B
:10506C007DFD0028B8D04A48FFF7ACFEFBF74AFD9F
:10507C0020B94848FFF7A6FEFFF75AFF4648FFF74E
:10508C00A1FEFFF74FFE002861D14448FFF79AFEBE
:10509C00FEF74EFD002856D14148FFF793FEFBF773
:1050AC0019FD00284BD13F48FFF78CFEFDF710F996
:1050BC00002840D13C48FFF785FEFCF775FDB0BBDE
:1050CC003A48FFF77FFEFEF7A1F960BB3848FFF7BF
:1050DC0079FE384B5A6A920003D55A6A42F08072B4
:1050EC005A624FF47A70FEF767FE334DFFF778FD86
:1050FC000446FEF787FEFFF781FBFFF765FBFEF723
:10510C009DFBFBF7FDFCFEF779F9FFF7EBFDFFF7D5
:10511C0067FD01462846091BFFF754FE4FF4FA7051
:10512C0000F028F9E2E72548FFF74CFED1E72448C8
:10513C00FFF748FEC7E72348FFF744FEBDE72248C8
:10514C00FFF740FEB2E72148FFF73CFEA7E72048F7
:10515C00FFF738FE9CE700BF5C7700087C770008FF
:10516C00A0770008E477000800780008C0770008F2
:10517C002878000878780008A0780008487800089B
:10518C00C8780008E87800080C7900082C79000829
:10519C004C7900086C79000890790008B079000807
:1051AC00FC790008547A0008B07A00080C7B0008DF
:1051BC00687B000800100240CC7B0008A07B000834
:1051CC00407B0008E47A0008887A0008287A0008F6
:1051DC00DC7900080E4B82B09A690E4942F001024C
:1051EC009A619A6902F001020092009ADA6942F01F
:1051FC008052DA61DB6903F080530193019B4B68A9
:10520C0023F0E06343F080634B6002B0704700BF53
:10521C000010024000000140FEE700BFFEE700BFA7
:10522C00FEE700BFFEE700BFFEE700BF704700BF10
:10523C00704700BF704700BF08B500F089F8024AFC
:10524C0013680133136008BD240B00200D4903467D
:10525C0010B50D4A0D4C0868121B20B10344934243
:10526C0007D80B6010BD0A4C2046034493420C60D7
:10527C00F7D900F0F1FB0C2203464FF0FF301A6017
:10528C0010BD00BF280B00200050002000040000BF
:10529C00780C0020704700BFFFF7FCFF0B480C494F
:1052AC000C4A002302E0D458C4500433C4188C4276
:1052BC00F9D3094A094C002301E013600432A242DD
:1052CC00FBD300F0CFFBFFF777FE70470000002008
:1052DC00C4000020A47C0008C8000020780C00202A
:1052EC00FEE7000038B54FF47A730D4A0546117885
:1052FC000C4AB3FBF1F31268B2FBF3F000F09AF82E
:10530C0008B90F2D01D9012038BD044602462946A3
:10531C004FF0FF3000F052F8034B20461D6038BDB3
:10532C006C0000206800002070000020074A08B5BF
:10533C001368032043F01003136000F02DF80F20C6
:10534C00FFF7D0FFFFF746FF002008BD002002400A
:10535C00034A044B11681B780B441360704700BF61
:10536C002C0B00206C000020014B1868704700BF0C
:10537C002C0B002038B50446FFF7F6FF631C0546DE
:10538C0002D0044B1B781C44FFF7EEFF401BA042DD
:10539C00FAD338BD6C0000204FF6FF0C064903020F
:1053AC00CA6803F4E06302EA0C02134343F0BF63E0
:1053BC0043F40033CB60704700ED00E01B4B00B5AD
:1053CC00DB68C3F30223C3F1070EBEF1040F03F134
:1053DC00040C28BF4FF0040EBCF1060F1CD9A3F12E
:1053EC00030C4FF0FF3303FA0CF322EA03024FF0E5
:1053FC00FF3303FA0EF321EA030303FA0CF313430E
:10540C001B010028DBB20ADB00F1604000F56140B3
:10541C0080F800335DF804FB00229446E7E7044A69
:10542C0000F00F00024413765DF804FB00ED00E081
:10543C00FCEC00E00138B0F1807F01D30120704713
:10544C004FF0E0234FF0F00C0022072110B4044C75
:10545C00586184F823C010469A6110BC19617047DA
:10546C0000ED00E08368194214BF01200020704752
:10547C00002800F0E4812DE9F04103680446DD07C3
:10548C0082B035D599494A6802F00C02042A00F022
:10549C00ED804A6802F00C02082A00F0E380636891
:1054AC00B3F5803F10D0002B00F00A81B3F5A02F8C
:1054BC0000F080818D4B1A6822F480321A601A68D1
:1054CC0022F480221A6004E0884A136843F4803383
:1054DC001360FFF749FF854E054605E0FFF744FFD3
:1054EC00401B642800F2E88033689A03F6D52368E1
:1054FC009F0728D57D4A516811F00C0F00F096805B
:10550C00516801F00C01082900F08C802369002BF4
:10551C0000F016810122764B744E1A60FFF724FFBF
:10552C00054605E0FFF720FF401B022800F2C4806F
:10553C0033689807F6D53368626923F0F80343EAB9
:10554C00C203336023681A0729D45D074BD5674B18
:10555C00DA69D00000F184800125DA6942F08052CA
:10556C00DA61DB6903F080530093009B614E336872
:10557C00D90540F19180E368012B00F0F280002BFB
:10558C0000F0BE80052B594B1A6A00F0208122F0E6
:10559C0001021A621A6A22F004021A62E6E0A36996
:1055AC00002B4CD00122524B504EC3F88024FFF7F5
:1055BC00DBFE054604E0FFF7D7FE401B02287BD834
:1055CC00736A9B07F7D54C4B4C4A1B68A2FB032311
:1055DC005B0A019300BF019B5A1E0192002BF9D16B
:1055EC0023685D07B3D4E369C3B1404D6A6802F028
:1055FC000C02082A00F0CD800022022B3C4B1A66CC
:10560C0000F0ED80FFF7B0FE044604E0FFF7ACFEBF
:10561C00001B022850D82B689B01F7D4002002B045
:10562C00BDE8F0815268D6033FF570AF2F4A12687F
:10563C00950725D52269012A22D00120EFE72C4AB3
:10564C002A4EC2F88034FFF78FFE054604E0FFF7C0
:10565C008BFE401B02282FD8736A9F07F7D4BFE735
:10566C00002583E74A68D0037FF519AF1F4A1268FB
:10567C0091037FF53DAF6268002A7FF439AFDCE718
:10568C001A4960690A6822F0F80242EAC0020A600C
:10569C001A077FF55AAF82E7336843F4807333609F
:1056AC00FFF762FE07463368DA053FF564AFFFF794
:1056BC005BFEC01B6428F6D9032002B0BDE8F08164
:1056CC000A4D2B6823F480332B602B6823F4802342
:1056DC002B60FFF749FE064604E0FFF745FE801BF2
:1056EC006428E9D82B689B03F7D400E7001002402C
:1056FC00000042420070004068000020D34D621050
:10570C00504E41F28838336A23F001033362336A16
:10571C0023F004033362FFF727FE074604E0FFF78C
:10572C0023FEC01B4045C7D8336A9807F7D4002D19
:10573C003FF459AF434AD36923F08053D36152E706
:10574C00414A404E1360FFF70FFE054604E0FFF799
:10575C000BFE401B0228AFD833689907F7D4236897
:10576C00F1E6384A136A43F001031362FFF7FCFDBC
:10577C0041F288380646334F04E0FFF7F5FD801BF5
:10578C00404599D83B6A9B07F7D5002D3FF42BAFCA
:10579C00D0E7012B3FF451AF6B68226A03F48031E0
:1057AC0091427FF44AAF606A03F47013181A18BF61
:1057BC00012034E703F18043A3F53C331A6842F42B
:1057CC0080221A601A6842F480321A6081E642F034
:1057DC0004021A621A6A42F001021A62C6E7FFF763
:1057EC00C3FD064605E0FFF7BFFD801B02283FF610
:1057FC0063AF2B689901F6D4236AB3F5803F05D1CA
:10580C006A68A16822F400320A436A6001200D4DD7
:10581C00616A6A680B4322F474120B4913436B6080
:10582C000866FFF7A1FD044605E0FFF79DFD001B90
:10583C0002283FF641AF2B689A01F6D5EEE601201F
:10584C00704700BF0010024000004242002800F0E8
:10585C00A180564A2DE9F0411368044603F0070372
:10586C008B420D460CD2136823F007030B431360D5
:10587C00136803F007038B4202D00120BDE8F081CE
:10588C0023689E0714D5580704D549494A6842F441
:10589C00E0624A60190704D545494A6842F46052EF
:1058AC004A604349A0684A6822F0F00202434A6009
:1058BC00DA0720D562683E4B012A1B686CD0022A9D
:1058CC0065D09E07D9D53A4E41F28838736823F0DB
:1058DC00030313437360FFF747FD074604E0FFF72C
:1058EC0043FDC01B40455AD87368626803F00C0333
:1058FC00B3EB820FF3D12D4A136803F00703AB42CD
:10590C0009D9136823F007032B431360136803F0C2
:10591C000703AB42B1D12368580706D52449E06888
:10592C004A6822F4E06202434A60190707D5204A0C
:10593C002169536823F4605343EAC10353601C4943
:10594C004A6802F00C03082B10D01A4B184A1A485C
:10595C0052681A49C2F30312805C194AC3400868A2
:10596C001360FFF7BFFC0020BDE8F0811548C2F3BF
:10597C008343D203C35C14D50E484A6800FB03F37F
:10598C001149C2F340428A5CB3FBF2F3DEE79F019C
:10599C0099D472E7012070479B0394D46DE70320E0
:1059AC006CE70A4A02FB03F3D0E700BF0020024079
:1059BC000010024000127A003C7C000870000020AD
:1059CC0068000020507C00084C7C000800093D0059
:1059DC0030B51446002C05461A469BB005DA8B23CD
:1059EC0003604FF0FF301BB030BD4FF40273ADF8C5
:1059FC000C304FF0000319930CBF234604F1FF3316
:105A0C00029305934FF6FF7300910491ADF80E309D
:105A1C0069461E9B00F0ACF9431CBCBF8B232B606A
:105A2C00002CE0D00022009B1A70DCE707B5009335
:105A3C0013460A46014603480068FFF7C9FF03B046
:105A4C005DF804FB7400002003460244934200D12D
:105A5C00704703F8011BF9E7014B1868704700BF4A
:105A6C007400002070B500260C4D0D4C641BA41066
:105A7C00A64209D100F076FC00260A4D0A4C641BA4
:105A8C00A410A64205D170BD55F8043B98470136C9
:105A9C00EEE755F8043B98470136F2E79C7C00088A
:105AAC009C7C00089C7C0008A07C00087047704718
:105ABC000A44914200F1FF3300D1704710B511F840
:105ACC00014B914203F8014FF9D110BD38B5054691
