:020000040800F2
:100000000050002069320008713000087930000883
:10001000813000088930000891300008000000009D
:1000200000000000000000000000000099300008FF
:10003000A530000800000000B1300008BD30000805
:10004000B1320008B1320008B1320008B132000804
:10005000B1320008B1320008B1320008B1320008F4
:10006000B1320008B1320008B1320008B1320008E4
:10007000B1320008B1320008B1320008B1320008D4
:10008000B1320008B1320008B1320008B1320008C4
:10009000B1320008B1320008B1320008B1320008B4
:1000A000B1320008B1320008B1320008B1320008A4
:1000B000B1320008B1320008B1320008B132000894
:1000C000B1320008B1320008B1320008B132000884
:1000D000B1320008B1320008B1320008B132000874
:1000E000B1320008B1320008B1320008000000004F
:1000F0000000000000000000000000000000000000
:0C01000000000000000000005FF808F1A3
:1001100010B5054C237833B9044B13B10448AFF341
:1001200000800123237010BDF801002000000000B2
:100130006C84000808B5034B1BB103490348AFF3B7
:10014000008008BD00000000FC0100206C84000855
:10015000034613F8012B002AFBD1181A0138704707
:1001600081F0004102E000BF83F0004330B54FEA68
:1001700041044FEA430594EA050F08BF90EA020FD5
:100180001FBF54EA000C55EA020C7FEA645C7FEA68
:10019000655C00F0E2804FEA5454D4EB5555B8BF8B
:1001A0006D420CDD2C4480EA020281EA030382EAFC
:1001B000000083EA010180EA020281EA0303362D8E
:1001C00088BF30BD11F0004F4FEA01314FF4801C61
:1001D0004CEA113102D0404261EB410113F0004F73
:1001E0004FEA03334CEA133302D0524263EB43032A
:1001F00094EA050F00F0A780A4F10104D5F1200EC8
:100200000DDB02FA0EFC22FA05F2801841F1000122
:1002100003FA0EF2801843FA05F359410EE0A5F1F6
:1002200020050EF1200E012A03FA0EFC28BF4CF027
:10023000020C43FA05F3C01851EBE37101F00045DD
:1002400007D54FF0000EDCF1000C7EEB00006EEBEA
:100250000101B1F5801F1BD3B1F5001F0CD3490874
:100260005FEA30004FEA3C0C04F101044FEA4452CB
:1002700012F5800F80F09A80BCF1004F08BF5FEA52
:10028000500C50F1000041EB045141EA050130BD32
:100290005FEA4C0C404141EB0101013C28BFB1F544
:1002A000801FE9D291F0000F04BF01460020B1FA8F
:1002B00081F308BF2033A3F10B03B3F120020CDA62
:1002C0000C3208DD02F1140CC2F10C0201FA0CF040
:1002D00021FA02F10CE002F11402D8BFC2F1200CA5
:1002E00001FA02F120FA0CFCDCBF41EA0C0190405B
:1002F000E41AA2BF01EB0451294330BD6FEA0404A4
:100300001F3C1CDA0C340EDC04F11404C4F120028E
:1003100020FA04F001FA02F340EA030021FA04F3A0
:1003200045EA030130BDC4F10C04C4F1200220FAF7
:1003300002F001FA04F340EA0300294630BD21FA35
:1003400004F0294630BD94F0000F83F4801306BFFB
:1003500081F480110134013D4EE77FEA645C18BFEF
:100360007FEA655C29D094EA050F08BF90EA020F86
:1003700005D054EA000C04BF1946104630BD91EA7E
:10038000030F1EBF0021002030BD5FEA545C05D181
:100390004000494128BF41F0004130BD14F58004C0
:1003A0003CBF01F5801130BD01F0004545F0FE4134
:1003B00041F470014FF0000030BD7FEA645C1ABF69
:1003C000194610467FEA655C1CBF0B46024650EAA0
:1003D000013406BF52EA033591EA030F41F40021CC
:1003E00030BD00BF90F0000F04BF0021704730B552
:1003F0004FF4806404F132044FF000054FF0000127
:1004000050E700BF90F0000F04BF0021704730B5E7
:100410004FF4806404F1320410F0004548BF4042BC
:100420004FF000013EE700BF42004FEAE2014FEA11
:1004300031014FEA02701FBF12F07F4393F07F4FEC
:1004400081F06051704732F07F4208BF704793F0EF
:100450007F4F04BF41F40021704730B54FF4607402
:1004600001F0004521F000411CE700BF50EA010205
:1004700008BF704730B54FF000050AE050EA0102AE
:1004800008BF704730B511F0004502D5404261EB1E
:1004900041014FF4806404F132045FEA915C3FF45F
:1004A000D8AE4FF003025FEADC0C18BF03325FEAFC
:1004B000DC0C18BF033202EBDC02C2F1200300FAAD
:1004C00003FC20FA02F001FA03FE40EA0E0021FAD2
:1004D00002F11444BDE600BF70B54FF0FF0C4CF4C0
:1004E000E06C1CEA11541DBF1CEA135594EA0C0F72
:1004F00095EA0C0F00F0DEF82C4481EA030621EAAD
:100500004C5123EA4C5350EA013518BF52EA0335E7
:1005100041F4801143F4801338D0A0FB02CE4FF099
:100520000005E1FB02E506F00042E0FB03E54FF0C9
:100530000006E1FB03569CF0000F18BF4EF0010EC1
:10054000A4F1FF04B6F5007F64F5407404D25FEABD
:100550004E0E6D4146EB060642EAC62141EA555170
:100560004FEAC52040EA5E504FEACE2EB4F1FD0CB2
:1005700088BFBCF5E06F1ED8BEF1004F08BF5FEA30
:10058000500E50F1000041EB045170BD06F00046E2
:1005900046EA010140EA020081EA0301B4EB5C048F
:1005A000C2BFD4EB0C0541EA045170BD41F4801187
:1005B0004FF0000E013C00F3AB8014F1360FDEBFAC
:1005C000002001F0004170BDC4F10004203C35DA88
:1005D0000C341BDC04F11404C4F1200500FA05F30B
:1005E00020FA04F001FA05F240EA020001F00042AC
:1005F00021F0004110EBD37021FA04F642EB060122
:100600005EEA430E08BF20EAD37070BDC4F10C044B
:10061000C4F1200500FA04F320FA05F001FA04F20F
:1006200040EA020001F0004110EBD37041F10001FB
:100630005EEA430E08BF20EAD37070BDC4F1200506
:1006400000FA05F24EEA020E20FA04F301FA05F26E
:1006500043EA020321FA04F001F0004121FA04F216
:1006600020EA020000EBD3705EEA430E08BF20EAE6
:10067000D37070BD94F0000F0FD101F00046400020
:1006800041EB010111F4801F08BF013CF7D041EAA2
:10069000060195F0000F18BF704703F000465200A6
:1006A00043EB030313F4801F08BF013DF7D043EA77
:1006B0000603704794EA0C0F0CEA135518BF95EA2D
:1006C0000C0F0CD050EA410618BF52EA4306D1D1B4
:1006D00081EA030101F000414FF0000070BD50EAD3
:1006E000410606BF1046194652EA430619D094EA5D
:1006F0000C0F02D150EA013613D195EA0C0F05D147
:1007000052EA03361CBF104619460AD181EA03019A
:1007100001F0004141F0FE4141F470014FF0000052
:1007200070BD41F0FE4141F4780170BD70B54FF0ED
:10073000FF0C4CF4E06C1CEA11541DBF1CEA13556D
:1007400094EA0C0F95EA0C0F00F0A7F8A4EB05044F
:1007500081EA030E52EA03354FEA013100F0888046
:100760004FEA03334FF0805545EA131343EA12630F
:100770004FEA022245EA111545EA10654FEA0026C4
:100780000EF000419D4208BF964244F1FD0404F57D
:10079000407402D25B084FEA3202B61A65EB0305D9
:1007A0005B084FEA32024FF480104FF4002CB6EB96
:1007B000020E75EB030E22BFB61A754640EA0C0016
:1007C0005B084FEA3202B6EB020E75EB030E22BF56
:1007D000B61A754640EA5C005B084FEA3202B6EB97
:1007E000020E75EB030E22BFB61A754640EA9C0056
:1007F0005B084FEA3202B6EB020E75EB030E22BF26
:10080000B61A754640EADC0055EA060E18D04FEAE3
:10081000051545EA16754FEA06164FEAC30343EA83
:1008200052734FEAC2025FEA1C1CC0D111F4801F50
:100830000BD141EA00014FF000004FF0004CB6E749
:1008400011F4801F04BF01430020B4F1FD0C88BFE8
:10085000BCF5E06F3FF6AFAEB5EB030C04BFB6EBF3
:10086000020C5FEA500C50F1000041EB045170BDE6
:100870000EF0004E4EEA113114EB5C04C2BFD4EB13
:100880000C0541EA045170BD41F480114FF0000E97
:10089000013C90E645EA060E8DE60CEA135594EA13
:1008A0000C0F08BF95EA0C0F3FF43BAF94EA0C0F16
:1008B0000AD150EA01347FF434AF95EA0C0F7FF48B
:1008C00025AF104619462CE795EA0C0F06D152EADF
:1008D00003353FF4FDAE1046194622E750EA4106C3
:1008E00018BF52EA43067FF4C5AE50EA41047FF4D4
:1008F0000DAF52EA43057FF4EBAE12E74FF0FF3C39
:1009000006E000BF4FF0010C02E000BF4FF0010C09
:100910004DF804CD4FEA410C7FEA6C5C4FEA430C82
:1009200018BF7FEA6C5C1BD001B050EA410C0CBFD1
:1009300052EA430C91EA030F02BF90EA020F002033
:10094000704710F1000F91EA030F58BF994208BF9A
:1009500090422CBFD8176FEAE37040F00100704757
:100960004FEA410C7FEA6C5C02D150EA013C07D1AE
:100970004FEA430C7FEA6C5CD6D152EA033CD3D0F9
:100980005DF8040B704700BF8446104662468C46F3
:100990001946634600E000BF01B5FFF7B7FF002826
:1009A00048BF10F1000F01BD4DF808EDFFF7F4FF4F
:1009B0000CBF012000205DF808FB00BF4DF808EDDA
:1009C000FFF7EAFF34BF012000205DF808FB00BFFD
:1009D0004DF808EDFFF7E0FF94BF012000205DF81F
:1009E00008FB00BF4DF808EDFFF7CEFF94BF0120D4
:1009F00000205DF808FB00BF4DF808EDFFF7C4FFCD
:100A000034BF012000205DF808FB00BF4FEA410C15
:100A10007FEA6C5C02D150EA013C0AD14FEA430CF8
:100A20007FEA6C5C02D152EA033C02D14FF0000035
:100A300070474FF0010070474FEA410212F5001273
:100A400015D211D56FF47873B3EB625212D94FEA15
:100A5000C12343F0004343EA505311F0004F23FAFF
:100A600002F018BF404270474FF00000704750EA54
:100A7000013005D111F0004008BF6FF00040704711
:100A80004FF00000704700BF4A0011D212F500126B
:100A900011D20DD56FF47873B3EB62520ED44FEAD6
:100AA000C12343F0004343EA505323FA02F0704756
:100AB0004FF00000704750EA013002D14FF0FF3094
:100AC00070474FF0000070474FEA4102B2F1E04337
:100AD00024BFB3F5001CDCF1FE5C0DD901F0004C25
:100AE0004FEAC0024CEA5070B2F1004F40EB830075
:100AF00008BF20F00100704711F0804F21D113F1A1
:100B00003872BCBF01F00040704741F480114FEAD9
:100B10005252C2F11802C2F1200C10FA0CF320FA62
:100B200002F018BF40F001004FEAC1234FEAD3237F
:100B300003FA0CFC40EA0C0023FA02F34FEA4303E9
:100B4000CCE77FEA625307D150EA01331EBF4FF072
:100B5000FE4040F44000704701F0004040F0FE408D
:100B600040F40000704700BF80F0004002E000BF8A
:100B700081F0004142001FBF5FEA410392EA030F88
:100B80007FEA226C7FEA236C6AD04FEA1262D2EBD2
:100B90001363C1BFD218414048404140B8BF5B42D7
:100BA000192B88BF704710F0004F40F4000020F070
:100BB0007F4018BF404211F0004F41F4000121F086
:100BC0007F4118BF494292EA030F3FD0A2F10102D0
:100BD00041FA03FC10EB0C00C3F1200301FA03F10E
:100BE00000F0004302D5494260EB4000B0F5000F31
:100BF00013D3B0F1807F06D340084FEA310102F1F0
:100C00000102FE2A51D2B1F1004F40EBC25008BFA1
:100C100020F0010040EA03007047490040EB00006B
:100C2000013A28BFB0F5000FEDD2B0FA80FCACF16C
:100C3000080CB2EB0C0200FA0CF0AABF00EBC25099
:100C400052421843BCBFD0401843704792F0000F87
:100C500081F4000106BF80F400000132013BB5E7DA
:100C60004FEA41037FEA226C18BF7FEA236C21D050
:100C700092EA030F04D092F0000F08BF08467047B5
:100C800090EA010F1CBF0020704712F07F4F04D183
:100C9000400028BF40F00040704712F100723CBF96
:100CA00000F50000704700F0004343F0FE4040F4C0
:100CB000000070477FEA226216BF08467FEA23637E
:100CC0000146420206BF5FEA412390EA010F40F469
:100CD000800070474FF0000304E000BF10F00043B5
:100CE00048BF40425FEA000C08BF704743F096439C
:100CF00001464FF000001CE050EA010208BF7047B7
:100D00004FF000030AE000BF50EA010208BF70473D
:100D100011F0004302D5404261EB41015FEA010C52
:100D200002BF84460146002043F0B64308BFA3F14A
:100D30008053A3F50003BCFA8CF2083AA3EBC2532C
:100D400010DB01FA02FC634400FA02FCC2F120024B
:100D5000BCF1004F20FA02F243EB020008BF20F082
:100D60000100704702F1200201FA02FCC2F12002E8
:100D700050EA4C0021FA02F243EB020008BF20EADD
:100D8000DC7070474FF0FF0C1CEAD0521EBF1CEA0B
:100D9000D15392EA0C0F93EA0C0F6FD01A4480EAF9
:100DA000010C400218BF5FEA41211ED04FF00063E2
:100DB00043EA501043EA5111A0FB01310CF000400E
:100DC000B1F5000F3EBF490041EAD3715B0040EA34
:100DD000010062F17F02FD2A1DD8B3F1004F40EB04
:100DE000C25008BF20F00100704790F0000F0CF0D7
:100DF000004C08BF49024CEA502040EA51207F3A9B
:100E0000C2BFD2F1FF0340EAC250704740F4000075
:100E10004FF00003013A5DDC12F1190FDCBF00F066
:100E200000407047C2F10002410021FA02F1C2F114
:100E3000200200FA02FC5FEA310040F1000053EAB0
:100E40004C0308BF20EADC70704792F0000F00F0FE
:100E5000004C02BF400010F4000F013AF9D040EA04
:100E60000C0093F0000F01F0004C02BF490011F498
:100E7000000F013BF9D041EA0C018FE70CEAD15396
:100E800092EA0C0F18BF93EA0C0F0AD030F0004C16
:100E900018BF31F0004CD8D180EA010000F00040CA
:100EA000704790F0000F17BF90F0004F084691F088
:100EB000000F91F0004F14D092EA0C0F01D14202C2
:100EC0000FD193EA0C0F03D14B0218BF084608D18B
:100ED00080EA010000F0004040F0FE4040F40000D5
:100EE000704740F0FE4040F4400070474FF0FF0C68
:100EF0001CEAD0521EBF1CEAD15392EA0C0F93EAAF
:100F00000C0F69D0A2EB030280EA010C49024FEA00
:100F1000402037D04FF0805343EA111143EA1013B9
:100F20000CF000408B4238BF5B0042F17D024FF471
:100F3000000C8B4224BF5B1A40EA0C00B3EB510F4C
:100F400024BFA3EB510340EA5C00B3EB910F24BF35
:100F5000A3EB910340EA9C00B3EBD10F24BFA3EBBA
:100F6000D10340EADC001B0118BF5FEA1C1CE0D182
:100F7000FD2A3FF650AF8B4240EBC25008BF20F035
:100F8000010070470CF0004C4CEA50207F32C2BF89
:100F9000D2F1FF0340EAC250704740F400004FF026
:100FA0000003013A37E792F0000F00F0004C02BF57
:100FB000400010F4000F013AF9D040EA0C0093F021
:100FC000000F01F0004C02BF490011F4000F013B7B
:100FD000F9D041EA0C0195E70CEAD15392EA0C0FE3
:100FE00008D142027FF47DAF93EA0C0F7FF470AF1B
:100FF000084676E793EA0C0F04D14B023FF44CAF5E
:1010000008466EE730F0004C18BF31F0004CCAD1F2
:1010100030F000427FF45CAF31F000437FF43CAF2E
:101020005FE700BF4FF0FF3C06E000BF4FF0010C50
:1010300002E000BF4FF0010C4DF804CD4FEA400232
:101040004FEA41037FEA226C18BF7FEA236C11D07C
:1010500001B052EA530C18BF90EA010F58BFB2EB2F
:10106000030088BFC81738BF6FEAE17018BF40F0AF
:10107000010070477FEA226C02D15FEA402C05D163
:101080007FEA236CE4D15FEA412CE1D05DF8040BE8
:10109000704700BF844608466146FFE70FB5FFF77B
:1010A000C9FF002848BF10F1000F0FBD4DF808ED33
:1010B000FFF7F4FF0CBF012000205DF808FB00BF24
:1010C0004DF808EDFFF7EAFF34BF012000205DF87E
:1010D00008FB00BF4DF808EDFFF7E0FF94BF0120CB
:1010E00000205DF808FB00BF4DF808EDFFF7D2FFC8
:1010F00094BF012000205DF808FB00BF4DF808ED0B
:10110000FFF7C8FF34BF012000205DF808FB00BFD7
:101110004FEA4002B2F1FE4F0FD34FF09E03B3EB04
:1011200012620DD94FEA002343F0004310F0004F44
:1011300023FA02F018BF404270474FF0000070479A
:1011400012F1610F01D1420205D110F0004008BF39
:101150006FF0004070474FF00000704738B5002234
:10116000002304460D46FFF729FC28B920462946EE
:10117000BDE8384000F00AB8204605F1004100F013
:1011800005F8404261EB410138BD00BFD0B50022F7
:101190000B4B06460F46FFF79FF9FFF775FC044619
:1011A000FFF720F90022074BFFF796F902460B469E
:1011B00030463946FEF7D8FFFFF766FC2146D0BD22
:1011C0000000F03D0000F0412DE9F04184B002AF95
:1011D00078607B681C697B68DD687B681B681846E3
:1011E000FFF796FF80467B685B681846FFF790FF25
:1011F00006467B689B681846FFF78AFF0346019303
:10120000009643462A462146034801F0E8FD00BF08
:101210000837BD46BDE8F081888400082DE9F0411B
:1012200084B002AF78607B681C697B68DD687B688E
:101230001B681846FFF76CFF80467B685B681846A2
:10124000FFF766FF06467B689B681846FFF760FF5E
:1012500003460193009643462A462146034801F07F
:10126000BEFD00BF0837BD46BDE8F081108500080F
:101270002DE9F04184B002AF78607B681C697B681F
:10128000DD687B681B681846FFF742FF80467B6875
:101290005B681846FFF73CFF06467B689B6818466C
:1012A000FFF736FF03460193009643462A46214640
:1012B000034801F094FD00BF0837BD46BDE8F0814A
:1012C000908500082DE9F04184B002AF78607B681A
:1012D0001C697B68DD687B681B681846FFF718FF90
:1012E00080467B685B681846FFF712FF06467B68FE
:1012F0009B681846FFF70CFF034601930096434690
:101300002A462146034801F06AFD00BF0837BD4662
:10131000BDE8F081108600082DE9F04184B002AFED
:1013200078607B681C697B68DD687B681B68184691
:10133000FFF7EEFE80467B685B681846FFF7E8FE25
:1013400006467B689B681846FFF7E2FE034601935A
:10135000009643462A462146034801F040FD00BF5F
:101360000837BD46BDE8F081948600082DE9F041BC
:1013700084B002AF78607B681C697B68DD687B683D
:101380001B681846FFF7C4FE80467B685B681846FA
:10139000FFF7BEFE06467B689B681846FFF7B8FE5F
:1013A00003460193009643462A462146034801F02E
:1013B00016FD00BF0837BD46BDE8F081188700085C
:1013C0002DE9F04184B002AF78607B681C697B68CE
:1013D000DD687B681B681846FFF79AFE80467B68CD
:1013E0005B681846FFF794FE06467B689B681846C4
:1013F000FFF78EFE03460193009643462A46214698
:10140000034801F0ECFC00BF0837BD46BDE8F081A1
:101410009C8700082DE9F04184B002AF78607B68BA
:101420001C697B68DD687B681B681846FFF770FEE7
:1014300080467B685B681846FFF76AFE06467B6855
:101440009B681846FFF764FE0346019300964346E7
:101450002A462146034801F0C2FC00BF0837BD46BA
:10146000BDE8F08124880008B0B582B000AF786094
:101470007B681C697B68DD687B681B681846FFF722
:1014800047FE03462A462146034801F0A8FC00BF58
:101490000837BD46B0BD00BFAC88000880B500AFBE
:1014A000124B93F85C31002B1BD01048FFF78CFED9
:1014B0000F48FFF7B3FE0F48FFF7DAFE0E48FFF7BD
:1014C00001FF0E48FFF728FF0D48FFF74FFF0D48BB
:1014D000FFF776FF0C48FFF79DFF0C48FFF7C4FFAE
:1014E00002E00B4801F07BFC00BF80BD140200202D
:1014F0008002002094020020A8020020BC020020EC
:10150000D0020020E4020020F80200200C0300209A
:101510002089000880B500AF0A4B1B68002B0DDA4C
:10152000094940F6B83001F0BBFA0346054A13609A
:10153000044B1B68002B01DA002300E0012318464E
:1015400080BD00BF000000209D14000880B500AFE2
:10155000FFF7E0FF0346184680BD000080B584B069
:1015600000AF786001F092FA02467B681B69D31ADB
:10157000FB60294801F033FC7B681B69194627484A
:1015800001F02DFCF968264801F029FC7B681B78E6
:101590001946244801F023FC7B685B7819462248F1
:1015A00001F01DFC7B689B781946204801F017FC70
:1015B0007B68DB7819461E4801F011FC7B689B882C
:1015C00019461C4801F00BFC7B689B7919461A48A8
:1015D00001F005FC7B68DB791946184801F0FFFB38
:1015E0007B689B681846FEF71FFF02460B461448AF
:1015F00001F0F5FB7B68DB681846FEF715FF024635
:101600000B46104801F0EBFB0F4801F0E8FB00BF70
:101610001037BD4680BD00BF44890008808900089E
:10162000A4890008C8890008E8890008088A000819
:10163000288A0008488A00086C8A0008908A0008F6
:10164000B08A0008D48A0008F88A000880B584B0FF
:1016500000AF786001F01AFA02467B685B69D31A22
:10166000FB60284801F0BBFB7B685B691946264894
:1016700001F0B5FBF968254801F0B1FB7B681B68F8
:101680001846FEF7D1FE02460B46214801F0A7FBA3
:101690007B685B681846FEF7C7FE02460B461D488E
:1016A00001F09DFB7B681B7A19461B4801F097FBF4
:1016B0007B685B7A1946194801F091FB7B689B7A3D
:1016C0001946174801F08BFB7B68DB681846FEF76C
:1016D000ABFE02460B46134801F081FB7B681B7C86
:1016E0001946114801F07BFB7B689B7C19460F482B
:1016F00001F075FB0E4801F072FB00BF1037BD46CC
:1017000080BD00BF308B000880890008A4890008D4
:101710006C8B0008908B0008B48B0008D48B0008F9
:10172000F48B0008148C0008388C0008588C0008D2
:10173000F88A000880B584B000AF786001F0A6F99F
:1017400002467B681B69D31AFB601E4801F047FB09
:101750007B681B6919461C4801F041FBF9681B486E
:1017600001F03DFB7B68B3F900301946184801F0E1
:1017700036FB7B68B3F902301946164801F02FFB9F
:101780007B685B681846FEF74FFE02460B46124820
:1017900001F025FB7B689B681846FEF745FE024674
:1017A0000B460E4801F01BFB7B689B8919460C48D1
:1017B00001F015FB0B4801F012FB00BF1037BD46CE
:1017C00080BD00BF7C8C000880890008A4890008C7
:1017D000B88C0008E08C0008088D0008308D0008E7
:1017E000588D0008F88A000880B584B000AF786092
:1017F00001F04CF902467B685B68D31AFB6016481F
:1018000001F0EDFA7B685B681946144801F0E7FACD
:10181000F968134801F0E3FA7B681B781946114810
:1018200001F0DDFA7B685B7819460F4801F0D7FAC2
:101830007B689B7819460D4801F0D1FA7B68DB780C
:1018400019460B4801F0CBFA0A4801F0C8FA00BF6C
:101850001037BD4680BD00BF7C8D00088089000820
:10186000A4890008B88D0008DC8D0008008E0008EF
:10187000248E0008F88A000880B500AF0B4B93F85F
:101880004830002B0CD00948FFF768FE0848FFF7E6
:10189000DDFE0848FFF74EFF0748FFF7A5FF02E00F
:1018A000064801F09CFA00BF80BD00BF7403002011
:1018B00088030020A0030020B4030020488E000805
:1018C00080B500AF0A4B1B68002B0DDA094940F6C2
:1018D000B83001F0E5F80346054A1360044B1B6875
:1018E000002B01DA002300E00123184680BD00BF71
:1018F000040000207918000880B500AFFFF7E0FF72
:101900000346184680BD80B59CB000AF3A601A46C9
:101910000346FB710B46BB801346BB71002387F85F
:101920006F3097F86F305A1C87F86F2070333B4444
:101930005A2203F8682C97F86F305A1C87F86F20EA
:1019400070333B44A52203F8682C97F86F305A1C7B
:1019500087F86F201946BB790333DAB201F17003BF
:101960003B4403F8682C97F86F305A1C87F86F20B7
:1019700070333B44FA7903F8682CBB881B0A9AB28F
:1019800097F86F30591C87F86F10D2B270333B4410
:1019900003F8682C97F86F305A1C87F86F20BA88C4
:1019A000D2B270333B4403F8682C002387F86E30C2
:1019B00012E097F86E303A681A4497F86F30591C65
:1019C00087F86F10127870333B4403F8682C97F84F
:1019D0006E30013387F86E3097F86E20BB799A42EB
:1019E000E7D397F86F2007F108031146184601F076
:1019F000DAF900BF7037BD4680BD80B584B000AF56
:101A000003460A46FB801346BB80BB881B0A9BB279
:101A1000DBB23B73BB88DBB27B7307F10C02F98846
:101A200002238220FFF76FFF00BF1037BD4680BD45
:101A300080B582B000AF03460A46FB8013467B7137
:101A40007B79002B01D0012200E00022FB881146A7
:101A50001846FFF7D2FF00BF0837BD4680BD80B5EE
:101A600084B000AF03463960FB803B681B0EDBB2DD
:101A70003B733B681B0CDBB27B733B681B0ADBB21E
:101A8000BB733B68DBB2FB7307F10C02F9880423DC
:101A90008220FFF738FF00BF1037BD4680BD80B5FC
:101AA00084B000AF03463960FB803B68FB60FA6896
:101AB000FB8811461846FFF7D2FF00BF1037BD461E
:101AC00080BD000080B500AF3D4B93F865361946E8
:101AD0004FF48050FFF7ACFF394B93F86936194645
:101AE00041F20100FFF7A4FF354B93F85736194632
:101AF00041F20200FFF79CFF314B93F86436194620
:101B000041F20300FFF794FF2D4B93F86736194617
:101B100041F20400FFF78CFF294B93F85C3619461D
:101B200041F20500FFF784FF254B93F8663619460E
:101B300041F20600FFF77CFF214B93F86836194607
:101B400041F20700FFF774FF1D4B93F85836194612
:101B500041F20900FFF76CFF194B93F8593619460B
:101B600041F21000FFF764FF154B93F85A361946FF
:101B700041F21100FFF75CFF114B93F85B361946F9
:101B800041F21200FFF754FF0D4B93F870361946DF
:101B900041F21300FFF74CFF094B93F8E532194669
:101BA0004FF4A850FFF729FF054B93F8E532002BBF
:101BB00008D1002141F21500FFF73AFF18E000BFFD
:101BC000C0030020AA4B1B78194641F21500FFF70D
:101BD0002FFFA74B1B78002B14BF01230023DBB280
:101BE00083F00103DBB203F00103DAB2A04B1A70F9
:101BF000A04B1B78194641F21650FFF7FEFE9D4B95
:101C0000D3F8DC32194641F20250FFF728FF994B16
:101C1000D3F8E032194641F20650FFF720FF954B0A
:101C200093F8D932194641F23850FFF7E6FE914B4E
:101C300093F8D832194641F23650FFF7DEFE8D4B4D
:101C400093F84C3019464FF4AA50FFF7D6FE894B53
:101C50005B68194648F29600FFF721FF854B9B68A9
:101C6000194648F20810FFF71AFF824BD3F8603686
:101C7000194641F23650FFF712FF7E4BD3F8D432AB
:101C800019464FF40140FFF70AFF7A4BD3F8D032E0
:101C9000194648F20410FFF702FF764BD3F860367E
:101CA000194648F21210FFF7FAFE724B93F8E4322D
:101CB00019464FF4A950FFF7A0FE6E4B93F84E3033
:101CC000194641F22250FFF798FE6A4B93F86D36A1
:101CD000194641F22450FFF7ABFE664B93F86E367F
:101CE000194641F22650FFF7A3FE624B93F86F3678
:101CF000194641F22850FFF79BFE5E4B93F86B3676
:101D0000194641F23050FFF793FE5A4B93F86C3668
:101D1000194641F23250FFF78BFE564BDB681946ED
:101D20004FF40040FFF7BBFE524B1B69194648F2C7
:101D30000400FFF7B4FE4F4B5B69194648F20800F8
:101D4000FFF7ADFE4B4B9B69194648F21200FFF7B7
:101D5000A6FE484BDB69194648F21600FFF79FFEC6
:101D6000444B1B6A194648F22000FFF798FE414B8E
:101D70005B6A194648F22400FFF791FE3D4B9B6ACF
:101D8000194648F22800FFF78AFE3A4BDB6A1946EB
:101D900048F23200FFF783FE364B1B6B194648F2C0
:101DA0003600FFF77CFE334B5B6B194648F2400070
:101DB000FFF775FE2F4B9B6B194648F24400FFF767
:101DC0006EFE2C4BDB6B194648F24800FFF767FEAE
:101DD000284B1B6C194648F25200FFF760FE254B5A
:101DE0005B6C194648F25600FFF759FE214B9B6C7D
:101DF000194648F26000FFF752FE1E4BDB6C194695
:101E000048F26400FFF74BFE1A4B1B6D194648F26F
:101E10006800FFF744FE174B5B6D194648F27200ED
:101E2000FFF73DFE134B9B6D194648F27600FFF716
:101E300036FE104BDB6D194648F28000FFF72FFE8F
:101E40000C4B1B6E194648F28400FFF728FE094B25
:101E50005B6E194648F28800FFF721FE054B9B6E2A
:101E6000194648F29200FFF71AFE00BF80BD00BF7E
:101E70000C000020C003002090B583B000AF754B6C
:101E80001B780133DAB2734B1A70724B1B78642BD8
:101E900002D9704B00221A706F4B1B780133DAB2F3
:101EA0006D4B1A706C4B1B78772B02D96A4B002252
:101EB0001A706A4B1B686A491846FEF75BFE0346B8
:101EC0001A46664B1A60654B1B6866491846FFF751
:101ED0000BF90346002B02D0604B634A1A60634B38
:101EE0001B684FF07C511846FEF744FE03461A4625
:101EF0005E4B1A605D4B1B685D491846FFF7F4F8AE
:101F00000346002B03D0594B4FF000021A60594B87
:101F10001B6859491846FEF72DFE03461A46554BD5
:101F20001A60544B1B6855491846FFF7DDF8034605
:101F3000002B02D04F4B524A1A60524B1B78013390
:101F4000DAB2504B1A704F4B1B78632B02D94D4BB2
:101F50001E221A704C4B1B780133DAB24A4B1A70AE
:101F6000494B1B784F2B02D9474B19221A70474B0C
:101F70001B780133DAB2454B1A70444B1B783B2B6C
:101F800002D9424B19221A70414B1B68414918462D
:101F9000FEF7F0FD03461A463D4B1A603C4B1B68AA
:101FA0003D491846FFF7A0F80346002B02D0384BF6
:101FB0003A4A1A603A4B1B680133394A1360394B6D
:101FC0001B680133374A1360364B1B6842F20E72AE
:101FD000934202D9334B00221A60334B1B78002BFB
:101FE00014BF01230023DBB283F00103DBB203F053
:101FF0000103DAB22C4B1A702C4B1B780133DAB286
:102000002A4B1A70294B1B78022B02D9274B00222E
:102010001A70104B1A78264B1A70104B1B68244A02
:102020005360124B1B68224A9360184B1A78204B5E
:1020300083F84C201C4B1B781A461D4B83F84D200F
:10204000194B1B781A461A4B83F84E200023FB715C
:102050004CE000BF340A0020350A002010000020A8
:10206000CDCCCC3D0000584200004042380A002050
:102070000000484214000020CDCC4C3D00006041DF
:102080000000384118000020190000201A0000202C
:102090001C0000200AD7233C66668640CDCC4C400D
:1020A000200000203C0A0020400A0020410A0020B5
:1020B000C0030020FB791846FEF70CFE0346994941
:1020C0001846FEF75FFE03461A46974B1B68FC79DD
:1020D00019461046FEF74EFD03461946934AA31CC7
:1020E0009B0013445960FB790133FB71FB79172B7B
:1020F000E0D98F4B1B688D4AC2F8D0328D4B1B68DC
:102100008A4AC2F8D4328C4B1A78884B83F8D8228A
:102110008A4B1A78854B83F8D922894B1B781A464B
:10212000824B83F8DA22874B1B68804AC2F8DC3284
:10213000854B1B687D4AC2F8E032814B1B781A46FA
:102140007A4B83F8E422814B1A78784B83F8E522A6
:102150007F4B1B78002B0CD1744B012283F858263F
:10216000724B002283F85A26704B002283F85926BE
:102170001CE0774B1B78012B0CD16C4B002283F8B1
:1021800058266A4B012283F85A26684B002283F8AE
:1021900059260BE0654B002283F85826634B00223A
:1021A00083F85A26614B012283F85926644B1A782A
:1021B0005E4B83F85726624B1A785C4B83F85B269C
:1021C0005F4B1A78594B83F85C26624B1B68574A61
:1021D000C2F860365A4B1A78544B83F86426584B31
:1021E0001B78002B14BF01230023DBB283F0010313
:1021F000DBB203F00103DAB24C4B83F86526504B97
:102200001A784A4B83F866264D4B1B78002B14BF77
:1022100001230023DBB283F00103DBB203F00103EF
:10222000DAB2424B83F86726454B1A783F4B83F866
:102230006826434B1B78002B14BF01230023DBB21D
:1022400083F00103DBB203F00103DAB2374B83F80A
:1022500069263B4B1A78354B83F86A26384B1B7836
:10226000002B14BF01230023DBB283F00103DBB298
:1022700003F00103DAB22D4B83F86B26304B1B7849
:10228000002B14BF01230023DBB283F00103DBB278
:1022900003F00103DAB2254B83F86C26284B1B7838
:1022A000002B14BF01230023DBB283F00103DBB258
:1022B00003F00103DAB21D4B83F86D26204B1B7827
:1022C000002B14BF01230023DBB283F00103DBB238
:1022D00003F00103DAB2154B83F86E26184B1B7816
:1022E000002B14BF01230023DBB283F00103DBB218
:1022F00003F00103DAB20D4B83F86F26104B1B7805
:10230000002B14BF01230023DBB283F00103DBB2F7
:1023100003F00103DAB2054B83F8702600BF0C37D7
:10232000BD4690BD0AD7233C1C000020C0030020FE
:1023300010000020380A002018000020190000209A
:10234000400A0020200000203C0A0020350A00201E
:10235000410A00201400002080B500AFFFF78CFD7B
:10236000FFF7B0FB00BF80BD80B500AF734800F041
:1023700036FD734B93F86536002B01D0714B00E0AE
:10238000714B1946714800F02AFD6D4B93F8683681
:10239000002B01D06B4B00E06B4B19466C4800F0F2
:1023A0001EFD674B93F85736002B01D0694B00E0B8
:1023B000694B1946694800F012FD614B93F8573696
:1023C000002B01D0634B00E0634B1946644800F0DA
:1023D00006FD5B4B93F86736002B01D0614B00E0A4
:1023E000614B1946614800F0FAFC554B93F85C3696
:1023F000002B01D05C4B00E05A4B19465C4800F0C2
:10240000EEFC4F4B93F86636002B01D0594B00E0A1
:10241000594B1946594800F0E2FC494B93F868368D
:10242000002B01D0474B00E0474B1946544800F0C1
:10243000D6FC434B93F8E5321946524800F0CFFCE6
:102440003F4BD3F8E03219464F4800F0C8FC3C4BF4
:1024500093F8D93219464D4800F0C1FC384B93F837
:10246000D83219464A4800F0BAFC354B1B78194659
:10247000484800F0B4FC324B5B681846FDF7D4FFC7
:1024800002460B46444800F0AAFC2D4B9B681846B8
:10249000FDF7CAFF02460B46404800F0A0FC284B5F
:1024A00093F85836002B01D0264B00E0264B1946F6
:1024B0003B4800F094FC224B93F85936002B01D096
:1024C000204B00E0204B1946364800F088FC1C4B9E
:1024D00093F85A36002B01D01A4B00E01A4B1946DC
:1024E000314800F07CFC164B93F85B36002B01D092
:1024F000144B00E0144B19462C4800F070FC104BB4
:1025000093F86F36002B01D0164B00E0284B19468C
:10251000284800F064FC0A4B93F86D36002B01D07C
:10252000104B00E0224B1946234800F058FC044BA6
:1025300093F86E36002B41D00A4B40E08C8E000899
:10254000C0030020C88E0008CC8E0008D08E000882
:10255000F08E0008108F0008188F0008248F0008E4
:10256000448F0008648F0008688F00086C8F000893
:102570008C8F0008AC8F0008B88F0008C88F000847
:10258000E88F000808900008289000084C90000888
:102590007090000894900008B8900008DC90000843
:1025A0000091000820910008409100086091000807
:1025B0008091000888910008A8910008584B19469E
:1025C000584800F00CFC584BDB681846FDF72CFF10
:1025D00002460B46554800F002FC534B1B69184657
:1025E000FDF722FF02460B46514800F0F8FB4E4B28
:1025F0005B691846FDF718FF02460B464D4800F090
:10260000EEFB494B9B691846FDF70EFF02460B4651
:10261000494800F0E4FB444BDB691846FDF704FF32
:1026200002460B46454800F0DAFB3F4B1B6A184652
:10263000FDF7FAFE02460B46414800F0D0FB3A4B4C
:102640005B6A1846FDF7F0FE02460B463D4800F077
:10265000C6FB354B9B6A1846FDF7E6FE02460B4665
:10266000394800F0BCFB304BDB6A1846FDF7DCFE56
:1026700002460B46354800F0B2FB2B4B1B6B18464D
:10268000FDF7D2FE02460B46314800F0A8FB264B70
:102690005B6B1846FDF7C8FE02460B462D4800F05E
:1026A0009EFB214B9B6B1846FDF7BEFE02460B4678
:1026B000294800F094FB1C4BDB6B1846FDF7B4FE79
:1026C00002460B46254800F08AFB174B1B6C184648
:1026D000FDF7AAFE02460B46214800F080FB124B94
:1026E0005B6C1846FDF7A0FE02460B461D4800F045
:1026F00076FB0D4B9B6C1846FDF796FE02460B468B
:10270000194800F06CFB084B93F84C3019461748F9
:1027100000F065FB164800F062FB00BF80BD00BF03
:1027200080910008C8910008C0030020E8910008CB
:102730000C92000830920008549200087892000829
:102740009C920008C0920008E492000808930008D8
:102750002C93000850930008749300089893000885
:10276000BC930008E0930008049400082894000833
:102770004C94000880B500AF0A4B1B68002B0DDAA3
:10278000094940F6B83000F08BF90346054A13605A
:10279000044B1B68002B01DA002300E001231846DC
:1027A00080BD00BF080000206923000880B500AF8D
:1027B000FFF7E0FF0346184680BD000080B485B0F7
:1027C00000AF7860164B45F255521A60144B042244
:1027D0005A607B6840F2712202FB03F3114AA2FBAC
:1027E00003239B09FB60FB68B3F5805F02D340F6CF
:1027F000FF73FB60FB68002B01D10123FB60084ADB
:10280000FB689360064B4AF6AA221A60044B4CF60A
:10281000CC421A6000BF1437BD4680BC704700BF71
:1028200000300040D34D621080B400AF034B4AF635
:10283000AA221A6000BFBD4680BC7047003000402D
:1028400080B400AF274B1B68264A43F480331360E3
:1028500000BF244B1B6803F40033002BF9D0224B3C
:102860001B68214A43F0040313601F4B1B681E4A78
:1028700043F0100313601B4B5B681A4A43F4E013E8
:102880005360184B5B68174A43F480335360154B11
:102890005B68144A43F480635360124B5B68114ACF
:1028A00023F4605353600F4B1B680E4A43F0807350
:1028B000136000BF0B4B1B6803F00073002BF9D0B3
:1028C000084B5B68074A43F00203536000BF054BA7
:1028D0005B6803F00C03082BF9D100BF00BFBD46B5
:1028E00080BC7047001002400020024080B487B0D6
:1028F00000AF264BBB60254B7B60254B5B689B087C
:1029000003F003033B603B68022B0DD03B68022BB6
:1029100035D83B68002B03D03B68012B02D02EE05A
:102920007B682DE0BB682BE0194B5B6803F48033B8
:10293000002B10D0164B5B6803F40033002B02D041
:1029400002233B6101E001233B61BA683B69B2FBB2
:10295000F3F3FB6002E07B685B08FB600C4B5B6899
:102960009B0C03F00F0302337B617B690F2B01D1BA
:1029700010237B61FB687A6902FB03F300E07B684C
:1029800018461C37BD4680BC704700BF00127A0055
:1029900000100240B0B592B000AF114B3C1D1D4677
:1029A0000FCD0FC40FCD0FC40FCD0FC495E80F008E
:1029B00084E80F000B4B5B681B0903F00F037B647B
:1029C000FFF794FF02467B6C9B0048333B4453F86F
:1029D000443CB2FBF3F318464837BD46B0BD00BFD8
:1029E0008494000800100240B0B58AB000AF0F4BCD
:1029F0003C1D1D460FCD0FC495E80F0084E80F0065
:102A00000B4B5B681B0A03F007037B62FFF7C2FFF7
:102A100002467B6A9B0028333B4453F8243CB2FBBC
:102A2000F3F318462837BD46B0BD00BFC494000874
:102A300000100240B0B58AB000AF0F4B3C1D1D46E0
:102A40000FCD0FC495E80F0084E80F000B4B5B68B7
:102A5000DB0A03F007037B62FFF79CFF02467B6AF9
:102A60009B0028333B4453F8243CB2FBF3F3184655
:102A70002837BD46B0BD00BFC49400080010024016
:102A800080B500AFFFF7DCFE00BF80BD80B400AFB3
:102A9000024B1B681846BD4680BC7047840B002063
:102AA00080B584B000AF786039600023FB6038E007
:102AB000204AFB681B0113440C331B78002B2DD1DB
:102AC0001C4AFB681B01134408331B68002B25D1EB
:102AD000184AFB681B0113447A681A60FFF7D6FF97
:102AE00002461449FB681B010B4404331A60114A67
:102AF000FB681B01134408333A681A600D4AFB68EF
:102B00001B0113440C3301221A700A4AFB681B0193
:102B100013440D3300221A70FB6807E0FB68013391
:102B2000FB60FB68132BC3DD4FF0FF3318461037F3
:102B3000BD4680BD440A002080B485B000AF7860F7
:102B400039607B68002B02D03B68002B01D1002349
:102B500022E03B681B017A68B2FBF3F3FB603B6841
:102B60001A017B68B3FBF2F101FB02F29A1A3B688F
:102B70005B081A443B68B2FBF3F3BB60BB680F2BE6
:102B800004D9FB680133FB600023BB60FB681A01BA
:102B9000BB6803F00F03134318461437BD4680BCCF
:102BA0007047000080B582B000AFFFF743FF0346D7
:102BB0004FF4E1311846FFF7BFFF78607B68002BC8
:102BC00001D1002335E01D4B9B691C4A43F00403EF
:102BD00093611A4B9B69194A43F480439361184BE4
:102BE0005B68174A23F47F635360154B5B68144A94
:102BF00043F0B0035360124B5B68114A43F48063A7
:102C00005360104A7B6893600E4B42F20C02DA600C
:102C10000C4BDB6803F40053002B06D0094B9B6878
:102C20007A689A4201D1012300E0002303F00103F6
:102C3000DBB218460837BD4680BD00BF0010024019
:102C4000000801400038014080B582B000AFFFF7B6
:102C5000CBFE03464FF4E1311846FFF76DFF786075
:102C60007B68002B01D1002335E01D4B9B691C4A7A
:102C700043F0080393611A4BDB69194A43F480233C
:102C8000D361184B5B68174A23F47F435360154B9D
:102C90005B68144A43F430635360124B5B68114A1B
:102CA00043F480435360104A7B6893600E4B42F2BA
:102CB0000C02DA600C4BDB6803F40053002B06D0E7
:102CC000094B9B687A689A4201D1012300E00023F6
:102CD00003F00103DBB218460837BD4680BD00BFD4
:102CE00000100240000C01400048004080B485B054
:102CF00000AF0346FB710D4BFB6007E0FB68013B37
:102D0000FB60FB68002B01D1002309E0084B1B6826
:102D100003F08003002BF1D0054AFB7953600123B7
:102D200018461437BD4680BC704700BFA08601001E
:102D30000038014080B485B000AF0346FB710D4BF5
:102D4000FB6007E0FB68013BFB60FB68002B01D1E7
:102D5000002309E0084B1B6803F08003002BF1D02F
:102D6000054AFB795360012318461437BD4680BCE1
:102D7000704700BFA08601000048004080B582B0C7
:102D800000AF786006E07B685A1C7A601B781846B2
:102D9000FFF7ACFF7B681B78002BF4D100BF00BFAE
:102DA0000837BD4680BD80B584B000AF78600B4663
:102DB000FB700023FB7309E0FB7B7A6813441B78EC
:102DC0001846FFF7B7FFFB7B0133FB73FA7BFB78F9
:102DD0009A42F1D300BF00BF1037BD4680BD0FB48B
:102DE00080B59AB000AF07F174033B60381D3B68B3
:102DF0003A6F642101F060FF3B1D1846FFF7BEFFEC
:102E000000BF6837BD46BDE8804004B0704780B55C
:102E100000AFFFF7C7FE0346184680BD80B500AF80
:102E2000FFF712FF0346184680BD000080B582B050
:102E300000AF00F03FFA00F07BF8FFF721FEFFF74C
:102E4000E6FF034683F00103DBB2002B01D000F064
:102E5000CBF82D48FFF7C3FFFFF7E0FF034683F0F1
:102E60000103DBB2002B04D02848FFF7B8FF00F0C5
:102E7000BBF82748FFF7B3FFFEF73EFD034683F09C
:102E80000103DBB2002B03D02248FFF7A8FF02E0CA
:102E90002148FFF7A4FFFEF759FB034683F0010327
:102EA000DBB2002B03D01D48FFF799FF02E01C485E
:102EB000FFF795FFFFF77AFC034683F00103DBB2CF
:102EC000002B03D01748FFF78AFF02E01648FFF7F0
:102ED00086FF4FF47A70FFF771FCFFF7D7FD78603B
:102EE000FFF7A2FCFFF738FA4FF4FA7000F044FA4B
:102EF000FFF7CCFD02467B68D31A19460B48FFF753
:102F00006EFF00BFE9E700BFE494000804950008E5
:102F100028950008489500087C950008A4950008AD
:102F2000D8950008009600083896000864960008B6
:102F300080B590B000AF07F1180328220021184691
:102F400001F0C8FE3B1D00221A605A609A60DA60E8
:102F50001A610223BB610123BB621023FB620023C1
:102F60007B6307F11803184600F00EFB0346002BA5
:102F700001D000F039F80F237B600023BB600023F1
:102F8000FB6000233B6100237B613B1D0021184651
:102F900000F07CFD0346002B01D000F025F800BFB7
:102FA0004037BD4680BD000080B400AF0C4B9B692C
:102FB0000B4A43F0080393610A4B1B68094A23F448
:102FC00070631360074B1B68064A43F40073136079
:102FD000044B4FF480221A6100BFBD4680BC70478D
:102FE00000100240000C014080B500AF72B600BF77
:102FF000FFF7DAFF044B04221A61034B1B69024AF4
:1030000083F004031361F8E7000C014080B485B03D
:1030100000AF154B9B69144A43F001039361124BB7
:103020009B6903F00103BB60BB680F4BDB690E4A71
:1030300043F08053D3610C4BDB6903F080537B601A
:103040007B680A4B5B68FB60FB6823F0E063FB6016
:10305000FB6843F08063FB60044AFB68536000BF79
:103060001437BD4680BC704700100240000001408C
:1030700080B400AF00BFFDE780B400AF00BFFDE744
:1030800080B400AF00BFFDE780B400AF00BFFDE734
:1030900080B400AF00BFFDE780B400AF00BFBD4605
:1030A00080BC704780B400AF00BFBD4680BC704795
:1030B00080B400AF00BFBD4680BC704780B500AF94
:1030C00000F03EF9034B1B680133024A136000BF56
:1030D00080BD00BF840B002080B400AF01231846E0
:1030E000BD4680BC704780B582B000AF7860396063
:1030F00001F042FE034616221A604FF0FF331846D5
:103100000837BD4680BD80B582B000AF78604FF013
:10311000FF317868FFF7E7FF00BFFDE780B586B0B5
:1031200000AFF860B9607A6000237B610AE0AFF31A
:1031300000800146BB685A1CBA60CAB21A707B692B
:1031400001337B617A697B689A42F0DB7B681846C1
:103150001837BD4680BD80B586B000AFF860B96055
:103160007A6000237B6109E0BB685A1CBA601B7857
:103170001846AFF300807B6901337B617A697B6815
:103180009A42F1DB7B6818461837BD4680BD80B493
:1031900083B000AF78604FF0FF3318460C37BD4660
:1031A00080BC704780B483B000AF786039603B6802
:1031B0004FF400525A60002318460C37BD4680BCBD
:1031C000704780B483B000AF7860012318460C3795
:1031D000BD4680BC704780B485B000AFF860B96070
:1031E0007A60002318461437BD4680BC7047000043
:1031F00080B586B000AF7860144A154BD31A7B6156
:103200007B693B61134B1B68002B02D1114B124AA7
:103210001A60104B1A687B6813443A699A4207D2C5
:1032200001F0AAFD03460C221A604FF0FF3309E0BB
:10323000084B1B68FB60074B1A687B681344054A00
:103240001360FB6818461837BD4680BD005000204B
:1032500000040000880B0020E00C002080B400AFC8
:1032600000BFBD4680BC7047FFF7F8FF0B480C4914
:103270000C4A002302E0D458C4500433C4188C42D2
:10328000F9D3094A094C002301E013600432A24239
:10329000FBD301F077FDFFF7C9FD70470000002068
:1032A000F8010020EC9A0008F8010020DC0C002056
:1032B000FEE7000080B500AF084B1B68074A43F0EB
:1032C00010031360032000F02BF90F2000F008F822
:1032D000FFF79CFE0023184680BD00BF002002407F
:1032E00080B582B000AF7860124B1A68124B1B7821
:1032F00019464FF47A73B3FBF1F3B2FBF3F31846BC
:1033000000F035F90346002B01D001230EE07B6865
:103310000F2B0AD8002279684FF0FF3000F00BF92C
:10332000064A7B681360002300E001231846083733
:10333000BD4680BD240000202C0000202800002075
:1033400080B400AF054B1B781A46054B1B6813442D
:10335000034A136000BFBD4680BC70472C000020AC
:103360008C0B002080B400AF024B1B681846BD4692
:1033700080BC70478C0B002080B584B000AF7860B3
:10338000FFF7F0FFB8607B68FB60FB68B3F1FF3FBD
:1033900005D00A4B1B781A46FB681344FB6000BF3C
:1033A000FFF7E0FF0246BB68D31AFA689A42F7D8E3
:1033B00000BF00BF1037BD4680BD00BF2C000020FD
:1033C00080B485B000AF78607B6803F00703FB60D2
:1033D0000C4BDB68BB60BA684FF6FF031340BB6061
:1033E000FB681A02BB68134343F0BF6343F4003326
:1033F000BB60044ABB68D36000BF1437BD4680BCC5
:10340000704700BF00ED00E080B400AF044BDB6804
:103410001B0A03F007031846BD4680BC704700BF77
:1034200000ED00E080B483B000AF03463960FB716B
:1034300097F90730002B0ADB3B68DAB20C4997F9A1
:1034400007301201D2B20B4483F800230AE03B6834
:10345000DAB20849FB7903F00F03043B1201D2B240
:103460000B441A7600BF0C37BD4680BC704700BFC6
:1034700000E100E000ED00E080B489B000AFF8604A
:10348000B9607A60FB6803F00703FB61FB69C3F175
:103490000703042B28BF0423BB61FB690433062BFD
:1034A00002D9FB69033B00E000237B614FF0FF3250
:1034B000BB6902FA03F3DA43BB681A407B699A409E
:1034C0004FF0FF317B6901FA03F3D9437B680B406E
:1034D000134318462437BD4680BC704780B582B080
:1034E00000AF78607B68013BB3F1807F01D301239B
:1034F0000FE00A4A7B68013B53600F214FF0FF3019
:10350000FFF790FF054B00229A60044B07221A60D8
:10351000002318460837BD4680BD00BF10E000E01C
:1035200080B582B000AF78607868FFF749FF00BFD0
:103530000837BD4680BD80B586B000AF0346B96090
:103540007A60FB7300237B61FFF75EFF78617A6826
:10355000B9687869FFF790FF024697F90F30114676
:103560001846FFF75FFF00BF1837BD4680BD80B526
:1035700082B000AF78607868FFF7B0FF0346184666
:103580000837BD4680BD000080B586B000AF7860CA
:103590007B68002B01D1012372E27B681B6803F07A
:1035A0000103002B00F08780924B5B6803F00C0353
:1035B000042B0CD08F4B5B6803F00C03082B12D14B
:1035C0008C4B5B6803F48033B3F5803F0BD1894BA0
:1035D0001B6803F40033002B6CD07B685B68002B06
:1035E00068D101234CE27B685B68B3F5803F06D16C
:1035F000804B1B687F4A43F4803313602EE07B6866
:103600005B68002B0CD17B4B1B687A4A23F4803318
:103610001360784B1B68774A23F4802313601DE006
:103620007B685B68B3F5A02F0CD1724B1B68714AA5
:1036300043F4802313606F4B1B686E4A43F480335E
:1036400013600BE06B4B1B686A4A23F480331360F2
:10365000684B1B68674A23F4802313607B685B68B0
:10366000002B13D0FFF77EFE386108E0FFF77AFEEB
:1036700002463B69D31A642B01D9032300E25D4B58
:103680001B6803F40033002BF0D014E0FFF76AFE50
:10369000386108E0FFF766FE02463B69D31A642BE7
:1036A00001D90323ECE1534B1B6803F40033002BD7
:1036B000F0D100E000BF7B681B6803F00203002B21
:1036C00063D04C4B5B6803F00C03002B0BD0494BD1
:1036D0005B6803F00C03082B1CD1464B5B6803F4BA
:1036E0008033002B16D1434B1B6803F00203002BE1
:1036F00005D07B681B69012B01D00123C0E13D4B44
:103700001B6823F0F8027B685B69DB0039491343CF
:103710000B603AE07B681B69002B20D0364B0122FE
:103720001A60FFF71FFE386108E0FFF71BFE024634
:103730003B69D31A022B01D90323A1E12D4B1B684E
:1037400003F00203002BF0D02A4B1B6823F0F80291
:103750007B685B69DB00274913430B6015E0264B50
:1037600000221A60FFF7FEFD386108E0FFF7FAFD5E
:1037700002463B69D31A022B01D9032380E11D4B7A
:103780001B6803F00203002BF0D17B681B6803F079
:103790000803002B3AD07B689B69002B19D0174B8C
:1037A00001221A60FFF7DEFD386108E0FFF7DAFD5D
:1037B00002463B69D31A022B01D9032360E10D4B6A
:1037C0005B6A03F00203002BF0D0012000F09CFAAA
:1037D0001CE00A4B00221A60FFF7C4FD38610FE0BD
:1037E000FFF7C0FD02463B69D31A022B08D9032319
:1037F00046E100BF00100240000042428004424205
:10380000924B5B6A03F00203002BE9D17B681B68D3
:1038100003F00403002B00F0A6800023FB758B4B04
:10382000DB6903F08053002B0DD1884BDB69874A9D
:1038300043F08053D361854BDB6903F08053BB6059
:10384000BB680123FB75824B1B6803F48073002B5C
:1038500018D17F4B1B687E4A43F480731360FFF7D7
:1038600081FD386108E0FFF77DFD02463B69D31A10
:10387000642B01D9032303E1754B1B6803F48073A8
:10388000002BF0D07B68DB68012B06D16F4B1B6AE5
:103890006E4A43F0010313622DE07B68DB68002B66
:1038A0000CD16A4B1B6A694A23F001031362674B10
:1038B0001B6A664A23F0040313621CE07B68DB6822
:1038C000052B0CD1614B1B6A604A43F00403136261
:1038D0005E4B1B6A5D4A43F0010313620BE05B4BD6
:1038E0001B6A5A4A23F001031362584B1B6A574A5A
:1038F00023F0040313627B68DB68002B15D0FFF70D
:1039000031FD38610AE0FFF72DFD02463B69D31A0D
:1039100041F28832934201D90323B1E04B4B1B6A39
:1039200003F00203002BEED014E0FFF71BFD38611B
:103930000AE0FFF717FD02463B69D31A41F28832CD
:10394000934201D903239BE0404B1B6A03F002031F
:10395000002BEED1FB7D012B05D13C4BDB693B4AB3
:1039600023F08053D3617B68DB69002B00F08780F4
:10397000364B5B6803F00C03082B61D07B68DB6976
:10398000022B46D1334B00221A60FFF7EBFC386163
:1039900008E0FFF7E7FC02463B69D31A022B01D986
:1039A00003236DE0294B1B6803F00073002BF0D15B
:1039B0007B681B6AB3F5803F08D1244B5B6823F416
:1039C00000327B689B68214913434B601F4B5B6847
:1039D00023F474127B68196A7B685B6A0B431B498A
:1039E00013434B601B4B01221A60FFF7BBFC38618D
:1039F00008E0FFF7B7FC02463B69D31A022B01D956
:103A000003233DE0114B1B6803F00073002BF0D043
:103A100035E0104B00221A60FFF7A4FC386108E083
:103A2000FFF7A0FC02463B69D31A022B01D90323FE
:103A300026E0064B1B6803F00073002BF0D11EE05C
:103A40007B68DB69012B07D1012319E000100240DC
:103A500000700040600042420B4B5B68FB60FB68FB
:103A600003F480327B681B6A9A4206D1FB6803F438
:103A700070127B685B6A9A4201D0012300E0002348
:103A800018461837BD4680BD0010024080B584B08E
:103A900000AF786039607B68002B01D10123D0E052
:103AA0006A4B1B6803F007033A689A4210D9674BC8
:103AB0001B6823F0070265493B6813430B60634BA7
:103AC0001B6803F007033A689A4201D00123B8E06B
:103AD0007B681B6803F00203002B20D07B681B6807
:103AE00003F00403002B05D0594B5B68584A43F49C
:103AF000E06353607B681B6803F00803002B05D06C
:103B0000534B5B68524A43F460535360504B5B68BD
:103B100023F0F0027B689B684D4913434B607B6840
:103B20001B6803F00103002B40D07B685B68012B0E
:103B300007D1474B1B6803F40033002B15D1012339
:103B40007FE07B685B68022B07D1414B1B6803F069
:103B50000073002B09D1012373E03D4B1B6803F078
:103B60000203002B01D101236BE0394B5B6823F08A
:103B700003027B685B68364913434B60FFF7F2FB37
:103B8000F8600AE0FFF7EEFB0246FB68D31A41F249
:103B90008832934201D9032353E02D4B5B6803F035
:103BA0000C027B685B689B009A42EBD1274B1B6839
:103BB00003F007033A689A4210D2244B1B6823F0A3
:103BC000070222493B6813430B60204B1B6803F03C
:103BD00007033A689A4201D0012332E07B681B68F0
:103BE00003F00403002B08D0194B5B6823F4E06258
:103BF0007B68DB68164913434B607B681B6803F0E6
:103C00000803002B09D0124B5B6823F460527B68D9
:103C10001B69DB000E4913434B6000F021F802469C
:103C20000B4B5B681B0903F00F030A49CB5C22FABC
:103C300003F3094A1360094B1B681846FFF750FB52
:103C4000002318461037BD4680BD00BF002002404B
:103C50000010024094960008240000202800002054
:103C600080B487B000AF0023FB600023BB6000235B
:103C70007B6100237B6000233B611E4B5B68FB6024
:103C8000FB6803F00C03042B02D0082B03D027E0C1
:103C9000194B3B6127E0FB689B0C03F00F03174AAD
:103CA000D35C7B60FB6803F48033002B10D0114B96
:103CB0005B685B0C03F00103114AD35CBB607B685B
:103CC0000D4A03FB02F2BB68B2FBF3F37B6104E035
:103CD0007B680C4A02FB03F37B617B693B6102E07A
:103CE000054B3B6100BF3B6918461C37BD4680BC95
:103CF000704700BF0010024000127A00A49600082E
:103D0000B496000800093D0080B485B000AF78602B
:103D10000A4B1B680A4AA2FB03235B0A7A6802FB70
:103D200003F3FB6000BFFB685A1EFA60002BF9D159
:103D300000BF00BF1437BD4680BC70472400002080
:103D4000D34D6210002B2DE9F0471D46BBBF03F198
:103D500000431D4600232D2388B01446B8BF1446E7
:103D6000129A109E1370149BDDF84CA023F02008CB
:103D7000B8F1460F05D0B8F1450F00D10136022346
:103D800000E0032307AA049206AACDE902A2CDE926
:103D9000003622462B4601F0B7F8B8F1470F074628
:103DA00019D1119BDB070ED500EB06090022002379
:103DB00020462946FCF7F8FD08B1CDF81C903022CA
:103DC000079B4B451ED33846079B159ADB1B136098
:103DD00008B0BDE8F087B8F1460F00EB0609E5D161
:103DE0000378302B0AD10022002320462946FCF715
:103DF000DBFD18B9C6F10106CAF80060DAF8003038
:103E00009944D3E7591C07911A70D9E7F7B50029EF
:103E1000B6BF2D232B23494209290270437029DDA7
:103E20000DF107031D460A27B1FBF7F61A4607FBFB
:103E30001614303402F8014C0C46632C314603F161
:103E4000FF33F1DC3031941E03F8011C2346411C82
:103E5000AB420AD30DF109039B1AAC4288BF002381
:103E600002330344181A03B0F0BD13F8016B01F8D4
:103E7000016FEDE7302330318370C170031DF1E72E
:103E80002DE9F04F91B00C46DDF8688016461F46CC
:103E9000054600F027FF036818460893FCF758F919
:103EA00000230E93D8F800300990073323F007035E
:103EB00003F1080294F818A0D4F800B0C8F8002064
:103EC000D3E9008929F000430B93CDF828804FF007
:103ED000FF32DDE90A01C4E912899C4BFCF796FD2B
:103EE00070BBDDE90A014FF0FF32984BFCF770FD23
:103EF00030BB0022002340464946FCF75FFD10B16D
:103F00002D2384F84330924A924BBAF1470F8CBF6D
:103F10009046984603234FF0000923612BF00403D9
:103F2000236033462146284600970FAA00F0D4F9B3
:103F3000013040F090804FF0FF3011B0BDE8F08FBD
:103F400042464B4640464946FCF760FD48B14B4669
:103F5000002BB8BF2D23804AB8BF84F843307F4B75
:103F6000D3E763680AF0DF015A1C3FD10623636080
:103F700000224BF48063236006920EAACDE904A2CE
:103F80000DAA03920DF13302CDE901326368424676
:103F9000009328464B460A91FFF7D4FE0A998046C3
:103FA00047290D9928D1C81C02DB6368994240DD7E
:103FB000AAF1020A5FFA8AFA5246013904F1500066
:103FC0000D91FFF723FF0E9A81461318012A2361F2
:103FD00002DC2268D20701D5013323619DF833301A
:103FE000002B9ED02D2384F843309AE74729BFD178
:103FF000002BBDD10123BAE7BAF1650FDCD9BAF1C4
:10400000660F18D1002963680BDD216113B922689E
:10401000D00702D501330B4423614FF00009A1659D
:10402000DCE713B92268D20701D50233F4E7012394
:10403000F2E74FF0670A0E9B994205DB2368216186
:10404000D807EAD54B1CE7E70029CCBF0122C1F114
:1040500002021344E0E723685A0507D42369424665
:1040600031462846B84701302BD164E7BAF1650FD5
:1040700040F2DC80D4E9120100220023FCF794FC1A
:10408000002833D0012331462846354AB84701304D
:104090003FF451AFDDE90D38434502DB2368D80713
:1040A0000FD5DDE9082331462846B84701303FF4F3
:1040B00042AF4FF0000908F1FF3804F11A0AC84571
:1040C00009DC23689B0700F10281E0680F9B98429E
:1040D000B8BF184631E70123524631462846B84753
:1040E00001303FF428AF09F10109E8E70D9B002BEF
:1040F00038DC012331462846194AB84701303FF4DD
:104100001AAFDDE90D3959EA030302D12368D90753
:10411000D7D5DDE9082331462846B84701303FF4BA
:104120000AAF4FF0000A04F11A0B0D9B5B42534596
:1041300001DC4B4693E701235A4631462846B847EF
:1041400001303FF4F8AE0AF1010AEEE7FFFFEF7F1E
:10415000BA960008B6960008C2960008BE960008F7
:10416000C6960008A36DDDF838A05345A8BF534696
:10417000002B994636DC4FF0000B29EAE97904F16F
:104180001A02A36D0A93A3EB09035B4531DC0D9B77
:104190009A453ADC2368DA0737D40D9BAAEB03096A
:1041A0000A9BAAEB03039945A8BF9946B9F1000FF2
:1041B00033DC4FF0000829EAE97904F11A0B0D9B72
:1041C000AAEB0303A3EB090343457FF77AAF01236F
:1041D0005A4631462846B84701303FF4ACAE08F1A4
:1041E0000108ECE7424631462846B8470130C2D1C3
:1041F000A1E60123314628460A92B84701303FF430
:104200009AAE0A9A0BF1010BBBE73146DDE90823B0
:104210002846B8470130C0D18DE60A9A4B46314650
:1042200028464244B8470130C3D184E6DDF838A0BF
:10423000BAF1010F01DCDB0736D5012342463146D6
:104240002846B84701303FF476AEDDE90823314611
:104250002846B84701303FF46EAED4E9120100227F
:1042600000230AF1FF3AFCF79FFBC0B9534608F15F
:10427000010231462846B84701300CD15BE60123E4
:104280005A4631462846B84701303FF454AE08F14B
:104290000108D045F3DB4B4604F15002E0E64FF055
:1042A000000804F11A0BF4E701234246E1E7012379
:1042B0004A4631462846B84701303FF43CAE08F143
:1042C0000108E3680F995B1A4345F0DCFDE64FF007
:1042D000000804F11909F4E72DE9F047164698465D
:1042E0008A680B6907469342B8BF1346336091F85A
:1042F00043200C46DDF820900AB101333360236877
:10430000990642BF336802333360256815F006050D
:1043100006D104F1190AE36832689B1AAB422BDC20
:1043200094F843302268003B18BF0123920630D432
:104330004146384604F14302C847013023D0236880
:10434000226903F00603042B14BF002533684FF0E5
:10435000000608BFE56804F11A0408BFED1A54F816
:10436000123C08BF25EAE5759342C4BF9B1AED18BD
:10437000B5421AD1002008E0012352464146384692
:10438000C847013003D14FF0FF30BDE8F087013559
:10439000C1E73020E11881F843005A1C94F8451019
:1043A0002244023382F84310C2E7012322464146E9
:1043B0003846C8470130E6D00136D9E72DE9FF4736
:1043C0000F7E9146782F80460C469A460C9E01F14E
:1043D000430207D8622F0AD8002F00F0D180582F4F
:1043E00000F0B88004F1420684F842703AE0A7F188
:1043F0006303152BF6D801A151F823F055440008AA
:1044000069440008E5430008E5430008E543000867
:10441000E543000869440008E5430008E543000857
:10442000E5430008E5430008674500089344000899
:1044300021450008E5430008E543000889450008D8
:10444000E543000893440008E5430008E5430008FD
:104450002945000833681A1D1B68326004F14206C2
:1044600084F8423001239CE033682068191D3160D4
:10447000060601D51D6803E04506FBD5B3F90050DB
:10448000002D03DA2D236D4284F843300A23584867
:1044900011E021683368080653F8045B02D449062A
:1044A00048BFADB26F2F336014BF0A2308235048B2
:1044B000002184F843106668002EA66005DB2168A1
:1044C0002E4321F0040121604BD01646B5FBF3F1D9
:1044D00003FB1157C75D06F8017D2F46BB420D4611
:1044E000F4D9082B0BD12368DF0708D5236961684D
:1044F0009942DEBF302306F8013C06F1FF36921BDD
:1045000022614B4621464046CDF800A003AAFFF7A2
:10451000E3FE01304AD14FF0FF3004B0BDE8F08730
:10452000236843F0200323607827324884F84570DD
:10453000236831681F0651F8045B02D45F0648BF48
:10454000ADB23160D90744BF43F0200323601DB1F1
:104550001023ADE72648E9E7236823F02003236012
:10456000F6E71646BDE733682568181D61693060B7
:104570002E061B6801D5196002E06806FBD519807C
:10458000002316462361BCE7336800211A1D326000
:104590001E686268304600F01CFC08B1801B606039
:1045A00063682361002384F84330AAE73246494612
:1045B00040462369D0470130ADD023689B0713D410
:1045C000E068039B9842B8BF1846A6E7012332462D
:1045D00049464046D04701309DD00135E3680399F4
:1045E0005B1AAB42F2DCEBE7002504F11906F5E7B4
:1045F000C8960008D99600082DE9F04F87B00393BC
:104600008B6891465A1EB2F5AE7F82BF6FF4AE75CD
:1046100003EB050B40F25D130A464FF0000588BF1F
:104620008B600B68804643F4F06342F81C3B0C46F9
:1046300098BF4FF0000B1646AA462F46CDE9045509
:1046400001920295A2685AB1D9F800301B784E2B1E
:1046500062D8402B3AD8A3F12B01C8B20E2838D922
:104660001FB1236823F4807323600AF1FF3ABAF183
:10467000010F00F21481019B9E4200F2058101208E
:1046800007B0BDE8F08FA3F161020D2AE8D801A1BF
:1046900051F822F0DD470008614600086146000835
:1046A00061460008394800081348000861460008C0
:1046B00061460008EB4700086146000861460008B3
:1046C0006146000861460008A7470008A3F14102BF
:1046D000DBE70E29C4D801A050F821F09747000865
:1046E000614600089747000827480008614600080F
:1046F000394700087D4700087D4700087D470008CE
:104700007D4700087D4700087D4700087D47000879
:104710007D4700087D4700086E2B09D8602BB2D872
:10472000542B7BD0592B9BD1072D99D108252FE0F5
:10473000742B73D0792BF6E72168C8051ED521F0BC
:10474000800121600137BBF1000F03D001320BF172
:10475000FF3BA260A368013BA3602369013323618F
:10476000D9F80430013B002BC9F8043040F38380B2
:10477000D9F800300133C9F8003063E71AEB0501BE
:104780007FF46EAF0D468A46226822F4C072226022
:1047900006F8013BDEE7226810067FF561AF22F0E4
:1047A00080022260F4E7BAF1000F0CD177B92268D9
:1047B00002F4E061B1F5E06F08D122F4F0624FF04D
:1047C000010A2260E4E7BAF1020F51D0012D02D0B4
:1047D000042D7FF445AF0135EDB2D9E7BAF1010FF1
:1047E0007FF43EAF4FF0020AD2E775B9002F7FF495
:1047F00038AF226802F4E061B1F5E06F40F0FF806D
:1048000022F4F06201252260C2E7032DE3D0052DDA
:10481000DFE7022D7FF424AF0325B9E7062D7FF4EF
:104820001FAF0725B4E7226891057FF519AF22F481
:10483000207222600297ABE7226802F4A061B1F512
:10484000806F05D050057FF50BAF002F00F0D780AB
:10485000910558BF029922F4F06258BF791A42F4C8
:10486000C0724FF0000758BFCDE9041622608FE7F1
:104870004FF0030A8CE749464046D4F88031984708
:1048800000283FF4DFAEEBE6D4F87C314A464046E0
:1048900016F8011D98472369013B2361EBE66B1E67
:1048A000062B24D8022D36D8019B9E427FF6E7AE18
:1048B000D4F87C314A46404616F8011D98472369D2
:1048C000013B2361F0E7D4F87C314A4640461BF8AF
:1048D000011D98472369013B23610AF1FF3A5FFA02
:1048E0008AFABAF1020FEED1033DEDB2761B2368CE
:1048F000DA0530D55B0511D5019B9E427FF6BFAE30
:10490000D4F87C314A46404616F8011D9847236981
:10491000013B2361F0E7AA46B346DEE716F8011C27
:104920002369652903F1FF3306F1FF3523610CD0BC
:1049300045290AD0D4F87C314A4640469847236935
:1049400016F8021C013BB51E23614A464046D4F8C6
:104950007C3198472E46226812F0100201D00020C8
:104960008EE63270236803F4C063B3F5806F25D1FF
:10497000029B9F420AD0DA1B04F26F139E4228BFAB
:1049800004F5B77630461F4900F002F90022404690
:10499000019902F025FC039B25681B6815F0020FA6
:1049A00006460F4603F1040215D003990A601B68FE
:1049B000C3E90067E3680133E360D0E7049B002BA1
:1049C000E4D005990A234046013102F089FC049B9A
:1049D000059EC21AD0E76D07E7D4039D2A601D68C3
:1049E00002460B46FCF712F820B1074800F000FA27
:1049F0002860DFE730463946FCF766F8F8E700271D
:104A000033E600BFEA9600082B980008002310B593
:104A10000446C0E90033C0E9043383608181436602
:104A2000C2818361194608225C3000F053F90D4BB6
:104A3000246263620C4BA3620C4BE3620C4B236356
:104A40000C4B9C4206D003F16802944202D0D03352
:104A50009C4205D104F15800BDE8104000F0B6B901
:104A600010BD00BFD54B0008F74B00082F4C0008C5
:104A7000534C0008900B0020024A0349034800F001
:104A800069B800BF30000020957600084000002083
:104A900041680C4B10B59942044601D002F0FAFD72
:104AA000A168094B994202D0204602F0F3FDE1686B
:104AB000064B994204D02046BDE8104002F0EABD02
:104AC00010BD00BF900B0020F80B0020600C0020F0
:104AD00010B50B4B0B4C0C4A20461A6004210022E7
:104AE000FFF794FF04F1680001220921FFF78EFF10
:104AF00004F1D0000222BDE810401221FFF786BF6A
:104B0000C80C0020900B0020794A0008014800F0F2
:104B10005EB900BFD10C0020014800F059B900BFB8
:104B2000D10C002010B50446FFF7F0FF236A1BB13B
:104B3000BDE81040FFF7F0BF044B2362044B1B6835
:104B4000002BF5D1FFF7C4FFF2E700BF914A000840
:104B5000C80C00202DE9F843074688461446002675
:104B6000D4E90195B9F1010905D52468002CF7D1E4
:104B70003046BDE8F883AB89012B07D9B5F90E3073
:104B8000013303D029463846C04706436835E9E774
:104B90000EB46FF0004110B500249DB01FAB029021
:104BA0000690079104910948094953F8042B05918F
:104BB000006802A901931B9402F0F0FB029B1C7099
:104BC0001DB0BDE8104003B0704700BF3C0000209E
:104BD0000802FFFF10B50C46B1F90E1000F0A8F85E
:104BE0000028ABBF636DA3891B1823F48053ACBFAF
:104BF0006365A38110BD2DE9F0411F468B890546F1
:104C0000DB050C46164605D502230022B1F90E102D
:104C100000F07CF8A389324623F48053A381284610
:104C20003B46B4F90E10BDE8F04100F093B810B562
:104C30000C46B1F90E1000F069F8431CA38915BFAA
:104C4000606523F4805343F48053A38118BFA3818C
:104C500010BDB1F90E1000F049B830B51446002C63
:104C600005461A469BB005DA8B2303604FF0FF30F0
:104C70001BB030BD4FF40273ADF80C304FF00003A1
:104C800019930CBF234604F1FF33029305934FF6AB
:104C9000FF7300910491ADF80E3069461E9B02F03F
:104CA0007DFB431CBCBF8B232B60002CE0D000227B
:104CB000009B1A70DCE7000007B5009313460A4614
:104CC000014603480068FFF7C8FF03B05DF804FB26
:104CD0003C00002003460244934200D1704703F891
:104CE000011BF9E7004870477C01002038B500231C
:104CF000054D044608462B60FEF749FA431C02D1D5
:104D00002B6803B1236038BDCC0C002038B50446B5
:104D1000084611460022054D2A601A46FEF75BFA46
:104D2000431C02D12B6803B1236038BDCC0C00209A
:104D300038B50446084611460022054D2A601A4639
:104D4000FEF7ECF9431C02D12B6803B1236038BD98
:104D5000CC0C002038B50446084611460022054D0B
:104D60002A601A46FEF7F7F9431C02D12B6803B1FB
:104D7000236038BDCC0C0020014B1868704700BF81
:104D80003C00002070B500260C4D0D4C641BA41097
:104D9000A64209D103F06AFB00260A4D0A4C641BA7
:104DA000A410A64205D170BD55F8043B98470136C2
:104DB000EEE755F8043B98470136F2E7E49A00081D
:104DC000E49A0008E49A0008E89A000870477047DF
:104DD0007047034610B5C9B202449342184601D148
:104DE000002003E0047801338C42F6D110BD0000AE
:104DF000004870470000C07F2DE9F74F03690C6938
:104E00000746A3427EDB013CA30000F1140501F13B
:104E10001408009305EB8403019358F8243055F8E7
:104E2000242001339A42B2FBF3F608EB84092ED317
:104E30004FF0000AC446AE46D3465CF8043B98B235
:104E400006FB00A01B0C020C06FB0323DEF800206F
:104E500080B292B2121A5A44DEF800004FEA134AA6
:104E60009BB2C3EB224303EB104392B242EA0342EC
:104E7000E1454FEA234B4EF8042BDED2009BEB5862
:104E80002BB9019B043B9D421A462FD33C61384607
:104E900001F0C8F9002825DB2946002058F8042B2A
:104EA000D1F800C01FFA82FE1FFA8CF3A3EB0E03A9
:104EB0000344120CC2EB234202EB1C429BB243EAB6
:104EC0000243C1454FEA224041F8043BE6D255F87F
:104ED000242005EB840322B9043B9D421A460BD3E0
:104EE0003C610136304603B0BDE8F08F1268043BE8
:104EF000002ACBD1013CC6E71268043B002AEFD15F
:104F0000013CEAE70020EEE72DE9F04F14461D468C
:104F1000C76997B08146CDE90645239E7FB9102029
:104F200000F00EFE0246C9F81C0020B9EF21AC4B80
:104F3000AC4802F027FCC0E901770760C760D9F8E8
:104F40001C30196859B15A68012393404A608B603C
:104F5000484600F0EBFE0022D9F81C301A602B1EE8
:104F6000AFBF0023012223F000430793A8BF3360A3
:104F7000DDF81C809C4BB8BF326033EA080312D1C5
:104F800042F20F73229A1360C8F31303234300F015
:104F90005E85249BDFF854A2002B00F060850AF1A7
:104FA000030300F05ABDDDE90623CDE90C23DDE95A
:104FB0000C0100220023FBF7F7FC074658B1012340
:104FC000229A1360249B13B1894B249A1360DFF853
:104FD00024A200F044BD14AB019315AB00934846E6
:104FE000DDE90C2301F036FAC8F30A560390002ECF
:104FF00078D0DDE90C010D9BA6F2FF36C3F3130355
:1050000043F07F5343F440131297194600227A4B22
:10501000FBF7AAF86CA3D3E90023FBF75DFA6CA3B6
:10502000D3E90023FBF7A2F8044630460D46FBF710
:10503000E9F969A3D3E90023FBF74EFA02460B46D0
:1050400020462946FBF792F804460D46FBF7F4FC90
:1050500000220746002320462946FBF7AFFC40B15B
:105060003846FBF7CFF922462B46FBF79DFC00B9EB
:10507000013F162F54D8DDE90C01604B03EBC70349
:10508000D3E90023FBF79AFC00284BD00023013F13
:105090000F93149B9B1B5A1E49BFC3F101030023AE
:1050A00004930023099254BF04930993002F3BDB20
:1050B000099B0E973B44099300230A93209B092BDD
:1050C00065D8052BC4BF043B2093209BC8BF002498
:1050D000A3F10203D8BF0124032B64D8DFE803F057
:1050E0005355382CDDE914631E4406F23243202B5D
:1050F000C1BFC3F1400308FA03F806F2124324FAD1
:1051000003F3D6BFC3F1200348EA030004FA03F017
:10511000FBF768F90122A1F1F873013E129274E7DE
:105120000123B5E70F90B4E7049BDB1B04937B429C
:105130000A9300230E93C1E701230B93219B07EBF6
:10514000030B0BF10103012B0893B8BF012306E009
:1051500001230B93219B002B28DD9B460893002104
:105160000422D9F81C0002F114059D4226D94160A1
:10517000484600F09BFD8246002843D1024640F29B
:10518000AF111F4BD4E60023E3E70023D5E701244A
:1051900000230B9420934FF0FF3B00221223CDF805
:1051A00020B02192DBE701230B93F4E74FF0010BD2
:1051B0005B46CDF820B0CDF884B0D0E70131520085
:1051C000D1E700BFAFF3008061436F63A787D23F91
:1051D000B3C8608B288AC63FFB799F501344D33FE6
:1051E000FC960008139700080000F07FF89600086E
:1051F000C7960008C69600080000F83FC09800084F
:105200006B970008D9F81C301860089B0E2B00F231
:10521000A180002C00F09E80002F33DD9C4B07F016
:105220000F0203EBC203F805D3E90034CDE91034D3
:105230004FEA271416D5DDE90C01964B0326D3E976
:105240000823FBF773FACDE9060104F00F04914D32
:1052500054B9DDE91023DDE90601FBF767FACDE972
:10526000060128E00226F2E7E10708D5DDE9100192
:10527000D5E90023FBF730F9CDE9100101366410C0
:105280000835E5E700F0AF80DDE90C017C42804B9A
:1052900004F00F0203EBC203D3E90023FBF71CF970
:1052A00002260023CDE906017A4D2411002C40F09E
:1052B0008F80002BD3D1DDE906450F9B002B00F03A
:1052C0009480002220462946734BFBF777FB002889
:1052D00000F08B80089B002B00F08780BBF1000F53
:1052E00034DD2046002229466C4BFBF7F5F85C467E
:1052F000CDE9060107F1FF3801363046FBF782F8A9
:10530000DDE90623FBF7E8F80022654BFAF72EFFEC
:105310000546A1F15076002C6AD1DDE90601002294
:10532000604BFAF721FF02460B46CDE906232A46D9
:105330003346FBF761FB002840F09882DDE9060167
:105340002A4606F10043FBF739FB38BBDDE90C3494
:10535000CDE90634159B002BC0F257810E2F00F3C8
:1053600054814B4B03EBC703D3E90034CDE904343C
:10537000219B002B80F2E580089B002B00F3E1804D
:105380000CD1DDE904010022464BFBF7A5F8DDE96D
:105390000623FBF727FB002800F066820024254641
:1053A000219B56466FEA030800272146484600F035
:1053B000BDFC002D00F0BD802FB1AF4203D03946B7
:1053C000484600F0B3FC2946484600F0AFFCB0E088
:1053D000E20705D5D5E90023FBF77EF80123013666
:1053E0006410083562E7022665E7B846089C84E742
:1053F000274B0B9903EBC40353E9022354440029C0
:1054000054D000202849FBF791F933462A46FAF791
:10541000ABFE5646CDE91001DDE90601FBF70CFBBA
:105420000546FAF7EFFF02460B46DDE90601FAF7FB
:105430009BFE02460B463035CDE90623DDE91023FD
:1054400006F8015BFBF7BAFA002872D1DDE9062302
:1054500000201149FAF788FEDDE91023FBF7AEFAC8
:10546000002840F0B480A6423FF470AFDDE910019F
:1054700000220A4BFBF730F80022CDE91001DDE9EC
:105480000601064BFBF728F8CDE90601C4E700BF8B
:10549000C0980008989800080000F03F00002440E1
:1054A00000001C40000014400000E03F3146284648
:1054B000FBF712F85646CDE910011394DDE9060119
:1054C000FBF7BAFA0546FAF79DFF02460B46DDE9FF
:1054D0000601FAF749FE02460B46303506F8015B35
:1054E000A642CDE906234FF0000224D1DDE91001E8
:1054F000AE4BFAF73BFE02460B46DDE90601FBF731
:105500007BFA002863D1DDE910230020A749FAF7D0
:105510002BFE02460B46DDE90601FBF74FFA002899
:105520003FF414AF139E731E139316F8013C302BF7
:10553000F8D047463BE09E4BFAF7CEFFCDE9060197
:10554000BCE75646DDE90645DDE904232046294649
:10555000FBF7ECF8FBF770FA8046FAF753FFDDE94A
:105560000423FAF7B9FF02460B4620462946FAF70C
:10557000FBFD08F13004089D06F8014BA6EB0A0478
:10558000A54202460B4633D1FAF7F0FDDDE90423CC
:1055900004460D46FBF730FAC0B9DDE90423204686
:1055A0002946FBF701FA10B118F0010F0ED1484659
:1055B000039900F0BBFB00233370229B01371F606F
:1055C000249B002B00F04B821E6048E2B846334615
:1055D0001E4613F8012D392A06D19A45F8D13022FA
:1055E00008F101088AF800201A7801321A70A0E741
:1055F00000226F4BFAF770FF0022002304460D468D
:10560000FBF7D2F900289FD0D1E70B9A002A00F0CF
:10561000EA80209A012A00F3CD80129A002A00F035
:10562000C18003F233430A9C049E049A01211A4468
:105630000492099A48461A44099200F075FC0546FE
:1056400066B1099B002B09DDB342A8BF3346049A1B
:10565000F61AD21A0492099AD31A09930A9B0BB329
:105660000B9B002B00F0C680002C00F0C080294668
:105670002246484600F010FD039A0146054648467A
:1056800000F068FC03998046484600F04FFB0A9BF7
:105690001B1B0A9300F0B18041460A9A484600F06D
:1056A000FBFC03900121484600F03EFC0E9B0446A3
:1056B000002B00F0D8811A460146484600F0ECFC69
:1056C000209B0446012B00F39F80069B002B40F09B
:1056D0009780079BC3F31303002B40F09380079B35
:1056E00023F000431B0D1B0533B1049B01330493CE
:1056F000099B0133099301230A930E9B002B00F0B1
:10570000B881236904EB8303186900F0C1FBC0F181
:105710002000099B184410F01F0000F08280C0F1A7
:105720002003042B73DD049BC0F11C00034404938D
:10573000099B064403440993049B002B05DD1A468C
:105740004846039900F002FD0390099B002B05DDFC
:1057500021461A46484600F0F9FC04460F9B002BF0
:1057600061D02146039800F05DFD00285BDA00233C
:105770000A224846039900F0FBFA0B9B07F1FF3819
:105780000390002B00F07781294600230A22484627
:1057900000F0EEFABBF1000F05466FDC209B022BF8
:1057A00049DC6BE0149BC3F136033CE70000E03FAB
:1057B00000002440089B5C1E0A9BA34209DB1C1BC3
:1057C000089B002BBFF630AF049B089A9E1A00235B
:1057D0002BE70A9B0E9AE31A1A440A94049E0024AB
:1057E000089B0E9221E70A9C049E0B9D28E7DDF89A
:1057F0000C8051E70A9A039950E7CDF80C8051E7E5
:10580000002379E7069B77E700230A9379E793D093
:10581000049A1C331A440492099A1E441A440992A9
:105820008AE70346F4E7089BB846002B20DC9B463A
:10583000209B022B1EDDBBF1000F7FF4B1AD214692
:105840005B460522484600F093FA01460446039859
:1058500000F0E8FC00287FF7A3AD5646312308F19D
:10586000010806F8013B9FE5B846089C2546F4E789
:10587000DDF820B00B9B002B00F00181002E05DD30
:1058800029463246484600F061FC05460A9B002B3B
:105890005CD04846696800F009FA064628B9024615
:1058A00040F2EF21804BFFF743BB2A6905F10C0161
:1058B000023292000C3001F051FF0122314648467D
:1058C00000F044FC2F4605460AF1010304930AEB5D
:1058D0000B030A93069B03F001030993049B2146E3
:1058E000039803F1FF3BFFF787FA0346394630334D
:1058F000069003980B9300F095FC2A4608902146E9
:10590000484600F0ABFCC26806460B9B02BB014652
:10591000039800F087FC02460B9B31464846CDE9D0
:105920000B3200F003FA209B0C9A049E42EA03011A
:10593000099B19430B9B0DD1392B27D0089A002ABC
:1059400001DD069B31338BF800302EE52846B9E7A0
:105950000122E2E70899002904DB20980143099815
:10596000014320D1002AEEDD012203994846049329
:1059700000F0ECFB2146039000F054FC0028049B4F
:1059800002DCE0D1DA07DED5392BDAD139238BF806
:10599000003033461E4616F8012C013B392A4ED002
:1059A00001321A7001E5002A03DD392BEED00133F4
:1059B000C9E7049A0A9902F8013C8A4228D00023D8
:1059C0000A220399484600F0D3F9AF4203904FF002
:1059D00000034FF00A023946484607D100F0C8F9E3
:1059E00007460546049B0133049377E700F0C0F9AE
:1059F0002946074600230A22484600F0B9F9054621
:105A0000F0E7BBF1000FCCBF5E46012600275644ED
:105A1000012203994846049300F098FB2146039025
:105A200000F000FC0028B4DC02D1049BDB07B0D4FA
:105A300033461E4613F8012D302AFAD0B5E49A45B4
:105A4000A8D1312308F101088AF80030ADE4249B85
:105A5000DFF858A01BB10AF10803249A13605046DE
:105A600017B0BDE8F08F209B012B7FF72EAE0E9B69
:105A70000A9301204DE6BBF1000F7FF7D9AE5646E1
:105A800021460398FFF7B8F900F1300306F8013B0F
:105A9000A6EB0A029345B4DD00230A224846039987
:105AA00000F066F90390EBE76B970008EF960008AB
:105AB00038B50546002940D051F8043C0C1F002B96
:105AC000B8BFE41800F0E6F81C4A136833B9636005
:105AD00014602846BDE8384000F0E2B8A34208D977
