:020000040800F2
:100000000050002079520008F9510008FD51000805
:1000100001520008055200080952000800000000C3
:100020000000000000000000000000000D52000869
:100030001152000800000000155200081952000873
:10004000C1520008C1520008C1520008C152000844
:10005000C1520008C1520008C1520008C152000834
:10006000C1520008C1520008C1520008C152000824
:10007000C1520008C1520008C1520008C152000814
:10008000C1520008C1520008C1520008C152000804
:10009000C1520008C1520008C1520008C1520008F4
:1000A000C1520008C1520008C1520008C1520008E4
:1000B000C1520008C1520008C1520008C1520008D4
:1000C000C1520008C1520008C1520008C1520008C4
:1000D000C1520008C1520008C1520008C1520008B4
:1000E000C1520008C1520008C152000800000000BF
:1000F0000000000000000000000000000000000000
:0C01000000000000000000005FF808F1A3
:10010C0010B5054C237833B9044B13B10448AFF345
:10011C0000800123237010BDB000002000000000FF
:10012C006C63000808B5034B1BB103490348AFF3DC
:10013C00008008BD00000000B40000206C630008C3
:10014C00034613F8012B002AFBD1181A013870470B
:10015C004FF0FF0C1CEAD0521EBF1CEAD15392EA9E
:10016C000C0F93EA0C0F6FD01A4480EA010C40027A
:10017C0018BF5FEA41211ED04FF0006343EA5010D4
:10018C0043EA5111A0FB01310CF00040B1F5000F16
:10019C003EBF490041EAD3715B0040EA010062F1C5
:1001AC007F02FD2A1DD8B3F1004F40EBC25008BFAF
:1001BC0020F00100704790F0000F0CF0004C08BFCD
:1001CC0049024CEA502040EA51207F3AC2BFD2F19A
:1001DC00FF0340EAC250704740F400004FF00003A8
:1001EC00013A5DDC12F1190FDCBF00F000407047E2
:1001FC00C2F10002410021FA02F1C2F1200200FA20
:10020C0002FC5FEA310040F1000053EA4C0308BFE6
:10021C0020EADC70704792F0000F00F0004C02BF37
:10022C00400010F4000F013AF9D040EA0C0093F0B2
:10023C00000F01F0004C02BF490011F4000F013B0C
:10024C00F9D041EA0C018FE70CEAD15392EA0C0F7A
:10025C0018BF93EA0C0F0AD030F0004C18BF31F0E5
:10026C00004CD8D180EA010000F00040704790F0BB
:10027C00000F17BF90F0004F084691F0000F91F05F
:10028C00004F14D092EA0C0F01D142020FD193EA25
:10029C000C0F03D14B0218BF084608D180EA0100AD
:1002AC0000F0004040F0FE4040F40000704740F089
:1002BC00FE4040F44000704781F0004102E000BF76
:1002CC0083F0004330B54FEA41044FEA430594EA0A
:1002DC00050F08BF90EA020F1FBF54EA000C55EA45
:1002EC00020C7FEA645C7FEA655C00F0E2804FEA16
:1002FC005454D4EB5555B8BF6D420CDD2C4480EAF8
:10030C00020281EA030382EA000083EA010180EA27
:10031C00020281EA0303362D88BF30BD11F0004F75
:10032C004FEA01314FF4801C4CEA113102D04042AB
:10033C0061EB410113F0004F4FEA03334CEA1333E6
:10034C0002D0524263EB430394EA050F00F0A780FE
:10035C00A4F10104D5F1200E0DDB02FA0EFC22FAF9
:10036C0005F2801841F1000103FA0EF2801843FAED
:10037C0005F359410EE0A5F120050EF1200E012ADE
:10038C0003FA0EFC28BF4CF0020C43FA05F3C0181C
:10039C0051EBE37101F0004507D54FF0000EDCF195
:1003AC00000C7EEB00006EEB0101B1F5801F1BD33E
:1003BC00B1F5001F0CD349085FEA30004FEA3C0C42
:1003CC0004F101044FEA445212F5800F80F09A8038
:1003DC00BCF1004F08BF5FEA500C50F1000041EB3C
:1003EC00045141EA050130BD5FEA4C0C404141EB40
:1003FC000101013C28BFB1F5801FE9D291F0000F3B
:10040C0004BF01460020B1FA81F308BF2033A3F1E9
:10041C000B03B3F120020CDA0C3208DD02F1140CE0
:10042C00C2F10C0201FA0CF021FA02F10CE002F11B
:10043C001402D8BFC2F1200C01FA02F120FA0CFC14
:10044C00DCBF41EA0C019040E41AA2BF01EB04515D
:10045C00294330BD6FEA04041F3C1CDA0C340EDC5B
:10046C0004F11404C4F1200220FA04F001FA02F39E
:10047C0040EA030021FA04F345EA030130BDC4F15C
:10048C000C04C4F1200220FA02F001FA04F340EA51
:10049C000300294630BD21FA04F0294630BD94F002
:1004AC00000F83F4801306BF81F480110134013DE9
:1004BC004EE77FEA645C18BF7FEA655C29D094EA5A
:1004CC00050F08BF90EA020F05D054EA000C04BFD8
:1004DC001946104630BD91EA030F1EBF00210020C3
:1004EC0030BD5FEA545C05D14000494128BF41F062
:1004FC00004130BD14F580043CBF01F5801130BDC6
:10050C0001F0004545F0FE4141F470014FF0000050
:10051C0030BD7FEA645C1ABF194610467FEA655C01
:10052C001CBF0B46024650EA013406BF52EA0335A3
:10053C0091EA030F41F4002130BD00BF90F0000F91
:10054C0004BF0021704730B54FF4806404F13204CD
:10055C004FF000054FF0000150E700BF90F0000F86
:10056C0004BF0021704730B54FF4806404F13204AD
:10057C0010F0004548BF40424FF000013EE700BF7D
:10058C0042004FEAE2014FEA31014FEA02701FBF0D
:10059C0012F07F4393F07F4F81F06051704732F03F
:1005AC007F4208BF704793F07F4F04BF41F4002196
:1005BC00704730B54FF4607401F0004521F00041F4
:1005CC001CE700BF50EA010208BF704730B54FF07E
:1005DC0000050AE050EA010208BF704730B511F07F
:1005EC00004502D5404261EB41014FF4806404F1B7
:1005FC0032045FEA915C3FF4D8AE4FF003025FEA3D
:10060C00DC0C18BF03325FEADC0C18BF033202EBC0
:10061C00DC02C2F1200300FA03FC20FA02F001FA1A
:10062C0003FE40EA0E0021FA02F11444BDE600BFBD
:10063C0080F0004002E000BF81F0004142001FBF8B
:10064C005FEA410392EA030F7FEA226C7FEA236C94
:10065C006AD04FEA1262D2EB1363C1BFD218414089
:10066C0048404140B8BF5B42192B88BF704710F01F
:10067C00004F40F4000020F07F4018BF404211F0C2
:10068C00004F41F4000121F07F4118BF494292EA2A
:10069C00030F3FD0A2F1010241FA03FC10EB0C0056
:1006AC00C3F1200301FA03F100F0004302D54942E3
:1006BC0060EB4000B0F5000F13D3B0F1807F06D390
:1006CC0040084FEA310102F10102FE2A51D2B1F188
:1006DC00004F40EBC25008BF20F0010040EA03007D
:1006EC007047490040EB0000013A28BFB0F5000FFD
:1006FC00EDD2B0FA80FCACF1080CB2EB0C0200FAB3
:10070C000CF0AABF00EBC25052421843BCBFD04001
:10071C001843704792F0000F81F4000106BF80F47B
:10072C0000000132013BB5E74FEA41037FEA226C3E
:10073C0018BF7FEA236C21D092EA030F04D092F009
:10074C00000F08BF0846704790EA010F1CBF00203D
:10075C00704712F07F4F04D1400028BF40F000409A
:10076C00704712F100723CBF00F50000704700F0BA
:10077C00004343F0FE4040F4000070477FEA2262E1
:10078C0016BF08467FEA23630146420206BF5FEAB2
:10079C00412390EA010F40F4800070474FF00003B2
:1007AC0004E000BF10F0004348BF40425FEA000C79
:1007BC0008BF704743F0964301464FF000001CE021
:1007CC0050EA010208BF70474FF000030AE000BF77
:1007DC0050EA010208BF704711F0004302D54042B5
:1007EC0061EB41015FEA010C02BF84460146002027
:1007FC0043F0B64308BFA3F18053A3F50003BCFA42
:10080C008CF2083AA3EBC25310DB01FA02FC6344EE
:10081C0000FA02FCC2F12002BCF1004F20FA02F2F5
:10082C0043EB020008BF20F00100704702F12002E8
:10083C0001FA02FCC2F1200250EA4C0021FA02F249
:10084C0043EB020008BF20EADC7070474FEA40021D
:10085C00B2F1FE4F0FD34FF09E03B3EB12620DD9E2
:10086C004FEA002343F0004310F0004F23FA02F04C
:10087C0018BF404270474FF00000704712F1610FF3
:10088C0001D1420205D110F0004008BF6FF00040CA
:10089C0070474FF00000704742000ED2B2F1FE4F8D
:1008AC000BD34FF09E03B3EB126209D44FEA002333
:1008BC0043F0004323FA02F070474FF000007047FA
:1008CC0012F1610F01D1420202D14FF0FF3070479B
:1008DC004FF00000704700BF2DE9F04387B004F0E3
:1008EC0071F9134C05466068FFF74AFE0646A0688E
:1008FC000F46FFF745FED4F80C80B4F81490CDE900
:10090C000001A5EB0805039594F816C0094D0A4C97
:10091C003246BCF1000F18BF2C463B4649460748EF
:10092C00CDF80880049404F03FFA07B0BDE8F083DA
:10093C00D0000020EC630008F0630008F8630008A6
:10094C00F8B5002110240820244BDA6A22F4700236
:10095C00DA6258631A6922F0E0621A611A6942F08D
:10096C00E0621A611A6822F002021A609A6842F474
:10097C0080029A601A689207FCD5DA6C013CC2F3CB
:10098C000B0214F0FF041144DFD1C1F30F152846FC
:10099C00FFF704FF1249FFF7DBFB4FF07A510746D4
:1009AC00FFF7D6FB064604F00DF94CF2E4120D4BA2
:1009BC0095425F609D821E609E60D86008D81A695F
:1009CC004AB1801AB0F57A7F01D301229A75F8BD2D
:1009DC001C619C75F8BD1861F8BD00BF0024014076
:1009EC006840533AD000002010B5084C2368002B07
:1009FC0001DB012010BD064940F6B83004F002F9C5
:100A0C000346C0432360C00F10BD00BF0000002090
:100A1C00E5080008FFF794BF20B1034B9A689B7D53
:100A2C0042600370704700BFD000002070B50024F6
:100A3C000022394B82B0C3E9034438491A605A602A
:100A4C009A609C829C758B69354843F0080304803E
:100A5C008B6103F08FFF334B984204D9324B984291
:100A6C004CD84FF4804400262C4B304D5A683049FA
:100A7C0022F440425A605A6814435C602A6822F09F
:100A8C000F022A609A6942F400729A618B6843F0F3
:100A9C0001038B600196019BB3F57A7F07D200BFEF
:100AAC00019B01330193019BB3F57A7FF7D3204A65
:100ABC00936843F00803936093681907FCD491681A
:100ACC001B4B41F0040191609A685207FCD4012041
:100ADC005A6822F480725A609A6822F002029A6074
:100AEC009A6822F460229A609A6842F460229A60B2
:100AFC009A6842F480129A6002B070BD0D4B984215
:100B0C0005D90D4B984205D84FF44044ABE74FF450
:100B1C000044A8E72046EFE7D00000200010024078
:100B2C00CC000020013FAB01037E5603000C0140BA
:100B3C000024014005BD010507FCAC0610B40424DB
:100B4C00FD4B0022D3F800124FF0005041F0010190
:100B5C00C3F80012D3F81C1221F00201C3F81C12C6
:100B6C00D3F80C1241F00201C3F80C12D3F80412A2
:100B7C0021F00201C3F80412D3F8141241F002015F
:100B8C00C3F81412C3F84842C3F84C42D3F81C12F1
:100B9C004FF0015441F00201C3F81C12D3F81C129F
:100BAC0021F00101C3F81C12D3F80C1241F0010121
:100BBC00C3F80C12D3F8041241F00101C3F804126B
:100BCC00D3F8141221F00101C3F81412C3F8400237
:100BDC00C3F84422D3F81C1200F5001041F00101B7
:100BEC00C3F81C12D3F81C1221F00201C3F81C121A
:100BFC00D3F80C1241F00201C3F80C12D3F8041212
:100C0C0041F00201C3F80412D3F8141221F00201CE
:100C1C00C3F81412C3F84802C3F84C22D3F81C12C0
:100C2C004FF0025041F00201C3F81C12D3F81C1211
:100C3C0021F00401C3F81C12D3F80C1241F004018A
:100C4C00C3F80C12D3F8041241F00401C3F80412D7
:100C5C00D3F8141221F00401C3F81412C3F8504253
:100C6C00C3F85422D3F81C1204F5001441F004010B
:100C7C00C3F81C12D3F81C1221F00801C3F81C1283
:100C8C00D3F80C1241F00801C3F80C12D3F804127B
:100C9C0041F00801C3F80412D3F8141221F0080132
:100CAC00C3F81412C3F85842C3F85C22D3F81C12D0
:100CBC004FF0035441F00801C3F81C12D3F81C1276
:100CCC0021F01001C3F81C12D3F80C1241F01001E2
:100CDC00C3F80C12D3F8041241F01001C3F804123B
:100CEC00D3F8141221F01001C3F81412C3F86002E7
:100CFC00C3F86422D3F81C1200F5001041F0100167
:100D0C00C3F81C12D3F81C1221F02001C3F81C12DA
:100D1C00D3F80C1241F02001C3F80C12D3F80412D2
:100D2C0041F02001C3F80412D3F8141221F0200171
:100D3C00C3F81412C3F86802C3F86C22D3F81C125F
:100D4C004FF0045041F02001C3F81C12D3F81C12D0
:100D5C0021F04001C3F81C12D3F80C1241F04001F1
:100D6C00C3F80C12D3F8041241F04001C3F804127A
:100D7C00D3F8141221F04001C3F81412C3F87042D6
:100D8C00C3F87422D3F81C1204F5001441F040018E
:100D9C00C3F81C12D3F81C1221F08001C3F81C12EA
:100DAC00D3F80C1241F08001C3F80C12D3F80412E2
:100DBC0041F08001C3F80412D3F8141221F0800121
:100DCC00C3F81412C3F87842C3F87C22D3F81C126F
:100DDC004FF0055441F08001C3F81C12D3F81C12DB
:100DEC0021F48071C3F81C12D3F80C1241F48071F9
:100DFC00C3F80C12D3F8041241F48071C3F8041236
:100E0C00D3F8141221F48071C3F81412C3F88002C1
:100E1C00C3F88422D3F81C1200F5001041F4807141
:100E2C00C3F81C12D3F81C1221F40071C3F81C1265
:100E3C00D3F80C1241F40071C3F80C12D3F804125D
:100E4C0041F40071C3F80412D3F8141221F40071A8
:100E5C00C3F81412C3F88802C3F88C22D3F81C12FE
:100E6C004FF0065041F40071C3F81C12D3F81C1259
:100E7C0021F48061C3F81C12D3F80C1241F4806188
:100E8C00C3F80C12D3F8041241F48061C3F80412B5
:100E9C00D3F8141221F48061C3F81412C3F89042F1
:100EAC00C3F89422D3F81C1204F5001441F48061A9
:100EBC00C3F81C12D3F81C1221F40061C3F81C12E5
:100ECC00D3F80C1241F40061C3F80C12D3F80412DD
:100EDC0041F40061C3F80412D3F8141221F4006138
:100EEC00C3F81412C3F89842C3F89C22D3F81C120E
:100EFC0041F40061C3F81C12D3F81C1221F4805188
:100F0C00C3F81C12D3F80C1210BC41F48051C3F876
:100F1C000C12D3F8041241F48051C3F80412D3F824
:100F2C00141221F48051C3F81412C3F8A002C3F8B0
:100F3C00A422D3F81C2201E00064004042F4805249
:100F4C00C3F81C22D3F8002222F00102C3F80022BD
:100F5C00704700BF5F4B9B6859014FD41A0105D4F1
:100F6C0013F0805340F09F8018467047012270B4F4
:100F7C0000251201417B02F1804303F5C84304684C
:100F8C00C3F8805189BBD3F8801141EA4451C3F8AE
:100F9C0080110025D3F88411867B21F00F01C3F852
:100FAC008411D3F8841104792143C3F8841102F11C
:100FBC00804101F5C841C1F88851C1F88C5166B91E
:100FCC005CB1D1F888614579012C45EA0605C1F878
:100FDC00885104F1FF35EDB212D170BC0120D3F869
:100FEC0080210243C3F880217047D3F8801141EA75
:100FFC00C40141F00401C3F88011CAE70022B6E72E
:10100C00D1F8886190F806C0012D46EA0C26C1F88B
:10101C0088614AD802218C42DFD902F1804202F564
:10102C00C84245186D79D2F88C613543C2F88C51A1
:10103C004D1CAC42D1D946197679CD1EED0006FA7D
:10104C0005F5D2F88C613543C2F88C518D1CAC423D
:10105C00C3D9461976798D1EED0006FA05F5D2F83E
:10106C008C613543C2F88C51CD1CAC42B5D94619B4
:10107C0076794D1EED0006FA05F5D2F88C613543F4
:10108C00C2F88C510D1DAC42A7D928444079CD0033
:10109C00A840D2F88C51053128438C42C2F88C01FF
:1010AC009BD9D2F88C31022261E7D1F8886190F893
:1010BC0007C0022D46EA0C46C1F8886101D803210D
:1010CC00A9E7D1F88851067A45EA0665C1F8885136
:1010DC000421A0E700640040544B70B5DA68920715
:1010EC0032D11B6913F0030301D1184670BD0123E3
:1010FC00427B1C464D496ABB03F11B021201895805
:10110C00490D1B0103F1804202F5C8420160D2F87F
:10111C00B011D2F8B451C1F3400205F00F01827343
:10112C00017151B103F1804202F5C842D2F8B861A5
:10113C004D1E0129EDB2467119D18CB13B4A136990
:10114C0043F02003136110E00023427B1C46374917
:10115C00002AD1D003F11B0212018958C908D0E72B
:10116C00324AD36843F02003D360012070BDD2F81B
:10117C00B861012D4FEA1626867148D80222914299
:10118C00DBD903F1804303F5C843D3F8BC6102F10A
:10119C00010C851861456E71CFD9D3F8BC51A2F101
:1011AC00030E4FEACE0E844425FA0EFE8CF805E0B1
:1011BC0002F1020C6145C0D9D3F8BC51A2F1020E68
:1011CC004FEACE0E844425FA0EF58CF8055002F148
:1011DC00030C6145B1D9D3F8BC5102F1FF3E4FEA83
:1011EC00CE0E844425FA0EF58CF8055002F1040C51
:1011FC006145A2D9D3F8BC5160444FEAC20C053208
:10120C0025FA0CF59142457197D9D3F8BC31D2F837
:10121C00B861022D4FEA1646C67101D80322AEE71B
:10122C00D2F8B821120E02720422A8E70064004022
:10123C00564910B58869564A40F009008861C8695A
:10124C00544B40F00070C8615168534C21F4C041BC
:10125C005160516841F4804151605A6822F00F028C
:10126C005A605A6842F008025A60DA6842F4807296
:10127C00DA605A6822F0F0025A605A6842F0300282
:10128C005A605A6842F080025A60236823F00203C5
:10129C002360236843F0010323606368DB07FCD5FC
:1012AC00236823F0FC03236003F008FB3B4B9842BC
:1012BC0067D03B4B984260D13A4BE361364B1A688E
:1012CC0022F001021A605A6812F00102FBD10421CB
:1012DC00D3F800422D4844F00104C3F80042D3F87F
:1012EC001C4224F00104C3F81C42D3F80C4244F015
:1012FC000104C3F80C42D3F8044224F00104C3F8EF
:10130C000442D3F8144224F00104C3F81442C3F885
:10131C004022C3F84412D3F81C2242F00102C3F855
:10132C001C22D3F81C2222F00202C3F81C22D3F890
:10133C000C2242F00202C3F80C22D3F8042222F051
:10134C000202C3F80422D3F8142242F00202C3F8BA
:10135C001422C3F84812C3F84C12D3F81C2242F0E2
:10136C000202C3F81C22D3F8002222F00102C3F8B7
:10137C000022C069C0F3406010BD00231846E36131
:10138C0010BD4FF4E013E36198E700BF001002407A
:10139C0000000140000C01400064004000127A0083
:1013AC000051250203001E002DE9F041694C82B06A
:1013BC0094F85C31002B00F0C7802068FFF746FAE8
:1013CC00D4E903870546A068FFF740FA01906068EE
:1013DC00FFF73CFA06462B464246394600965E48D5
:1013EC0003F0E2FCE06EFFF731FAD4E91E87054604
:1013FC00606FFFF72BFA0190206FFFF727FA064674
:10140C002B46424639460096544803F0CDFCD4F89E
:10141C008000FFF71BFAD4E923870546D4F888002F
:10142C00FFF714FA0190D4F88400FFF70FFA064680
:10143C002B46424639460096494803F0B5FCD4F891
:10144C009400FFF703FAD4E928870546D4F89C00EA
:10145C00FFF7FCF90190D4F89800FFF7F7F906466E
:10146C002B464246394600963E4803F09DFCD4F884
:10147C00A800FFF7EBF9D4E92D870546D4F8B000A6
:10148C00FFF7E4F90190D4F8AC00FFF7DFF906465A
:10149C002B46424639460096334803F085FCD4F877
:1014AC00BC00FFF7D3F9D4E932870546D4F8C40061
:1014BC00FFF7CCF90190D4F8C000FFF7C7F9064646
:1014CC002B46424639460096284803F06DFCD4F86A
:1014DC00D000FFF7BBF9D4E937870546D4F8D8001C
:1014EC00FFF7B4F90190D4F8D400FFF7AFF9064632
:1014FC002B464246394600961D4803F055FCD4F85D
:10150C00E400FFF7A3F9D4E93C870546D4F8EC00D6
:10151C00FFF79CF90190D4F8E800FFF797F906461D
:10152C002B46424639461348009603F03DFCD4F84E
:10153C00F800FFF78BF9D4E9412103460E4802B0BD
:10154C00BDE8F04103F030BC0C4802B0BDE8F041FE
:10155C0003F02ABCF400002048640008D0640008A2
:10156C0050650008D065000854660008D86600086D
:10157C005C670008E46700086C680008E068000815
:10158C00036870B5A3F5807304460C2B00F29982A6
:10159C00DFE813F026004E006A0001011A012A014F
:1015AC006501B401DF010D023B0269020D0001234C
:1015BC00CA4DD5F8042185F85C31C5F8082103F033
:1015CC00BDFEC5F80401B4F8050040BA80B2FFF7BF
:1015DC00E9F8C349FEF7BCFDC5F8F800012070BD61
:1015EC000123BE4DEA6885F85C312A6103F0A6FE42
:1015FC00E860B4F8050040BA80B2FFF7D3F8B949F7
:10160C00FEF7A6FDB4F80730286058BA80B2FFF791
:10161C00C9F8B449FEF79CFDB4F80930686058BAB3
:10162C0080B2FFF7BFF8AF49FEF792FDA860D5E78F
:10163C000123AA4DEA6985F85C312A6203F07EFE2B
:10164C00E861B4F8050040BA80B2FFF7ABF8A549E1
:10165C00FEF77EFD6861B4F807305BBA2B83B4F8F3
:10166C0009305BBA6B83B9E701239C4DAA6C85F8F2
:10167C005C31EA6403F062FEA864B4F80530002221
:10168C005BBA03F0010185F82410C3F3400185F81F
:10169C002510C3F3800185F82610C3F3C00185F82B
:1016AC002710C3F3001185F82810C3F3401185F8F7
:1016BC002910C3F3801185F82A10C3F3C01185F8E3
:1016CC002B10C3F3002185F82C10C3F3402185F8AF
:1016DC002D10C3F3802185F82E10C3F3C02185F89B
:1016EC002F10C3F3003185F83010C3F3403185F867
:1016FC003110C3F38031C3F3C03385F8321085F851
:10170C003330B4F807305BBA03F0010185F83410BC
:10171C00C3F3400185F83510C3F3800185F836100A
:10172C00C3F3C00185F83710C3F3001185F83810E6
:10173C00C3F3401185F83910C3F3801185F83A10C2
:10174C00C3F3C01185F83B10C3F3002185F83C109E
:10175C00C3F3402185F83D10C3F3802185F83E107A
:10176C00C3F3C02185F83F10C3F3003185F8401056
:10177C00C3F3403185F84110C3F38031C3F3C03358
:10178C0085F8421085F8433085F84420B4F80930C8
:10179C00A5F8463022E70123504DAA6D85F85C313F
:1017AC00EA6503F0CBFDA865B4F805305BBAA5F883
:1017BC005030B4F807305BBAA5F85230B4F80930A1
:1017CC005BBAA5F8543009E70123444D6A6E85F8DD
:1017DC005C31AA6603F0B2FD6866637985F8603007
:1017EC00A37985F86130F9E601233C4D3E4EAA6F92
:1017FC0085F85C31EA6703F0A1FDA867B4F8050031
:10180C0040BA80B2FEF7CEFF3849FEF7A1FC38494A
:10181C00FEF712FFE866FFF73FF83070B4F80700E8
:10182C0040BA80B2FEF7BEFF3049FEF791FC30495A
:10183C00FEF702FF2867FFF72FF8B4F80930707035
:10184C0058BA80B2FEF7AEFF2849FEF781FC284952
:10185C00FEF7F2FE6867FFF71FF8B070BEE60123D3
:10186C001E4D214ED5F88C2085F85C31C5F89020A2
:10187C0003F064FDC5F88C00B4F8050040BA80B2E2
:10188C00FEF790FF1949FEF763FC1949FEF7D4FEE9
:10189C00C5F88000FFF700F8B4F80730C4B258BAA6
:1018AC0080B2F470FEF77EFF1049FEF751FC104930
:1018BC00FEF7C2FEC5F88400FEF7EEFF75783378AC
:1018CC00C0B22B44B5780B4A2B4423440344A2FBEF
:1018DC00032309499B0830710B707FE6F40000204C
:1018EC006F12833A0AD7233CEC000020CDCCCC3DC0
:1018FC0033938843CDCCCCCCE8000020724DD5F886
:10190C00A030C5F8A43003F019FDC5F8A000B4F858
:10191C00050040BA80B2FEF745FF6C49FEF718FC93
:10192C00C5F89400B4F8070040BA80B2FEF73AFF4D
:10193C006649FEF70DFCC5F89800B4F8090040BAEA
:10194C0080B2FEF72FFF6149FEF702FCC5F89C0040
:10195C0044E601235C4DD5F8B42085F85C31C5F81C
:10196C00B82003F0EBFCC5F8B400B4F8050040BA9D
:10197C0080B2FEF717FF5549FEF7EAFBC5F8A80041
:10198C00B4F8070040BA80B2FEF70CFF4F49FEF7DF
:10199C00DFFBC5F8AC00B4F8090040BA80B2FEF722
:1019AC0001FF4A49FEF7D4FBC5F8B00016E6012347
:1019BC00454DD5F8C82085F85C31C5F8CC2003F02E
:1019CC00BDFCC5F8C800B4F8050040BA80B2FEF7FB
:1019DC00E9FE3E49FEF7BCFBC5F8BC00B4F80700B5
:1019EC0040BA80B2FEF7DEFE3849FEF7B1FBC5F80F
:1019FC00C000B4F8090040BA80B2FEF7D3FE3349F8
:101A0C00FEF7A6FBC5F8C400E8E501232E4DD5F87A
:101A1C00DC2085F85C31C5F8E02003F08FFCC5F8BC
:101A2C00DC00B4F8050040BA80B2FEF7BBFE2749D3
:101A3C00FEF78EFBC5F8D000B4F8070040BA80B2B0
:101A4C00FEF7B0FE2149FEF783FBC5F8D400B4F8CD
:101A5C00090040BA80B2FEF7A5FE1C49FEF778FBE0
:101A6C00C5F8D800BAE50123174DD5F8F02085F854
:101A7C005C31C5F8F42003F061FCC5F8F000B4F853
:101A8C00050040BA80B2FEF78DFE1049FEF760FBF0
:101A9C00C5F8E400B4F8070040BA80B2FEF782FE45
:101AAC000A49FEF755FBC5F8E800B4F8090040BA3E
:101ABC0080B2FEF777FE0549FEF74AFBC5F8EC004D
:101ACC008CE5002070BD00BFF40000206F12833A3B
:101ADC0010B5084C2368002B01DB012010BD064912
:101AEC0040F6B83003F08EF80346C0432360C00FB5
:101AFC0010BD00BF04000020B51300082DE9F04113
:101B0C00C64DC74BB5F846806E8BB8F1000F14BFAD
:101B1C00012700271A782B6880F86D7080F86C20EC
:101B2C0069680670D5F894204360D5F89830C26087
:101B3C000361D5F89C20D5F8A83042618361D5F8B3
:101B4C00AC20D5F8B030C2610362D5F8BC20D5F812
:101B5C00C03042628362D5F8C420D5F8D0308160A1
:101B6C00C2620363D5F8D430D5F8D8204363D5F8D6
:101B7C00E4308263C363D5F8E820D5F8EC30026416
:101B8C00436400F04881002718F00106044680F8F1
:101B9C006F7080F8977080F8BF7080F8E77080F8ED
:101BAC000F7180F8377180F85F7180F8877180F859
:101BBC00AF7180F8D77180F8FF7180F8277280F8C8
:101BCC004F7280F8777280F89F7280F8C77240F07D
:101BDC005D8118F0020F40F0418118F0040F0FD016
:101BEC0006EB8607FF0007F16F0027228D49204482
:101BFC0003F01CFF00232744013687F89630F6B219
:101C0C00B5F846301A070FD506EB8607FF0007F12B
:101C1C006F0027228449204403F008FF0023274447
:101C2C00013687F89630F6B2B5F84630DB060FD59C
:101C3C0006EB8607FF0007F16F0027227B49204443
:101C4C0003F0F4FE00232744013687F89630F6B2F1
:101C5C00B5F846309F060FD506EB8607FF0007F157
:101C6C006F0027227249204403F0E0FE0023274432
:101C7C00013687F89630F6B2B5F8463058060FD5CF
:101C8C0006EB8607FF0007F16F0027226949204405
:101C9C0003F0CCFE00232744013687F89630F6B2C9
:101CAC00B5F8463019060FD506EB8607FF0007F18D
:101CBC006F0027226049204403F0B8FE002327441C
:101CCC00013687F89630F6B2B5F84630DA050FD5FE
:101CDC0006EB8607FF0007F16F00272257492044C7
:101CEC0003F0A4FE00232744013687F89630F6B2A1
:101CFC00B5F846309B050FD506EB8607FF0007F1BC
:101D0C006F0027224E49204403F090FE0023274405
:101D1C00013687F89630F6B2B5F846305F050FD528
:101D2C0006EB8607FF0007F16F0027224549204488
:101D3C0003F07CFE00232744013687F89630F6B278
:101D4C00B5F8463018050FD506EB8607FF0007F1EE
:101D5C006F0027223C49204403F068FE00232744EF
:101D6C00013687F89630F6B2B5F84630D9040FD55F
:101D7C0006EB8607FF0007F16F002722334920444A
:101D8C0003F054FE00232744013687F89630F6B250
:101D9C00B5F846309A040FD506EB8607FF0007F11D
:101DAC006F0027222A49204403F040FE00232744D9
:101DBC00013687F89630F6B2B5F846305B040FD58D
:101DCC0006EB8607FF0007F16F002722214920440C
:101DDC0003F02CFE00232744013687F89630F6B228
:101DEC00B5F84630DB0B0FD006EB8605ED0005F1A0
:101DFC006F0027221849204403F018FE00232544C5
:101E0C00013685F89630F6B2331E18BF012384F8DC
:101E1C006E6084F86D30BDE8F08100BFF4000020E6
:101E2C00E8000020BC7B0008E47B00080C7C000868
:101E3C00347C00085C7C0008847C0008AC7C0008C6
:101E4C00D47C0008FC7C0008247D00084C7D000834
:101E5C00747D00089C7D0008C47D0008704200F071
:101E6C0028006F3027220E49204403F0DFFD0022AA
:101E7C0006EB860304EBC30383F89620B5F84630D3
:101E8C0001365907F6B27FF5BBAEA9E62722054904
:101E9C006F3003F0CBFD012684F8967099E600BFF5
:101EAC00947B00086C7B000838B5724C94F8483071
:101EBC00002B00F0DA8002F085FE054623696E489F
:101ECC00ED1A02F071FF21696C4802F06DFF294692
:101EDC006B4802F069FF21786A4802F065FF61786F
:101EEC00694802F061FFA178684802F05DFFE17873
:101EFC00674802F059FFA188664802F055FFA179A6
:101F0C00654802F051FFE179644802F04DFFA0688A
:101F1C00FEF736FB02460B46614802F045FFE068CF
:101F2C00FEF72EFB02460B465E4802F03DFF5E4874
:101F3C0002F03AFF02F046FE0546A36A5B48ED1A32
:101F4C0002F032FFA16A4D4802F02EFF29464C48A0
:101F5C0002F02AFF6069FEF713FB02460B46544859
:101F6C0002F022FFA069FEF70BFB02460B4651481C
:101F7C0002F01AFF217F504802F016FF617F4F4894
:101F8C0002F012FFA17F4E4802F00EFF206AFEF70E
:101F9C00F7FA02460B464B4802F006FF94F8241061
:101FAC00494802F001FF94F82610484802F0FCFE64
:101FBC003D4802F0F9FE02F005FE0546E36B44488D
:101FCC00ED1A02F0F1FEE16B2C4802F0EDFE294611
:101FDC002B4802F0E9FEB4F92C103E4802F0E4FE66
:101FEC00B4F92E103C4802F0DFFE206BFEF7C8FA65
:101FFC0002460B46394802F0D7FE606BFEF7C0FA7A
:10200C0002460B46364802F0CFFE218F354802F0CF
:10201C00CBFE254802F0C8FE02F0D4FD0546636CE9
:10202C003148ED1A02F0C0FE616C144802F0BCFE9F
:10203C002946134802F0B8FE94F840102B4802F0E1
:10204C00B3FE94F841102A4802F0AEFE94F8421008
:10205C00284802F0A9FE284894F8431002F0A4FE88
:10206C00BDE83840104802F09FBE2448BDE8384017
:10207C0002F09ABE5402002004690008406900086E
:10208C006469000888690008A8690008C869000824
:10209C00E8690008086A00082C6A0008506A000801
:1020AC00706A0008946A0008B86A0008F06A0008B0
:1020BC002C6B0008506B0008746B0008946B0008C4
:1020CC00B46B0008D46B0008F86B0008186C00089F
:1020DC003C6C0008786C0008A06C0008C86C000808
:1020EC00F06C0008186D00083C6D0008786D000855
:1020FC009C6D0008C06D0008E46D0008086E0008B7
:10210C002DE9F84303680446113B032B00F2AA8027
:10211C00DFE813F09601BF000400AA000123C44DB0
:10212C00002685F8483002F04DFDE86394F905303F
:10213C00283BAB8594F90630283BEB85207AE37974
:10214C0000F0010103F0010242EA0121C3F3400255
:10215C00921842EA010203F0FC0343EA0203C0F3C3
:10216C00400243EA4223C0F3800243EA8223C0F3D5
:10217C00C00243EAC223C0F3001243EA0233C0F3A5
:10218C00401243EA4233C0F3801243EA82334FEAEF
:10219C00D01046EB060143EAC030FEF711FB4FF0BE
:1021AC007A51FDF7D5FFA349FEF746FA2863A07ACA
:1021BC00637A00F0010103F0010242EA0121C3F34A
:1021CC004002921842EA010203F0FC0343EA0203C4
:1021DC00C0F3400243EA4223C0F3800243EA822365
:1021EC00C0F3C00243EAC223C0F3001243EA023335
:1021FC00C0F3401243EA4233C0F3801243EA823305
:10220C004FEAD01046EB060143EAC030FEF7D8FA8D
:10221C004FF07A51FDF79CFF8649FEF70DFA686383
:10222C00227BE37A02F0010143EA0123C2F340016D
:10223C0043EA4123C2F3800143EA8123C2F3C00184
:10224C0043EAC123C2F3001143EA0133C2F3401144
:10225C0043EA4133C2F3801143EA8133D20943EAA2
:10226C00C2332B87BDE8F8830123714D85F84830C4
:10227C0002F0A8FC6864637985F84030A37985F88E
:10228C004130E37985F84230637A85F84330BDE814
:10229C00F8830123664D002685F8483002F092FC45
:1022AC00A862A079637900F0010103F0010242EA0F
:1022BC000121C3F34002921842EA010203F0FC032D
:1022CC0043EA0203C0F3400243EA4223C0F3800214
:1022DC0043EA8223C0F3C00243EAC223C0F30012D4
:1022EC0043EA0233C0F3401243EA4233C0F3801294
:1022FC0043EA82334FEAD01046EB060143EAC03082
:10230C00FEF75EFA4C49FDF723FF6861207AE3790A
:10231C0000F0010103F0010242EA0121C3F3400283
:10232C00921842EA010203F0FC0343EA0203C0F3F1
:10233C00400243EA4223C0F3800243EA8223C0F303
:10234C00C00243EAC223C0F3001243EA0233C0F3D3
:10235C00401243EA4233C0F3801243EA82334FEA1D
:10236C00D01046EB060143EAC030FEF729FA324999
:10237C00FDF7EEFEA861637A03F00F032B77627A08
:10238C00C2F34013C2F38011DB1843EA8103C2F39A
:10239C0000110B43D20943EAC2036B77A37A03F013
:1023AC000103AB77A37AC3F34003EB77A27AE07A0D
:1023BC00C2F3800300F0010143EA8113C2F3C001B0
:1023CC00491843EA010346EB0601C2F3001643EA3F
:1023DC008603C2F3401643EAC603C2F3801643EAEF
:1023EC000613D20943EA4213C0F3400243EAC21374
:1023FC00C0F3800043EA0020FEF7E2F90F49FDF735
:10240C00A7FE2862E37AC3F3C10385F82430E27A8D
:10241C00C2F38013D109DB1843EA8103C2F34012E3
:10242C00134385F82530237B85F82630BDE8F883E7
:10243C00540200200080FF43CDCCCC3D0AD7233C76
:10244C000123564D85F8483002F0BCFB4FF0000ECE
:10245C0077462861E279A17902F0010094F80BC06B
:10246C00A37A41EA0021C2F34000667941EA402197
:10247C00C2F3800841EA88280CF0010903F001013D
:10248C00C6F3801041EA0929C3F34001001849182A
:10249C0049EA010103F0FC0343EA0103C2F3C00162
:1024AC0048EAC12106F0030868F3070EC2F30018CE
:1024BC0041EA0831C6F3810868F30F2E4FEAD618AB
:1024CC0040EA8800C2F3401841EA4831CCF3400896
:1024DC0043EA4823C6F30018C6F3401640EA060048
:1024EC0068F3174E60F31F6EC2F3801041EA80311F
:1024FC004FEAD21241EAC231CCF3800243EA822085
:10250C00237ACCF3C00CAB71637AC5F800E040EAD7
:10251C00CC20EB71A98047EB0701FEF751F920495C
:10252C00FDF716FEA860227BE07A02F00101C0F3F1
:10253C00001343EA0113C0F34011491843EA0103A5
:10254C00C0F3801443EA84034FEAD01043EAC0037B
:10255C00C2F3400043EA4013C2F3800043EA801305
:10256C00C2F3C00043EAC013C2F3001043EA0023D5
:10257C00C2F3401043EA4023C2F3801043EA8023A5
:10258C004FEAD21047EB070143EAC020FEF718F9D7
:10259C000349FDF7DDFDE860BDE8F8835402002037
:1025AC00CDCCCC3D10B5084C2368002B01DB0120B1
:1025BC0010BD064940F6B83002F024FB0346C04378
:1025CC002360C00F10BD00BF08000020B51E00081E
:1025DC002DE9F843DFF8B8800546B8F804304375A8
:1025EC00B8F82C30D8F81410D8F8182001604260D4
:1025FC000372B8F82E3098F8064043724CB9234653
:10260C00214603EB830205EBC2020133D175DBB229
:10261C00F7E7012000222B4605F55C71A8722A759C
:10262C00DA7528338B42FBD100261A4FB14604E0F1
:10263C000136162E07F128071DD024FA06F3DB0706
:10264C00F6D5287D1528F3D800EB800005EBC000EB
:10265C0027223946173003F0E9F92B7D013603EBBD
:10266C00830205EBC2020133162E82F83E9007F16D
:10267C0028072B75E1D198F81D300748003B18BF8F
:10268C00012385F88733BDE8F84302F08DBB00BF0A
:10269C0054020020EC7D0008306E00082DE9F04754
:1026AC00B44CB54EB54D94F88516B54800290CBF01
:1026BC003146294602F078FB94F88916B148002976
:1026CC000CBF3146294602F06FFB94F88816AE48D1
:1026DC0000290CBF3146294602F066FBDFF8AC82BC
:1026EC00AB4F94F87716AB4800290CBF41463946DE
:1026FC0002F05AFB94F88416A74800290CBF4146F7
:10270C00394602F051FBA54FDFF8948294F88716F6
:10271C00A44800290CBF4146394602F045FBA24BA8
:10272C00A24A94F88616A24800290CBF11461946F5
:10273C0002F03AFB94F88A169E4800290CBF3146E9
:10274C00294602F031FB9C4802F02EFBDFF86CA20C
:10275C00DFF86C9294F896169A4800290CBF5146F3
:10276C00494602F021FB984894F8051302F01CFB33
:10277C009648D4F8FC1202F017FB9548D4F80013D5
:10278C0002F012FB94F87816924800290CBF3146DF
:10279C00294602F009FB94F879168F4800290CBFE2
:1027AC003146294602F000FB94F87A168B48002932
:1027BC000CBF3146294602F0F7FA94F87B1688488C
:1027CC0000290CBF3146294602F0EEFA854802F08A
:1027DC00EBFA8548217802F0E7FA84496068FDF746
:1027EC00B7FCFEF759F802466426814D8148A5FBDB
:1027FC000231490906FB112202F0D6FA7B49A06886
:10280C00FDF7A6FCFEF748F80246A5FB0231490984
:10281C0006FB1122784802F0C7FA784894F86C103D
:10282C0002F0C2FA94F86D10754800290CBF51469D
:10283C00494602F0B9FA94F86E10724802F0B4FAF4
:10284C00714802F0B1FA6949D4F8F002FDF780FC46
:10285C00FEF722F80246A5FB0231490906FB1122BC
:10286C006A4802F0A1FA6149D4F8F402FDF770FC51
:10287C00FEF712F80246A5FB0231490906FB1122AC
:10288C00634802F091FA634894F8F91202F08CFA5A
:10289C00614894F8F81202F087FA94F8FA125F483B
:1028AC0000290CBF5146494602F07EFA94F80413F5
:1028BC005B4802F079FA5B4802F076FA4B49D4F89F
:1028CC008006FDF745FCFDF7E7FF0246A5FB023548
:1028DC00690906FB1122544802F066FA94F87C163A
:1028EC00524800290CBF3946414602F05DFA504867
:1028FC0002F05AFA4F4D94F891164F4800290CBF2C
:10290C002946394602F050FA94F892164B480029A1
:10291C000CBF2946394602F047FA94F89436002B3E
:10292C0000F0B68094F89336002B14BF3946294634
:10293C00434802F039FA214E214D94F88C16414847
:10294C0000290CBF3146294602F02EFA94F8901655
:10295C003D4800290CBF3146294602F025FA3B4878
:10296C0002F022FA01243A4DDFF8E8803A4F3B4E50
:10297C0076E000BFA0020020446E0008406E000804
:10298C007C6E00089C6E0008BC6E0008506E00083F
:10299C00486E0008DC6E0008FC6E00085C6E0008D7
:1029AC00606E00081C6F0008686E0008646E0008FA
:1029BC003C6F00085C6F00087C6F0008F063000837
:1029CC00EC630008B86F0008D86F0008FC6F0008B3
:1029DC001C7000083C7000085C7000087C700008DB
:1029EC009C700008BC700008F87000080000C84219
:1029FC001F85EB511C710008447100086C710008B4
:102A0C008C710008AC710008CC71000808720008C9
:102A1C00307200085872000878720008987200082A
:102A2C00B8720008D8720008147300083C730008D0
:102A3C005C730008746E000898730008B873000883
:102A4C00D8730008F873000818740008387400086C
:102A5C00A802002000007A44D34D62107074000864
:102A6C00414655F8040FFDF773FBFDF715FF0346C0
:102A7C004FF47A7CA7FB03E29209214630460CFB0B
:102A8C001233013402F090F9192CE9D1BDE8F0872A
:102A9C0029464DE72DE9F04710230026E84CB2B04B
:102AAC00E84D94F88526082168468DF80720ADF886
:102ABC00043000958DF8066002F05CF94FF48872D2
:102ACC0094F8893608216846ADF804208DF8073053
:102ADC0000958DF8066002F04DF94FF4047294F8ED
:102AEC00773608216846ADF804208DF8073000953C
:102AFC008DF8066002F03EF94FF4447294F8843677
:102B0C0008216846ADF804208DF8073000958DF843
:102B1C00066002F02FF94FF4826294F88736082190
:102B2C006846ADF804208DF8073000958DF80660E6
:102B3C0002F020F94FF4A26294F87C360821684622
:102B4C00ADF804208DF8073000958DF8066002F082
:102B5C0011F94FF4C26294F8863608216846ADF834
:102B6C0004208DF8073000958DF8066002F002F90C
:102B7C004FF4E26294F8883608216846ADF80420D8
:102B8C008DF8073000958DF8066002F0F3F84FF4DD
:102B9C00116294F8783608216846ADF804208DF857
:102BAC00073000958DF8066002F0E4F841F210024F
:102BBC0094F8793608216846ADF804208DF8073072
:102BCC0000958DF8066002F0D5F841F2101294F8D9
:102BDC007A3608216846ADF804208DF80730009548
:102BEC008DF8066002F0C6F841F2102294F87B369C
:102BFC0008216846ADF804208DF8073000958DF853
:102C0C00066002F0B7F841F2103294F896360821BB
:102C1C006846ADF804208DF8073000958DF80660F5
:102C2C0002F0A8F8152294F80533082168468DF8AF
:102C3C000730ADF8042000958DF8066002F09AF884
:102C4C0094F80533002B00F0FA8241F210530095F2
:102C5C007D4D08212A786846ADF804308DF8066061
:102C6C008DF8072002F086F82B7883F001032B7087
:102C7C00002641F21563734F2278082168468DF8BF
:102C8C000720ADF8043000978DF8066002F072F85A
:102C9C0040F21522D4F8FC326C4D1BBA0A2168465E
:102CAC00ADF80420CDF80630009502F063F840F240
:102CBC001563ADF80430D4F800330A211BBA68460A
:102CCC000095CDF8063002F055F843F6150343F2A3
:102CDC001568ADF8043094F8F9320821684600976D
:102CEC008DF807308DF8066002F044F894F8F8324D
:102CFC00082168460097ADF804808DF807308DF8F0
:102D0C00066002F037F844F21503ADF8043094F87D
:102D1C006C300821684600978DF807308DF80660F6
:102D2C0002F028F849F28063ADF8043063680A2198
:102D3C001BBA68460095CDF8063002F01BF840F639
:102D4C008103ADF80430A3680A211BBA68460095CC
:102D5C00CDF8063002F00EF8D4F880360A211BBAF2
:102D6C006846ADF804800095CDF8063002F002F804
:102D7C008123ADF80430D4F8F4320A211BBA68462A
:102D8C000095CDF8063001F0F5FF40F28143ADF827
:102D9C000430D4F8F0320A211BBA68460095CDF8FD
:102DAC00063001F0E7FF42F21503ADF8043094F859
:102DBC0004330821684600978DF807308DF80660BB
:102DCC0001F0D8FF42F21523ADF8043094F86E30C0
:102DDC000821684600978DF807308DF8066001F0E1
:102DEC00C9FF42F21543ADF8043094F8913608212E
:102DFC00684600978DF807308DF8066001F0BAFF31
:102E0C0042F21563ADF8043094F892360821684606
:102E1C0000978DF807308DF8066001F0ABFF42F695
:102E2C001503ADF8043094F89436082168460097E1
:102E3C008DF807308DF8066001F09CFF08E000BFAC
:102E4C00A00200205AA505820C0000205AA507827A
:102E5C0043F21503ADF8043094F88C36082168461B
:102E6C0000978DF807308DF8066001F083FF43F270
:102E7C00152394F890260821684600978DF80720B2
:102E8C00ADF804308DF8066001F074FF8022E36821
:102E9C000A211BBA6846ADF80420CDF8063000951F
:102EAC0001F068FF4FF4906223690A211BBA68464F
:102EBC00ADF80420CDF80630009501F05BFF4FF41F
:102ECC00086263690A211BBA6846ADF80420CDF884
:102EDC000630009501F04EFF4FF49452A3690A217D
:102EEC001BBA6846ADF80420CDF80630009501F009
:102EFC0041FF4FF4B452E3690A211BBA6846ADF89E
:102F0C000420CDF80630009501F034FF4FF4025246
:102F1C00236A0A211BBA6846ADF80420CDF80630A6
:102F2C00009501F027FF4FF41252636A0A211BBA75
:102F3C006846ADF80420CDF80630009501F01AFF74
:102F4C004FF42252A36A0A211BBA6846ADF804203A
:102F5C00CDF80630009501F00DFF4FF44A52E36AAC
:102F6C000A211BBA6846ADF80420CDF8063000954E
:102F7C0001F000FF4FF45A52236B0A211BBA68462A
:102F8C00ADF80420CDF80630009501F0F3FE4FF4B7
:102F9C008142636B0A211BBA6846ADF80420CDF858
:102FAC000630009501F0E6FE4FF48942A36B0A212E
:102FBC001BBA6846ADF80420CDF80630009501F038
:102FCC00D9FE4FF49142E36B0A211BBA6846ADF867
:102FDC000420CDF80630009501F0CCFE4FF4A5424C
:102FEC00236C0A211BBA6846ADF80420CDF80630D4
:102FFC00009501F0BFFE4FF4AD42636C0A211BBA81
:10300C006846ADF80420CDF80630009501F0B2FE0C
:10301C004FF4C142A36C0A211BBA6846ADF80420D8
:10302C00CDF80630009501F0A5FE4FF4C942E36CD3
:10303C000A211BBA6846ADF80420CDF8063000957D
:10304C0001F098FE4FF4D142236D0A211BBA684659
:10305C00ADF80420CDF80630009501F08BFE4FF44E
:10306C00E542636D0A211BBA6846ADF80420CDF821
:10307C000630009501F07EFE4FF4ED42A36D0A215F
:10308C001BBA6846ADF80420CDF80630009501F067
:10309C0071FE48F28002E36D0A211BBA6846ADF856
:1030AC000420CDF80630009501F064FE48F2804211
:1030BC00236E0A211BBA6846ADF80420CDF8063001
:1030CC00009501F057FE48F68002636E0A211BBA88
:1030DC006846ADF80420CDF80630009501F04AFEA4
:1030EC0049F28022A36E0A211BBA68460095ADF8FE
:1030FC000420CDF806304FF0600801F03BFE354659
:10310C00554FDFF8589194F80423EBB24FEA431A69
:10311C009A42534E5FFA8AFA7AD93846FDF710F87C
:10312C004AF25A52C3B2C82B1E46ADF8002028BF33
:10313C00C82682228DF80320F21C8DF805A00DF113
:10314C0006008DF804808DF80220002B00F08280A0
:10315C003946324602F0AAFCB11DC9B268460135A7
:10316C0001F008FE042D07F12807CCD100264FF002
:10317C0065083C4FDFF8F09094F86E20F3B24FEAFC
:10318C00431A9A42394D5FFA8AFA2AD93846FCF723
:10319C00D7FF4AF25A52C3B2C82B1D46ADF80020D5
:1031AC0028BFC82582228DF80320EA1C8DF805A0C3
:1031BC000DF106008DF804808DF80220002B47D00D
:1031CC0039462A4602F072FCA91DC9B2684601F0C4
:1031DC00D1FD0136042E07F12807CDD132B0BDE860
:1031EC00F0870FCDCDF806002868CDF80A10CDF881
:1031FC0016001A216846CDF800908DF804808DF8E1
:10320C0005A0CDF80E20CDF8123001F0B3FDE0E7AB
:10321C000FCECDF8060030683679CDF80A10CDF80F
:10322C0000901B218DF804808DF805A0CDF81600B8
:10323C00CDF80E20CDF812308DF81A608EE741F2E1
:10324C001053082168460095019301F093FD0FE59A
:10325C000621BBE7062181E7A70500205AA51882A5
:10326C00987400080F0300205AA51782B074000848
:10327C0010B50B4C2046FEF741FC04F53C70FFF7F3
:10328C00A7F904F2846000F021FC04F27C60FDF7E5
:10329C00C3FB204600F088F8BDE81040FFF7FABBEE
:1032AC00A002002010B5084C2368002B01DB012084
:1032BC0010BD064940F6B83001F0A4FC0346C043EB
:1032CC002360C00F10BD00BF10000020A92600080D
:1032DC00304B5B6A9B0057D54AF2A5522E4B10B46B
:1032EC001988914208BF58882C4B08BF01301A69C5
:1032FC0014BF012080B2140647D4284AD368D907DA
:10330C00FCD41369244943F002031361516113691E
:10331C00224943F040031361CB68DB07FCD40B69F3
:10332C001E4A23F002030B61D368DC07FCD44AF27B
:10333C00A5541369184943F001031361174A0C8013
:10334C00D368D907FCD41369144923F00103136122
:10335C00CB68DA07FCD40B690F4C43F001030F4A1E
:10336C000B616080D368DB07FCD41369094923F037
:10337C0001031361136910BC43F0800313614B6AA2
:10338C0043F080734B62704770470549054A59609A
:10339C005A60B2E70010024000FC01080020024015
:1033AC0023016745AB89EFCD50B14AF2A552084BCA
:1033BC001988914205D0002380F88C36A0F88E36FF
:1033CC00704701225B8880F88C26A0F88E367047F7
:1033DC0000FC01082DE9F84F1F4C9DF8288024783B
:1033EC00B4B3A8B3DFF874B09BF80060072E2FD8E5
:1033FC00DFF86CA0C6EBC604A7000AEB84041546E4
:10340C009946A1804AF8070001F0DCFBA06001F0AE
:10341C00D9FB4FF000024FF480719BF8003065F33C
:10342C000702E06010370AF10300013365F30F2245
:10343C00A4F8109084F812808BF80030C2530AF173
:10344C00070384F8168065753046D953BDE8F88FAC
:10345C00FF263046BDE8F88F700900207109002066
:10346C007409002070B5A24DA24884B001F09CFCF8
:10347C0008222978A04801F097FC2B78A3B39F4C25
:10348C00227E002A40F0BF80012B2DD994F83420E5
:10349C00002A40F0D180022B26D994F85020002A23
:1034AC0077D1032B20D994F86C20002A40F08D8022
:1034BC00042B19D994F88820002A40F0D880052BC9
:1034CC0012D994F8A420002A40F04481062B0BD981
:1034DC0094F8C020002A40F05D81072B04D994F8A1
:1034EC00DC30002B40F0E480854C864801F05CFC1D
:1034FC00854801F059FC854A854B2178854800297F
:10350C0014BF1146194601F04FFC834E834D617870
:10351C00834800290CBF3146294601F045FC814AFD
:10352C00814BA1788148002914BF1146194601F03E
:10353C003BFCE1787E4800290CBF3146294601F05E
:10354C0033FC21797B4800290CBF3146294601F018
:10355C002BFC794A794B6179794800290CBF1146CB
:10356C00194601F021FCA179764800290CBF31469F
:10357C00294601F019FCE179734800290CBF31464A
:10358C00294601F011FC714804B0BDE8704001F00F
:10359C000BBCA18FA06B01F04FFF0346A3F10103FD
:1035AC00B3FA83F394F84E205B090392009394F8DA
:1035BC004F20A38F029294F84B2002210192644871
:1035CC00A26B01F0F1FB2B786BE7B4F85810606D2F
:1035DC0001F032FF0346A3F10103B3FA83F394F82D
:1035EC006A205B090392009394F86B20B4F858306E
:1035FC00029294F86720032101925548626D01F004
:10360C00D3FB2B7854E7A188206801F015FF034603
:10361C00A3F10103B3FA83F3A27D5B090392009338
:10362C00E27DA3880292E27C002101924848226844
:10363C0001F0BAFB2B7827E7218CE06901F0FCFE46
:10364C00012103465B1AB3FA83F394F832205B0929
:10365C000392009394F83320238C029294F82F2039
:10366C003B480192E26901F09FFB2B7813E7B4F819
:10367C007410206F01F0E0FE0346A3F10103B3FACE
:10368C0083F394F886205B090392009394F88720C7
:10369C00B4F87430029294F88320042101922C48DF
:1036AC00226F01F081FB2B78052B3FF60AAF1BE74D
:1036BC00B4F8C810D4F8C40001F0BEFE0546A5F15C
:1036CC000105B5FA85F594F8DA306D09039394F891
:1036DC00DB300721029394F8D7301D480193B4F8DE
:1036EC00C830D4F8C420009501F05EFBFCE600BFA6
:1036FC0071090020E47400080875000874090020A2
:10370C00540A00202475000848750008506E000803
:10371C00C8740008D4750008446E0008406E000898
:10372C00EC750008D0740008606E00080476000880
:10373C001C76000834760008D8740008486E00081F
:10374C004C760008647600087C76000894760008B5
:10375C0080750008B4F89010D4F88C0001F06CFE61
:10376C000346A3F10103B3FA83F394F8A2205B0997
:10377C000392009394F8A320B4F89030029294F83A
:10378C009F20052101921348D4F88C2001F00CFBEA
:10379C002B789BE6B4F8AC10D4F8A80001F04CFEE2
:1037AC000346A3F10103B3FA83F394F8BE205B093B
:1037BC000392009394F8BF20B4F8AC30029294F8C2
:1037CC00BB20062101920348D4F8A82001F0ECFAA2
:1037DC002B7882E680750008A24B2DE9F0411D780C
:1037EC00002D40F0EF80A04E3378A04A12689A4228
:1037FC0080F05C819E49C2EBC20201EB8202117E19
:10380C0001B1D17C9B4A9C4C126821709A4280F089
:10381C00A6809749C2EBC20201EB8202117E0029FD
:10382C0000F09D80D27C954982F00102A2700A685A
:10383C009A4280F09B808E49C2EBC20201EB82025D
:10384C00117E002900F09280D27C8D4982F0010219
:10385C0062710A689A4280F090808549C2EBC2027C
:10386C0001EB8202117E002900F08780D57C85F067
:10387C000105844A257112689A4280F085807C4942
:10388C00C2EBC20201EB8202117E00297CD0D27CF9
:10389C007D4982F0010222720A68002A7ADB9A4280
:1038AC0078DA734BC2EBC20203EB82031A7E002A56
:1038BC0070D0764DDF7C01F085F92B78BB4200F09F
:1038CC00C9806B68C31A002F6AD02B610123686012
:1038DC002B760123E8602F706D4A6B761368002BF2
:1038EC0064DB3278934261DA614AC3EBC30302EBC7
:1038FC0083031A7E002A59D0DE7C01F063F9654BF4
:10390C001A78B24200F0CA805A68821A002E53D03C
:10391C001A61012258601A760122D8601E705A76FC
:10392C00687E5D4BE178E271A0719A6859B95106D5
:10393C0044BF4FF480021A61574B9B6813F040034D
:10394C000AD0BDE8F08152065CBF40221A61524B8E
:10395C009B685B06F5D501236370BDE8F0810122FD
:10396C004649A2700A689A42FFF465AF01224449A5
:10397C0062710A689A42FFF470AF0125414A2571C1
:10398C0012689A42FFF47BAF01223F4922720A6807
:10399C00002A84DA3D4D01F015F92B78002B59D013
:1039AC006B680027C31AA8606B6192E701F00AF9F3
:1039BC00384B1A78002A71D05A680026821A9860FF
:1039CC005A61A9E701F0FEF8274E07463378002B21
:1039DC0074D00025264C06E00135EAB29A4204F177
:1039EC001C04BFF402AF227E002AF5D0E268218AC3
:1039FC00BA1A8A42F0D3A1882068E76001F01CFD56
:103A0C00A0F10108B8FA88F801F0DCF8E37C4FEA81
:103A1C0058186375237D43454AD00023A3750123B1
:103A2C00E375034684F81480A06094F812E0B4F8AF
:103A3C0010C0A27D0EFB0CFCC11A0132D2B28C4517
:103A4C003378A275C8D87245C6D30021227DE175A2
:103A5C00E274C1E7EB68C31AB3F5966F8CBF002311
:103A6C00012339E770090020710900203000002083
:103A7C00740900202C000020540A0020240000208F
:103A8C0028000020180000202000002054090020ED
:103A9C001C0000203809002000080140DA68821A56
:103AAC00B2F5966F8CBF0022012238E70021A9E6FF
:103ABC00E27D3378002A8FD0A368B6E70122024C4E
:103ACC002370A2706271D4E6540A002000220B4BC2
:103ADC0030B51D781C7993F805E065F3070293F86F
:103AEC0002C064F30F2299796EF31742DB796CF301
:103AFC001F6202604171037130BD00BF540A002087
:103B0C0010B5084C2368002B01DB012010BD0649C1
:103B1C0040F6B83001F076F80346C0432360C00F7E
:103B2C0010BD00BF14000020713400082DE9F04FC7
:103B3C00824B04204FF00F084FF0080B4FF0010A96
:103B4C007F4FDFF8009283B003F1380E25E0B942C5
:103B5C009D7900F0DB80494500F0DE807A4A914285
:103B6C0000F0E080794A914200F0E280072800F2F0
:103B7C00C7800C468200D2B2266808FA02FC26EAFC
:103B8C000C0626608DB9042101FA02F22168083373
:103B9C000A437345226019D09888196809B10F2817
:103BAC00D5D9002003B0BDE8F08F26680BFA02F2DD
:103BBC0032432260CA68012D0AFA00F003F10803AF
:103BCC000CBF024382437345CA60E5D1402460496F
:103BDC005B488A695F4B42F004028A610461D3F846
:103BEC0000285D4D22F07062C3F80028D3F800283D
:103BFC002C7842F04072C3F8002844B9E0222146E8
:103C0C00564801F00BFF0123554A2B7014704FF0EE
:103C1C00050A1E2301220421CDF800A04948FFF714
:103C2C00D9FB0446DFF83C91CDF800A01E230122FD
:103C3C000721C9F800404248FFF7CCFB002201469F
:103C4C00DFF82481CDF800A01E23C8F800103C48F2
:103C5C001146FFF7BFFB0446444FCDF800A01E23CE
:103C6C0000220D213C603648FFF7B4FB0324404E84
:103C7C00234630600022012100943148FFF7AAFB53
:103C8C003C4D234628600022022100942C48FFF76B
:103C9C00A1FB394B21460022CDF800A018601E2351
:103CAC002748FFF797FBDFF8D4A00024CAF80000E0
:103CBC0000F088FF324BC3E90444C3E901001C70D7
:103CCC001C83D86000F07EFFD8F80010D9F80030C3
:103CDC002C4A0B43DAF80010C2E904440B43396850
:103CEC00C2E901000B43316814700B431483D0609C
:103CFC003FF557AF2868A042B4BF0020012051E720
:103D0C00A0F108029200D2B20C1D35E7104CA2694A
:103D1C0042F00402A26129E70D4CA26942F00802AC
:103D2C00A26123E70A4CA26942F01002A2611DE7CE
:103D3C00074CA26942F02002A26117E75C810008DF
:103D4C0000080140000C014000100140001401402B
:103D5C00001002400000014070090020740900208E
:103D6C0071090020300000202C00002028000020C9
:103D7C0024000020200000201C000020180000203F
:103D8C00540900203809002040F2712C45F255519D
:103D9C0004220CFB00F00D4BB0F57A1F19605A6031
:103DAC0004D2B0F57A7F0CD2012001E040F6FF700E
:103DBC004AF6AA214CF6CC42044B986019601A6062
:103DCC007047034BA3FB00308009F1E70030004043
:103DDC00D34D62104AF6AA22014B1A60704700BFFD
:103DEC00003000402DE9F041044601200E4600F061
:103DFC0055FE204600F05CFEFF2000F059FE074601
:103E0C00FF2000F055FE0446FF2000F051FE054651
:103E1C00FF2000F04DFE8046FF2000F049FE04F02C
:103E2C000803002B14BF012300230246737325D013
:103E3C002B02610343EA475343EA080301F4E01100
:103E4C0024040B4304F440341C4302F00F03C2F36C
:103E5C00801234603371B2735BB10024351DFF20C6
:103E6C0000F026FE05F8010F33790134E4B2A342C9
:103E7C00F5D8BDE8F041002000F010BEC4F34714A3
:103E8C0044EAC704E1E700BF2DE9F84F8146012061
:103E9C000F46904600F002FE032000F009FE0E20B3
:103EAC0000F006FEFF2000F003FE0646002000F0A6
:103EBC00F5FD012000F0F2FD052000F0F9FD0F20CA
:103ECC0000F0F6FDE02000F0F3FD802000F0F0FDA6
:103EDC00002000F0E3FD42F2107501E0013D13D02B
:103EEC00012000F0DBFD032000F0E2FD0E2000F0CD
:103EFC00DFFDFF2000F0DCFD0446002004F0E004B0
:103F0C0000F0CCFD802CE9D1B9F1050F7DD8644BC4
:103F1C00012013F809405FFA88FB04F1010A04F14F
:103F2C000209E51C5FFA8AFA5FFA89F9EDB2002FF3
:103F3C006DD100F0B3FD022000F0BAFD204600F078
:103F4C00B7FDC8F3C70000F0B3FD384600F0A6FD7E
:103F5C00012000F0A3FD022000F0AAFD504600F065
:103F6C00A7FD4FEA4B1000F0E00000F0A1FD384631
:103F7C0000F094FD012000F091FD022000F098FD6E
:103F8C00484600F095FD384600F092FD384600F0AA
:103F9C0085FD012000F082FD022000F089FD2846FD
:103FAC0000F086FD384600F083FD384600F076FDC3
:103FBC00012000F073FD052000F07AFD0F2000F0C9
:103FCC0077FD06F0E006E02000F072FD304600F0D0
:103FDC006FFD002000F062FD42F2107501E0013D22
:103FEC0013D0012000F05AFD032000F061FD0E20DB
:103FFC0000F05EFDFF2000F05BFD0446002004F0A5
:10400C00E00400F04BFDA642E9D1BDE8F88F00F0CA
:10401C0045FD022000F04CFD204600F049FDC8F3A0
:10402C00475000F045FD002000F038FD012000F065
:10403C0035FD022000F03CFD504600F039FD4FEA02
:10404C005830C8F3014320F01F00184340F008001B
:10405C0000F0EB0000F02CFD002000F01FFD012013
:10406C0000F01CFD022000F023FD484600F020FD6E
:10407C00C8F3072000F01CFD002000F00FFD01200C
:10408C0000F00CFD022000F013FD284600F010FD9E
:10409C00584600F00DFD002000F000FD88E700BF41
:1040AC009481000830B5012083B000F0F7FCC020EB
:1040BC0000F0FEFC002000F0F1FC002341F28732FE
:1040CC000193019B934205DC019B01330193019BFE
:1040DC009342F9DD012000F0E1FC032000F0E8FC44
:1040EC000E2000F0E5FCFF2000F0E2FC044600206E
:1040FC0004F0E00400F0D2FC802C02D0002003B0CD
:10410C0030BD012000F0CAFC022000F0D1FC2A20B6
:10411C0000F0CEFC002000F0CBFC002000F0BEFC38
:10412C00012000F0BBFC022000F0C2FC292000F0B2
:10413C00BFFCB12000F0BCFC002000F0AFFC012063
:10414C0000F0ACFC022000F0B3FC282000F0B0FC26
:10415C00852000F0ADFC002000F0A0FC012000F058
:10416C009DFC022000F0A4FC602000F0A1FC642067
:10417C0000F09EFC002000F091FC012000F08EFC71
:10418C00022000F095FC702000F092FC602000F002
:10419C008FFC002000F082FC012000F07FFC052049
:1041AC0000F086FC0F2000F083FCE02000F080FC87
:1041BC00002000F07DFC002000F070FC42F2107535
:1041CC0001E0013D9AD0012000F068FC032000F0D2
:1041DC006FFC0E2000F06CFCFF2000F069FC044624
:1041EC00002000F05BFC1F2CEBD8012003B030BD8D
:1041FC0070B50546012000F051FC032000F058FC7E
:10420C002C2000F055FCFF2000F052FC044600204E
:10421C0000F044FCA20701D1002070BD012000F089
:10422C003DFC032000F044FC2C2000F041FCFF205E
:10423C0000F03EFC0446002000F030FC14F00106B7
:10424C0010D1A307E8D529469420FFF7CBFD012018
:10425C0000F024FC052000F02BFC2C2000F028FCA6
:10426C0002200DE029469020FFF7BCFD012000F054
:10427C0015FC052000F01CFC2C2000F019FC012082
:10428C0000F016FC002000F013FC002000F006FCEF
:10429C00012070BD2DE9F04F83B0E846DA4B42F2B5
:1042AC00107593E8030088E80300012000F0F6FB8A
:1042BC00032000F0FDFB0E2000F0FAFBFF2000F0C5
:1042CC00F7FB8146002000F0E9FB012000F0E6FB43
:1042DC00052000F0EDFB0F2000F0EAFBE02000F0E1
:1042EC00E7FB802000F0E4FB002000F0D7FB01E0AE
:1042FC00013D13D0012000F0D1FB032000F0D8FBCE
:10430C000E2000F0D5FBFF2000F0D2FB044600206D
:10431C0004F0E00400F0C2FB802CE9D1012000F095
:10432C00BDFB032000F0C4FB0E2000F0C1FBFF20FE
:10433C0000F0BEFB0546002000F0B0FB012000F0B1
:10434C00ADFB052000F0B4FB0F2000F0B1FBE0202A
:10435C0000F0AEFB802000F0ABFB002000F09EFBD9
:10436C0042F2107605F0E00501E0013E13D0012089
:10437C0000F094FB032000F09BFB0E2000F098FB58
:10438C00FF2000F095FB0446002004F0E00400F050
:10439C0085FB802CE9D1012000F080FB022000F08D
:1043AC0087FB202000F084FBFF2000F081FB002025
:1043BC0000F074FB012000F071FB022000F078FB90
:1043CC00212000F075FBE02000F072FB002000F0D3
:1043DC0065FB012000F062FB022000F069FB22204B
:1043EC0000F066FB002000F063FB002000F056FBA1
:1043FC00012000F053FB022000F05AFB232000F0B8
:10440C0057FB002000F054FB002000F047FB01207C
:10441C0000F044FB052000F04BFB0F2000F048FBA4
:10442C00E02000F045FB284600F042FB002000F0A5
:10443C0035FB42F2107601E0013E13D0012000F072
:10444C002DFB032000F034FB0E2000F031FBFF208D
:10445C0000F02EFB0446002004F0E00400F01EFBEC
:10446C00A542E9D1012000F019FB032000F020FB4C
:10447C000E2000F01DFBFF2000F01AFB054600206B
:10448C0000F00CFB012000F009FB052000F010FBF4
:10449C000F2000F00DFBE02000F00AFB802000F064
:1044AC0007FB002000F0FAFA42F2107605F0E00566
:1044BC0001E0013E13D0012000F0F0FA032000F0DF
:1044CC00F7FA0E2000F0F4FAFF2000F0F1FA04469F
:1044DC00002004F0E00400F0E1FA802CE9D1012086
:1044EC0000F0DCFA022000F0E3FA242000F0E0FAFD
:1044FC00FF2000F0DDFA002000F0D0FA012000F0DF
:10450C00CDFA022000F0D4FA252000F0D1FAE020F8
:10451C0000F0CEFA002000F0C1FA012000F0BEFA43
:10452C00022000F0C5FA262000F0C2FA002000F0AC
:10453C00BFFA002000F0B2FA012000F0AFFA02201E
:10454C0000F0B6FA272000F0B3FA002000F0B0FA21
:10455C00002000F0A3FA012000F0A0FA052000F0E2
:10456C00A7FA0F2000F0A4FAE02000F0A1FA2846E8
:10457C0000F09EFA002000F091FA42F2107601E071
:10458C00013E13D0012000F089FA032000F090FACC
:10459C000E2000F08DFAFF2000F08AFA044600206D
:1045AC0004F0E00400F07AFAA542E9D1DFF85CA04F
:1045BC000DF1080B012038F8027B00F06FFA032094
:1045CC0000F076FA0E2000F073FAFF2000F070FA7B
:1045DC000646002000F062FA012000F05FFA052088
:1045EC0000F066FA0F2000F063FAE02000F060FAA9
:1045FC00802000F05DFA002000F050FA42F21075B5
:10460C0006F0E00606E000BF846300089481000811
:10461C00013D13D0012000F041FA032000F048FACC
:10462C000E2000F045FAFF2000F042FA044600206C
:10463C0004F0E00400F032FA802CE9D11AF8014BB6
:10464C00012000F02BFA022000F032FA204600F094
:10465C002FFAC7F3C70000F02BFA002000F01EFA67
:10466C00012000F01BFA022000F022FA601CC0B2FC
:10467C0000F01EFA780100F0E00000F019FA0020BA
:10468C0000F00CFA012000F009FA022000F010FAF8
:10469C00A01CC0B200F00CFA002000F009FA0020B7
:1046AC0000F0FCF9012000F0F9F9022000F000FA0A
:1046BC00E01CC0B200F0FCF9002000F0F9F9002079
:1046CC0000F0ECF9012000F0E9F9052000F0F0F918
:1046DC000F2000F0EDF9E02000F0EAF9304600F090
:1046EC00E7F9002000F0DAF942F2107501E0013D23
:1046FC0013D0012000F0D2F9032000F0D9F90E20DC
:10470C0000F0D6F9FF2000F0D3F90446002004F0A5
:10471C00E00400F0C3F9A642E9D1D8457FF44AAFD2
:10472C00112200210420FFF7AFFB112200210520EC
:10473C00FFF7AAFB012000F0B1F9052000F0B8F951
:10474C000F2000F0B5F909F0E009E02000F0B0F915
:10475C00484600F0ADF9002000F0A0F942F21075C7
:10476C0001E0013D13D0012000F098F9032000F086
:10477C009FF90E2000F09CF9FF2000F099F90446F7
:10478C00002004F0E00400F089F9A145E9D10120F2
:10479C0003B0BDE8F08F00BF10B50F4C84B006E03D
:1047AC0000F010FA034668462360FCF7E9FE684601
:1047BC00FCF792FC0028F3D1084C06E000F002FA5A
:1047CC00034668462360FDF79BFC6846FFF710FD27
:1047DC000028F3D104B010BD640A0020600A002048
:1047EC0008224FF4807310B50E4C0F49207884B01A
:1047FC0031F81010684600918DF80420ADF80D309A
:10480C00FCF7A8FB094B64201A7823780133DBB240
:10481C009A4223709CBF0023237000F095FD04B0D6
:10482C0010BD00BF5D0A00203800002034000020BD
:10483C0010B491B0EC461D4C0FCCACE80F000FCC73
:10484C00ACE80F000FCCACE80F0094E80F008CE83C
:10485C000F0017494B684A68C3F3031302F00C02AC
:10486C00082A0AD0134A10A901EB830353F8400C11
:10487C00B2FBF0F011B010BC70474A68D20312D5ED
:10488C0049680D4A11F4003F0A4818BF1046084AFF
:10489C005168C1F383410D2901F1020208BF1022B6
:1048AC0000FB02F2DFE70448F1E700BF8C6300086D
:1048BC000010024000127A0000093D0030B599B09A
:1048CC00EC46284C284D0FCCACE80F0094E80F00B8
:1048DC008CE80F000DF1200EA4F1500CBCE80F0079
:1048EC006C68AEE80F00BCE80F00AEE80F00BCE847
:1048FC000F00AEE80F009CE80F008EE80F006A680E
:10490C006B68C4F3022403F00C03082BC2F30312EC
:10491C000FD0164B18A901EB820252F8402C01EB78
:10492C008404B3FBF2F354F8600CB3FBF0F019B051
:10493C0030BD6B68DB0312D569680D4B11F4003F79
:10494C000A4818BF1846084B5968C1F383410D2912
:10495C0001F1020308BF102300FB03F3DAE704485C
:10496C00F1E700BFCC6300080010024000127A008F
:10497C0000093D0030B599B0EC46284C284D0FCCC1
:10498C00ACE80F0094E80F008CE80F000DF1200E3E
:10499C00A4F1500CBCE80F006C68AEE80F00BCE84A
:1049AC000F00AEE80F00BCE80F00AEE80F009CE86B
:1049BC000F008EE80F006A686B68C4F3C22403F022
:1049CC000C03082BC2F303120FD0164B18A901EBE2
:1049DC00820252F8402C01EB8404B3FBF2F354F83E
:1049EC00600CB3FBF0F019B030BD6B68DB0312D573
:1049FC0069680D4B11F4003F0A4818BF1846084B64
:104A0C005968C1F383410D2901F1020308BF10233A
:104A1C0000FB03F3DAE70448F1E700BFCC630008BE
:104A2C000010024000127A0000093D00194B1A6870
:104A3C0042F480321A601A689203FCD51649154A62
:104A4C00086840F004000860086840F01000086036
:104A5C00596841F4E0115960596841F4803159604A
:104A6C00596841F480615960596821F4605159606A
:104A7C00196841F08071196013689B01FCD553686B
:104A8C00044943F0020353604B6803F00C03082BFA
:104A9C00FAD1704700100240002002404FF48052BF
:104AAC00024B08B15A6170471A617047000C014003
:104ABC000E4A10B40E49146803E013681B1B092B33
:104ACC0011D88B689B07F8D5C8601068084903E0BB
:104ADC0013681B1A092B06D88B68DB07F8D5C86836
:104AEC0010BCC0B27047FF2010BC7047080B0020F0
:104AFC0000380040314A10B49169314B41F0080143
:104B0C009161D1694FF4805441F48041D16159686D
:104B1C00002021F4403159605968A2F5EC3221F49F
:104B2C0040215960596841F440315960596821F469
:104B3C0040115960596821F440015960596841F499
:104B4C0040115960596841F400015960596821F0CD
:104B5C0040715960596821F040615960596841F0C1
:104B6C0080615960596821F040515960596821F0B1
:104B7C0040415960596841F040515960596841F0C1
:104B8C00004159601C611060136810BC43F00403B1
:104B9C001360136843F010031360136843F400733D
:104BAC001360136843F480731360136843F040037D
:104BBC0013601068C0F38010704700BF00100240F3
:104BCC00000C0140014B1868704700BF080B002017
:104BDC0010B5FFF72DFE0A4BA3FB00239B09013BED
:104BEC00B3F1807F09D24FF0E0220021072411613C
:104BFC00012053619161146110BD002010BD00BFF4
:104C0C00D34D6210F8B52E4C0E46227B12B9A56816
:104C1C00002D36D0227F12B9A269002A3FD094F819
:104C2C002C2012B9A26A002A3BD094F83C2012B96D
:104C3C00A26B002A37D094F84C200AB9A26CA2B30C
:104C4C0094F85C200AB9A26D8AB394F86C200AB966
:104C5C00A26E72B394F87C200AB9A26F5AB394F87E
:104C6C008C2012B9D4F888203AB394F89C201AB14D
:104C7C004FF0FF352846F8BDD4F898200925002AB6
:104C8C00F6D12F01E051FFF79DFF01220D4B04EBF4
:104C9C0005140837C4E90106DA532846F8BD012586
:104CAC00EFE70225EDE70325EBE70425E9E705250A
:104CBC00E7E70625E5E70725E3E70825E1E700BF79
:104CCC00680A00206C0A002070B5FFF77BFF0646CF
:104CDC000C4C04F1A005237B53B1A26842B1D4E97A
:104CEC000013F31A8B4203D366609047637B1BB9A6
:104CFC001034AC42EFD170BD0023C4E90033A36083
:104D0C00A381F5E7680A00200022194B0120C3E9B2
:104D1C000022C3E90422C3E90822C3E90C22C3E937
:104D2C001022C3E91422C3E91822C3E91C229A6099
:104D3C009A819A619A839A629A859A639A879A64FD
:104D4C00A3F84C209A65A3F85C209A66A3F86C2013
:104D5C009A67A3F87C20C3F88820C3E92022C3E912
:104D6C002422A3F88C20C3F89820A3F89C20704729
:104D7C00680A002091B18446094800B50CEB010E7D
:104D8C001CF8011B074B01E0013B03D00268120623
:104D9C00FAD54160F445F3D15DF804FB704700BFD0
:104DAC0000480040A08601000FB400B59BB01CABBE
:104DBC0053F8042B642101A8009300F021FE9DF808
:104DCC00040070B109490DF1040C094B01E0013BE1
:104DDC0003D00A681206FAD548601CF8010F0028A7
:104DEC00F3D11BB05DF804EB04B070470038014000
:104DFC00A086010010B5FFF7BDFD002832D04FF49E
:104E0C00E1111D4AA2FB00431B0D01FB130000F531
:104E1C006140884227D30133180142F20C04174A2F
:104E2C00174B916941F004019161916941F4804102
:104E3C0091615968A2F5584221F47F615960596813
:104E4C0041F0B0015960596841F48061596090603B
:104E5C00D460D36813F400530CD09368181AB0FACA
:104E6C0080F0400910BDA2FB00201B0153EA10404A
:104E7C00D3D110BD184610BDC5B3A291001002408D
:104E8C000008014010B5FFF719FD002832D04FF48F
:104E9C00E1111D4AA2FB00431B0D01FB130000F5A1
:104EAC006140884227D30133180142F20C04174A9F
:104EBC00174B916941F008019161D16941F480214E
:104ECC00D1615968A2F5E43221F47F4159605968E7
:104EDC0041F430615960596841F4804159609060E7
:104EEC00D460D36813F400530CD09368181AB0FA3A
:104EFC0080F0400910BDA2FB00201B0153EA1040BA
:104F0C00D3D110BD184610BDC5B3A29100100240FC
:104F1C00000C014072B64FF4802404200A490B4A5D
:104F2C008B6943F008038B61136823F4706313607F
:104F3C00136843F40073136014611061136983F0F8
:104F4C0004031361FAE700BF00100240000C01409B
:104F5C0030B591B02422002107A800F05FFD012498
:104F6C0000230222102506A8CDE90A45CDE901331C
:104F7C00CDE903330692059300F064FA60B901465B
:104F8C000F2301A8CDE90211CDE90411019300F022
:104F9C0047FC08B911B030BDFFF7BCFF38B500F0C5
:104FAC00AFF9FFF7D5FFFFF741FDFFF723FF40B146
:104FBC005F48FFF7F9FEFFF765FF20B95D48FFF783
:104FCC00F3FEFFF7A7FF5C48FFF7EEFEFFF792FD3D
:104FDC0050B15A48FFF7E8FEFFF764F848B9584853
:104FEC00FFF7E2FEFFF796FF5648FFF7DDFEFFF7EF
:104FFC0091FF5548FFF7D8FEFFF74CF950B15348D5
:10500C00FFF7D2FEFFF7E4FD40B95148FFF7CCFEA5
:10501C00FFF780FF4F48FFF7C7FEF3E74E48FFF757
:10502C00C3FEFCF705F920B94C48FFF7BDFEFFF7AE
:10503C0071FF4B48FFF7B8FEFBF780FD4948FFF7BF
:10504C00B3FEFEF773FD0028B8D04748FFF7ACFE5F
:10505C00FBF7ECFC20B94548FFF7A6FEFFF75AFF1B
:10506C004348FFF7A1FEFFF74FFE002847D1414808
:10507C00FFF79AFEFEF744FD002854D13E48FFF797
:10508C0093FEFBF7B1FC002849D13C48FFF78CFE9E
:10509C00FDF788FA00283ED13948FFF785FEFCF76A
:1050AC0017FDA0BB3748FFF77FFEFEF7FBF850BBA0
:1050BC003548FFF779FEFEF70BF94FF47A70FEF7DF
:1050CC0063FE324DFFF77EFD0446FEF783FEFFF7CD
:1050DC0087FBFFF761FBFEF77FFBFBF79BFCFEF703
:1050EC00C7F8FFF7F1FDFFF76DFD01462846091BD8
:1050FC00FFF75AFE4FF4FA7000F026F9E2E7244865
:10510C00FFF752FEB6E72348FFF74EFED3E72248DF
:10511C00FFF74AFEC9E72148FFF746FEBFE72048E4
:10512C00FFF742FEB4E71F48FFF73EFEA9E700BFBA
:10513C00CC760008EC76000810770008547700084D
:10514C00707700083077000898770008E877000837
:10515C0010780008B87700083878000858780008EC
:10516C007C7800089C780008BC780008DC78000883
:10517C0000790008207900086C790008C4790008CF
:10518C00207A00087C7A0008D87A00083C7B00085A
:10519C004C790008107B0008B07A0008547A00089B
:1051AC00F8790008987900080E4B82B09A690E497C
:1051BC0042F001029A619A6902F001020092009A8F
:1051CC00DA6942F08052DA61DB6903F080530193B3
:1051DC00019B4B6823F0E06343F080634B6002B0AB
:1051EC00704700BF0010024000000140FEE700BF06
:1051FC00FEE700BFFEE700BFFEE700BFFEE700BF13
:10520C00704700BF704700BF704700BF08B500F083
:10521C0089F8024A13680133136008BD080B00209B
:10522C000D49034610B50D4A0D4C0868121B20B1F0
:10523C000344934207D80B6010BD0A4C204603442C
:10524C0093420C60F7D900F005FC0C2203464FF09A
:10525C00FF301A6010BD00BF0C0B00200050002066
:10526C0000040000600C0020704700BFFFF7FCFF3B
:10527C000B480C490C4A002302E0D458C4500433A8
:10528C00C4188C42F9D3094A094C002301E013607D
:10529C000432A242FBD300F0E3FBFFF77FFE704722
:1052AC0000000020B000002004820008B0000020A4
:1052BC005C0C0020FEE7000038B54FF47A730D4A01
:1052CC00054611780C4AB3FBF1F31268B2FBF3F00C
:1052DC0000F09AF808B90F2D01D9012038BD044609
:1052EC00024629464FF0FF3000F052F8034B20469F
:1052FC001D6038BD58000020540000205C000020C8
:10530C00074A08B51368032043F01003136000F03C
:10531C002DF80F20FFF7D0FFFFF746FF002008BD48
:10532C0000200240034A044B11681B780B441360A5
:10533C00704700BF100B002058000020014B18686C
:10534C00704700BF100B002038B50446FFF7F6FF7E
:10535C00631C054602D0044B1B781C44FFF7EEFF80
:10536C00401BA042FAD338BD580000204FF6FF0C6A
:10537C0006490302CA6803F4E06302EA0C02134311
:10538C0043F0BF6343F40033CB60704700ED00E0A3
:10539C001B4B00B5DB68C3F30223C3F1070EBEF150
:1053AC00040F03F1040C28BF4FF0040EBCF1060FE0
:1053BC001CD9A3F1030C4FF0FF3303FA0CF322EAD0
:1053CC0003024FF0FF3303FA0EF321EA030303FA4F
:1053DC000CF313431B010028DBB20ADB00F1604025
:1053EC0000F5614080F800335DF804FB0022944620
:1053FC00E7E7044A00F00F00024413765DF804FB63
:10540C0000ED00E0FCEC00E00138B0F1807F01D34E
:10541C00012070474FF0E0234FF0F00C00220721E1
:10542C0010B4044C586184F823C010469A6110BC27
:10543C001961704700ED00E08368194214BF012028
:10544C0000207047002800F0E4812DE9F04103684A
:10545C000446DD0782B035D599494A6802F00C0242
:10546C00042A00F0ED804A6802F00C02082A00F0D1
:10547C00E3806368B3F5803F10D0002B00F00A8105
:10548C00B3F5A02F00F080818D4B1A6822F4803286
:10549C001A601A6822F480221A6004E0884A1368A1
:1054AC0043F480331360FFF749FF854E054605E052
:1054BC00FFF744FF401B642800F2E88033689A032E
:1054CC00F6D523689F0728D57D4A516811F00C0F3B
:1054DC0000F09680516801F00C01082900F08C80D6
:1054EC002369002B00F016810122764B744E1A6052
:1054FC00FFF724FF054605E0FFF720FF401B0228BD
:10550C0000F2C48033689807F6D53368626923F0DB
:10551C00F80343EAC203336023681A0729D45D07F2
:10552C004BD5674BDA69D00000F184800125DA692C
:10553C0042F08052DA61DB6903F080530093009BE8
:10554C00614E3368D90540F19180E368012B00F07E
:10555C00F280002B00F0BE80052B594B1A6A00F02C
:10556C00208122F001021A621A6A22F004021A62E5
:10557C00E6E0A369002B4CD00122524B504EC3F8ED
:10558C008024FFF7DBFE054604E0FFF7D7FE401B47
:10559C0002287BD8736A9B07F7D54C4B4C4A1B6887
:1055AC00A2FB03235B0A019300BF019B5A1E0192CD
:1055BC00002BF9D123685D07B3D4E369C3B1404D27
:1055CC006A6802F00C02082A00F0CD800022022B3F
:1055DC003C4B1A6600F0ED80FFF7B0FE044604E089
:1055EC00FFF7ACFE001B022850D82B689B01F7D4A8
:1055FC00002002B0BDE8F0815268D6033FF570AFD1
:10560C002F4A1268950725D52269012A22D001203C
:10561C00EFE72C4A2A4EC2F88034FFF78FFE05467E
:10562C0004E0FFF78BFE401B02282FD8736A9F07FC
:10563C00F7D4BFE7002583E74A68D0037FF519AF9D
:10564C001F4A126891037FF53DAF6268002A7FF410
:10565C0039AFDCE71A4960690A6822F0F80242EABD
:10566C00C0020A601A077FF55AAF82E7336843F429
:10567C0080733360FFF762FE07463368DA053FF547
:10568C0064AFFFF75BFEC01B6428F6D9032002B0A1
:10569C00BDE8F0810A4D2B6823F480332B602B6816
:1056AC0023F480232B60FFF749FE064604E0FFF746
:1056BC0045FE801B6428E9D82B689B03F7D400E7D0
:1056CC0000100240000042420070004054000020D4
:1056DC00D34D6210504E41F28838336A23F00103E7
:1056EC003362336A23F004033362FFF727FE074665
:1056FC0004E0FFF723FEC01B4045C7D8336A980768
:10570C00F7D4002D3FF459AF434AD36923F08053AB
:10571C00D36152E7414A404E1360FFF70FFE054636
:10572C0004E0FFF70BFE401B0228AFD83368990743
:10573C00F7D42368F1E6384A136A43F00103136285
:10574C00FFF7FCFD41F288380646334F04E0FFF7C3
:10575C00F5FD801B404599D83B6A9B07F7D5002D7A
:10576C003FF42BAFD0E7012B3FF451AF6B68226AAB
:10577C0003F4803191427FF44AAF606A03F47013F2
:10578C00181A18BF012034E703F18043A3F53C330A
:10579C001A6842F480221A601A6842F480321A6045
:1057AC0081E642F004021A621A6A42F001021A629D
:1057BC00C6E7FFF7C3FD064605E0FFF7BFFD801BFC
:1057CC0002283FF663AF2B689901F6D4236AB3F530
:1057DC00803F05D16A68A16822F400320A436A60EE
:1057EC0001200D4D616A6A680B4322F474120B4957
:1057FC0013436B600866FFF7A1FD044605E0FFF755
:10580C009DFD001B02283FF641AF2B689A01F6D58F
:10581C00EEE60120704700BF00100240000042423B
:10582C00002800F0A180564A2DE9F0411368044687
:10583C0003F007038B420D460CD2136823F00703C9
:10584C000B431360136803F007038B4202D0012053
:10585C00BDE8F08123689E0714D5580704D5494943
:10586C004A6842F4E0624A60190704D545494A681F
:10587C0042F460524A604349A0684A6822F0F00240
:10588C0002434A60DA0720D562683E4B012A1B6846
:10589C006CD0022A65D09E07D9D53A4E41F2883891
:1058AC00736823F0030313437360FFF747FD074648
:1058BC0004E0FFF743FDC01B40455AD8736862688B
:1058CC0003F00C03B3EB820FF3D12D4A136803F0F2
:1058DC000703AB4209D9136823F007032B4313606A
:1058EC00136803F00703AB42B1D12368580706D500
:1058FC002449E0684A6822F4E06202434A601907CE
:10590C0007D5204A2169536823F4605343EAC10345
:10591C0053601C494A6802F00C03082B10D01A4B38
:10592C00184A1A4852681A49C2F30312805C194A81
:10593C00C34008681360FFF7BFFC0020BDE8F0818E
:10594C001548C2F38343D203C35C14D50E484A688E
:10595C0000FB03F31149C2F340428A5CB3FBF2F340
:10596C00DEE79F0199D472E7012070479B0394D422
:10597C006DE703206CE70A4A02FB03F3D0E700BF94
:10598C00002002400010024000127A009C810008A6
:10599C005C00002054000020B0810008AC8100089D
:1059AC0000093D0030B51446002C05461A469BB044
:1059BC0005DA8B2303604FF0FF301BB030BD4FF482
:1059CC000273ADF80C304FF0000319930CBF234653
:1059DC0004F1FF33029305934FF6FF73009104918A
:1059EC00ADF80E3069461E9B00F0C0F9431CBCBFDD
:1059FC008B232B60002CE0D00022009B1A70DCE77C
:105A0C0007B5009313460A46014603480068FFF7A2
:105A1C00C9FF03B05DF804FB60000020034602449C
:105A2C00934200D1704703F8011BF9E7034610B508
:105A3C00013932B111F8014F013A03F8014B002C36
:105A4C00F7D100211A44934200D110BD03F8011B79
:105A5C00F9E70000014B1868704700BF6000002098
:105A6C0070B500260C4D0D4C641BA410A64209D138
:105A7C0000F076FC00260A4D0A4C641BA410A642CA
:105A8C0005D170BD55F8043B98470136EEE755F843
:105A9C00043B98470136F2E7FC810008FC810008C2
:105AAC00FC81000800820008704770470A4491424C
:105ABC0000F1FF3300D1704710B511F8014B914242
:105ACC0003F8014FF9D110BD38B50546002940D077
