:020000040800F2
:100000000050002061640008696200087162000805
:10001000796200088162000889620008000000001F
:1000200000000000000000000000000091620008D5
:100030009D62000800000000A9620008B562000887
:10004000A9640008A9640008A9640008A96400085C
:10005000A9640008A9640008A9640008A96400084C
:10006000A9640008A9640008A9640008A96400083C
:10007000A9640008A9640008A9640008A96400082C
:10008000A9640008A9640008A9640008A96400081C
:10009000A9640008A9640008A9640008A96400080C
:1000A000A9640008A9640008A9640008A9640008FC
:1000B000A9640008A9640008A9640008A9640008EC
:1000C000A9640008A9640008A9640008A9640008DC
:1000D000A9640008A9640008A9640008A9640008CC
:1000E000A9640008A9640008A964000800000000D1
:1000F0000000000000000000000000000000000000
:0C01000000000000000000005FF808F1A3
:1001100010B5054C237833B9044B13B10448AFF341
:1001200000800123237010BD200200200000000089
:10013000A4B6000808B5034B1BB103490348AFF34D
:10014000008008BD0000000024020020A4B60008C2
:10015000034613F8012B002AFBD1181A0138704707
:1001600081F0004102E000BF83F0004330B54FEA68
:1001700041044FEA430594EA050F08BF90EA020FD5
:100180001FBF54EA000C55EA020C7FEA645C7FEA68
:10019000655C00F0E2804FEA5454D4EB5555B8BF8B
:1001A0006D420CDD2C4480EA020281EA030382EAFC
:1001B000000083EA010180EA020281EA0303362D8E
:1001C00088BF30BD11F0004F4FEA01314FF4801C61
:1001D0004CEA113102D0404261EB410113F0004F73
:1001E0004FEA03334CEA133302D0524263EB43032A
:1001F00094EA050F00F0A780A4F10104D5F1200EC8
:100200000DDB02FA0EFC22FA05F2801841F1000122
:1002100003FA0EF2801843FA05F359410EE0A5F1F6
:1002200020050EF1200E012A03FA0EFC28BF4CF027
:10023000020C43FA05F3C01851EBE37101F00045DD
:1002400007D54FF0000EDCF1000C7EEB00006EEBEA
:100250000101B1F5801F1BD3B1F5001F0CD3490874
:100260005FEA30004FEA3C0C04F101044FEA4452CB
:1002700012F5800F80F09A80BCF1004F08BF5FEA52
:10028000500C50F1000041EB045141EA050130BD32
:100290005FEA4C0C404141EB0101013C28BFB1F544
:1002A000801FE9D291F0000F04BF01460020B1FA8F
:1002B00081F308BF2033A3F10B03B3F120020CDA62
:1002C0000C3208DD02F1140CC2F10C0201FA0CF040
:1002D00021FA02F10CE002F11402D8BFC2F1200CA5
:1002E00001FA02F120FA0CFCDCBF41EA0C0190405B
:1002F000E41AA2BF01EB0451294330BD6FEA0404A4
:100300001F3C1CDA0C340EDC04F11404C4F120028E
:1003100020FA04F001FA02F340EA030021FA04F3A0
:1003200045EA030130BDC4F10C04C4F1200220FAF7
:1003300002F001FA04F340EA0300294630BD21FA35
:1003400004F0294630BD94F0000F83F4801306BFFB
:1003500081F480110134013D4EE77FEA645C18BFEF
:100360007FEA655C29D094EA050F08BF90EA020F86
:1003700005D054EA000C04BF1946104630BD91EA7E
:10038000030F1EBF0021002030BD5FEA545C05D181
:100390004000494128BF41F0004130BD14F58004C0
:1003A0003CBF01F5801130BD01F0004545F0FE4134
:1003B00041F470014FF0000030BD7FEA645C1ABF69
:1003C000194610467FEA655C1CBF0B46024650EAA0
:1003D000013406BF52EA033591EA030F41F40021CC
:1003E00030BD00BF90F0000F04BF0021704730B552
:1003F0004FF4806404F132044FF000054FF0000127
:1004000050E700BF90F0000F04BF0021704730B5E7
:100410004FF4806404F1320410F0004548BF4042BC
:100420004FF000013EE700BF42004FEAE2014FEA11
:1004300031014FEA02701FBF12F07F4393F07F4FEC
:1004400081F06051704732F07F4208BF704793F0EF
:100450007F4F04BF41F40021704730B54FF4607402
:1004600001F0004521F000411CE700BF50EA010205
:1004700008BF704730B54FF000050AE050EA0102AE
:1004800008BF704730B511F0004502D5404261EB1E
:1004900041014FF4806404F132045FEA915C3FF45F
:1004A000D8AE4FF003025FEADC0C18BF03325FEAFC
:1004B000DC0C18BF033202EBDC02C2F1200300FAAD
:1004C00003FC20FA02F001FA03FE40EA0E0021FAD2
:1004D00002F11444BDE600BF70B54FF0FF0C4CF4C0
:1004E000E06C1CEA11541DBF1CEA135594EA0C0F72
:1004F00095EA0C0F00F0DEF82C4481EA030621EAAD
:100500004C5123EA4C5350EA013518BF52EA0335E7
:1005100041F4801143F4801338D0A0FB02CE4FF099
:100520000005E1FB02E506F00042E0FB03E54FF0C9
:100530000006E1FB03569CF0000F18BF4EF0010EC1
:10054000A4F1FF04B6F5007F64F5407404D25FEABD
:100550004E0E6D4146EB060642EAC62141EA555170
:100560004FEAC52040EA5E504FEACE2EB4F1FD0CB2
:1005700088BFBCF5E06F1ED8BEF1004F08BF5FEA30
:10058000500E50F1000041EB045170BD06F00046E2
:1005900046EA010140EA020081EA0301B4EB5C048F
:1005A000C2BFD4EB0C0541EA045170BD41F4801187
:1005B0004FF0000E013C00F3AB8014F1360FDEBFAC
:1005C000002001F0004170BDC4F10004203C35DA88
:1005D0000C341BDC04F11404C4F1200500FA05F30B
:1005E00020FA04F001FA05F240EA020001F00042AC
:1005F00021F0004110EBD37021FA04F642EB060122
:100600005EEA430E08BF20EAD37070BDC4F10C044B
:10061000C4F1200500FA04F320FA05F001FA04F20F
:1006200040EA020001F0004110EBD37041F10001FB
:100630005EEA430E08BF20EAD37070BDC4F1200506
:1006400000FA05F24EEA020E20FA04F301FA05F26E
:1006500043EA020321FA04F001F0004121FA04F216
:1006600020EA020000EBD3705EEA430E08BF20EAE6
:10067000D37070BD94F0000F0FD101F00046400020
:1006800041EB010111F4801F08BF013CF7D041EAA2
:10069000060195F0000F18BF704703F000465200A6
:1006A00043EB030313F4801F08BF013DF7D043EA77
:1006B0000603704794EA0C0F0CEA135518BF95EA2D
:1006C0000C0F0CD050EA410618BF52EA4306D1D1B4
:1006D00081EA030101F000414FF0000070BD50EAD3
:1006E000410606BF1046194652EA430619D094EA5D
:1006F0000C0F02D150EA013613D195EA0C0F05D147
:1007000052EA03361CBF104619460AD181EA03019A
:1007100001F0004141F0FE4141F470014FF0000052
:1007200070BD41F0FE4141F4780170BD70B54FF0ED
:10073000FF0C4CF4E06C1CEA11541DBF1CEA13556D
:1007400094EA0C0F95EA0C0F00F0A7F8A4EB05044F
:1007500081EA030E52EA03354FEA013100F0888046
:100760004FEA03334FF0805545EA131343EA12630F
:100770004FEA022245EA111545EA10654FEA0026C4
:100780000EF000419D4208BF964244F1FD0404F57D
:10079000407402D25B084FEA3202B61A65EB0305D9
:1007A0005B084FEA32024FF480104FF4002CB6EB96
:1007B000020E75EB030E22BFB61A754640EA0C0016
:1007C0005B084FEA3202B6EB020E75EB030E22BF56
:1007D000B61A754640EA5C005B084FEA3202B6EB97
:1007E000020E75EB030E22BFB61A754640EA9C0056
:1007F0005B084FEA3202B6EB020E75EB030E22BF26
:10080000B61A754640EADC0055EA060E18D04FEAE3
:10081000051545EA16754FEA06164FEAC30343EA83
:1008200052734FEAC2025FEA1C1CC0D111F4801F50
:100830000BD141EA00014FF000004FF0004CB6E749
:1008400011F4801F04BF01430020B4F1FD0C88BFE8
:10085000BCF5E06F3FF6AFAEB5EB030C04BFB6EBF3
:10086000020C5FEA500C50F1000041EB045170BDE6
:100870000EF0004E4EEA113114EB5C04C2BFD4EB13
:100880000C0541EA045170BD41F480114FF0000E97
:10089000013C90E645EA060E8DE60CEA135594EA13
:1008A0000C0F08BF95EA0C0F3FF43BAF94EA0C0F16
:1008B0000AD150EA01347FF434AF95EA0C0F7FF48B
:1008C00025AF104619462CE795EA0C0F06D152EADF
:1008D00003353FF4FDAE1046194622E750EA4106C3
:1008E00018BF52EA43067FF4C5AE50EA41047FF4D4
:1008F0000DAF52EA43057FF4EBAE12E74FF0FF3C39
:1009000006E000BF4FF0010C02E000BF4FF0010C09
:100910004DF804CD4FEA410C7FEA6C5C4FEA430C82
:1009200018BF7FEA6C5C1BD001B050EA410C0CBFD1
:1009300052EA430C91EA030F02BF90EA020F002033
:10094000704710F1000F91EA030F58BF994208BF9A
:1009500090422CBFD8176FEAE37040F00100704757
:100960004FEA410C7FEA6C5C02D150EA013C07D1AE
:100970004FEA430C7FEA6C5CD6D152EA033CD3D0F9
:100980005DF8040B704700BF8446104662468C46F3
:100990001946634600E000BF01B5FFF7B7FF002826
:1009A00048BF10F1000F01BD4DF808EDFFF7F4FF4F
:1009B0000CBF012000205DF808FB00BF4DF808EDDA
:1009C000FFF7EAFF34BF012000205DF808FB00BFFD
:1009D0004DF808EDFFF7E0FF94BF012000205DF81F
:1009E00008FB00BF4DF808EDFFF7CEFF94BF0120D4
:1009F00000205DF808FB00BF4DF808EDFFF7C4FFCD
:100A000034BF012000205DF808FB00BF4FEA410C15
:100A10007FEA6C5C02D150EA013C0AD14FEA430CF8
:100A20007FEA6C5C02D152EA033C02D14FF0000035
:100A300070474FF0010070474FEA410212F5001273
:100A400015D211D56FF47873B3EB625212D94FEA15
:100A5000C12343F0004343EA505311F0004F23FAFF
:100A600002F018BF404270474FF00000704750EA54
:100A7000013005D111F0004008BF6FF00040704711
:100A80004FF00000704700BF4A0011D212F500126B
:100A900011D20DD56FF47873B3EB62520ED44FEAD6
:100AA000C12343F0004343EA505323FA02F0704756
:100AB0004FF00000704750EA013002D14FF0FF3094
:100AC00070474FF0000070474FEA4102B2F1E04337
:100AD00024BFB3F5001CDCF1FE5C0DD901F0004C25
:100AE0004FEAC0024CEA5070B2F1004F40EB830075
:100AF00008BF20F00100704711F0804F21D113F1A1
:100B00003872BCBF01F00040704741F480114FEAD9
:100B10005252C2F11802C2F1200C10FA0CF320FA62
:100B200002F018BF40F001004FEAC1234FEAD3237F
:100B300003FA0CFC40EA0C0023FA02F34FEA4303E9
:100B4000CCE77FEA625307D150EA01331EBF4FF072
:100B5000FE4040F44000704701F0004040F0FE408D
:100B600040F40000704700BF80F0004002E000BF8A
:100B700081F0004142001FBF5FEA410392EA030F88
:100B80007FEA226C7FEA236C6AD04FEA1262D2EBD2
:100B90001363C1BFD218414048404140B8BF5B42D7
:100BA000192B88BF704710F0004F40F4000020F070
:100BB0007F4018BF404211F0004F41F4000121F086
:100BC0007F4118BF494292EA030F3FD0A2F10102D0
:100BD00041FA03FC10EB0C00C3F1200301FA03F10E
:100BE00000F0004302D5494260EB4000B0F5000F31
:100BF00013D3B0F1807F06D340084FEA310102F1F0
:100C00000102FE2A51D2B1F1004F40EBC25008BFA1
:100C100020F0010040EA03007047490040EB00006B
:100C2000013A28BFB0F5000FEDD2B0FA80FCACF16C
:100C3000080CB2EB0C0200FA0CF0AABF00EBC25099
:100C400052421843BCBFD0401843704792F0000F87
:100C500081F4000106BF80F400000132013BB5E7DA
:100C60004FEA41037FEA226C18BF7FEA236C21D050
:100C700092EA030F04D092F0000F08BF08467047B5
:100C800090EA010F1CBF0020704712F07F4F04D183
:100C9000400028BF40F00040704712F100723CBF96
:100CA00000F50000704700F0004343F0FE4040F4C0
:100CB000000070477FEA226216BF08467FEA23637E
:100CC0000146420206BF5FEA412390EA010F40F469
:100CD000800070474FF0000304E000BF10F00043B5
:100CE00048BF40425FEA000C08BF704743F096439C
:100CF00001464FF000001CE050EA010208BF7047B7
:100D00004FF000030AE000BF50EA010208BF70473D
:100D100011F0004302D5404261EB41015FEA010C52
:100D200002BF84460146002043F0B64308BFA3F14A
:100D30008053A3F50003BCFA8CF2083AA3EBC2532C
:100D400010DB01FA02FC634400FA02FCC2F120024B
:100D5000BCF1004F20FA02F243EB020008BF20F082
:100D60000100704702F1200201FA02FCC2F12002E8
:100D700050EA4C0021FA02F243EB020008BF20EADD
:100D8000DC7070474FF0FF0C1CEAD0521EBF1CEA0B
:100D9000D15392EA0C0F93EA0C0F6FD01A4480EAF9
:100DA000010C400218BF5FEA41211ED04FF00063E2
:100DB00043EA501043EA5111A0FB01310CF000400E
:100DC000B1F5000F3EBF490041EAD3715B0040EA34
:100DD000010062F17F02FD2A1DD8B3F1004F40EB04
:100DE000C25008BF20F00100704790F0000F0CF0D7
:100DF000004C08BF49024CEA502040EA51207F3A9B
:100E0000C2BFD2F1FF0340EAC250704740F4000075
:100E10004FF00003013A5DDC12F1190FDCBF00F066
:100E200000407047C2F10002410021FA02F1C2F114
:100E3000200200FA02FC5FEA310040F1000053EAB0
:100E40004C0308BF20EADC70704792F0000F00F0FE
:100E5000004C02BF400010F4000F013AF9D040EA04
:100E60000C0093F0000F01F0004C02BF490011F498
:100E7000000F013BF9D041EA0C018FE70CEAD15396
:100E800092EA0C0F18BF93EA0C0F0AD030F0004C16
:100E900018BF31F0004CD8D180EA010000F00040CA
:100EA000704790F0000F17BF90F0004F084691F088
:100EB000000F91F0004F14D092EA0C0F01D14202C2
:100EC0000FD193EA0C0F03D14B0218BF084608D18B
:100ED00080EA010000F0004040F0FE4040F40000D5
:100EE000704740F0FE4040F4400070474FF0FF0C68
:100EF0001CEAD0521EBF1CEAD15392EA0C0F93EAAF
:100F00000C0F69D0A2EB030280EA010C49024FEA00
:100F1000402037D04FF0805343EA111143EA1013B9
:100F20000CF000408B4238BF5B0042F17D024FF471
:100F3000000C8B4224BF5B1A40EA0C00B3EB510F4C
:100F400024BFA3EB510340EA5C00B3EB910F24BF35
:100F5000A3EB910340EA9C00B3EBD10F24BFA3EBBA
:100F6000D10340EADC001B0118BF5FEA1C1CE0D182
:100F7000FD2A3FF650AF8B4240EBC25008BF20F035
:100F8000010070470CF0004C4CEA50207F32C2BF89
:100F9000D2F1FF0340EAC250704740F400004FF026
:100FA0000003013A37E792F0000F00F0004C02BF57
:100FB000400010F4000F013AF9D040EA0C0093F021
:100FC000000F01F0004C02BF490011F4000F013B7B
:100FD000F9D041EA0C0195E70CEAD15392EA0C0FE3
:100FE00008D142027FF47DAF93EA0C0F7FF470AF1B
:100FF000084676E793EA0C0F04D14B023FF44CAF5E
:1010000008466EE730F0004C18BF31F0004CCAD1F2
:1010100030F000427FF45CAF31F000437FF43CAF2E
:101020005FE700BF4FF0FF3C06E000BF4FF0010C50
:1010300002E000BF4FF0010C4DF804CD4FEA400232
:101040004FEA41037FEA226C18BF7FEA236C11D07C
:1010500001B052EA530C18BF90EA010F58BFB2EB2F
:10106000030088BFC81738BF6FEAE17018BF40F0AF
:10107000010070477FEA226C02D15FEA402C05D163
:101080007FEA236CE4D15FEA412CE1D05DF8040BE8
:10109000704700BF844608466146FFE70FB5FFF77B
:1010A000C9FF002848BF10F1000F0FBD4DF808ED33
:1010B000FFF7F4FF0CBF012000205DF808FB00BF24
:1010C0004DF808EDFFF7EAFF34BF012000205DF87E
:1010D00008FB00BF4DF808EDFFF7E0FF94BF0120CB
:1010E00000205DF808FB00BF4DF808EDFFF7D2FFC8
:1010F00094BF012000205DF808FB00BF4DF808ED0B
:10110000FFF7C8FF34BF012000205DF808FB00BFD7
:101110004FEA4002B2F1FE4F0FD34FF09E03B3EB04
:1011200012620DD94FEA002343F0004310F0004F44
:1011300023FA02F018BF404270474FF0000070479A
:1011400012F1610F01D1420205D110F0004008BF39
:101150006FF0004070474FF00000704742000ED221
:10116000B2F1FE4F0BD34FF09E03B3EB126209D4E2
:101170004FEA002343F0004323FA02F070474FF098
:101180000000704712F1610F01D1420202D14FF00D
:10119000FF3070474FF00000704700BF38B50022A5
:1011A000002304460D46FFF709FC28B920462946CE
:1011B000BDE8384000F00AB8204605F1004100F0D3
:1011C00005F8404261EB410138BD00BFD0B50022B7
:1011D0000B4B06460F46FFF77FF9FFF755FC044619
:1011E000FFF700F90022074BFFF776F902460B469E
:1011F00030463946FEF7B8FFFFF746FC2146D0BD22
:101200000000F03D0000F04180B483B000AF786092
:101210000B46FB70FB78072B0BD87B681A68FB78B2
:101220009B000F2101FA03F3DB431A407B681A602D
:101230000BE07B685A68FB78083B9B000F2101FAA2
:1012400003F3DB431A407B685A6000BF0C37BD468E
:1012500080BC704780B582B000AF04F079FA386086
:101260003B68174A934202D800237B6016E03B6834
:10127000144A934202D801237B600FE03B68124A74
:10128000934202D802237B6008E03B680F4A9342F6
:1012900002D803237B6001E000230DE00C4B5B6868
:1012A0000B4A23F440435360094B5A687B689B0305
:1012B000074913434B60012318460837BD4680BDDC
:1012C000013FAB01037E560305BD010507FCAC06DB
:1012D0000010024080B584B000AF78600023FB733B
:1012E0003DE0FA7B664913465B0013449B000B44C8
:1012F00004331B68634A934206D1634B9B69624A7D
:1013000043F00403936127E0FA7B5D4913465B00D9
:1013100013449B000B4404331B685C4A934206D180
:10132000594B9B69584A43F00803936114E0FA7BD8
:10133000534913465B0013449B000B4404331B6862
:10134000534A934206D1504B9B694F4A43F01003D6
:10135000936101E000238FE0FB7B0133FB73FB7B98
:10136000002BBED0FFF776FF034683F00103DBB20C
:10137000002B01D000237FE00023BB7317E0BA7B72
:101380003F4913465B0013449B000B440433186829
:10139000BA7B3B4913465B0013449B000B44083364
:1013A0001B781946FFF730FFBB7B0133BB73BB7B58
:1013B000002BE4D07B68374A934206D1324B9B69BD
:1013C000314A43F4007393610CE07B68324A9342E4
:1013D00006D12D4B9B692C4A43F48063936101E055
:1013E000002349E07B689B6843F001027B689A60B8
:1013F0000023BB6003E000BFBB680133BB60BB6878
:10140000B3F57A7FF7D37B689B6843F008027B686B
:101410009A6000BF7B689B6803F00803002BF9D13A
:101420007B689B6843F004027B689A6000BF7B681E
:101430009B6803F00403002BF9D17B685B6823F4FD
:1014400080727B685A607B689B6823F002027B682D
:101450009A607B689B6823F460227B689A607B6853
:101460009B6843F460227B689A607B689B6843F4C6
:1014700080127B689A60012318461037BD4680BDF4
:10148000D0CD00080008014000100240000C0140CF
:1014900000100140002401400028014080B483B0C6
:1014A00000AF78600B46FB707B68DB6A23F4700248
:1014B0007B68DA62FB7803F01F027B685A63FB7873
:1014C000092B1BD87B681969FA7813465B00134413
:1014D000072202FA03F3DB4301EA03027B681A6185
:1014E0007B681969FA7813465B001344072202FAF5
:1014F00003F341EA03027B681A611CE07B68D96848
:10150000FA7813465B0013441E3B072202FA03F3EA
:10151000DB4301EA03027B68DA607B68D968FA780A
:1015200013465B0013441E3B072202FA03F341EA11
:1015300003027B68DA607B681B6823F002027B6829
:101540001A607B689B6843F480027B689A6000BFE6
:101550007B681B6803F00203002BF9D07B68DB6C0F
:101560009BB2C3F30B039BB218460C37BD4680BC3D
:101570007047000080B582B000AF00237B6000237D
:10158000FB700DE00B4B082211461846FFF786FF53
:1015900003461A467B6813447B60FB780133FB707B
:1015A000FB780F2BEED97B681B099BB218460837D6
:1015B000BD4680BD0024014080B584B000AFFFF778
:1015C000D9FF0346FB81FB891846FFF783FB0346DF
:1015D00023491846FFF78AFC034622491846FFF7BD
:1015E000D1FB0346BB604FF07A51B868FFF7CAFBE6
:1015F00003467B6004F0F2F938601B4AFB89938252
:10160000194ABB685360184A7B681360164A7B68A6
:101610009360154A3B68D36014497868FFF75AFD18
:101620000346002B11D0104B1B69002B02D10E4A30
:101630003B6813610C4B1B693A68D31AB3F57A7F88
:1016400009D3094B01229A7505E0074B00221A6164
:10165000054B00229A7500BF1037BD4680BD00BF04
:1016600000F07F45333353403C020020000020410E
:10167000F0B589B006AF04F0B1F90246164BDB684D
:10168000D31A7B60144B9B8A1E46134B5B6818462B
:10169000FEF7CAFE04460D460F4B9B681846FEF740
:1016A000C3FE02460B460C49C9680B48807D0028E2
:1016B00001D00A4800E00A4804907868039002913B
:1016C000CDE9002322462B463146064804F0D1FBE3
:1016D00000BF0C37BD46F0BD3C020020C0B600087C
:1016E000C4B60008C8B6000880B500AF0A4B1B6836
:1016F000002B0DDA094940F6B83004F0B7F903467B
:10170000054A1360044B1B68002B01DA002300E03C
:101710000123184680BD00BF00000020711600089C
:1017200080B500AFFFF7E0FF0346184680BD80B5E7
:1017300000AFFFF741FF00BF80BD000080B483B061
:1017400000AF78607B68002B08D0074B9A687B68F5
:101750005A60054B9A7D7B681A7000E000BF0C3719
:10176000BD4680BC704700BF3C02002080B582B0FF
:1017700000AF0023FB7107E0FB79154A002122F836
:101780001310FB790133FB71FB79002BF4D0114B63
:1017900000229A820F4B4FF000025A600D4B4FF01F
:1017A00000021A600B4B4FF000029A60094B0022B6
:1017B000DA60084B00221A61064B00229A7506482F
:1017C000FFF788FD034618460837BD4680BD00BFB9
:1017D000540200203C0200200024014080B487B065
:1017E00000AFF8607A601A460B46FB721346BB7274
:1017F000954BD3F80032944A43F00103C2F800320B
:10180000FB7A002B2FD1904BD3F81C328E4A23F059
:101810000103C2F81C328C4BD3F80C328A4A43F0D5
:101820000103C2F80C32884BD3F80432864A23F005
:101830000103C2F80432844BD3F81432824A23F0F5
:101840000103C2F81432804B0022C3F840227E4BC1
:101850000422C3F844227C4BD3F81C327A4A43F06A
:101860000103C2F81C32BB7A002B2FD1764BD3F880
:101870001C32754A23F00203C2F81C32724BD3F8B3
:101880000C32714A43F00203C2F80C326E4BD3F8AB
:1018900004326D4A23F00203C2F804326A4BD3F8D3
:1018A0001432694A43F00203C2F81432664B042230
:1018B000C3F84822644B0422C3F84C22624BD3F88D
:1018C0001C32614A43F00203C2F81C320023FB754C
:1018D0004EE05D4BD3F81C22FB7D012101FA03F39E
:1018E000DB4359491340C1F81C32574BD3F80C2243
:1018F000FB7D012101FA03F353491343C1F80C3274
:10190000514BD3F80422FB7D012101FA03F34E4928
:101910001343C1F804324C4BD3F81422FB7D012150
:1019200001FA03F3DB4348491340C1F81432FB7D4D
:101930005B00FA6813441B881A464349FB7D520535
:10194000483341F83320404AFB7D4833DB001344E1
:1019500000225A603C4BD3F81C22FB7D012101FA86
:1019600003F339491343C1F81C32FB7D0133FB7586
:10197000FA7DFB7A9A42ACD30023FB7552E0FA7AE7
:10198000FB7D1344BB75304BD3F81C22BB7D01217A
:1019900001FA03F3DB432C491340C1F81C322A4BF4
:1019A000D3F80C22BB7D012101FA03F3264913432E
:1019B000C1F80C32244BD3F80422BB7D012101FA7B
:1019C00003F321491343C1F804321F4BD3F8142207
:1019D000BB7D012101FA03F31B491343C1F8143203
:1019E000FB7D9B007A6813441B68DA001649BB7DB7
:1019F00042F00402483341F83320134ABB7D483398
:101A0000DB00134400225A600F4BD3F81C22BB7D2D
:101A1000012101FA03F30C491343C1F81C32FB7D89
:101A20000133FB75FA7DBB7A9A42A8D3064BD3F8F3
:101A30000032054A23F00103C2F8003200BF1C3710
:101A4000BD4680BC704700BF0064004080B582B0D6
:101A500000AF0346FB80FB88002B01D100232FE061
:101A600003F050FE0346184A934213D0174A93429C
:101A700022D1FB88FA2B03D0B3F5FA7F05D01BE007
:101A8000134B144ADA6101231AE0114B124ADA614E
:101A9000012315E0FB88FA2B03D0B3F5FA7F05D0BC
:101AA0000AE00B4B0D4ADA61012309E0084B4FF4C1
:101AB000E012DA61012303E0054B0022DA61002322
:101AC00018460837BD4680BD00127A000051250235
:101AD0000064004008001C0003001E0001001C0000
:101AE00080B500AF3F4B9B693E4A43F009039361C9
:101AF0003C4BDB693B4A43F00073D3613A4B5B6874
:101B0000394A23F4C0435360374B5B68364A43F489
:101B100080435360354B5B68344A23F00F035360B6
:101B2000324B5B68314A43F0080353602F4BDB684C
:101B30002E4A43F48073D3602C4B5B682B4A23F00E
:101B4000F0035360294B5B68284A43F0300353602D
:101B5000264B5B68254A43F080035360244B1B6887
:101B6000234A23F002031360214B1B68204A43F0F1
:101B70000103136000BF1E4B5B6803F00103002BE1
:101B8000F9D01B4B1B681A4A23F0FC0313604FF477
:101B9000FA70FFF75BFF034683F00103DBB2002B13
:101BA00001D000231BE0124B1B68114A23F00103F4
:101BB000136000BF0E4B5B6803F00103002BF9D1EB
:101BC0000023002200210020FFF708FE054BDB69FF
:101BD00003F00073002B01D1002300E0012318461D
:101BE00080BD00BF0010024000000140000C014019
:101BF0000064004080B485B000AF78600B46FB7095
:101C00005F4AFB7818331B01134400221A607B687B
:101C10005B7B83F00103DBB2002B10D0584AFB78CA
:101C200018331B01134419687B681B685A05544814
:101C3000FB780A4318331B0103441A6011E0504A31
:101C4000FB7818331B0113441A687B681B68DB00A0
:101C50001A434B49FB7842F0040218331B010B4432
:101C60001A60474AFB7818331B01134404331A687F
:101C70004349FB7822F00F0218331B010B44043355
:101C80001A603F4AFB7818331B01134404331A6867
:101C90007B681B7918463A49FB78024318331B01CD
:101CA0000B4404331A60364AFB781B01134403F5D6
:101CB000C47300221A60324AFB781B01134403F5F7
:101CC000C67300221A607B689B7B83F00103DBB242
:101CD000002B41D00023FB7339E0FB7B032B19D889
:101CE000274AFB781B01134403F5C4731A68FB7B76
:101CF00079680B445B791946FB7BDB0001FA03F33F
:101D000018461F49FB7802431B010B4403F5C473BB
:101D10001A6019E01A4AFB781B01134403F5C673D5
:101D20001A68FB7B79680B445B791946FB7B043BA3
:101D3000DB0001FA03F318461149FB7802431B014B
:101D40000B4403F5C6731A60FB7B0133FB737B689E
:101D50001B79FA7B9A42C0D3094AFB7818331B01DE
:101D600013441A680649FB7842F0010218331B013C
:101D70000B441A6000BF1437BD4680BC704700BFDB
:101D80000064004080B485B000AF78600B46FB7003
:101D90007B685B7B83F00103DBB2002B0BD03D4AF9
:101DA000FB781B331B0113441B685B0DC3F30A0252
:101DB0007B681A600AE0374AFB781B331B01134427
:101DC0001B68DB0823F060427B681A60314AFB78AD
:101DD0001B331B0113441B6803F00203002B14BFC9
:101DE00001230023DAB27B689A732A4AFB781B33FB
:101DF0001B01134404331B68DBB203F00F03DAB298
:101E00007B681A710023FB7327E0FB7B032B10D840
:101E1000204AFB781B01134403F5DC731A68FB7B33
:101E2000DB00DA40FB7BD1B27A6813440A465A7170
:101E300010E0184AFB781B01134403F5DE731A689F
:101E4000FB7B043BDB00DA40FB7BD1B27A681344B6
:101E50000A465A71FB7B0133FB737B681B79FA7B63
:101E60009A42D2D3FB78002B06D10A4BDB68094A91
:101E700043F02003D36008E0FB78012B05D1054B2C
:101E80001B69044A43F02003136100BF1437BD46A9
:101E900080BC70470064004080B483B000AF0F4B3B
:101EA0009B687B607B6803F08063002B01D000237C
:101EB0000EE07B6803F00063002B01D0012307E0F4
:101EC0007B6803F08053002B01D0022300E0032342
:101ED00018460C37BD4680BC704700BF0064004008
:101EE00080B400AF0A4BDB6803F00303002B01D082
:101EF000002308E0064B1B6903F00303002B01D00D
:101F0000012300E003231846BD4680BC704700BF94
:101F100000640040B0B588B000AF094B3C1D1D46C1
:101F20000FCD0FC495E8070003C42280381D00239D
:101F300000220D21FFF752FC00BF2037BD46B0BD87
:101F400018B7000880B584B000AF7860FFF7A4FF31
:101F50000346FB73FB7B032B06D0FB7B194678689B
:101F6000FFF748FE012300E0002318461037BD4666
:101F700080BD80B584B000AF7860FFF7B1FF034645
:101F8000FB73FB7B032B06D0FB7B19467868FFF7BE
:101F9000F9FE012300E0002318461037BD4680BD3E
:101FA00080B500AFFFF79CFD0346184680BD0000DA
:101FB00080B582B000AF786039603B68DA683B6812
:101FC0001A6104F0CBFA02463B68DA607B681B7842
:101FD0001B027A680132127813431846FEF77EFE20
:101FE00003461A491846FEF7CDFE03461A463B68DB
:101FF0001A607B6802331B781B027A6803321278FE
:1020000013431846FEF76AFE034610491846FEF7CA
:10201000B9FE03461A463B685A607B6804331B7856
:102020001B027A680532127813431846FEF756FEF3
:10203000034606491846FEF7A5FE03461A463B68C6
:102040009A6000BF0837BD4680BD00BF0AD7233C59
:1020500080B582B000AF786039603B689A683B68B1
:10206000DA6004F07BFA02463B689A607B681B7872
:102070001B027A680132127813431846FEF72EFECF
:10208000034615491846FEF77DFE03461A463B688F
:102090001A607B6802331B781BB21B021AB27B6882
:1020A00003331B781BB213431BB29AB23B689A806E
:1020B0007B6804331B781BB21B021AB27B680533A2
:1020C0001B781BB213431BB29AB23B68DA8000BF85
:1020D0000837BD4680BD00BF0AD7233C80B582B01B
:1020E00000AF786039603B689A683B68DA6004F05A
:1020F00035FA02463B689A607B681B781BB21B026C
:102100001AB27B6801331B781BB213431BB29AB21D
:102110003B681A807B6802331B781BB21B021AB221
:102120007B6803331B781BB213431AB23B685A8097
:102130007B6804331B781BB21B021AB27B68053321
:102140001B781BB213431BB29AB23B689A8000BF44
:102150000837BD4680BD80B586B000AF7860396075
:102160003B685A6A3B689A6204F0F8F902463B6899
:102170005A627B681B781BB21B021AB27B68013360
:102180001B781BB213431BB2FB8100237B6112E05F
:10219000FA897B6942FA03F303F00103002B14BFB1
:1021A00001230023D9B23A687B6913440A461A70A6
:1021B0007B6901337B617B690F2BE9DD7B6802332F
:1021C0001B781BB21B021AB27B6803331B781BB24D
:1021D00013431BB2BB8100233B6111E0BA893B6909
:1021E00042FA03F303F001023B691033002A14BFE3
:1021F00001220022D1B23A68D1543B6901333B61DC
:102200003B69102BEADD7B6804331B781AB27B68CC
:1022100005331B781BB21B021BB213431BB29AB2CD
:102220003B685A8400BF1837BD4680BD80B582B078
:1022300000AF786039603B685A683B689A6004F088
:102240008DF902463B685A607B681A783B681A70C1
:102250007B6801331A783B685A7000BF0837BD4667
:1022600080BD000080B582B000AF786039603B6807
:10227000DA683B681A6104F071F902463B68DA607B
:102280007B681B781B027A68013212781343184668
:10229000FEF724FD03462F491846FEF773FD03465B
:1022A0002D491846FEF764FC03461A463B681A603F
:1022B0003B681B681846FEF751FF0346DAB2274B0E
:1022C0001A707B6802331B781B027A68033212781B
:1022D00013431846FEF702FD03461E491846FEF753
:1022E00051FD03461C491846FEF742FC03461A46B8
:1022F0003B685A603B685B681846FEF72FFF034651
:10230000DAB2164B5A707B6804331B781B027A686A
:102310000532127813431846FEF7E0FC03460D49D8
:102320001846FEF72FFD03460B491846FEF720FC22
:1023300003461A463B689A603B689B681846FEF75E
:102340000DFF0346DAB2054B9A7000BF0837BD4651
:1023500080BD00BFCDCCCC3D33938843B803002073
:1023600080B582B000AF786039603B68DA683B685E
:102370001A6104F0F3F802463B68DA607B681B7868
:102380001B027A680132127813431846FEF7A6FC46
:1023900003462A491846FEF7F5FC03462849184625
:1023A000FEF7E6FB03461A463B681A603B681B686B
:1023B0001846FEF7D3FE0346DAB2224BDA707B688A
:1023C00002331B781B027A680332127813431846D3
:1023D000FEF784FC034619491846FEF7D3FC034672
:1023E00017491846FEF7C4FB03461A463B685A6075
:1023F0003B685B681846FEF7B1FE0346DAB2114B44
:102400001A71104B1B781A460E4B5B7813440D4A19
:10241000927813440B4AD27813440A4A127913442F
:10242000094A82FB03125210DB17D31ADAB2074BA8
:102430001A7000BF0837BD4680BD00BFCDCCCC3D73
:1024400033938843B803002067666666BD030020A7
:1024500080B582B000AF786039603B68DA683B686D
:102460001A6104F07BF802463B68DA607B681B78EF
:102470001B027A680132127813431846FEF72EFCCD
:1024800003461A491846FEF731FD03461A463B68D3
:102490001A607B6802331B781B027A680332127859
:1024A00013431846FEF71AFC034610491846FEF778
:1024B0001DFD03461A463B685A607B6804331B784F
:1024C0001B027A680532127813431846FEF706FCA1
:1024D000034606491846FEF709FD03461A463B68BF
:1024E0009A6000BF0837BD4680BD00BF00007A4437
:1024F00080B582B000AF786039603B68DA683B68CD
:102500001A6104F02BF802463B68DA607B681B789E
:102510001B027A680132127813431846FEF7DEFB7D
:1025200003461A491846FEF7E1FC03461A463B6883
:102530001A607B6802331B781B027A6803321278B8
:1025400013431846FEF7CAFB034610491846FEF728
:10255000CDFC03461A463B685A607B6804331B78FF
:102560001B027A680532127813431846FEF7B6FB51
:10257000034606491846FEF7B9FC03461A463B686F
:102580009A6000BF0837BD4680BD00BF00007A4496
:1025900080B582B000AF786039603B68DA683B682C
:1025A0001A6103F0DBFF02463B68DA607B681B7848
:1025B0001B027A680132127813431846FEF78EFB2D
:1025C00003461A491846FEF791FC03461A463B6833
:1025D0001A607B6802331B781B027A680332127818
:1025E00013431846FEF77AFB034610491846FEF7D8
:1025F0007DFC03461A463B685A607B6804331B78AF
:102600001B027A680532127813431846FEF766FB00
:10261000034606491846FEF769FC03461A463B681E
:102620009A6000BF0837BD4680BD00BF00007A44F5
:1026300080B582B000AF786039603B68DA683B688B
:102640001A6103F08BFF02463B68DA607B681B78F7
:102650001B027A680132127813431846FEF73EFBDC
:1026600003461A491846FEF741FC03461A463B68E2
:102670001A607B6802331B781B027A680332127877
:1026800013431846FEF72AFB034610491846FEF787
:102690002DFC03461A463B685A607B6804331B785E
:1026A0001B027A680532127813431846FEF716FBB0
:1026B000034606491846FEF719FC03461A463B68CE
:1026C0009A6000BF0837BD4680BD00BF00007A4455
:1026D00080B582B000AF786039603B68DA683B68EB
:1026E0001A6103F03BFF02463B68DA607B681B78A7
:1026F0001B027A680132127813431846FEF7EEFA8D
:1027000003461A491846FEF7F1FB03461A463B6892
:102710001A607B6802331B781B027A6803321278D6
:1027200013431846FEF7DAFA034610491846FEF737
:10273000DDFB03461A463B685A607B6804331B780E
:102740001B027A680532127813431846FEF7C6FA60
:10275000034606491846FEF7C9FB03461A463B687E
:102760009A6000BF0837BD4680BD00BF00007A44B4
:1027700080B582B000AF786039603B68DA683B684A
:102780001A6103F0EBFE02463B68DA607B681B7857
:102790001B027A680132127813431846FEF79EFA3C
:1027A000034606491846FEF7A1FB03461A463B6856
:1027B0001A6000BF0837BD4680BD00BF00007A44E4
:1027C0002DE9F04184B002AF78607B681C697B68BA
:1027D000DD687B681B681846FEF79AFC80467B68BC
:1027E0005B681846FEF794FC06467B689B681846B3
:1027F000FEF78EFC03460193009643462A46214687
:10280000034803F036FB00BF0837BD46BDE8F08142
:1028100034B700082DE9F04184B002AF78607B68DE
:102820001C697B68DD687B681B681846FEF770FCD6
:1028300080467B685B681846FEF76AFC06467B6844
:102840009B681846FEF764FC0346019300964346D6
:102850002A462146034803F00CFB00BF0837BD465B
:10286000BDE8F081BCB700082DE9F04184B002AFAB
:1028700078607B681C697B68DD687B681B6818462C
:10288000FEF746FC80467B685B681846FEF740FC16
:1028900006467B689B681846FEF73AFC03460193A0
:1028A000009643462A462146034803F0E2FA00BF59
:1028B0000837BD46BDE8F0813CB800082DE9F0417D
:1028C00084B002AF78607B681C697B68DD687B68D8
:1028D0001B681846FEF71CFC80467B685B68184640
:1028E000FEF716FC06467B689B681846FEF710FC50
:1028F00003460193009643462A462146034803F0C7
:10290000B8FA00BF0837BD46BDE8F081BCB8000882
:102910002DE9F04184B002AF78607B681C697B6868
:10292000DD687B681B681846FEF7F2FB80467B6813
:102930005B681846FEF7ECFB06467B689B6818460A
:10294000FEF7E6FB03460193009643462A462146DE
:10295000034803F08EFA00BF0837BD46BDE8F0819A
:1029600040B900082DE9F04184B002AF78607B687F
:102970001C697B68DD687B681B681846FEF7C8FB2E
:1029800080467B685B681846FEF7C2FB06467B689C
:102990009B681846FEF7BCFB03460193009643462E
:1029A0002A462146034803F064FA00BF0837BD46B3
:1029B000BDE8F081C4B900082DE9F04184B002AF50
:1029C00078607B681C697B68DD687B681B681846DB
:1029D000FEF79EFB80467B685B681846FEF798FB17
:1029E00006467B689B681846FEF792FB03460193F8
:1029F000009643462A462146034803F03AFA00BFB0
:102A00000837BD46BDE8F08148BA00082DE9F0411D
:102A100084B002AF78607B681C697B68DD687B6886
:102A20001B681846FEF774FB80467B685B68184697
:102A3000FEF76EFB06467B689B681846FEF768FB50
:102A400003460193009643462A462146034803F075
:102A500010FA00BF0837BD46BDE8F081D0BA0008C3
:102A6000B0B582B000AF78607B681C697B68DD68B8
:102A70007B681B681846FEF74BFB03462A46214637
:102A8000034803F0F6F900BF0837BD46B0BD00BFEC
:102A900058BB000880B500AF124B93F85C31002B97
:102AA0001BD01048FFF78CFE0F48FFF7B3FE0F480E
:102AB000FFF7DAFE0E48FFF701FF0E48FFF728FF89
:102AC0000D48FFF74FFF0D48FFF776FF0C48FFF763
:102AD0009DFF0C48FFF7C4FF02E00B4803F0C9F963
:102AE00000BF80BD58020020C4020020D802002090
:102AF000EC02002000030020140300202803002023
:102B00003C03002050030020CCBB000880B582B0FD
:102B100000AF78607B681B68A3F580730C2B00F214
:102B2000B58001A252F823F05D2B0008752B000838
:102B30008D2B0008A52B0008BD2B0008D52B000805
:102B4000ED2B0008052C0008152C00082D2C000882
:102B5000452C00085D2C0008752C00084E4B012206
:102B600083F85C217B6805334B491846FFF720FA50
:102B700001238DE0484B012283F85C217B680533FB
:102B800046491846FFF764FA012381E0424B0122CF
:102B900083F85C217B68053341491846FFF7DBFA6F
:102BA000012375E03C4B012283F85C217B680533EF
:102BB0003C491846FFF792FA012369E0364B01229F
:102BC00083F85C217B68053337491846FFF72EFBF5
:102BD00001235DE0304B012283F85C217B680533E3
:102BE00032491846FFF73EFB012351E02A4B0122F0
:102BF00083F85C217B6805332D491846FFF7B0FB4D
:102C0000012345E07B6805332A491846FFF720FC7D
:102C100001233DE0204B012283F85C217B680533D2
:102C200025491846FFF764FC012331E01A4B0122C5
:102C300083F85C217B68053320491846FFF7A8FC20
:102C4000012325E0144B012283F85C217B680533C6
:102C50001B491846FFF7ECFC012319E00E4B01223B
:102C600083F85C217B68053316491846FFF730FD71
:102C700001230DE0084B012283F85C217B680533BA
:102C800011491846FFF774FD012301E000BF00233E
:102C900018460837BD4680BD580200206C0200204F
:102CA0007C020020A8020020B8020020C4020020FC
:102CB000D8020020EC0200200003002014030020B2
:102CC000280300203C0300205003002080B500AF03
:102CD0000A4B1B68002B0DDA094940F6B83002F0A8
:102CE000C5FE0346054A1360044B1B68002B01DA3E
:102CF000002300E00123184680BD00BF040000202F
:102D0000952A000880B500AFFFF7E0FF034618469C
:102D100080BD000080B584B000AF78604F4B1A785A
:102D20007B6883F84C204E4B5A687B689A604C4B0A
:102D30001A687B685A604A4BB3F84630002B04D0BF
:102D40007B68012283F84D2003E07B68002283F832
:102D50004D20434B5B8BDAB27B681A70404BD3F843
:102D600094207B68DA603E4BD3F898207B681A6128
:102D70003B4BD3F89C207B685A61394BD3F8A82091
:102D80007B689A61364BD3F8AC207B68DA61344BB0
:102D9000D3F8B0207B681A62314BD3F8BC207B6833
:102DA0005A622F4BD3F8C0207B689A622C4BD3F821
:102DB000C4207B68DA622A4BD3F8D0207B681A6380
:102DC000274BD3F8D4207B685A63254BD3F8D820FF
:102DD0007B689A63224BD3F8E4207B68DA63204B4C
:102DE000D3F8E8207B681A641D4BD3F8EC207B688D
:102DF0005A640023FB731A4BB3F84630002B28D0DB
:102E00000023BB7322E0164BB3F846301A46BB7B57
:102E100022FA03F303F00103002B14D07B68196D31
:102E2000BA7B13469B001344DB00C818BA7B1346D9
:102E30009B001344DB000B4A1344194605F0DBF8F2
:102E4000FB7B0133FB73BB7B0133BB73BB7B0F2B62
:102E5000D9D900BF1037BD4680BD00BFBD030020DB
:102E600058020020DCCD00082DE9B00F8DB000AF76
:102E7000F860B9607A607B68002B02DD7B68402BCC
:102E800004DD4FF000024FF0000356E04FF0000267
:102E90004FF00003C7E90A2300237B6247E0BA68CA
:102EA0007B6A1344FB61FB69002B00DA0733DB10FC
:102EB000BB61FB695A4203F0070302F0070258BFE7
:102EC00053427B61002387F82330BB69002B0FDB63
:102ED000BB69072B0CDCBB69FA6813441B781A46E4
:102EE0007B6942FA03F3DBB203F0010387F8233076
:102EF00097F823300022984691467B6AA3F120017F
:102F0000C3F1200209FA03F508FA01F10D4328FA8A
:102F100002F2154308FA03F4D7E90A2342EA040A45
:102F200043EA050BC7E90AAB7B6A01337B627A6A25
:102F30007B689A42B3DBD7E90A2310461946343737
:102F4000BD46BDE8B00F704780B582B000AF786075
:102F5000396002F043FD02463B681A6102220021FB
:102F60007868FFF781FF02460B46D2B23B681A70C1
:102F7000022202217868FFF777FF02460B46D2B2A1
:102F80003B685A70012204217868FFF76DFF024602
:102F90000B46D2B23B689A70032205217868FFF78E
:102FA00063FF02460B46D2B23B68DA70102208215A
:102FB0007868FFF759FF02460B4692B23B689A8049
:102FC000082218217868FFF74FFF02460B46D2B25D
:102FD0003B689A71082220217868FFF745FF024676
:102FE0000B46D2B23B68DA710C2228217868FFF7D1
:102FF0003BFF02460B4610461946FDF77DFE034691
:103000000F491846FDF7BEFE03461A463B689A6014
:103010000C2234217868FFF727FF02460B46104642
:103020001946FDF769FE034605491846FDF7AAFE55
:1030300003461A463B68DA6000BF0837BD4680BDCC
:10304000CDCCCC3D80B582B000AF7860396002F065
:10305000C5FC02463B685A61102200217868FFF7E0
:1030600003FF02460B4610461946FDF745FE034690
:103070003C491846FDF786FE03461A463B681A602F
:10308000102210217868FFF7EFFE02460B4610462B
:103090001946FDF731FE034632491846FDF772FE28
:1030A00003461A463B685A60042220217868FFF7DD
:1030B000DBFE02460B46D2B23B681A720422242180
:1030C0007868FFF7D1FE02460B46D2B23B685A72CF
:1030D000012228217868FFF7C7FE02460B46D2B2CC
:1030E0003B689A72012229217868FFF7BDFE0246EB
:1030F0000B46D2B23B68DA7209222A217868FFF7C0
:10310000B3FE02460B4610461946FDF7F5FD034691
:1031100015491846FDF736FE03461A463B68DA6045
:10312000022233217868FFF79FFE02460B46D2B297
:103130003B681A74032235217868FFF795FE024632
:103140000B46D2B23B685A74082238217868FFF7E0
:103150008BFE02460B46D2B23B689A7400BF08371A
:10316000BD4680BDCDCCCC3D0AD7233C80B582B0D6
:1031700000AF7860396002F031FC02463B681A61AA
:10318000082200217868FFF76FFE02460B4653B213
:103190009BB2283B9BB21AB23B681A8008220821D6
:1031A0007868FFF761FE02460B4653B29BB2283B9C
:1031B0009BB21AB23B685A80102210217868FFF740
:1031C00053FE02460B4610461946FDF795FD034691
:1031D0004FF07A511846FDF7D5FD034617491846BA
:1031E000FDF7C6FC03461A463B685A6010222021B0
:1031F0007868FFF739FE02460B4610461946FDF780
:103200007BFD03464FF07A511846FDF7BBFD0346A0
:103210000A491846FDF7ACFC03461A463B689A601B
:10322000102230217868FFF71FFE02460B4692B24B
:103230003B689A8100BF0837BD4680BD0080FF43D0
:1032400080B582B000AF7860396002F0C7FB0246FB
:103250003B685A60082200217868FFF705FE0246A5
:103260000B46D2B23B681A70082208217868FFF733
:10327000FBFD02460B46D2B23B685A700822102171
:103280007868FFF7F1FD02460B46D2B23B689A70B0
:10329000082220217868FFF7E7FD02460B46D2B2EC
:1032A0003B68DA7000BF0837BD4680BD80B584B08A
:1032B00000AF786002F092FB02467B681B69D31A6C
:1032C000FB60294802F0D5FD7B681B691946274839
:1032D00002F0CFFDF968264802F0CBFD7B681B7831
:1032E0001946244802F0C5FD7B685B7819462248E0
:1032F00002F0BFFD7B689B781946204802F0B9FDBB
:103300007B68DB7819461E4802F0B3FD7B689B881A
:1033100019461C4802F0ADFD7B689B7919461A4896
:1033200002F0A7FD7B68DB791946184802F0A1FD81
:103330007B689B681846FDF777F802460B461448F1
:1033400002F097FD7B68DB681846FDF76DF80246D2
:103350000B46104802F08DFD0F4802F08AFD00BFB9
:103360001037BD4680BD00BFF0BB00082CBC000874
:1033700050BC000874BC000894BC0008B4BC000831
:10338000D4BC0008F4BC000818BD00083CBD00080F
:103390005CBD000880BD0008A4BD000880B584B0F5
:1033A00000AF786002F01AFB02467B685B69D31AB3
:1033B000FB60284802F05DFD7B685B691946264882
:1033C00002F057FDF968254802F053FD7B681B6841
:1033D0001846FDF729F802460B46214802F049FD40
:1033E0007B685B681846FDF71FF802460B461D48D0
:1033F00002F03FFD7B681B7A19461B4802F039FD3D
:103400007B685B7A1946194802F033FD7B689B7A2A
:103410001946174802F02DFD7B68DB681846FDF75A
:1034200003F802460B46134802F023FD7B681B7C21
:103430001946114802F01DFD7B689B7C19460F4818
:1034400002F017FD0E4802F014FD00BF1037BD4614
:1034500080BD00BFDCBD00082CBC000850BC0008CB
:1034600018BE00083CBE000860BE000880BE000810
:10347000A0BE0008C0BE0008E4BE000804BF0008EB
:10348000A4BD000880B584B000AF786002F0A6FA51
:1034900002467B681B69D31AFB601E4802F0E9FCF8
:1034A0007B681B6919461C4802F0E3FCF9681B485D
:1034B00002F0DFFC7B68B3F900301946184802F0CF
:1034C000D8FC7B68B3F902301946164802F0D1FCEB
:1034D0007B685B681846FCF7A7FF02460B4612485C
:1034E00002F0C7FC7B689B681846FCF79DFF02460C
:1034F0000B460E4802F0BDFC7B689B8919460C48C0
:1035000002F0B7FC0B4802F0B4FC00BF1037BD4618
:1035100080BD00BF28BF00082CBC000850BC0008BC
:1035200064BF00088CBF0008B4BF0008DCBF0008FF
:1035300004C00008A4BD000880B584B000AF786066
:1035400002F04CFA02467B685B68D31AFB601648AF
:1035500002F08FFC7B685B681946144802F089FC16
:10356000F968134802F085FC7B681B7819461148FE
:1035700002F07FFC7B685B7819460F4802F079FC0B
:103580007B689B7819460D4802F073FC7B68DB78FA
:1035900019460B4802F06DFC0A4802F06AFC00BFB5
:1035A0001037BD4680BD00BF28C000082CBC0008F5
:1035B00050BC000864C0000888C00008ACC0000807
:1035C000D0C00008A4BD000880B500AF0B4B93F835
:1035D0004830002B0CD00948FFF768FE0848FFF779
:1035E000DDFE0848FFF74EFF0748FFF7A5FF02E0A2
:1035F000064802F03EFC00BF80BD00BFC0030020B3
:10360000D4030020EC03002000040020F4C00008D4
:1036100080B582B000AF78607B681B68113B032BDC
:1036200036D801A252F823F0393600084F36000888
:10363000653600087B360008174B012283F84820C6
:103640007B68053314491846FFF77EFC20E0124BD7
:10365000012283F848207B68053310491846FFF79C
:10366000F1FC15E00C4B012283F848207B68053300
:103670000B491846FFF77AFD0AE0074B012283F851
:1036800048207B68053307491846FFF7D9FD00BF7E
:1036900000BF0837BD4680BDC0030020D403002012
:1036A000EC0300200004002080B500AF0A4B1B682B
:1036B000002B0DDA094940F6B83002F0D7F903467D
:1036C000054A1360044B1B68002B01DA002300E05D
:1036D0000123184680BD00BF08000020C93500083E
:1036E00080B500AFFFF7E0FF0346184680BD00003D
:1036F00080B584B000AF78603E4B9B88DAB27B68BF
:103700005A753C4B5A697B681A603A4B9A697B68D8
:103710005A60384BB3F92C30DAB27B681A72354BE9
:10372000B3F92E30DAB27B685A72324B9B79BB60A8
:10373000BB68002B19D17B6800229A727B6800223B
:103740001A750023FB730CE07B689969FA7B1346BA
:103750009B001344DB000B4400221A70FB7B0133F7
:10376000FB73FB7B152BEFD935E07B6801229A7246
:103770007B6800221A750023BB7326E0BB7BBA6806
:1037800022FA03F303F00103002B1BD07B681B7D9F
:10379000152B17D87B689A697B681B7D591CC8B2AA
:1037A0007968087519460B469B000B44DB00D0185E
:1037B000BA7B13469B001344DB000F4A134419469F
:1037C00004F019FCBB7B0133BB73BB7B1F2B02D8FE
:1037D000BB7B152BD2D9074B5B7F002B03D07B68BB
:1037E00001221A7702E07B6800221A7700BF1037A7
:1037F000BD4680BDC00300205CD0000880B59CB0F1
:1038000000AF3A601A460346FB710B46BB80134675
:10381000BB71002387F86F3097F86F305A1C87F818
:103820006F2070333B445A2203F8682C97F86F30AE
:103830005A1C87F86F2070333B44A52203F8682C8C
:1038400097F86F305A1C87F86F201946BB790333FD
:10385000DAB201F170033B4403F8682C97F86F303B
:103860005A1C87F86F2070333B44FA7903F8682CB0
:10387000BB881B0A9AB297F86F30591C87F86F10F3
:10388000D2B270333B4403F8682C97F86F305A1C5F
:1038900087F86F20BA88D2B270333B4403F8682CA3
:1038A000002387F86E3012E097F86E303A681A44B9
:1038B00097F86F30591C87F86F10127870333B44BB
:1038C00003F8682C97F86E30013387F86E3097F85C
:1038D0006E20BB799A42E7D397F86F2007F108036F
:1038E0001146184602F0A9FA00BF7037BD4680BDE8
:1038F00080B584B000AF03460A46FB801346BB8008
:10390000BB881B0A9BB2DBB23B73BB88DBB27B7309
:1039100007F10C02F98802238220FFF76FFF00BF36
:103920001037BD4680BD000080B500AFBB4B93F89B
:10393000813019464FF48050FFF7DAFFB74B93F808
:103940008430194641F20100FFF7D2FFB34B93F8E0
:103950007030194641F20200FFF7CAFFAF4B93F8EF
:103960007030194641F20300FFF7C2FFAB4B93F8EA
:103970008330194641F20400FFF7BAFFA74B93F8D2
:103980007830194641F20500FFF7B2FFA34B93F8D8
:103990008230194641F20600FFF7AAFF9F4B93F8C9
:1039A0008430194641F20700FFF7A2FF9B4B93F8C2
:1039B000693019460020FFF79BFF984B5B6E9BB266
:1039C00019460020FFF794FF944B93F85D30194699
:1039D0000020FFF78DFF914B93F85C3019460020D3
:1039E000FFF786FF8D4B1B78194641F21600FFF753
:1039F0007FFF8A4B5B681846FDF7B0FB03469BB21E
:103A000019460020FFF774FF844B9B681846FDF7AA
:103A1000A5FB03469BB219460020FFF769FF7F4BC9
:103A200093F87130194641F20900FFF761FF7B4BB3
:103A300093F87230194641F21000FFF759FF774BA7
:103A400093F87330194641F21100FFF751FF734BA1
:103A500093F87430194641F21200FFF749FF6F4B9B
:103A600093F88A3019460020FFF742FF6B4B93F81A
:103A7000883019460020FFF73BFF684B93F88930E8
:103A800019460020FFF734FF644BDB681846FDF74A
:103A900065FB03469BB219464FF40050FFF728FF21
:103AA0005E4B1B691846FDF759FB03469BB219464E
:103AB0004FF40050FFF71CFF584B5B691846FDF7A9
:103AC0004DFB03469BB219464FF40050FFF710FF21
:103AD000524B9B691846FDF741FB03469BB21946C2
:103AE0004FF40050FFF704FF4C4BDB691846FDF71D
:103AF00035FB03469BB219464FF40050FFF7F8FE22
:103B0000464B1B6A1846FDF729FB03469BB2194634
:103B10004FF40050FFF7ECFE404B5B6A1846FDF790
:103B20001DFB03469BB219464FF40050FFF7E0FE21
:103B30003A4B9B6A1846FDF711FB03469BB21946A8
:103B40004FF40050FFF7D4FE344BDB6A1846FDF704
:103B500005FB03469BB219464FF40050FFF7C8FE21
:103B60002E4B1B6B1846FDF7F9FA03469BB219461C
:103B70004FF40050FFF7BCFE284B5B6B1846FDF777
:103B8000EDFA03469BB219464FF40050FFF7B0FE22
:103B9000224B9B6B1846FDF7E1FA03469BB2194690
:103BA0004FF40050FFF7A4FE1C4BDB6B1846FDF7EB
:103BB000D5FA03469BB219464FF40050FFF798FE22
:103BC000164B1B6C1846FDF7C9FA03469BB2194603
:103BD0004FF40050FFF78CFE104B5B6C1846FDF75E
:103BE000BDFA03469BB219464FF40050FFF780FE22
:103BF0000A4B9B6C1846FDF7B1FA03469BB2194677
:103C00004FF40050FFF774FE044B93F84C30194604
:103C10004FF40050FFF76CFE00BF80BD0C04002085
:103C200080B500AF0648FFF775F80648FFF760FD5E
:103C3000054801F057F80548FDF780FD00BF80BD3D
:103C40000C040020600400208C0400208404002068
:103C500080B500AFFFF7E4FFFFF766FE00BF80BD51
:103C600080B500AF734802F004F9734B93F88130CC
:103C7000002B01D0714B00E0714B1946714802F0E6
:103C8000F8F86D4B93F88430002B01D06B4B00E0BB
:103C90006B4B19466C4802F0ECF8674B93F87030A8
:103CA000002B01D0694B00E0694B1946694802F0CE
:103CB000E0F8614B93F87030002B01D0634B00E0CB
:103CC000634B1946644802F0D4F85B4B93F8833099
:103CD000002B01D0614B00E0614B1946614802F0B6
:103CE000C8F8554B93F87830002B01D05C4B00E0BE
:103CF0005A4B19465C4802F0BCF84F4B93F882309F
:103D0000002B01D0594B00E0594B1946594802F09D
:103D1000B0F8494B93F88430002B01D0474B00E0BA
:103D2000474B1946544802F0A4F8434B93F86930C6
:103D30001946524802F09DF83F4B5B6E19465048B9
:103D400002F097F83C4B93F85D3019464D4802F06D
:103D500090F8394B93F85C3019464B4802F089F8DB
:103D6000354B1B781946494802F083F8324B5B68A3
:103D70001846FCF759FB02460B46454802F079F815
:103D80002D4B9B681846FCF74FFB02460B464148FB
:103D900002F06FF8284B93F87130002B01D0274BBD
:103DA00000E0274B19463C4802F063F8224B93F899
:103DB0007230002B01D0214B00E0214B19463748CF
:103DC00002F057F81C4B93F87330002B01D01B4BBB
:103DD00000E01B4B1946324802F04BF8164B93F8A3
:103DE0007430002B01D0154B00E0154B19462D48BF
:103DF00002F03FF8104B93F88A30002B01D0174B9C
:103E000000E0294B1946294802F033F80A4B93F891
:103E10008830002B01D0114B00E0234B1946244879
:103E200002F027F8044B93F88930002B42D00B4B5B
:103E300041E000BF1CC100080C04002058C100086C
:103E40005CC1000860C1000880C10008A0C1000872
:103E5000A8C10008B4C10008D4C10008F4C100081A
:103E6000F8C10008FCC100081CC200083CC20008E0
:103E700048C2000858C2000878C2000898C200086A
:103E8000B8C20008DCC2000800C3000824C3000850
:103E900048C300086CC3000890C30008B0C3000802
:103EA000D0C30008F0C3000810C4000818C40008FC
:103EB00038C40008584B1946584801F0DAFF584BEF
:103EC000DB681846FCF7B0FA02460B46554801F08D
:103ED000D0FF534B1B691846FCF7A6FA02460B4667
:103EE000514801F0C6FF4E4B5B691846FCF79CFA3F
:103EF00002460B464D4801F0BCFF494B9B691846F2
:103F0000FCF792FA02460B46494801F0B2FF444BD7
:103F1000DB691846FCF788FA02460B46454801F073
:103F2000A8FF3F4B1B6A1846FCF77EFA02460B4679
:103F3000414801F09EFF3A4B5B6A1846FCF774FA61
:103F400002460B463D4801F094FF354B9B6A1846EC
:103F5000FCF76AFA02460B46394801F08AFF304BFB
:103F6000DB6A1846FCF760FA02460B46354801F05A
:103F700080FF2B4B1B6B1846FCF756FA02460B468C
:103F8000314801F076FF264B5B6B1846FCF74CFA84
:103F900002460B462D4801F06CFF214B9B6B1846E7
:103FA000FCF742FA02460B46294801F062FF1C4B1F
:103FB000DB6B1846FCF738FA02460B46254801F041
:103FC00058FF174B1B6C1846FCF72EFA02460B469F
:103FD000214801F04EFF124B5B6C1846FCF724FAA7
:103FE00002460B461D4801F044FF0D4B9B6C1846E2
:103FF000FCF71AFA02460B46194801F03AFF084B43
:1040000093F84C301946174801F033FF164801F079
:1040100030FF00BF80BD00BF10C4000858C40008B6
:104020000C04002078C400089CC40008C0C4000828
:10403000E4C4000808C500082CC5000850C50008E5
:1040400074C5000898C50008BCC50008E0C5000894
:1040500004C6000828C600084CC6000870C6000840
:1040600094C60008B8C60008DCC6000880B500AFDA
:104070000A4B1B68002B0DDA094940F6B83001F0F5
:10408000F5FC0346054A1360044B1B68002B01DA5C
:10409000002300E00123184680BD00BF0C00002073
:1040A000613C000880B500AFFFF7E0FF034618460B
:1040B00080BD000080B485B000AF78600B467B8087
:1040C00013467B707B68002B02D07B880F2B01D9B5
:1040D000002378E07B683E4A934206D13D4B9B69C2
:1040E0003C4A43F0040393611FE07B683A4A9342E1
:1040F00006D1384B9B69374A43F00803936114E0BB
:104100007B68364A934206D1324B9B69314A43F071
:104110001003936109E07B68314A934205D12D4B2E
:104120009B692C4A43F0200393617B88072B01D8BD
:104130007B6801E07B680433FB607B88072B04D835
:104140007B88DBB29B00DBB204E07B88083BDBB200
:104150009B00DBB2FB72FB681A68FB7A0F2101FA45
:1041600003F3DB431A40FB681A607B78002B09D10C
:10417000FB681A68FB7A042101FA03F31A43FB680F
:104180001A601FE0FB681A68FB7A082101FA03F342
:104190001A43FB681A607B78012B09D17B68DA68C7
:1041A0007B88012101FA03F31A437B68DA6009E096
:1041B0007B68DA687B88012101FA03F3DB431A404C
:1041C0007B68DA60012318461437BD4680BC70470F
:1041D0000008014000100240000C014000100140A6
:1041E0000014014080B485B000AF786008461146E5
:1041F0001A460346FB700B46BB7013467B707B6808
:10420000002B02D0FB780F2B01D900236EE07B68D6
:10421000394A934206D1394B9B69384A43F004032B
:1042200093611FE07B68364A934206D1334B9B690A
:10423000324A43F00803936114E07B68314A9342A9
:1042400006D12E4B9B692D4A43F01003936109E080
:104250007B682D4A934205D1284B9B69274A43F03E
:10426000200393613B7E012B05D1FB7801229A400C
:104270007B681A6105E0FB78103301229A407B6865
:104280001A61FB78072B01D87B6801E07B68043357
:10429000FB60FB78072B03D8FB789B00DBB204E0C4
:1042A000FB78083BDBB29B00DBB2FB72BB789B0068
:1042B000DBB203F00C03DAB27B7803F00303DBB26A
:1042C0001343BB72FB681A68FB7A0F2101FA03F3F0
:1042D000DB431A40FB681A60FB681A68B97AFB7AFC
:1042E00001FA03F31A43FB681A60012318461437D6
:1042F000BD4680BC704700BF00080140001002406E
:10430000000C0140001001400014014080B483B053
:1043100000AF78607B68002B13DB124B1B781A46CA
:104320007B6893420DDA10497A681346DB009B1ACA
:104330009B000B4418331B7883F00103DBB2002B86
:1043400001D0002308E008497A681346DB009B1A75
:104350009B000B4413331B7818460C37BD4680BCBA
:10436000704700BF84050020A404002080B500AF82
:104370003E4B1B681846FFF7C9FF03461A463C4BE5
:104380001A703C4B1B681846FFF7C0FF0346002B12
:1043900014BF01230023DBB283F00103DBB203F07F
:1043A0000103DAB2324B9A70334B1B681846FFF7A1
:1043B000ADFF0346002B14BF01230023DBB283F0C3
:1043C0000103DBB203F00103DAB2294B5A712B4B24
:1043D0001B681846FFF79AFF0346002B14BF012302
:1043E0000023DBB283F00103DBB203F00103DAB296
:1043F0001F4B1A71224B1B681846FFF787FF0346B5
:10440000002B14BF01230023DBB283F00103DBB2D6
:1044100003F00103DAB2164B9A711A4B1B68184667
:10442000FFF774FF0346002B14BF01230023DBB208
:1044300083F00103DBB203F00103DAB20C4BDA7153
:10444000114B1B681846FFF761FF0346002B14BF92
:1044500001230023DBB283F00103DBB203F001038D
:10446000DAB2034B1A7200BF80BD00BF10000020FB
:1044700098040020140000201C00002018000020D8
:1044800020000020240000202800002080B485B0F7
:1044900000AF78600B467B8013467B707B880122DF
:1044A00002FA03F3FB817B689A68FB891340002BB7
:1044B00001D0012300E000237B737A7B7B789A4252
:1044C0000AD07B78012B03D1FA897B681A6103E05B
:1044D000FB891A047B681A617B689A68FB89134020
:1044E000002B01D0012300E000233B733A7B7B7853
:1044F0009A420CBF01230023DBB218461437BD4695
:1045000080BC704780B500AF104BDB78012B0BD01F
:10451000002206210E48FFF7B9FF0346002B0FD0FB
:104520000A4B00225A700BE0012206210848FFF7CF
:10453000ADFF0346002B05D0044B01225A7001E069
:1045400000BF00E000BF00BF80BD00BF9804002096
:104550000008014080B582B000AF00237B601BE003
:10456000114A7B6852F833000F4A7B68DB00134422
:1045700099880D4A7B68DB0013449B791A46FFF744
:1045800099FD034683F00103DBB2002B01D0002329
:1045900006E07B6801337B607B68062BE0D9012352
:1045A00018460837BD4680BDCCD3000890B585B00D
:1045B00002AF00237B6021E0144A7B6852F833008D
:1045C000124A7B68DB0013441979104A7B68DB00D0
:1045D00013445A790D4C7B68DB0023449B790124FA
:1045E0000094FFF7FFFD034683F00103DBB2002BCD
:1045F00001D0002306E07B6801337B607B68002BE1
:10460000DAD0012318460C37BD4690BD04D400080B
:1046100080B582B000AF78607B681A687B689B8841
:104620001946104602F0ABF80346012B0CBF0123DC
:104630000023DBB218460837BD4680BD80B586B082
:1046400000AF78607868FFF7E3FF0346FB7501F081
:10465000C5F938617B68DA7C7B685A757B681B7D9D
:10466000FA7D9A420BD07B683A699A607B68FA7D42
:104670001A757B6800229A757B680122DA757B685F
:10468000DB7D002B30D07B681B7DFA7D9A4206D102
:104690007B689B7D0133DAB27B689A7508E07B68A2
:1046A000FA7D1A757B6801229A757B683A699A606F
:1046B0007B681B8A1A467B689B7C02FB03F3FB60CA
:1046C0007B689B683A69D31AFA689A420CD87B686F
:1046D0009A7D7B689B7C9A4206D37B681A7D7B68B7
:1046E000DA747B680022DA7500BF1837BD4680BDDA
:1046F00080B500AF094B1B78002B01D001230BE0E4
:10470000E0220021064803F0F7FB064B00221A7056
:10471000024B01221A700123184680BD8505002036
:10472000A40400208405002090B587B000AFF86095
:10473000084611461A4603467B810B467B72134698
:10474000FB804D4B1B7883F00103DBB2002B06D1BD
:10475000FB68002B03D0494B1B78072B01D9FF23A3
:1047600086E0464B1B78FB75FA7D45491346DB0016
:104770009B1A9B000B44FA681A60FA7D4049134665
:10478000DB009B1A9B000B4404337A891A80FC7D62
:1047900001F024F902463A492346DB001B1B9B002B
:1047A0000B4408331A60FC7D01F018F902463449C5
:1047B0002346DB001B1B9B000B440C331A60FA7D65
:1047C0002F491346DB009B1A9B000B441033FA88D9
:1047D0001A80FA7D2A491346DB009B1A9B000B4482
:1047E000123397F828201A70FA7D25491346DB000A
:1047F0009B1A9B000B4413337A7A1A70FA7D204976
:104800001346DB009B1A9B000B4414337A7A1A7010
:10481000FA7D1B491346DB009B1A9B000B441533A2
:104820007A7A1A70FA7D16491346DB009B1A9B00B0
:104830000B44163397F828201A70FA7D1049134656
:10484000DB009B1A9B000B44173300221A70FA7D81
:104850000B491346DB009B1A9B000B4418330122C3
:104860001A70064B1B780133DAB2044B1A70FB7DC9
:1048700018461C37BD4690BD8505002084050020E4
:10488000A404002080B582B000AF274B1B7883F0D2
:104890000103DBB2002B43D101F0A0F83860002304
:1048A000FB7137E0FA7921491346DB009B1A9B0024
:1048B0000B4418331B78002B29D0FA791B49134677
:1048C000DB009B1A9B000B440C331B683A68D11A1F
:1048D000FA7916481346DB009B1A9B0003441033F9
:1048E0001B88994213D3FA7910491346DB009B1AAF
:1048F0009B000B440C333A681A60FA791346DB00CC
:104900009B1A9B00094A13441846FFF797FEFB7950
:104910000133FB71064B1B78FA799A42C2D300E04F
:1049200000BF0837BD4680BD85050020A4040020D7
:104930008405002080B582B000AF78607B68002BD2
:1049400013DB124B1B781A467B6893420DDA104931
:104950007A681346DB009B1A9B000B4418331B78C4
:1049600083F00103DBB2002B01D000230AE07A6858
:104970001346DB009B1A9B00054A13441846FFF7B9
:1049800047FE034618460837BD4680BD8405002013
:10499000A404002080B582B002AFFFF7A9FE034651
:1049A00083F00103DBB2002B01D0002372E005236A
:1049B00000931E23012204213848FFF7B5FE034669
:1049C0001A46374B1A60052300931E230122072144
:1049D0003448FFF7A9FE03461A46334B1A600523F5
:1049E00000931E23002200212E48FFF79DFE034660
:1049F0001A462E4B1A60052300931E2300220D2118
:104A00002848FFF791FE03461A46294B1A600323F4
:104A100000930323002201212248FFF785FE03466D
:104A20001A46244B1A600323009303230022022119
:104A30001C48FFF779FE03461A461F4B1A600523F0
:104A400000931E23002203211648FFF76DFE034644
:104A50001A461A4B1A60124B1B68002B17DB124BBD
:104A60001B68002B13DB154B1B68002B0FDB0F4B58
:104A70001B68002B0BDB0E4B1B68002B07DB0D4B61
:104A80001B68002B03DB0B4B1B68002B01DA002398
:104A900000E001231846BD4680BD00BF000C014068
:104AA0001000002000080140140000201800002021
:104AB0001C000020200000202400002028000020EE
:104AC00080B500AFFFF7DEFEFFF750FCFFF71AFDE1
:104AD00000BF80BDF0B589B004AF234801F0C9F92B
:104AE000224B1B7808221946214801F0C2F9002305
:104AF000FB732DE0FA7B1346DB009B1A9B001D4ADB
:104B00001344BB60BB681B7E002B1ED0FB7B18468A
:104B1000FFF710FF0346FB71F97BBB681B681D465E
:104B2000BB689B881E46FB79BA68D27C1046BA687F
:104B3000D27D1446BA68927D03920294019000934C
:104B400033462A460C4801F094F9FB7B0133FB7392
:104B5000064B1B78FA7B9A42CCD3084801F089F9BE
:104B600000BF1437BD46F0BD14C7000884050020FF
:104B700038C70008A404002054C70008A8C70008CC
:104B800080B500AFFFF7A6FF324801F072F9324B53
:104B90001B7883F00103DBB2002B01D02F4B00E028
:104BA0002F4B19462F4801F064F92B4B5B78002BF3
:104BB00001D02D4B00E02D4B19462D4801F059F93D
:104BC000254B9B7883F00103DBB2002B01D0294BEE
:104BD00000E0294B1946294801F04BF91E4BDB78C0
:104BE000002B01D0204B00E0204B1946244801F057
:104BF00040F9194B1B79002B01D01B4B00E01B4BDC
:104C00001946204801F035F9134B5B79002B01D090
:104C10001D4B00E01D4B19461D4801F02AF90E4BB3
:104C20009B79002B01D0104B00E0104B194619481E
:104C300001F01FF9084BDB79002B01D00A4B00E093
:104C40000A4B1946144801F014F9144801F011F9FF
:104C500000BF80BDCCC700089804002004C800082D
:104C60000CC8000818C8000830C8000834C800087C
:104C700038C8000850C8000854C800085CC80008BC
:104C800074C800088CC80008A4C80008ACC8000894
:104C9000B8C80008D0C80008E8C8000800C9000863
:104CA00080B500AF0A4B1B68002B0DDA094940F6AE
:104CB000B83000F0DBFE0346054A1360044B1B6866
:104CC000002B01DA002300E00123184680BD00BF5D
:104CD0002C000020814B000880B500AFFFF7F0FEEC
:104CE00000BF80BD80B483B000AF78600E4B9A786F
:104CF0007B68DA700C4B5A797B689A700A4B1A7889
:104D00007B681A70084B1A797B685A70064B9A793F
:104D10007B685A71044BDA797B681A7100BF0C37D3
:104D2000BD4680BC704700BF9804002080B500AF2E
:104D3000FFF7B6FF0346184680BD80B500AFFFF70A
:104D400009FC034683F00103DBB2002B01D00023F2
:104D500014E0FFF72BFC034683F00103DBB2002BCA
:104D600001D000230AE0FFF715FE034683F001039C
:104D7000DBB2002B01D0002300E00123184680BDE8
:104D800080B584B000AF0346FB71012000F0A6FDA2
:104D9000032000F0BBFDFB79184600F0B7FDFF20B3
:104DA00000F0B4FD0346FB73002000F097FDFB7B91
:104DB00018461037BD4680BD80B500AF0E20FFF706
:104DC000DFFF034623F01F03DBB2184680BD80B52A
:104DD00082B000AF0346FB710B46BB7113467B717B
:104DE000012000F07BFD052000F090FDFB791846C6
:104DF00000F08CFDBB79184600F088FD7B791846E1
:104E000000F084FD002000F069FD00BF0837BD46BA
:104E100080BD80B582B000AF0346FB71FB79002BEB
:104E200005D1002201212C20FFF7D1FF07E0FB79FB
:104E3000012B04D1002202212C20FFF7C8FF00BF64
:104E40000837BD4680BD80B582B000AF03460A4634
:104E5000FB711346BB71012000F040FD022000F001
:104E600055FDFB79184600F051FDBB79184600F05E
:104E70004DFD002000F032FD00BF0837BD4680BD6B
:104E800080B584B000AF0346FB71FB791A46E02180
:104E90000F20FFF79CFF0023FB600BE0FFF78CFF68
:104EA00003461A46FB79934201D1012308E0FB68CF
:104EB0000133FB60FB6842F20F729342EED900238C
:104EC00018461037BD4680BD90B585B000AF03468B
:104ED0003960FB71012000F001FDFB79184600F0FC
:104EE00015FDFF2000F012FD0346BB73FF2000F00C
:104EF0000DFD03467B73FF2000F008FD03463B7366
:104F0000FF2000F003FD0346FB72FF2000F0FEFCD3
:104F10000346BB727B7B03F00803002B14BF012305
:104F20000023DAB23B685A733B685B7B002B13D0DB
:104F3000BB7B5A057B7B5B0303F4E0131A437B7B4B
:104F40001B0403F440331A433B7B1B021A43FB7AD6
:104F50001A433B681A6007E0BB7BDB007A7B52098F
:104F6000D2B21A433B681A60BB7A03F00F03DAB27D
:104F70003B681A71BB7A03F04003002B14BF012376
:104F80000023DAB23B689A730023FB730BE0FC7BCF
:104F9000FF2000F0BBFC03461A463B6823445A71CD
:104FA000FB7B0133FB733B681B79FA7B9A42EED3A0
:104FB000002000F093FC012318461437BD4690BD35
:104FC00080B584B000AF78602C20FFF7D9FE03468F
:104FD000FB73FB7B03F00103002B08D07968902062
:104FE000FFF772FF0020FFF714FF01230EE0FB7BA9
:104FF00003F00203002B08D079689420FFF764FFC8
:105000000120FFF706FF012300E0002318461037B8
:10501000BD4680BD80B582B000AF03460A46FB7135
:105020001346BB71BB79002B35D1FB79022B22D003
:10503000022B2EDC002B02D0012B0ED029E0012107
:105040002A20FFF700FFB1212920FFF7FCFE852170
:105050002820FFF7F8FE01231EE000212A20FFF799
:10506000F2FEB1212920FFF7EEFE85212820FFF76F
:10507000EAFE012310E000212A20FFF7E4FE902140
:105080002920FFF7E0FE82212820FFF7DCFE012324
:1050900002E0002300E0002318460837BD4680BD2B
:1050A00080B584B000AF03463A60FB710B46BB711C
:1050B000FFF782FE0346BB738020FFF7E1FEFB791A
:1050C000052B21D801A252F823F000BFE5500008BB
:1050D000EB500008F1500008F7500008FD500008A0
:1050E000035100080023FB7310E00423FB730DE061
:1050F0000823FB730AE01023FB7307E01423FB7300
:1051000004E01823FB7301E000235BE0BB79002B74
:1051100032D03B685B0DDAB2FB7B11461846FFF7D5
:1051200092FEFB7B0133D8B23B685B0BDBB223F012
:105130001F03DAB23B681B0CDBB203F00303DBB2E4
:105140001343DBB243F00803DBB21946FFF77BFEE3
:10515000FB7B0233DAB23B681B0ADBB2194610460E
:10516000FFF771FEFB7B0333DBB23A68D2B2114624
:105170001846FFF768FE20E03B68DB08DAB2FB7BED
:1051800011461846FFF75FFEFB7B0133DAB23B683E
:10519000DBB25B01DBB219461046FFF754FEFB7B26
:1051A0000233DBB200211846FFF74DFEFB7B0333D1
:1051B000DBB200211846FFF746FEBB7B1846FFF71F
:1051C0005FFE012318461037BD4680BD80B584B010
:1051D00000AF03463A60FB710B46BB71FFF7ECFD75
:1051E0000346FB738020FFF74BFEFB79002B01D1B8
:1051F000202300E02423BB73BB79002B32D03B6813
:105200005B0DDAB2BB7B11461846FFF71CFEBB7B79
:105210000133D8B23B685B0BDBB223F01F03DAB279
:105220003B681B0CDBB203F00303DBB21343DBB2BE
:1052300043F00803DBB21946FFF705FEBB7B0233E0
:10524000DAB23B681B0ADBB219461046FFF7FBFDDA
:10525000BB7B0333DBB23A68D2B211461846FFF784
:10526000F2FD20E03B68DB08DAB2BB7B1146184652
:10527000FFF7E9FDBB7B0133DAB23B68DBB25B01D0
:10528000DBB219461046FFF7DEFDBB7B0233DBB213
:1052900000211846FFF7D7FDBB7B0333DBB20021AB
:1052A0001846FFF7D0FDFB7B1846FFF7E9FD012309
:1052B00018461037BD4680BD80B582B000AF0120D2
:1052C00000F00CFBC02000F021FB002000F006FBEA
:1052D00000237B6002E07B6801337B607B6841F2E6
:1052E00087329342F7DD00BF00BF0837BD4680BD5F
:1052F00080B586B000AFF8607A601A460B46FB7244
:105300001346BB72FA7ABB7A1344062B01DD0023E5
:105310005AE0FFF751FD03463B758020FFF7B0FDD3
:1053200040F2FF7200210020FFF750FF40F2FF72B1
:1053300000210120FFF74AFF0023FB750023BB7506
:105340000EE0FB7D5A1CFA75BA7D5200F9680A44DA
:10535000128800211846FFF7A3FEBB7D0133BB7501
:10536000BA7DFB7A9A42ECD300237B750EE0FB7D7D
:105370005A1CFA757A7D920079680A4412680121F4
:105380001846FFF78DFE7B7D01337B757A7DBB7AF6
:105390009A42ECD3FB7A002B02D0FB681B8800E01A
:1053A00000237B8208E07A8AFB7D00211846FFF704
:1053B00077FEFB7D0133FB75FB7D052BF3D93B7D30
:1053C0001846FFF75DFD012318461837BD4680BD1E
:1053D00080B582B000AF2C20FFF7D2FC0346FB71F2
:1053E000FB7903F00303002B14BF01230023DBB27E
:1053F00018460837BD4680BD80B582B000AF034671
:105400000A46FB711346BB71FFF756FFFFF7D4FC4A
:105410000346802B01D0002319E0BA79FB791146AD
:105420001846FFF7F7FD034683F00103DBB2002BBC
:1054300001D000230BE064216020FFF704FD602110
:105440007020FFF700FD0020FFF71AFD0346184605
:105450000837BD4680BD80B500AF00210120FFF7B1
:10546000CBFF0346184680BD80B582B000AF7860A0
:10547000FFF7AEFF0346002B04D07868FFF7A0FDCE
:10548000034600E0002318460837BD4680BD0000F3
:1054900080B582B000AF084A3B4692E8030083E83B
:1054A00003003846002300220421FFF721FF0346B2
:1054B00018460837BD4680BD38C9000880B584B09D
:1054C00000AF03E03B461846FDF720FB3B4618467D
:1054D000FCF74FFD0346002BF4D103E03B46184692
:1054E000FEF796F83B461846FFF7BEFF0346002B33
:1054F000F4D100BF00BF1037BD4680BD80B584B079
:1055000000AF134B1B781A46124B33F812303B6036
:1055100000237B7308233B710123BB733B46184672
:10552000FCF710FD0A4B1B780133DAB2084B1A70F6
:10553000074B1A78084B1B789A4202D3044B00227F
:105540001A70642001F014F800BF1037BD4680BD0A
:1055500086050020300000204A00002080B400AF03
:10556000274B1B68264A43F48033136000BF244B4B
:105570001B6803F40033002BF9D0224B1B68214A2F
:1055800043F0040313601F4B1B681E4A43F01003D3
:1055900013601B4B5B681A4A43F4E0135360184BCB
:1055A0005B68174A43F480335360154B5B68144AB9
:1055B00043F480635360124B5B68114A23F46053D9
:1055C00053600F4B1B680E4A43F08073136000BF9B
:1055D0000B4B1B6803F00073002BF9D0084B5B6882
:1055E000074A43F00203536000BF054B5B6803F0BA
:1055F0000C03082BF9D100BF00BFBD4680BC70472B
:10560000001002400020024080B487B000AF264B5B
:10561000BB60254B7B60254B5B689B0803F0030355
:105620003B603B68022B0DD03B68022B35D83B68B2
:10563000002B03D03B68012B02D02EE07B682DE0CD
:10564000BB682BE0194B5B6803F48033002B10D050
:10565000164B5B6803F40033002B02D002233B613E
:1056600001E001233B61BA683B69B2FBF3F3FB60E5
:1056700002E07B685B08FB600C4B5B689B0C03F0F3
:105680000F0302337B617B690F2B01D110237B61F8
:10569000FB687A6902FB03F300E07B6818461C375D
:1056A000BD4680BC704700BF00127A000010024067
:1056B000B0B592B000AF114B3C1D1D460FCD0FC4CD
:1056C0000FCD0FC40FCD0FC495E80F0084E80F0075
:1056D0000B4B5B681B0903F00F037B64FFF794FF20
:1056E00002467B6C9B0048333B4453F8443CB2FB7E
:1056F000F3F318464837BD46B0BD00BF40C90008A7
:1057000000100240B0B58AB000AF0F4B3C1D1D46E3
:105710000FCD0FC495E80F0084E80F000B4B5B68BA
:105720001B0A03F007037B62FFF7C2FF02467B6A96
:105730009B0028333B4453F8243CB2FBF3F3184658
:105740002837BD46B0BD00BF80C900080010024028
:10575000B0B58AB000AF0F4B3C1D1D460FCD0FC436
:1057600095E80F0084E80F000B4B5B68DB0A03F041
:1057700007037B62FFF79CFF02467B6A9B0028338E
:105780003B4453F8243CB2FBF3F318462837BD469C
:10579000B0BD00BF80C900080010024080B500AF56
:1057A000FFF7DCFE00BF80BD80B400AF484B9B69B3
:1057B000474A43F008039361454BDB69444A43F48D
:1057C0008043D361434B5B68424A23F440335360C8
:1057D000404B5B683F4A23F4402353603D4B5B687A
:1057E0003C4A43F4403353603A4B5B68394A23F4F4
:1057F00040135360374B5B68364A23F440035360D1
:10580000344B5B68334A43F440135360314B5B685D
:10581000304A43F4000353602E4B5B682D4A23F05B
:10582000407353602B4B5B682A4A23F040635360FC
:10583000284B5B68274A43F080635360254B5B68C5
:10584000244A23F040535360224B5B68214A23F0E3
:10585000404353601F4B5B681E4A43F04053536004
:105860001C4B5B681B4A43F000435360194B4FF4D9
:1058700080521A61184B00221A60174B1B68164A97
:1058800043F004031360144B1B68134A43F01003E6
:105890001360114B1B68104A43F4007313600E4BE6
:1058A0001B680D4A43F4807313600B4B1B680A4A54
:1058B00043F040031360084B1B6803F04003402B88
:1058C00001D0002300E001231846BD4680BC70478C
:1058D00000100240000C01400038004080B483B04A
:1058E00000AF0346FB71FB79002B04D0064B4FF44D
:1058F00080525A6103E0044B4FF480521A6100BF9A
:105900000C37BD4680BC7047000C014080B485B0A8
:1059100000AF0346FB71174B1B68FB6007E0154B9C
:105920001A68FB68D31A092B01D9FF231DE0124B1B
:105930009B6803F00203002BF1D00F4AFB79D36080
:105940000C4B1B68FB6007E00A4B1A68FB68D31A14
:10595000092B01D9FF2308E0074B9B6803F00103E3
:10596000002BF1D0044BDB68DBB218461437BD4680
:1059700080BC7047C80600200038004080B500AFEA
:10598000FFF712FF0346184680BD000080B582B0C5
:1059900000AFFFF78DFE03460E4AA2FB03239B09CF
:1059A000013B7B607B68B3F1807F01D300230CE077
:1059B000094B00221A60084A7B685360064B00229C
:1059C0009A60054B07221A60012318460837BD4626
:1059D00080BD00BFD34D621010E000E080B400AF86
:1059E000024B1B681846BD4680BC7047C8060020A5
:1059F00080B500AFFFF7CAFF0346184680BD000020
:105A000080B483B000AF00237B6024E0164A7B683B
:105A10001B0113440C3300221A70134A7B681B01CC
:105A20001344083300221A600F4A7B681B01134499
:105A300000221A600C4A7B681B01134404330022C5
:105A40001A60094A7B681B0113440D3300221A7047
:105A50007B6801337B607B68132BD7DD00BF00BF01
:105A60000C37BD4680BC70478805002080B584B0E7
:105A700000AF786039600023FB6038E0204AFB68A3
:105A80001B0113440C331B78002B2DD11C4AFB68DF
:105A90001B01134408331B68002B25D1184AFB68EF
:105AA0001B0113447A681A60FFF798FF02461449F5
:105AB000FB681B010B4404331A60114AFB681B018D
:105AC000134408333A681A600D4AFB681B011344FB
:105AD0000C3301221A700A4AFB681B0113440D3370
