:020000040800F2
:1000000000500020915B0008995A00089D5A000892
:10001000A15A0008A55A0008A95A000800000000CB
:10002000000000000000000000000000AD5A0008C1
:10003000B15A000800000000B55A0008B95A00087B
:10004000D95B0008D95B0008D95B0008D95B0008C0
:10005000D95B0008D95B0008D95B0008D95B0008B0
:10006000D95B0008D95B0008D95B0008D95B0008A0
:10007000D95B0008D95B0008D95B0008D95B000890
:10008000D95B0008D95B0008D95B0008D95B000880
:10009000D95B0008D95B0008D95B0008D95B000870
:1000A000D95B0008D95B0008D95B0008D95B000860
:1000B000D95B0008D95B0008D95B0008D95B000850
:1000C000D95B0008D95B0008D95B0008D95B000840
:1000D000D95B0008D95B0008D95B0008D95B000830
:1000E000D95B0008D95B0008D95B0008000000005C
:1000F0000000000000000000000000000000000000
:0C01000000000000000000005FF808F1A3
:1001100010B5054C237833B9044B13B10448AFF341
:1001200000800123237010BD280200200000000081
:100130008C8F000808B5034B1BB103490348AFF38C
:10014000008008BD000000002C0200208C8F0008F9
:10015000034613F8012B002AFBD1181A0138704707
:100160004FF0FF0C1CEAD0521EBF1CEAD15392EA9A
:100170000C0F93EA0C0F6FD01A4480EA010C400276
:1001800018BF5FEA41211ED04FF0006343EA5010D0
:1001900043EA5111A0FB01310CF00040B1F5000F12
:1001A0003EBF490041EAD3715B0040EA010062F1C1
:1001B0007F02FD2A1DD8B3F1004F40EBC25008BFAB
:1001C00020F00100704790F0000F0CF0004C08BFC9
:1001D00049024CEA502040EA51207F3AC2BFD2F196
:1001E000FF0340EAC250704740F400004FF00003A4
:1001F000013A5DDC12F1190FDCBF00F000407047DE
:10020000C2F10002410021FA02F1C2F1200200FA1B
:1002100002FC5FEA310040F1000053EA4C0308BFE2
:1002200020EADC70704792F0000F00F0004C02BF33
:10023000400010F4000F013AF9D040EA0C0093F0AE
:10024000000F01F0004C02BF490011F4000F013B08
:10025000F9D041EA0C018FE70CEAD15392EA0C0F76
:1002600018BF93EA0C0F0AD030F0004C18BF31F0E1
:10027000004CD8D180EA010000F00040704790F0B7
:10028000000F17BF90F0004F084691F0000F91F05B
:10029000004F14D092EA0C0F01D142020FD193EA21
:1002A0000C0F03D14B0218BF084608D180EA0100A9
:1002B00000F0004040F0FE4040F40000704740F085
:1002C000FE4040F44000704781F0004102E000BF72
:1002D00083F0004330B54FEA41044FEA430594EA06
:1002E000050F08BF90EA020F1FBF54EA000C55EA41
:1002F000020C7FEA645C7FEA655C00F0E2804FEA12
:100300005454D4EB5555B8BF6D420CDD2C4480EAF3
:10031000020281EA030382EA000083EA010180EA23
:10032000020281EA0303362D88BF30BD11F0004F71
:100330004FEA01314FF4801C4CEA113102D04042A7
:1003400061EB410113F0004F4FEA03334CEA1333E2
:1003500002D0524263EB430394EA050F00F0A780FA
:10036000A4F10104D5F1200E0DDB02FA0EFC22FAF5
:1003700005F2801841F1000103FA0EF2801843FAE9
:1003800005F359410EE0A5F120050EF1200E012ADA
:1003900003FA0EFC28BF4CF0020C43FA05F3C01818
:1003A00051EBE37101F0004507D54FF0000EDCF191
:1003B000000C7EEB00006EEB0101B1F5801F1BD33A
:1003C000B1F5001F0CD349085FEA30004FEA3C0C3E
:1003D00004F101044FEA445212F5800F80F09A8034
:1003E000BCF1004F08BF5FEA500C50F1000041EB38
:1003F000045141EA050130BD5FEA4C0C404141EB3C
:100400000101013C28BFB1F5801FE9D291F0000F36
:1004100004BF01460020B1FA81F308BF2033A3F1E5
:100420000B03B3F120020CDA0C3208DD02F1140CDC
:10043000C2F10C0201FA0CF021FA02F10CE002F117
:100440001402D8BFC2F1200C01FA02F120FA0CFC10
:10045000DCBF41EA0C019040E41AA2BF01EB045159
:10046000294330BD6FEA04041F3C1CDA0C340EDC57
:1004700004F11404C4F1200220FA04F001FA02F39A
:1004800040EA030021FA04F345EA030130BDC4F158
:100490000C04C4F1200220FA02F001FA04F340EA4D
:1004A0000300294630BD21FA04F0294630BD94F0FE
:1004B000000F83F4801306BF81F480110134013DE5
:1004C0004EE77FEA645C18BF7FEA655C29D094EA56
:1004D000050F08BF90EA020F05D054EA000C04BFD4
:1004E0001946104630BD91EA030F1EBF00210020BF
:1004F00030BD5FEA545C05D14000494128BF41F05E
:10050000004130BD14F580043CBF01F5801130BDC1
:1005100001F0004545F0FE4141F470014FF000004C
:1005200030BD7FEA645C1ABF194610467FEA655CFD
:100530001CBF0B46024650EA013406BF52EA03359F
:1005400091EA030F41F4002130BD00BF90F0000F8D
:1005500004BF0021704730B54FF4806404F13204C9
:100560004FF000054FF0000150E700BF90F0000F82
:1005700004BF0021704730B54FF4806404F13204A9
:1005800010F0004548BF40424FF000013EE700BF79
:1005900042004FEAE2014FEA31014FEA02701FBF09
:1005A00012F07F4393F07F4F81F06051704732F03B
:1005B0007F4208BF704793F07F4F04BF41F4002192
:1005C000704730B54FF4607401F0004521F00041F0
:1005D0001CE700BF50EA010208BF704730B54FF07A
:1005E00000050AE050EA010208BF704730B511F07B
:1005F000004502D5404261EB41014FF4806404F1B3
:1006000032045FEA915C3FF4D8AE4FF003025FEA38
:10061000DC0C18BF03325FEADC0C18BF033202EBBC
:10062000DC02C2F1200300FA03FC20FA02F001FA16
:1006300003FE40EA0E0021FA02F11444BDE600BFB9
:1006400070B54FF0FF0C4CF4E06C1CEA11541DBF68
:100650001CEA135594EA0C0F95EA0C0F00F0DEF833
:100660002C4481EA030621EA4C5123EA4C5350EA18
:10067000013518BF52EA033541F4801143F4801369
:1006800038D0A0FB02CE4FF00005E1FB02E506F0FA
:100690000042E0FB03E54FF00006E1FB03569CF04F
:1006A000000F18BF4EF0010EA4F1FF04B6F5007F55
:1006B00064F5407404D25FEA4E0E6D4146EB0606C7
:1006C00042EAC62141EA55514FEAC52040EA5E5050
:1006D0004FEACE2EB4F1FD0C88BFBCF5E06F1ED8FA
:1006E000BEF1004F08BF5FEA500E50F1000041EB31
:1006F000045170BD06F0004646EA010140EA0200DE
:1007000081EA0301B4EB5C04C2BFD4EB0C0541EAFF
:10071000045170BD41F480114FF0000E013C00F314
:10072000AB8014F1360FDEBF002001F0004170BD38
:10073000C4F10004203C35DA0C341BDC04F1140451
:10074000C4F1200500FA05F320FA04F001FA05F2DD
:1007500040EA020001F0004221F0004110EBD370AA
:1007600021FA04F642EB06015EEA430E08BF20EAD6
:10077000D37070BDC4F10C04C4F1200500FA04F379
:1007800020FA05F001FA04F240EA020001F000410B
:1007900010EBD37041F100015EEA430E08BF20EA7E
:1007A000D37070BDC4F1200500FA05F24EEA020EC6
:1007B00020FA04F301FA05F243EA020321FA04F0F5
:1007C00001F0004121FA04F220EA020000EBD370AC
:1007D0005EEA430E08BF20EAD37070BD94F0000FAC
:1007E0000FD101F00046400041EB010111F4801FE0
:1007F00008BF013CF7D041EA060195F0000F18BF91
:10080000704703F00046520043EB030313F4801FCC
:1008100008BF013DF7D043EA0603704794EA0C0F86
:100820000CEA135518BF95EA0C0F0CD050EA41069C
:1008300018BF52EA4306D1D181EA030101F0004119
:100840004FF0000070BD50EA410606BF1046194641
:1008500052EA430619D094EA0C0F02D150EA01364D
:1008600013D195EA0C0F05D152EA03361CBF10468E
:1008700019460AD181EA030101F0004141F0FE412D
:1008800041F470014FF0000070BD41F0FE4141F4B1
:10089000780170BD70B54FF0FF0C4CF4E06C1CEAB1
:1008A00011541DBF1CEA135594EA0C0F95EA0C0F66
:1008B00000F0A7F8A4EB050481EA030E52EA033521
:1008C0004FEA013100F088804FEA03334FF0805542
:1008D00045EA131343EA12634FEA022245EA11156F
:1008E00045EA10654FEA00260EF000419D4208BF20
:1008F000964244F1FD0404F5407402D25B084FEACD
:100900003202B61A65EB03055B084FEA32024FF478
:1009100080104FF4002CB6EB020E75EB030E22BFD5
:10092000B61A754640EA0C005B084FEA3202B6EB95
:10093000020E75EB030E22BFB61A754640EA5C0044
:100940005B084FEA3202B6EB020E75EB030E22BFD4
:10095000B61A754640EA9C005B084FEA3202B6EBD5
:10096000020E75EB030E22BFB61A754640EADC0094
:1009700055EA060E18D04FEA051545EA16754FEAF6
:1009800006164FEAC30343EA52734FEAC2025FEA14
:100990001C1CC0D111F4801F0BD141EA00014FF0A3
:1009A00000004FF0004CB6E711F4801F04BF014374
:1009B0000020B4F1FD0C88BFBCF5E06F3FF6AFAE90
:1009C000B5EB030C04BFB6EB020C5FEA500C50F120
:1009D000000041EB045170BD0EF0004E4EEA1131A3
:1009E00014EB5C04C2BFD4EB0C0541EA045170BDAA
:1009F00041F480114FF0000E013C90E645EA060EEE
:100A00008DE60CEA135594EA0C0F08BF95EA0C0F1B
:100A10003FF43BAF94EA0C0F0AD150EA01347FF463
:100A200034AF95EA0C0F7FF425AF104619462CE73A
:100A300095EA0C0F06D152EA03353FF4FDAE10469D
:100A4000194622E750EA410618BF52EA43067FF4EE
:100A5000C5AE50EA41047FF40DAF52EA43057FF47E
:100A6000EBAE12E74FF0FF3C06E000BF4FF0010C89
:100A700002E000BF4FF0010C4DF804CD4FEA410CED
:100A80007FEA6C5C4FEA430C18BF7FEA6C5C1BD0BA
:100A900001B050EA410C0CBF52EA430C91EA030F3B
:100AA00002BF90EA020F0020704710F1000F91EA98
:100AB000030F58BF994208BF90422CBFD8176FEA66
:100AC000E37040F0010070474FEA410C7FEA6C5C34
:100AD00002D150EA013C07D14FEA430C7FEA6C5C3B
:100AE000D6D152EA033CD3D05DF8040B704700BF67
:100AF0008446104662468C461946634600E000BFB5
:100B000001B5FFF7B7FF002848BF10F1000F01BD86
:100B10004DF808EDFFF7F4FF0CBF012000205DF851
:100B200008FB00BF4DF808EDFFF7EAFF34BF0120D6
:100B300000205DF808FB00BF4DF808EDFFF7E0FF6F
:100B400094BF012000205DF808FB00BF4DF808EDC0
:100B5000FFF7CEFF94BF012000205DF808FB00BF27
:100B60004DF808EDFFF7C4FF34BF012000205DF809
:100B700008FB00BF4FEA410C7FEA6C5C02D150EAEF
:100B8000013C0AD14FEA430C7FEA6C5C02D152EA85
:100B9000033C02D14FF0000070474FF00100704756
:100BA0004FEA410212F5001215D211D56FF4787395
:100BB000B3EB625212D94FEAC12343F0004343EA38
:100BC000505311F0004F23FA02F018BF4042704713
:100BD0004FF00000704750EA013005D111F000409D
:100BE00008BF6FF0004070474FF00000704700BF33
:100BF00080F0004002E000BF81F0004142001FBFD2
:100C00005FEA410392EA030F7FEA226C7FEA236CDA
:100C10006AD04FEA1262D2EB1363C1BFD2184140CF
:100C200048404140B8BF5B42192B88BF704710F065
:100C3000004F40F4000020F07F4018BF404211F008
:100C4000004F41F4000121F07F4118BF494292EA70
:100C5000030F3FD0A2F1010241FA03FC10EB0C009C
:100C6000C3F1200301FA03F100F0004302D5494229
:100C700060EB4000B0F5000F13D3B0F1807F06D3D6
:100C800040084FEA310102F10102FE2A51D2B1F1CE
:100C9000004F40EBC25008BF20F0010040EA0300C3
:100CA0007047490040EB0000013A28BFB0F5000F43
:100CB000EDD2B0FA80FCACF1080CB2EB0C0200FAF9
:100CC0000CF0AABF00EBC25052421843BCBFD04048
:100CD0001843704792F0000F81F4000106BF80F4C2
:100CE00000000132013BB5E74FEA41037FEA226C85
:100CF00018BF7FEA236C21D092EA030F04D092F050
:100D0000000F08BF0846704790EA010F1CBF002083
:100D1000704712F07F4F04D1400028BF40F00040E0
:100D2000704712F100723CBF00F50000704700F000
:100D3000004343F0FE4040F4000070477FEA226227
:100D400016BF08467FEA23630146420206BF5FEAF8
:100D5000412390EA010F40F4800070474FF00003F8
:100D600004E000BF10F0004348BF40425FEA000CBF
:100D700008BF704743F0964301464FF000001CE067
:100D800050EA010208BF70474FF000030AE000BFBD
:100D900050EA010208BF704711F0004302D54042FB
:100DA00061EB41015FEA010C02BF8446014600206D
:100DB00043F0B64308BFA3F18053A3F50003BCFA88
:100DC0008CF2083AA3EBC25310DB01FA02FC634435
:100DD00000FA02FCC2F12002BCF1004F20FA02F23C
:100DE00043EB020008BF20F00100704702F120022F
:100DF00001FA02FCC2F1200250EA4C0021FA02F290
:100E000043EB020008BF20EADC7070474FEA400263
:100E1000B2F1FE4F0FD34FF09E03B3EB12620DD928
:100E20004FEA002343F0004310F0004F23FA02F092
:100E300018BF404270474FF00000704712F1610F39
:100E400001D1420205D110F0004008BF6FF0004010
:100E500070474FF00000704742000ED2B2F1FE4FD3
:100E60000BD34FF09E03B3EB126209D44FEA002379
:100E700043F0004323FA02F070474FF00000704740
:100E800012F1610F01D1420202D14FF0FF307047E1
:100E90004FF00000704700BF2DE9F04387B004F029
:100EA000E7FA134C05466068FFF772FB0646A06838
:100EB0000F46FFF76DFBD4F80C80B4F81490CDE921
:100EC0000001A5EB0805039594F816C0094D0A4CDE
:100ED0003246BCF1000F18BF2C463B464946074836
:100EE000CDF80880049404F0B5FB07B0BDE8F083AA
:100EF0004802002040920008449200084C920008EA
:100F0000F8B5002110240820244BDA6A22F470027C
:100F1000DA6258631A6922F0E0621A611A6942F0D3
:100F2000E0621A611A6822F002021A609A6842F4BA
:100F300080029A601A689207FCD5DA6C013CC2F311
:100F40000B0214F0FF041144DFD1C1F30F15284642
:100F5000FFF704FF1249FFF703F94FF081410746FD
:100F6000FFF7FEF8064604F083FA40F61E420D4BEA
:100F700095425F609D821E609E60D86008D81A69A5
:100F80004AB1801AB0F57A7F01D301229A75F8BD73
:100F90001C619C75F8BD1861F8BD00BF00240140BC
:100FA0006840533A4802002010B5074C2368002BD4
:100FB00001DB012010BD0549002004F079FA034649
:100FC000C0432360C00F10BD00000020990E000830
:100FD000FFF796BF20B1034B9A689B7D4260037078
:100FE000704700BF4802002070B500240022394B32
:100FF00082B0C3E9034438491A605A609A609C82FF
:101000009C758B69354843F0080304808B6104F0BC
:1010100007F9334B984204D9324B98424CD84FF4DD
:10102000804400262C4B304D5A68304922F440420F
:101030005A605A6814435C602A6822F00F022A60E2
:101040009A6942F400729A618B6843F001038B60E5
:101050000196019BB3F57A7F07D200BF019B013354
:101060000193019BB3F57A7FF7D3204A936843F04D
:101070000803936093681907FCD491681B4B41F0F7
:10108000040191609A685207FCD401205A6822F446
:1010900080725A609A6822F002029A609A6822F47A
:1010A00060229A609A6842F460229A609A6842F4D8
:1010B00080129A6002B070BD0D4B984205D90D4B5D
:1010C000984205D84FF44044ABE74FF40044A8E7FA
:1010D0002046EFE7480200200010024044020020B2
:1010E000013FAB01037E5603000C01400024014088
:1010F00005BD010507FCAC0610B40424FD4B00221D
:10110000D3F800124FF0005041F00101C3F8001273
:10111000D3F81C1221F00201C3F81C12D3F80C12F0
:1011200041F00201C3F80C12D3F8041221F00201BD
:10113000C3F80412D3F8141241F00201C3F81412D8
:10114000C3F84842C3F84C42D3F81C124FF0015484
:1011500041F00201C3F81C12D3F81C1221F0010166
:10116000C3F81C12D3F80C1241F00101C3F80C12A1
:10117000D3F8041241F00101C3F80412D3F8141299
:1011800021F00101C3F81412C3F84002C3F844224D
:10119000D3F81C1200F5001041F00101C3F81C1235
:1011A000D3F81C1221F00201C3F81C12D3F80C1260
:1011B00041F00201C3F80C12D3F8041241F002010D
:1011C000C3F80412D3F8141221F00201C3F8141268
:1011D000C3F84802C3F84C22D3F81C124FF0025057
:1011E00041F00201C3F81C12D3F81C1221F00401D3
:1011F000C3F81C12D3F80C1241F00401C3F80C120E
:10120000D3F8041241F00401C3F80412D3F8141205
:1012100021F00401C3F81412C3F85042C3F8542259
:10122000D3F81C1204F5001441F00401C3F81C1299
:10123000D3F81C1221F00801C3F81C12D3F80C12C9
:1012400041F00801C3F80C12D3F8041241F0080170
:10125000C3F80412D3F8141221F00801C3F81412D1
:10126000C3F85842C3F85C22D3F81C124FF0035461
:1012700041F00801C3F81C12D3F81C1221F0100130
:10128000C3F81C12D3F80C1241F01001C3F80C1271
:10129000D3F8041241F01001C3F80412D3F8141269
:1012A00021F01001C3F81412C3F86002C3F86422DD
:1012B000D3F81C1200F5001041F01001C3F81C1205
:1012C000D3F81C1221F02001C3F81C12D3F80C1221
:1012D00041F02001C3F80C12D3F8041241F02001B0
:1012E000C3F80412D3F8141221F02001C3F8141229
:1012F000C3F86802C3F86C22D3F81C124FF00450F4
:1013000041F02001C3F81C12D3F81C1221F0400157
:10131000C3F81C12D3F80C1241F04001C3F80C12B0
:10132000D3F8041241F04001C3F80412D3F81412A8
:1013300021F04001C3F81412C3F87042C3F87422BC
:10134000D3F81C1204F5001441F04001C3F81C123C
:10135000D3F81C1221F08001C3F81C12D3F80C1230
:1013600041F08001C3F80C12D3F8041241F080015F
:10137000C3F80412D3F8141221F08001C3F8141238
:10138000C3F87842C3F87C22D3F81C124FF00554FE
:1013900041F08001C3F81C12D3F81C1221F48071B3
:1013A000C3F81C12D3F80C1241F48071C3F80C126C
:1013B000D3F8041241F48071C3F80412D3F8141264
:1013C00021F48071C3F81412C3F88002C3F8842298
:1013D000D3F81C1200F5001041F48071C3F81C1200
:1013E000D3F81C1221F40071C3F81C12D3F80C12AC
:1013F00041F40071C3F80C12D3F8041241F40071E7
:10140000C3F80412D3F8141221F40071C3F81412B3
:10141000C3F88802C3F88C22D3F81C124FF0065090
:1014200041F40071C3F81C12D3F81C1221F480613E
:10143000C3F81C12D3F80C1241F48061C3F80C12EB
:10144000D3F8041241F48061C3F80412D3F81412E3
:1014500021F48061C3F81412C3F89042C3F89422B7
:10146000D3F81C1204F5001441F48061C3F81C1277
:10147000D3F81C1221F40061C3F81C12D3F80C122B
:1014800041F40061C3F80C12D3F8041241F4006176
:10149000C3F80412D3F8141221F40061C3F8141233
:1014A000C3F89842C3F89C22D3F81C1241F400619F
:1014B000C3F81C12D3F81C1221F48051C3F81C127B
:1014C000D3F80C1210BC41F48051C3F80C12D3F8BD
:1014D000041241F48051C3F80412D3F8141221F419
:1014E0008051C3F81412C3F8A002C3F8A422D3F8A1
:1014F0001C2201E00064004042F48052C3F81C2228
:10150000D3F8002222F00102C3F80022704700BF86
:101510005F4B9B6859014FD41A0105D413F08053D7
:1015200040F09F8018467047012270B400251201D8
:10153000417B02F1804303F5C8430468C3F880513E
:1015400089BBD3F8801141EA4451C3F880110025CA
:10155000D3F88411867B21F00F01C3F88411D3F8EE
:10156000841104792143C3F8841102F1804101F50B
:10157000C841C1F88851C1F88C5166B95CB1D1F845
:1015800088614579012C45EA0605C1F8885104F1C6
:10159000FF35EDB212D170BC0120D3F88021024397
:1015A000C3F880217047D3F8801141EAC40141F0AB
:1015B0000401C3F88011CAE70022B6E7D1F88861B8
:1015C00090F806C0012D46EA0C26C1F888614AD879
:1015D00002218C42DFD902F1804202F5C84245184F
:1015E0006D79D2F88C613543C2F88C514D1CAC42F8
:1015F000D1D946197679CD1EED0006FA05F5D2F857
:101600008C613543C2F88C518D1CAC42C3D946194C
:1016100076798D1EED0006FA05F5D2F88C6135431A
:10162000C2F88C51CD1CAC42B5D9461976794D1E05
:10163000ED0006FA05F5D2F88C613543C2F88C51FD
:101640000D1DAC42A7D928444079CD00A840D2F85E
:101650008C51053128438C42C2F88C019BD9D2F8B9
:101660008C31022261E7D1F8886190F807C0022D21
:1016700046EA0C46C1F8886101D80321A9E7D1F8F0
:101680008851067A45EA0665C1F888510421A0E729
:1016900000640040544B70B5DA68920732D11B6980
:1016A00013F0030301D1184670BD0123427B1C4691
:1016B0004D496ABB03F11B0212018958490D1B01F8
:1016C00003F1804202F5C8420160D2F8B011D2F8AD
:1016D000B451C1F3400205F00F018273017151B1A1
:1016E00003F1804202F5C842D2F8B8614D1E0129CB
:1016F000EDB2467119D18CB13B4A136943F0200316
:10170000136110E00023427B1C463749002AD1D0E8
:1017100003F11B0212018958C908D0E7324AD36885
:1017200043F02003D360012070BDD2F8B861012DD1
:101730004FEA1626867148D802229142DBD903F17E
:10174000804303F5C843D3F8BC6102F1010C85184E
:1017500061456E71CFD9D3F8BC51A2F1030E4FEAA7
:10176000CE0E844425FA0EFE8CF805E002F1020C40
:101770006145C0D9D3F8BC51A2F1020E4FEACE0E9A
:10178000844425FA0EF58CF8055002F1030C6145EE
:10179000B1D9D3F8BC5102F1FF3E4FEACE0E8444DA
:1017A00025FA0EF58CF8055002F1040C6145A2D91A
:1017B000D3F8BC5160444FEAC20C053225FA0CF54F
:1017C0009142457197D9D3F8BC31D2F8B861022D56
:1017D0004FEA1646C67101D80322AEE7D2F8B82107
:1017E000120E02720422A8E700640040564910B5A8
:1017F0008869564A40F009008861C869544B40F036
:101800000070C8615168534C21F4C0415160516867
:1018100041F4804151605A6822F00F025A605A68C0
:1018200042F008025A60DA6842F48072DA605A685C
:1018300022F0F0025A605A6842F030025A605A6848
:1018400042F080025A60236823F002032360236879
:1018500043F0010323606368DB07FCD5236823F0B2
:10186000FC03236003F080FC3B4B984267D03B4B6A
:10187000984260D13A4BE361364B1A6822F001027C
:101880001A605A6812F00102FBD10421D3F8004219
:101890002D4844F00104C3F80042D3F81C4224F060
:1018A0000104C3F81C42D3F80C4244F00104C3F80D
:1018B0000C42D3F8044224F00104C3F80442D3F8E4
:1018C000144224F00104C3F81442C3F84022C3F8C0
:1018D0004412D3F81C2242F00102C3F81C22D3F8B0
:1018E0001C2222F00202C3F81C22D3F80C2242F080
:1018F0000202C3F80C22D3F8042222F00202C3F839
:101900000422D3F8142242F00202C3F81422C3F8CE
:101910004812C3F84C12D3F81C2242F00202C3F85A
:101920001C22D3F8002222F00102C3F80022C06971
:10193000C0F3406010BD00231846E36110BD4FF4B2
:10194000E013E36198E700BF00100240000001408F
:10195000000C01400064004000127A000051250292
:1019600003001E00704700BF2DE9F041694C82B0B2
:1019700094F85C31002B00F0C7802068FFF746FA2E
:10198000D4E903870546A068FFF740FA0190606834
:10199000FFF73CFA06462B464246394600965E481B
:1019A00003F058FEE06EFFF731FAD4E91E870546D2
:1019B000606FFFF72BFA0190206FFFF727FA0646BA
:1019C0002B46424639460096544803F043FED4F86D
:1019D0008000FFF71BFAD4E923870546D4F8880076
:1019E000FFF714FA0190D4F88400FFF70FFA0646C7
:1019F0002B46424639460096494803F02BFED4F860
:101A00009400FFF703FAD4E928870546D4F89C0030
:101A1000FFF7FCF90190D4F89800FFF7F7F90646B4
:101A20002B464246394600963E4803F013FED4F852
:101A3000A800FFF7EBF9D4E92D870546D4F8B000EC
:101A4000FFF7E4F90190D4F8AC00FFF7DFF90646A0
:101A50002B46424639460096334803F0FBFDD4F846
:101A6000BC00FFF7D3F9D4E932870546D4F8C400A7
:101A7000FFF7CCF90190D4F8C000FFF7C7F906468C
:101A80002B46424639460096284803F0E3FDD4F839
:101A9000D000FFF7BBF9D4E937870546D4F8D80062
:101AA000FFF7B4F90190D4F8D400FFF7AFF9064678
:101AB0002B464246394600961D4803F0CBFDD4F82C
:101AC000E400FFF7A3F9D4E93C870546D4F8EC001D
:101AD000FFF79CF90190D4F8E800FFF797F9064664
:101AE0002B46424639461348009603F0B3FDD4F81E
:101AF000F800FFF78BF9D4E9412103460E4802B004
:101B0000BDE8F04103F0A6BD0C4802B0BDE8F041CD
:101B100003F0A0BD6C0200209C92000824930008F2
:101B2000A493000824940008A89400082C950008A9
:101B3000B095000838960008C09600083497000851
:101B4000036870B5A3F5807304460C2B00F29982EC
:101B5000DFE813F026004E006A0001011A012A0195
:101B60006501B401DF010D023B0269020D00012392
:101B7000CA4DD5F8042185F85C31C5F8082104F078
:101B80006FF8C5F80401B4F8050040BA80B2FFF759
:101B9000E9F8C349FEF7E4FAC5F8F800012070BD82
:101BA0000123BE4DEA6885F85C312A6104F058F8DB
:101BB000E860B4F8050040BA80B2FFF7D3F8B9493D
:101BC000FEF7CEFAB4F80730286058BA80B2FFF7B3
:101BD000C9F8B449FEF7C4FAB4F80930686058BAD5
:101BE00080B2FFF7BFF8AF49FEF7BAFAA860D5E7B1
:101BF0000123AA4DEA6985F85C312A6204F030F8C5
:101C0000E861B4F8050040BA80B2FFF7ABF8A54927
:101C1000FEF7A6FA6861B4F807305BBA2B83B4F814
:101C200009305BBA6B83B9E701239C4DAA6C85F838
:101C30005C31EA6404F014F8A864B4F805300022BA
:101C40005BBA03F0010185F82410C3F3400185F865
:101C50002510C3F3800185F82610C3F3C00185F871
:101C60002710C3F3001185F82810C3F3401185F83D
:101C70002910C3F3801185F82A10C3F3C01185F829
:101C80002B10C3F3002185F82C10C3F3402185F8F5
:101C90002D10C3F3802185F82E10C3F3C02185F8E1
:101CA0002F10C3F3003185F83010C3F3403185F8AD
:101CB0003110C3F38031C3F3C03385F8321085F897
:101CC0003330B4F807305BBA03F0010185F8341003
:101CD000C3F3400185F83510C3F3800185F8361051
:101CE000C3F3C00185F83710C3F3001185F838102D
:101CF000C3F3401185F83910C3F3801185F83A1009
:101D0000C3F3C01185F83B10C3F3002185F83C10E4
:101D1000C3F3402185F83D10C3F3802185F83E10C0
:101D2000C3F3C02185F83F10C3F3003185F840109C
:101D3000C3F3403185F84110C3F38031C3F3C0339E
:101D400085F8421085F8433085F84420B4F809300E
:101D5000A5F8463022E70123504DAA6D85F85C3185
:101D6000EA6503F07DFFA865B4F805305BBAA5F815
:101D70005030B4F807305BBAA5F85230B4F80930E7
:101D80005BBAA5F8543009E70123444D6A6E85F823
:101D90005C31AA6603F064FF6866637985F8603099
:101DA000A37985F86130F9E601233C4D3E4EAA6FD8
:101DB00085F85C31EA6703F053FFA867B4F80500C3
:101DC00040BA80B2FEF7CEFF3849FEF7C9F938496C
:101DD000FEF712FFE866FFF73FF83070B4F807002F
:101DE00040BA80B2FEF7BEFF3049FEF7B9F930497C
:101DF000FEF702FF2867FFF72FF8B4F8093070707C
:101E000058BA80B2FEF7AEFF2849FEF7A9F9284973
:101E1000FEF7F2FE6867FFF71FF8B070BEE6012319
:101E20001E4D214ED5F88C2085F85C31C5F89020E8
:101E300003F016FFC5F88C00B4F8050040BA80B274
:101E4000FEF790FF1949FEF78BF91949FEF7D4FE0A
:101E5000C5F88000FFF700F8B4F80730C4B258BAEC
:101E600080B2F470FEF77EFF1049FEF779F9104951
:101E7000FEF7C2FEC5F88400FEF7EEFF75783378F2
:101E8000C0B22B44B5780B4A2B4423440344A2FB35
:101E9000032309499B0830710B707FE66C02002018
:101EA0006F12833A0AD7233C64020020CDCCCC3D8C
:101EB00033938843CDCCCCCC60020020724DD5F852
:101EC000A030C5F8A43003F0CBFEC5F8A000B4F8EC
:101ED000050040BA80B2FEF745FF6C49FEF740F9B5
:101EE000C5F89400B4F8070040BA80B2FEF73AFF94
:101EF0006649FEF735F9C5F89800B4F8090040BA0C
:101F000080B2FEF72FFF6149FEF72AF9C5F89C0061
:101F100044E601235C4DD5F8B42085F85C31C5F862
:101F2000B82003F09DFEC5F8B400B4F8050040BA2F
:101F300080B2FEF717FF5549FEF712F9C5F8A80061
:101F4000B4F8070040BA80B2FEF70CFF4F49FEF725
:101F500007F9C5F8AC00B4F8090040BA80B2FEF742
:101F600001FF4A49FEF7FCF8C5F8B00016E6012368
:101F7000454DD5F8C82085F85C31C5F8CC2003F074
:101F80006FFEC5F8C800B4F8050040BA80B2FEF78D
:101F9000E9FE3E49FEF7E4F8C5F8BC00B4F80700D6
:101FA00040BA80B2FEF7DEFE3849FEF7D9F8C5F830
:101FB000C000B4F8090040BA80B2FEF7D3FE33493E
:101FC000FEF7CEF8C5F8C400E8E501232E4DD5F89C
:101FD000DC2085F85C31C5F8E02003F041FEC5F84F
:101FE000DC00B4F8050040BA80B2FEF7BBFE27491A
:101FF000FEF7B6F8C5F8D000B4F8070040BA80B2D2
:10200000FEF7B0FE2149FEF7ABF8C5F8D400B4F8EE
:10201000090040BA80B2FEF7A5FE1C49FEF7A0F801
:10202000C5F8D800BAE50123174DD5F8F02085F89A
:102030005C31C5F8F42003F013FEC5F8F000B4F8E5
:10204000050040BA80B2FEF78DFE1049FEF788F811
:10205000C5F8E400B4F8070040BA80B2FEF782FE8B
:102060000A49FEF77DF8C5F8E800B4F8090040BA5F
:1020700080B2FEF777FE0549FEF772F8C5F8EC006E
:102080008CE5002070BD00BF6C0200206F12833A07
:1020900010B5074C2368002B01DB012010BD05495A
:1020A000002003F005FA0346C0432360C00F10BDB3
:1020B0000400002069190008002800F0C282F8B569
:1020C000DC4EDD4BB6F846C01A78BCF1000F14BFE9
:1020D0000123002380F86C20726880F86D308260E4
:1020E000326804464260728B0270D6F89420D6F8AB
:1020F0009830C2600361D6F89C20D6F8A8304261BF
:102100008361D6F8AC20D6F8B030C2610362D6F84D
:10211000BC20D6F8C03042628362D6F8C420D6F81C
:10212000D030C2620363D6F8D430D6F8D8204363E7
:10213000D6F8E4308263C363D6F8E820D6F8EC30F2
:102140000264436400F07C8200231CF0010580F8E7
:102150006F3080F8973080F8BF3080F8E73080F833
:102160000F3180F8373180F85F3180F8873180F89F
:10217000AF3180F8D73180F8FF3180F8273280F80E
:102180004F3280F8773280F89F3280F8C7321CD007
:102190000125AA4FC0F87E30C0F88230C0F88630E2
:1021A000C0F88A30C0F88E30C0F8923080F896308F
:1021B00007CF3B88C4F86F00A4F87B30BB78C4F825
:1021C0007310C4F8772084F87D301CF0020F1ED005
:1021D000002305EB850C9A4F04EBCC0C0135CCF8B1
:1021E0009330CCF87F30CCF88330CCF88730CCF803
:1021F0008B30CCF88F308CF89630EDB20FCFCCF816
:102200006F00CCF87310CCF87720CCF87B30B6F8A0
:102210004630590722D5002205EB8503894F04EB90
:10222000C303C3F87E20C3F88220C3F88620C3F816
:102230008A20C3F88E20C3F8922083F8962007CF17
:10224000C3F877203A880135A3F87B20BA78EDB23D
:10225000C3F86F00C3F8731083F87D20B6F84630DA
:102260001A0720D5002305EB8507DFF8DCC104EB56
:10227000C7070135C7F89330C7F87F30C7F88330F8
:10228000C7F88730C7F88B30C7F88F3087F896309B
:10229000EDB2BCE80F00C7F86F00C7F87310C7F8BD
:1022A0007720C7F87B30B6F84630DB0624D500230C
:1022B00005EB8507DFF894C104EBC707C7F890303A
:1022C000C7F88030C7F89330C7F88430C7F8883033
:1022D000C7F88C3087F89630BCE80F00C7F87B3021
:1022E0009CF800300135EDB2C7F86F00C7F87310E5
:1022F000C7F8772087F87F30B6F846309F0620D59C
:10230000002305EB8507DFF848C104EBC70701355B
:10231000C7F89330C7F87F30C7F88330C7F88730E5
:10232000C7F88B30C7F88F3087F89630EDB2BCE82D
:102330000F00C7F86F00C7F87310C7F87720C7F809
:102340007B30B6F84630580624D5002305EB8507C8
:10235000DFF800C104EBC707C7F89030C7F880303A
:10236000C7F89330C7F88430C7F88830C7F88C3086
:1023700087F89630BCE80F00C7F87B309CF8003037
:102380000135EDB2C7F86F00C7F87310C7F87720B2
:1023900087F87F30B6F84630190620D5002305EBC4
:1023A0008507DFF8B4C004EBC7070135C7F89330E1
:1023B000C7F87F30C7F88330C7F88730C7F88B304D
:1023C000C7F88F3087F89630EDB2BCE80F00C7F839
:1023D0006F00C7F87310C7F87720C7F87B30B6F8DE
:1023E0004630DA053CD5002305EB8507DFF86CC0E5
:1023F00004EBC707C7F89030C7F88030C7F89330B0
:10240000C7F88430C7F88830C7F88C3087F8963022
:10241000BCE80F00C7F87B309CF800300135EDB206
:10242000C7F86F00C7F87310C7F8772087F87F30B8
:1024300016E000BF6C02002060020020A88F000898
:10244000D08F0008F88F00082090000848900008FE
:102450007090000898900008C0900008E89000086C
:10246000B6F846309B0524D5002305EB8507DFF839
:10247000D4C104EBC707C7F89030C7F88030C7F85D
:102480009330C7F88430C7F88830C7F88C3087F8A5
:102490009630BCE80F00C7F87B309CF8003001355F
:1024A000EDB2C7F86F00C7F87310C7F8772087F848
:1024B0007F30B6F846305F0526D5002705EB85034B
:1024C000DFF884C104EBC303BCE80700C3F877203E
:1024D000BCF800200135A3F89570EDB203F17D0E34
:1024E000C3F87D70C3F88170C3F88570C3F8897034
:1024F000C3F88D70C3F89170C3F86F00C3F8731000
:10250000A3F87B2083F89670B6F84630180520D5DE
:10251000002205EB85034D4F04EBC303C3F8902065
:10252000DA67C3F89320C3F88020C3F88420C3F887
:102530008820C3F88C2083F8962007CFC3F8772033
:102540003A780135EDB2C3F86F00C3F8731083F821
:102550007B20B6F84630D90417D53D4B05EB8507EF
:1025600003CB1B7804EBC707C7F86F00C7F87310DD
:1025700087F877301F22002107F1780004F02EFC45
:102580000023013587F89630EDB2B6F846309A044C
:1025900017D5304B05EB850703CB1B7804EBC7073A
:1025A000C7F86F00C7F8731087F877301F22002133
:1025B00007F1780004F012FC0023013587F896300B
:1025C000EDB2B6F846305B0417D5224B05EB850714
:1025D00003CB1B7804EBC707C7F86F00C7F873106D
:1025E00087F877301F22002107F1780004F0F6FB0E
:1025F0000023013587F89630EDB2B6F84630DB0B94
:1026000017D0144B05EB850603CB1B7804EBC606ED
:10261000C6F86F00C6F8731086F877301F220021C5
:1026200006F1780004F0DAFB0023013586F89630D5
:10263000EDB22B1E18BF012384F86E5084F86D3064
:10264000F8BD7047109100083891000860910008AB
:1026500088910008B091000838B5724C94F8483061
:10266000002B00F0DA8002F003FF054623696E4874
:10267000ED1A02F0EFFF21696C4802F0EBFF2946EA
:102680006B4802F0E7FF21786A4802F0E3FF6178C7
:10269000694802F0DFFFA178684802F0DBFFE178CB
:1026A000674802F0D7FFA188664802F0D3FFA179FE
:1026B000654802F0CFFFE179644802F0CBFFA068E3
:1026C000FDF766FF02460B46614802F0C3FFE06873
:1026D000FDF75EFF02460B465E4802F0BBFF5E4818
:1026E00002F0B8FF02F0C4FE0546A36A5B48ED1A8B
:1026F00002F0B0FFA16A4D4802F0ACFF29464C48F9
:1027000002F0A8FF6069FDF743FF02460B465448FC
:1027100002F0A0FFA069FDF73BFF02460B465148BF
:1027200002F098FF217F504802F094FF617F4F48EC
:1027300002F090FFA17F4E4802F08CFF206AFDF767
:1027400027FF02460B464B4802F084FF94F8241002
:10275000494802F07FFF94F82610484802F07AFFBB
:102760003D4802F077FF02F083FE0546E36B4448E4
:10277000ED1A02F06FFFE16B2C4802F06BFF294667
:102780002B4802F067FFB4F92C103E4802F062FFBC
:10279000B4F92E103C4802F05DFF206BFDF7F8FE07
:1027A00002460B46394802F055FF606BFDF7F0FE1C
:1027B00002460B46364802F04DFF218F354802F0A5
:1027C00049FF254802F046FF02F052FE0546636CC1
:1027D0003148ED1A02F03EFF616C144802F03AFFF6
:1027E0002946134802F036FF94F840102B4802F0B7
:1027F00031FF94F841102A4802F02CFF94F842105F
:10280000284802F027FF284894F8431002F022FFDE
:10281000BDE83840104802F01DBF2448BDE83840EC
:1028200002F018BFCC0300205897000894970008C6
:10283000B8970008DC970008FC9700081C9800086F
:102840003C9800085C98000880980008A49800084C
:10285000C4980008E89800080C99000844990008FA
:1028600080990008A4990008C8990008E899000810
:10287000089A0008289A00084C9A00086C9A0008E8
:10288000909A0008CC9A0008F49A00081C9B000853
:10289000449B00086C9B0008909B0008CC9B0008A0
:1028A000F09B0008149C0008389C00085C9C000801
:1028B0002DE9F84303680446113B032B00F2AA807C
:1028C000DFE813F09601BF000400AA000123C44D05
:1028D000002685F8483002F0CBFDE86394F9053016
:1028E000283BAB8594F90630283BEB85207AE379C9
:1028F00000F0010103F0010242EA0121C3F34002AA
:10290000921842EA010203F0FC0343EA0203C0F317
:10291000400243EA4223C0F3800243EA8223C0F329
:10292000C00243EAC223C0F3001243EA0233C0F3F9
:10293000401243EA4233C0F3801243EA82334FEA43
:10294000D01046EB060143EAC030FEF719FA4FF00B
:102950007A51FDF705FCA349FEF74EF92863A07AEA
:10296000637A00F0010103F0010242EA0121C3F39E
:102970004002921842EA010203F0FC0343EA020318
:10298000C0F3400243EA4223C0F3800243EA8223B9
:10299000C0F3C00243EAC223C0F3001243EA023389
:1029A000C0F3401243EA4233C0F3801243EA823359
:1029B0004FEAD01046EB060143EAC030FEF7E0F9DB
:1029C0004FF07A51FDF7CCFB8649FEF715F96863A5
:1029D000227BE37A02F0010143EA0123C2F34001C2
:1029E00043EA4123C2F3800143EA8123C2F3C001D9
:1029F00043EAC123C2F3001143EA0133C2F3401199
:102A000043EA4133C2F3801143EA8133D20943EAF6
:102A1000C2332B87BDE8F8830123714D85F8483018
:102A200002F026FD6864637985F84030A37985F863
:102A30004130E37985F84230637A85F84330BDE868
:102A4000F8830123664D002685F8483002F010FD1A
:102A5000A862A079637900F0010103F0010242EA63
:102A60000121C3F34002921842EA010203F0FC0381
:102A700043EA0203C0F3400243EA4223C0F3800268
:102A800043EA8223C0F3C00243EAC223C0F3001228
:102A900043EA0233C0F3401243EA4233C0F38012E8
:102AA00043EA82334FEAD01046EB060143EAC030D6
:102AB000FEF766F94C49FDF753FB6861207AE3792C
:102AC00000F0010103F0010242EA0121C3F34002D8
:102AD000921842EA010203F0FC0343EA0203C0F346
:102AE000400243EA4223C0F3800243EA8223C0F358
:102AF000C00243EAC223C0F3001243EA0233C0F328
:102B0000401243EA4233C0F3801243EA82334FEA71
:102B1000D01046EB060143EAC030FEF731F93249E6
:102B2000FDF71EFBA861637A03F00F032B77627A2F
:102B3000C2F34013C2F38011DB1843EA8103C2F3EE
:102B400000110B43D20943EAC2036B77A37A03F067
:102B50000103AB77A37AC3F34003EB77A27AE07A61
:102B6000C2F3800300F0010143EA8113C2F3C00104
:102B7000491843EA010346EB0601C2F3001643EA93
:102B80008603C2F3401643EAC603C2F3801643EA43
:102B90000613D20943EA4213C0F3400243EAC213C8
:102BA000C0F3800043EA0020FEF7EAF80F49FDF782
:102BB000D7FA2862E37AC3F3C10385F82430E27AB6
:102BC000C2F38013D109DB1843EA8103C2F3401238
:102BD000134385F82530237B85F82630BDE8F8833C
:102BE000CC0300200080FF43CDCCCC3D0AD7233C52
:102BF0000123564D85F8483002F03AFC4FF0000EA4
:102C000077462861E279A17902F0010094F80BC0BF
:102C1000A37A41EA0021C2F34000667941EA4021EB
:102C2000C2F3800841EA88280CF0010903F0010191
:102C3000C6F3801041EA0929C3F34001001849187E
:102C400049EA010103F0FC0343EA0103C2F3C001B6
:102C500048EAC12106F0030868F3070EC2F3001822
:102C600041EA0831C6F3810868F30F2E4FEAD618FF
:102C700040EA8800C2F3401841EA4831CCF34008EA
:102C800043EA4823C6F30018C6F3401640EA06009C
:102C900068F3174E60F31F6EC2F3801041EA803173
:102CA0004FEAD21241EAC231CCF3800243EA8220D9
:102CB000237ACCF3C00CAB71637AC5F800E040EA2C
:102CC000CC20EB71A98047EB0701FEF759F82049AA
:102CD000FDF746FAA860227BE07A02F00101C0F31A
:102CE000001343EA0113C0F34011491843EA0103FA
:102CF000C0F3801443EA84034FEAD01043EAC003D0
:102D0000C2F3400043EA4013C2F3800043EA801359
:102D1000C2F3C00043EAC013C2F3001043EA002329
:102D2000C2F3401043EA4023C2F3801043EA8023F9
:102D30004FEAD21047EB070143EAC020FEF720F824
:102D40000349FDF70DFAE860BDE8F883CC030020E5
:102D5000CDCCCC3D10B5074C2368002B01DB012006
:102D600010BD0549002002F0A3FB0346C0432360C9
:102D7000C00F10BD08000020592600082DE9F84FAB
:102D8000394F0546BB884375BB8D7969BA690160C7
:102D900042600372FB8DBE794372002E57D0012032
:102DA00000222B4605F55C71A8722A75DA75283366
:102DB0008B42FBD14FF0000EDFF8B080F14606E009
:102DC0000EF1010EBEF1160F08F1280837D026FAD1
:102DD0000EF3DB07F4D595F814C0BCF1150FEFD84E
:102DE000C2460CEB8C0C05EBCC0C0CF1170C08F16B
:102DF000200B54460CF1100C0FCC5C450AF1100A64
:102E00004CF8100C4CF80C1C4CF8082C4CF8043CFA
:102E1000EFD1534603CBCCF80000CCF804102B7D47
:102E20000EF1010E03EB830205EBC2020133BEF18A
:102E3000160F82F83E9008F128082B75C7D17B7FCA
:102E4000003B18BF012385F88733BDE8F88F084899
:102E500002F000FC2B46AE722E7505F55C72DE7535
:102E600028339342FBD1EAE7CC03002068AB00088B
:102E7000849C00082DE9F047A44CA54EA54D94F87C
:102E80008516A54800290CBF3146294602F0E2FB11
:102E900094F88916A14800290CBF3146294602F052
:102EA000D9FB94F888169E4800290CBF3146294664
:102EB00002F0D0FBDFF86C829B4F94F877169B48AA
:102EC00000290CBF4146394602F0C4FB94F8841631
:102ED000974800290CBF4146394602F0BBFB954F8D
:102EE000DFF8548294F88716944800290CBF4146B5
:102EF000394602F0AFFB924B924A94F886169248FC
:102F000000290CBF1146194602F0A4FB94F88A165A
:102F10008E4800290CBF3146294602F09BFB8C48A5
:102F200002F098FBDFF82CA2DFF82C9294F89616AA
:102F30008A4800290CBF5146494602F08BFB88485D
:102F400094F8051302F086FB8648D4F8FC1202F0D0
:102F500081FB8548D4F8001302F07CFB94F87816C6
:102F6000824800290CBF3146294602F073FB94F8D1
:102F700079167F4800290CBF3146294602F06AFBCA
:102F800094F87A167B4800290CBF3146294602F096
:102F900061FB94F87B16784800290CBF314629461E
:102FA00002F058FB754802F055FB7548217802F095
:102FB00051FB74496068FDF7D3F8FDF74DFF0246F9
:102FC0006426714D7148A5FB0231490906FB1122A7
:102FD00002F040FB6B49A068FDF7C2F8FDF73CFF2B
:102FE0000246A5FB0231490906FB1122684802F09E
:102FF00031FB684894F86C1002F02CFB94F86D10CB
:10300000654800290CBF5146494602F023FB94F85D
:103010006E10624802F01EFB614802F01BFB59492A
:10302000D4F8F002FDF79CF8FDF716FF0246A5FB69
:103030000231490906FB11225A4802F00BFB5149A3
:10304000D4F8F402FDF78CF8FDF706FF0246A5FB65
:103050000231490906FB1122534802F0FBFA53489A
:1030600094F8F91202F0F6FA514894F8F81202F0C6
:10307000F1FA94F8FA124F4800290CBF514649461C
:1030800002F0E8FA94F804134B4802F0E3FA4B48D4
:1030900002F0E0FA3B49D4F88006FDF761F8FDF74D
:1030A000DBFE0246A5FB0231490906FB112244481A
:1030B00002F0D0FA94F87C16424800290CBF394639
:1030C000414602F0C7FA404802F0C4FA3F4D94F876
:1030D00091163F4800290CBF2946394602F0BAFA3A
:1030E00094F892163B4800290CBF2946394602F055
:1030F000B1FA94F89436002B70D194F89336002BE3
:1031000000F0B580344802F0A5FA6EE01804002003
:103110009C9C0008989C0008D49C0008F49C000823
:10312000149D0008A89C0008A09C0008349D00087D
:10313000549D0008B49C0008B89C0008749D0008C9
:10314000C09C0008BC9C0008949D0008B49D000829
:10315000D49D00084492000840920008109E000888
:10316000309E0008549E0008749E0008949E00083B
:10317000B49E0008D49E0008F49E0008149F000826
:10318000509F00080000C8421F85EB51749F000843
:103190009C9F0008C49F0008E49F000804A000084A
:1031A00024A0000860A0000888A00008B0A00008C3
:1031B000D0A00008F0A0000810A1000830A100086D
:1031C0006CA1000894A10008B4A10008CC9C0008E0
:1031D000F0A1000810A2000894A2000894F8933609
:1031E000002B40D1244802F035FA244E244D94F8A7
:1031F0008C16244800290CBF3146294602F02AFAD1
:10320000B4F88E16204800290CBF3146294602F03A
:1032100021FA94F890161D4800290CBF3146294622
:1032200002F018FA1A4802F015FA0124194DDFF8D5
:1032300068801A4F1A4E414655F8040FFCF790FF6C
:10324000FDF70AFE03464FF47A7CA7FB03E29209DE
:10325000214630460CFB1233013402F0FBF9192CE5
:10326000E9D1BDE8F0870F4802F0F4F9BDE70E4858
:1032700002F0F0F9B9E700BFC4A2000844920008C8
:1032800040920008F4A2000814A3000834A3000828
:1032900054A300082004002000007A44D34D62109B
:1032A0008CA3000830A2000850A200082DE9F047C6
:1032B00010230026E84CB2B0E84D94F8852608218A
:1032C00068468DF80720ADF8043000958DF806604B
:1032D00002F0A6F94FF4887294F8893608216846FE
:1032E000ADF804208DF8073000958DF8066002F0E7
:1032F00097F94FF4047294F8773608216846ADF8D0
:1033000004208DF8073000958DF8066002F088F9EA
:103310004FF4447294F8843608216846ADF80420CE
:103320008DF8073000958DF8066002F079F94FF4BA
:10333000826294F8873608216846ADF804208DF83B
:10334000073000958DF8066002F06AF94FF4A2622A
:1033500094F87C3608216846ADF804208DF80730D3
:1033600000958DF8066002F05BF94FF4C26294F8A4
:10337000863608216846ADF804208DF807300095A0
:103380008DF8066002F04CF94FF4E26294F888364A
:1033900008216846ADF804208DF8073000958DF8B7
:1033A000066002F03DF94FF4116294F87836082176
:1033B0006846ADF804208DF8073000958DF806605A
:1033C00002F02EF941F2100294F87936082168468D
:1033D000ADF804208DF8073000958DF8066002F0F6
:1033E0001FF941F2101294F87A3608216846ADF8B8
:1033F00004208DF8073000958DF8066002F010F972
:1034000041F2102294F87B3608216846ADF804207A
:103410008DF8073000958DF8066002F001F941F251
:10342000103294F8963608216846ADF804208DF8DD
:10343000073000958DF8066002F0F2F8152294F836
:103440000533082168468DF80730ADF80420009553
:103450008DF8066002F0E4F894F80533002B00F0D4
:10346000FA8241F2105300957D4D08212A78684672
:10347000ADF804308DF806608DF8072002F0D0F822
:103480002B7883F001032B70002641F21563734FF4
:103490002278082168468DF80720ADF8043000979F
:1034A0008DF8066002F0BCF840F21522D4F8FC3228
:1034B0006C4D1BBA0A216846ADF80420CDF80630E1
:1034C000009502F0ADF840F21563ADF80430D4F881
:1034D00000330A211BBA68460095CDF8063002F089
:1034E0009FF843F6150343F21568ADF8043094F8DD
:1034F000F9320821684600978DF807308DF806608C
:1035000002F08EF894F8F832082168460097ADF87A
:1035100004808DF807308DF8066002F081F844F2DF
:103520001503ADF8043094F86C3008216846009714
:103530008DF807308DF8066002F072F849F280636A
:10354000ADF8043063680A211BBA68460095CDF8CF
:10355000063002F065F840F68103ADF80430A36848
:103560000A211BBA68460095CDF8063002F058F8DB
:10357000D4F880360A211BBA6846ADF8048000955D
:10358000CDF8063002F04CF88123ADF80430D4F8C1
:10359000F4320A211BBA68460095CDF8063002F0D5
:1035A0003FF840F28143ADF80430D4F8F0320A21FC
:1035B0001BBA68460095CDF8063002F031F842F2A9
:1035C0001503ADF8043094F80433082168460097D9
:1035D0008DF807308DF8066002F022F842F21523CC
:1035E000ADF8043094F86E300821684600978DF8E5
:1035F00007308DF8066002F013F842F21543ADF87B
:10360000043094F891360821684600978DF8073009
:103610008DF8066002F004F842F21563ADF804304C
:1036200094F892360821684600978DF807308DF897
:10363000066001F0F5FF42F61503ADF8043094F88A
:1036400094360821684600978DF807308DF806609B
:1036500001F0E6FF08E000BF180400205AA505822B
:103660000C0000205AA5078243F21503ADF8043080
:1036700094F88C360821684600978DF807308DF84D
:10368000066001F0CDFF43F2152394F8902608213F
:10369000684600978DF80720ADF804308DF8066075
:1036A00001F0BEFF8022E3680A211BBA6846ADF82C
:1036B0000420CDF80630009501F0B2FF4FF490627F
:1036C00023690A211BBA6846ADF80420CDF80630FC
:1036D000009501F0A5FF4FF4086263690A211BBA47
:1036E0006846ADF80420CDF80630009501F098FF4B
:1036F0004FF49452A3690A211BBA6846ADF804201E
:10370000CDF80630009501F08BFF4FF4B452E36919
:103710000A211BBA6846ADF80420CDF806300095A2
:1037200001F07EFF4FF40252236A0A211BBA684659
:10373000ADF80420CDF80630009501F071FF4FF48C
:103740001252636A0A211BBA6846ADF80420CDF80C
:103750000630009501F064FF4FF42252A36A0A215B
:103760001BBA6846ADF80420CDF80630009501F08C
:1037700057FF4FF44A52E36A0A211BBA6846ADF874
:103780000420CDF80630009501F04AFF4FF45A525C
:10379000236B0A211BBA6846ADF80420CDF8063029
:1037A000009501F03DFF4FF48142636B0A211BBA83
:1037B0006846ADF80420CDF80630009501F030FFE2
:1037C0004FF48942A36B0A211BBA6846ADF8042066
:1037D000CDF80630009501F023FF4FF49142E36BE2
:1037E0000A211BBA6846ADF80420CDF806300095D2
:1037F00001F016FF4FF4A542236C0A211BBA68465C
:10380000ADF80420CDF80630009501F009FF4FF423
:10381000AD42636C0A211BBA6846ADF80420CDF8AE
:103820000630009501F0FCFE4FF4C142A36C0A2162
:103830001BBA6846ADF80420CDF80630009501F0BB
:10384000EFFE4FF4C942E36C0A211BBA6846ADF89B
:103850000420CDF80630009501F0E2FE4FF4D1428D
:10386000236D0A211BBA6846ADF80420CDF8063056
:10387000009501F0D5FE4FF4E542636D0A211BBAB5
:103880006846ADF80420CDF80630009501F0C8FE7A
:103890004FF4ED42A36D0A211BBA6846ADF804202F
:1038A000CDF80630009501F0BBFE48F28002E36DD2
:1038B0000A211BBA6846ADF80420CDF80630009501
:1038C00001F0AEFE48F28042236E0A211BBA684620
:1038D000ADF80420CDF80630009501F0A1FE48F6C1
:1038E0008002636E0A211BBA6846ADF80420CDF849
:1038F0000630009501F094FE49F28022A36E0A2161
:103900001BBA68460095ADF80420CDF806304FF09C
:10391000600801F085FE3546554FDFF8589194F860
:103920000423EBB24FEA431A9A42534E5FFA8AFAE3
:103930007AD93846FCF70CFC4AF25A52C3B2C82B6B
:103940001E46ADF8002028BFC82682228DF803202D
:10395000F21C8DF805A00DF106008DF804808DF89D
:103960000220002B00F082803946324603F0C3FA71
:10397000B11DC9B26846013501F052FE042D07F1B0
:103980002807CCD100264FF065083C4FDFF8F090B7
:1039900094F86E20F3B24FEA431A9A42394D5FFA17
:1039A0008AFA2AD93846FCF7D3FB4AF25A52C3B2F4
:1039B000C82B1D46ADF8002028BFC82582228DF8EF
:1039C0000320EA1C8DF805A00DF106008DF8048097
:1039D0008DF80220002B47D039462A4603F08BFA97
:1039E000A91DC9B2684601F01BFE0136042E07F17D
:1039F0002807CDD132B0BDE8F0870FCDCDF8060055
:103A00002868CDF80A10CDF816001A216846CDF8BE
:103A100000908DF804808DF805A0CDF80E20CDF82B
:103A2000123001F0FDFDE0E70FCECDF80600306862
:103A30003679CDF80A10CDF800901B218DF804805E
:103A40008DF805A0CDF81600CDF80E20CDF8123077
:103A50008DF81A608EE741F21053082168460095F0
:103A6000019301F0DDFD0FE50621BBE7062181E7AB
:103A70001F0700205AA51882B4A30008870400205D
:103A80005AA51782CCA3000810B5104C2046FEF7AB
:103A900013FB04F53C70FFF771F904F2846000F049
:103AA00051FC04F27C60FDF795FA204600F090F896
:103AB0002046FDF757FF204601F0A6FA204601F008
:103AC000EDFABDE81040FFF7F1BB00BF180400207D
:103AD00010B5074C2368002B01DB012010BD054900
:103AE000002001F0E5FC0346C0432360C00F10BD79
:103AF00010000020752E0008304B5B6A9B0057D5E4
:103B00004AF2A5522E4B10B41988914208BF58882A
:103B10002C4B08BF01301A6914BF012080B2140673
:103B200047D4284AD368D907FCD41369244943F001
:103B30000203136151611369224943F04003136189
:103B4000CB68DB07FCD40B691E4A23F002030B6130
:103B5000D368DC07FCD44AF2A5541369184943F032
:103B600001031361174A0C80D368D907FCD4136989
:103B7000144923F001031361CB68DA07FCD40B6905
:103B80000F4C43F001030F4A0B616080D368DB07E1
:103B9000FCD41369094923F001031361136910BCB4
:103BA00043F0800313614B6A43F080734B627047AC
:103BB00070470549054A59605A60B2E70010024053
:103BC00000FC01080020024023016745AB89EFCDCE
:103BD00050B14AF2A552084B1988914205D00023F2
:103BE00080F88C36A0F88E36704701225B8880F80A
:103BF0008C26A0F88E36704700FC01082DE9F84F9E
:103C00001F4C9DF828802478B4B3A8B3DFF874B0B3
:103C10009BF80060072E2FD8DFF86CA0C6EBC60417
:103C2000A7000AEB840415469946A1804AF80700CC
:103C300001F01EFCA06001F01BFC4FF000024FF4ED
:103C400080719BF8003065F30702E06010370AF1DD
:103C50000300013365F30F22A4F8109084F812805A
:103C60008BF80030C2530AF1070384F8168065759B
:103C70003046D953BDE8F88FFF263046BDE8F88FAF
:103C8000E80A0020E90A0020EC0A00202DE9F041B2
:103C9000A44DA54884B001F0DDFC08222978A34892
:103CA00001F0D8FC2B78ABB3A14C227E002A40F067
:103CB000E380012B2ED994F83420002A40F0F580BF
:103CC000022B27D994F85020002A40F09B80032B28
:103CD00020D994F86C20002A40F0B080042B19D928
:103CE00094F88820002A40F0FB80052B12D994F824
:103CF000A420002A40F07181062B0BD994F8C02033
:103D0000002A40F08A81072B04D994F8DC30002B7C
:103D100040F04481874801F09DFC874801F09AFCFF
:103D20004FF00108854C864D864F04F13806226815
:103D3000A3889068D9B208FA01F1014214BF4FF08C
:103D4000010C4FF0000C55F8041F3846CDF800C0A8
:103D5000083401F07FFCA642E9D17B4C7B4801F09E
:103D600079FC7B4801F076FC7A4A7B4B21787B48D2
:103D700000290CBF1146194601F06CFC784E794DB4
:103D80006178794800290CBF3146294601F062FC70
:103D9000764A774BA178774800290CBF114619461F
:103DA00001F058FCE178744800290CBF31462946DF
:103DB00001F050FC2179714800290CBF3146294699
:103DC00001F048FC6E4A6F4B61796F4800290CBFC7
:103DD0001146194601F03EFCA1796C4800290CBF40
:103DE0003146294601F036FCE179694800290CBFCB
:103DF0003146294601F02EFC664804B0BDE8F0418A
:103E000001F028BCA18FA06B01F096FF0346A3F13F
:103E10000103B3FA83F394F84E205B0903920093F5
:103E200094F84F20A38F029294F84B200221019224
:103E30005948A26B01F00EFC2B7848E7B4F85810F3
:103E4000606D01F079FF0346A3F10103B3FA83F338
:103E500094F86A205B090392009394F86B20B4F8FD
:103E60005830029294F86720032101924A48626D0B
:103E700001F0F0FB2B7831E7A188206801F05CFFAE
:103E80000346A3F10103B3FA83F3A27D5B09039216
:103E90000093E27DA3880292E27C002101923E48D9
:103EA000226801F0D7FB2B7803E7218CE06901F051
:103EB00043FF012103465B1AB3FA83F394F83220DF
:103EC0005B090392009394F83320238C029294F8B8
:103ED0002F2031480192E26901F0BCFB2B78EFE61C
:103EE000B4F87410206F01F027FF0346A3F101031B
:103EF000B3FA83F394F886205B090392009394F855
:103F00008720B4F87430029294F88320042101923F
:103F10002148226F01F09EFB2B78052B3FF6E7AE80
:103F2000F8E600BFE90A002000A4000824A4000865
:103F3000EC0A002040A4000864A40008F4AE0008C5
:103F4000D4AE0008D4A40008CC0B0020FCA40008C8
:103F500018A50008A89C0008E4A3000850A50008C4
:103F60009C9C0008989C000868A50008ECA3000829
:103F7000B89C000880A5000898A50008B0A5000816
:103F8000F4A30008A09C0008C8A50008E0A500084C
:103F9000F8A5000810A6000880A40008B4F8C8100E
:103FA000D4F8C40001F0C8FE0546A5F10105B5FA34
:103FB00085F594F8DA306D09039394F8DB30072126
:103FC000029394F8D73025480193B4F8C830D4F858
:103FD000C420009501F03EFB9CE6B4F89010D4F8A4
:103FE0008C0001F0A9FE0346A3F10103B3FA83F3A9
:103FF00094F8A2205B090392009394F8A320B4F8EC
:104000009030029294F89F20052101921348D4F831
:104010008C2001F01FFB2B786EE6B4F8AC10D4F8BE
:10402000A80001F089FE0346A3F10103B3FA83F36C
:1040300094F8BE205B090392009394F8BF20B4F873
:10404000AC30029294F8BB20062101920348D4F8C8
:10405000A82001F0FFFA2B7855E600BF80A40008E5
:10406000A24B2DE9F0411B78002B40F0CF80A04EF1
:104070003378A04A12689A4280F0A0809E49C2EB31
:10408000C20201EB8202117E002900F09780D17CF0
:1040900081F00101994A9A4C126821709A4280F08D
:1040A000FE809549C2EBC20201EB8202117E00291B
:1040B00000F0F580D27C934982F00102A2700A6878
:1040C0009A4280F0F3808C49C2EBC20201EB82017C
:1040D0000A7E02B1CA7C8C4962710A689A4280F0F9
:1040E000EC808549C2EBC20201EB82010A7E02B17B
:1040F000CA7C864922710A689A4280F0E5807E492E
:10410000C2EBC20201EB82010A7E02B1CA7C804985
:10411000E2700A68002A60DB9A425EDA764BC2EBF4
:10412000C20203EB82031A7E002A56D0794DDF7C4F
:1041300001F09EF92B78BB4200F0C8806B68C31A6F
:10414000002F50D02B61012368602B760123E8609B
:104150002F70714A6B761368002B31DB32789342F3
:104160002EDA654AC3EBC30302EB83031A7E3AB32C
:10417000DE7C01F07DF9694B1A78B24200F0AE8026
:104180005A68821A1EB31A61012258601A760122F7
:10419000D8601E705A76687E614BE178E271A0713A
:1041A0009A6831B350065CBF40221A615C4B9B6831
:1041B000590601D501236370BDE8F081012169E74B
:1041C00001F056F9554B1A78002A00F087805A689A
:1041D0000026821A98605A61D9E74E4D01F048F9DD
:1041E0002B78002B72D06B680027C31AA8606B6114
:1041F000ACE7520644BF4FF480021A61484B9B68FB
:1042000013F04003D8D16370BDE8F08101F030F9BC
:10421000374E07463378002B00F08B800025364C54
:1042200006E00135EAB29A4204F11C04BFF421AF62
:10423000227E002AF5D0E268218ABA1A8A42F0D397
:10424000A1882068E76001F077FDA0F10108B8FAC5
:1042500088F801F00DF9E37C4FEA58186375237D67
:1042600043455FD00023A3750123E375034684F81B
:104270001480A06094F812E0B4F810C0A27D0EFB88
:104280000CFCC11A0132D2B28C453378A275C8D861
:104290007245C6D30021227DE175E274C1E7012297
:1042A0001849A2700A689A42FFF40DAF002216491D
:1042B00062710A689A42FFF414AF00221349227116
:1042C0000A689A42FFF41BAF002220E7EB68C31A8A
:1042D000B3F5966F8CBF002301233AE7DA68821AA0
:1042E000B2F5966F8CBF0022012253E7E80A002046
:1042F000E90A002030000020EC0A00202C000020F9
:10430000CC0B0020240000202800002018000020F2
:1043100020000020CC0A00201C000020B00A002051
:1043200000080140E27D3378002A3FF47AAFA368A9
:10433000A0E70121024C1A4663712170A170D8E6F2
:10434000CC0B002000220B4B30B51D781C7993F864
:1043500005E065F3070293F802C064F30F22997930
:104360006EF31742DB796CF31F62026041710371D7
:1043700030BD00BFCC0B002010B5074C2368002BCC
:1043800001DB012010BD0549002001F091F8034632
:10439000C0432360C00F10BD140000208D3C0008F6
:1043A0002DE9F04F814B04204FF00F084FF0080B20
:1043B0004FF0010A7E4FDFF8FC9183B003F1380E15
:1043C00025E0B9429D7900F0D980494500F0DC80B4
:1043D000794A914200F0DE80784A914200F0E08014
:1043E000072800F2C5800C468200D2B2266808FA7F
:1043F00002FC26EA0C0626608DB9042101FA02F2BD
:10440000216808330A437345226019D098881968D7
:1044100009B10F28D5D9002003B0BDE8F08F266878
:104420000BFA02F232432260CA68012D0AFA00F048
:1044300003F108030CBF024382437345CA60E5D110
:1044400040245F495A488A695E4B42F004028A61FF
:104450000461D3F800285C4D22F07062C3F8002894
:10446000D3F800282C7842F04072C3F8002844B9F1
:10447000E0222146554802F0B1FC0123544A2B703A
:10448000147005241E230122102100944948FFF7CF
:10449000B5FB0546DFF83C9100941E2301228021E4
:1044A000C9F800504248FFF7A9FB0546DFF828810C
:1044B00000941E2300220121C8F800503C48FFF759
:1044C0009DFB0546454F00941E2300224FF40051EA
:1044D0003D603948FFF792FB4FF0030A404E5346C8
:1044E000306000220221CDF800A03148FFF786FBA2
:1044F0003C4D5346286000220421CDF800A02C48F2
:10450000FFF77CFB384B00220821009418601E2323
:104510002748FFF773FBDFF8D4A00024CAF8000097
:1045200000F0A6FF324BC3E90444C3E901001C704C
:104530001C83D86000F09CFFD8F80010D9F8003038
:104540002C4A0B43DAF80010C2E904440B433968E3
:10455000C2E901000B43316814700B431483D0602F
:104560003FF559AF2868A042B4BF0020012053E7AF
:10457000A0F108029200D2B20C1D37E7104CA269DC
:1045800042F00402A2612BE70D4CA26942F008023E
:10459000A26125E70A4CA26942F01002A2611FE75E
:1045A000074CA26942F02002A26119E7F4AE0008AC
:1045B00000080140000C01400010014000140140BF
:1045C0000010024000000140E80A0020EC0A002030
:1045D000E90A0020300000202C00002028000020E4
:1045E00024000020200000201C00002018000020D3
:1045F000CC0A0020B00A002040F2712C45F255513F
:1046000004220CFB00F00D4BB0F57A1F19605A60C4
:1046100004D2B0F57A7F0CD2012001E040F6FF70A1
:104620004AF6AA214CF6CC42044B986019601A60F5
:104630007047034BA3FB00308009F1E700300040D6
:10464000D34D62104AF6AA22014B1A60704700BF90
:10465000003000402DE9F041044601200E4600F0F4
:1046600073FE204600F07AFEFF2000F077FE07463A
:10467000FF2000F073FE0446FF2000F06FFE0546A9
:10468000FF2000F06BFE8046FF2000F067FE04F084
:104690000803002B14BF012300230246737325D0A7
:1046A0002B02610343EA475343EA080301F4E01194
:1046B00024040B4304F440341C4302F00F03C2F300
:1046C000801234603371B2735BB10024351DFF205A
:1046D00000F044FE05F8010F33790134E4B2A3423F
:1046E000F5D8BDE8F041002000F02EBEC4F3471419
:1046F00044EAC704E1E700BF2DE9F84F81460120F5
:104700000F46904600F020FE032000F027FE0E200A
:1047100000F024FEFF2000F021FE0646002000F0FD
:1047200013FE012000F010FE052000F017FE0F2000
:1047300000F014FEE02000F011FE802000F00EFEDC
:10474000002000F001FE42F2107501E0013D13D09F
:10475000012000F0F9FD032000F000FE0E2000F023
:10476000FDFDFF2000F0FAFD0446002004F0E00407
:1047700000F0EAFD802CE9D1B9F1050F7DD8644B3A
:10478000012013F809405FFA88FB04F1010A04F1E3
:104790000209E51C5FFA8AFA5FFA89F9EDB2002F87
:1047A0006DD100F0D1FD022000F0D8FD204600F0D0
:1047B000D5FDC8F3C70000F0D1FD384600F0C4FDB8
:1047C000012000F0C1FD022000F0C8FD504600F0BD
:1047D000C5FD4FEA4B1000F0E00000F0BFFD384689
:1047E00000F0B2FD012000F0AFFD022000F0B6FDA8
:1047F000484600F0B3FD384600F0B0FD384600F002
:10480000A3FD012000F0A0FD022000F0A7FD284636
:1048100000F0A4FD384600F0A1FD384600F094FDFC
:10482000012000F091FD052000F098FD0F2000F020
:1048300095FD06F0E006E02000F090FD304600F027
:104840008DFD002000F080FD42F2107501E0013D79
:1048500013D0012000F078FD032000F07FFD0E2032
:1048600000F07CFDFF2000F079FD0446002004F0FC
:10487000E00400F069FDA642E9D1BDE8F88F00F040
:1048800063FD022000F06AFD204600F067FDC8F3DA
:10489000475000F063FD002000F056FD012000F0BD
:1048A00053FD022000F05AFD504600F057FD4FEA3C
:1048B0005830C8F3014320F01F00184340F00800AF
:1048C00000F0EB0000F04AFD002000F03DFD01206B
:1048D00000F03AFD022000F041FD484600F03EFDA8
:1048E000C8F3072000F03AFD002000F02DFD012064
:1048F00000F02AFD022000F031FD284600F02EFDD8
:10490000584600F02BFD002000F01EFD88E700BF98
:104910002CAF000830B5012083B000F015FDC02099
:1049200000F01CFD002000F00FFD002341F2873253
:104930000193019B934205DC019B01330193019B91
:104940009342F9DD012000F0FFFC032000F006FD9A
:104950000E2000F003FDFF2000F000FD04460020C3
:1049600004F0E00400F0F0FC802C02D0002003B042
:1049700030BD012000F0E8FC022000F0EFFC2A200E
:1049800000F0ECFC002000F0E9FC002000F0DCFC72
:10499000012000F0D9FC022000F0E0FC292000F00A
:1049A000DDFCB12000F0DAFC002000F0CDFC01209D
:1049B00000F0CAFC022000F0D1FC282000F0CEFC60
:1049C000852000F0CBFC002000F0BEFC012000F0B0
:1049D000BBFC022000F0C2FC602000F0BFFC6420A1
:1049E00000F0BCFC002000F0AFFC012000F0ACFCAB
:1049F000022000F0B3FC702000F0B0FC602000F05A
:104A0000ADFC002000F0A0FC012000F09DFC052082
:104A100000F0A4FC0F2000F0A1FCE02000F09EFCC0
:104A2000002000F09BFC002000F08EFC42F210758C
:104A300001E0013D9AD0012000F086FC032000F047
:104A40008DFC0E2000F08AFCFF2000F087FC04465D
:104A5000002000F079FC1F2CEBD8012003B030BD02
:104A600070B50546012000F06FFC032000F076FCD5
:104A70002C2000F073FCFF2000F070FC04460020A6
:104A800000F062FCA20701D1002070BD012000F0FF
:104A90005BFC032000F062FC2C2000F05FFCFF2098
:104AA00000F05CFC0446002000F04EFC14F001060F
:104AB00010D1A307E8D529469420FFF7CBFD0120AC
:104AC00000F042FC052000F049FC2C2000F046FCE0
:104AD00002200DE029469020FFF7BCFD012000F0E8
:104AE00033FC052000F03AFC2C2000F037FC0120BC
:104AF00000F034FC002000F031FC002000F024FC29
:104B0000012070BD2DE9F04F83B0E846DA4B42F248
:104B1000107593E8030088E80300012000F014FCFE
:104B2000032000F01BFC0E2000F018FCFF2000F01A
:104B300015FC8146002000F007FC012000F004FC79
:104B4000052000F00BFC0F2000F008FCE02000F036
:104B500005FC802000F002FC002000F0F5FB01E0E5
:104B6000013D13D0012000F0EFFB032000F0F6FB25
:104B70000E2000F0F3FBFF2000F0F0FB04460020C5
:104B800004F0E00400F0E0FB802CE9D1012000F00B
:104B9000DBFB032000F0E2FB0E2000F0DFFBFF2038
:104BA00000F0DCFB0546002000F0CEFB012000F009
:104BB000CBFB052000F0D2FB0F2000F0CFFBE02064
:104BC00000F0CCFB802000F0C9FB002000F0BCFB13
:104BD00042F2107605F0E00501E0013E13D001201D
:104BE00000F0B2FB032000F0B9FB0E2000F0B6FB92
:104BF000FF2000F0B3FB0446002004F0E00400F0C6
:104C0000A3FB802CE9D1012000F09EFB022000F0E4
:104C1000A5FB202000F0A2FBFF2000F09FFB00205E
:104C200000F092FB012000F08FFB022000F096FBC9
:104C3000212000F093FBE02000F090FB002000F02A
:104C400083FB012000F080FB022000F087FB222084
:104C500000F084FB002000F081FB002000F074FBDA
:104C6000012000F071FB022000F078FB232000F00F
:104C700075FB002000F072FB002000F065FB0120B6
:104C800000F062FB052000F069FB0F2000F066FBDE
:104C9000E02000F063FB284600F060FB002000F0FD
:104CA00053FB42F2107601E0013E13D0012000F0E8
:104CB0004BFB032000F052FB0E2000F04FFBFF20C7
:104CC00000F04CFB0446002004F0E00400F03CFB44
:104CD000A542E9D1012000F037FB032000F03EFBA4
:104CE0000E2000F03BFBFF2000F038FB05460020C3
:104CF00000F02AFB012000F027FB052000F02EFB2E
:104D00000F2000F02BFBE02000F028FB802000F0BB
:104D100025FB002000F018FB42F2107605F0E005BC
:104D200001E0013E13D0012000F00EFB032000F053
:104D300015FB0E2000F012FBFF2000F00FFB0446D5
:104D4000002004F0E00400F0FFFA802CE9D10120FB
:104D500000F0FAFA022000F001FB242000F0FEFA35
:104D6000FF2000F0FBFA002000F0EEFA012000F036
:104D7000EBFA022000F0F2FA252000F0EFFAE02032
:104D800000F0ECFA002000F0DFFA012000F0DCFA7D
:104D9000022000F0E3FA262000F0E0FA002000F004
:104DA000DDFA002000F0D0FA012000F0CDFA022058
:104DB00000F0D4FA272000F0D1FA002000F0CEFA5B
:104DC000002000F0C1FA012000F0BEFA052000F03A
:104DD000C5FA0F2000F0C2FAE02000F0BFFA284622
:104DE00000F0BCFA002000F0AFFA42F2107601E0C9
:104DF000013E13D0012000F0A7FA032000F0AEFA24
:104E00000E2000F0ABFAFF2000F0A8FA04460020C4
:104E100004F0E00400F098FAA542E9D1DFF85CA0C4
:104E20000DF1080B012038F8027B00F08DFA032009
:104E300000F094FA0E2000F091FAFF2000F08EFAB4
:104E40000646002000F080FA012000F07DFA0520DF
:104E500000F084FA0F2000F081FAE02000F07EFAE2
:104E6000802000F07BFA002000F06EFA42F210750C
:104E700006F0E00606E000BFD89100082CAF00085D
:104E8000013D13D0012000F05FFA032000F066FA24
:104E90000E2000F063FAFF2000F060FA04460020C4
:104EA00004F0E00400F050FA802CE9D11AF8014B2C
:104EB000012000F049FA022000F050FA204600F0EC
:104EC0004DFAC7F3C70000F049FA002000F03CFAA1
:104ED000012000F039FA022000F040FA601CC0B254
:104EE00000F03CFA780100F0E00000F037FA002012
:104EF00000F02AFA012000F027FA022000F02EFA32
:104F0000A01CC0B200F02AFA002000F027FA00200E
:104F100000F01AFA012000F017FA022000F01EFA41
:104F2000E01CC0B200F01AFA002000F017FA0020CE
:104F300000F00AFA012000F007FA052000F00EFA4E
:104F40000F2000F00BFAE02000F008FA304600F0E5
:104F500005FA002000F0F8F942F2107501E0013D79
:104F600013D0012000F0F0F9032000F0F7F90E2033
:104F700000F0F4F9FF2000F0F1F90446002004F0FD
:104F8000E00400F0E1F9A642E9D1D8457FF44AAF48
:104F9000112200210420FFF7AFFB11220021052080
:104FA000FFF7AAFB012000F0CFF9052000F0D6F9A9
:104FB0000F2000F0D3F909F0E009E02000F0CEF96D
:104FC000484600F0CBF9002000F0BEF942F210751F
:104FD00001E0013D13D0012000F0B6F9032000F0FC
:104FE000BDF90E2000F0BAF9FF2000F0B7F9044631
:104FF000002004F0E00400F0A7F9A145E9D1012068
:1050000003B0BDE8F08F00BF704700BF10B50F4C74
:1050100084B006E000F02CFA034668462360FCF7F3
:105020008FFD6846FCF736FB0028F3D1084C06E0FC
:1050300000F01EFA034668462360FDF739FC684617
:10504000FFF70EFD0028F3D104B010BDDC0B0020EB
:10505000D80B002008224FF4807310B50C4C0D497A
:10506000207884B031F8101068468DF80420ADF82F
:105070000D300091FCF74CFA074B1A782378013376
:10508000DBB29A4223709CBF0023237004B010BD92
:10509000D40B0020380000203400002010B5044656
:1050A00000F0E6F90B4B1B68C31AB3F5FA6F94BF17
:1050B0000023012384F8913600F0DAF9064B1B68CF
:1050C000C31AB3F5FA6F94BF0023012384F8923614
:1050D00010BD00BFDC0B0020D80B002010B491B035
:1050E000EC461D4C0FCCACE80F000FCCACE80F0029
:1050F0000FCCACE80F0094E80F008CE80F001749C4
:105100004B684A68C3F3031302F00C02082A0AD062
:10511000134A10A901EB830353F8400CB2FBF0F0E3
:1051200011B010BC70474A68D20312D549680D4AC5
:1051300011F4003F0A4818BF1046084A5168C1F3ED
:1051400083410D2901F1020208BF102200FB02F287
:10515000DFE70448F1E700BFE091000800100240DB
:1051600000127A0000093D0030B599B0EC46284C99
:10517000284D0FCCACE80F0094E80F008CE80F002E
:105180000DF1200EA4F1500CBCE80F006C68AEE8E5
:105190000F00BCE80F00AEE80F00BCE80F00AEE85F
:1051A0000F009CE80F008EE80F006A686B68C4F37C
:1051B000022403F00C03082BC2F303120FD0164B8A
:1051C00018A901EB820252F8402C01EB8404B3FBD6
:1051D000F2F354F8600CB3FBF0F019B030BD6B681B
:1051E000DB0312D569680D4B11F4003F0A4818BF64
:1051F0001846084B5968C1F383410D2901F1020398
:1052000008BF102300FB03F3DAE70448F1E700BF0F
:10521000209200080010024000127A0000093D00B0
:1052200030B599B0EC46284C284D0FCCACE80F00B7
:1052300094E80F008CE80F000DF1200EA4F1500C43
:10524000BCE80F006C68AEE80F00BCE80F00AEE8E9
:105250000F00BCE80F00AEE80F009CE80F008EE8DE
:105260000F006A686B68C4F3C22403F00C03082BB8
:10527000C2F303120FD0164B18A901EB820252F8A9
:10528000402C01EB8404B3FBF2F354F8600CB3FB45
:10529000F0F019B030BD6B68DB0312D569680D4BB7
:1052A00011F4003F0A4818BF1846084B5968C1F36B
:1052B00083410D2901F1020308BF102300FB03F312
:1052C000DAE70448F1E700BF20920008001002402E
:1052D00000127A0000093D00194B1A6842F480322E
:1052E0001A601A689203FCD51649154A086840F0FE
:1052F00004000860086840F010000860596841F434
:10530000E0115960596841F480315960596841F49D
:1053100080615960596821F460515960196841F001
:105320008071196013689B01FCD55368044943F0F0
:10533000020353604B6803F00C03082BFAD170474B
:1053400000100240002002404FF48052024B08B18E
:105350005A6170471A617047000C01400E4A10B440
:105360000E49146803E013681B1B092B11D88B68C6
:105370009B07F8D5C8601068084903E013681B1A3A
:10538000092B06D88B68DB07F8D5C86810BCC0B2FB
:105390007047FF2010BC7047800C00200038004090
:1053A000314A10B49169314B41F008019161D169E2
:1053B0004FF4805441F48041D1615968002021F4B8
:1053C000403159605968A2F5EC3221F4402159600E
:1053D000596841F440315960596821F440115960CD
:1053E000596821F440015960596841F440115960ED
:1053F000596841F400015960596821F040715960C1
:10540000596821F040615960596841F080615960E4
:10541000596821F040515960596821F04041596064
:10542000596841F040515960596841F00041596054
:105430001C611060136810BC43F004031360136810
:1054400043F010031360136843F400731360136890
:1054500043F480731360136843F0400313601068D3
:10546000C0F38010704700BF00100240000C0140E4
:10547000014B1868704700BF800C002010B5FFF783
:105480002DFE0A4BA3FB00239B09013BB3F1807F58
:1054900009D24FF0E022002107241161012053615D
:1054A0009161146110BD002010BD00BFD34D62108A
:1054B000F8B52E4C0E46227B12B9A568002D36D0C9
:1054C000227F12B9A269002A3FD094F82C2012B989
:1054D000A26A002A3BD094F83C2012B9A26B002AA1
:1054E00037D094F84C200AB9A26CA2B394F85C208F
:1054F0000AB9A26D8AB394F86C200AB9A26E72B38D
:1055000094F87C200AB9A26F5AB394F88C2012B98F
:10551000D4F888203AB394F89C201AB14FF0FF35A4
:105520002846F8BDD4F898200925002AF6D12F0185
:10553000E051FFF79DFF01220D4B04EB05140837E6
:10554000C4E90106DA532846F8BD0125EFE7022534
:10555000EDE70325EBE70425E9E70525E7E7062561
:10556000E5E70725E3E70825E1E700BFE00B0020BA
:10557000E40B002070B5FFF77BFF06460C4C04F1EE
:10558000A005237B53B1A26842B1D4E90013F31AFA
:105590008B4203D366609047637B1BB91034AC42E7
:1055A000EFD170BD0023C4E90033A360A381F5E708
:1055B000E00B00200022194B0120C3E90022C3E9BF
:1055C0000422C3E90822C3E90C22C3E91022C3E97B
:1055D0001422C3E91822C3E91C229A609A819A61B5
:1055E0009A839A629A859A639A879A64A3F84C2060
:1055F0009A65A3F85C209A66A3F86C209A67A3F8D2
:105600007C20C3F88820C3E92022C3E92422A3F820
:105610008C20C3F89820A3F89C207047E00B002052
:1056200091B18446094800B50CEB010E1CF8011B32
:10563000074B01E0013B03D002681206FAD5416036
:10564000F445F3D15DF804FB704700BF004800400B
:10565000A08601000FB400B59BB01CAB53F8042B1F
:10566000642101A8009301F0ABFB9DF8040070B128
:1056700009490DF1040C094B01E0013B03D00A6814
:105680001206FAD548601CF8010F0028F3D11BB0B0
:105690005DF804EB04B0704700380140A0860100BB
:1056A00010B5FFF7BDFD002832D04FF4E1111D4ABF
:1056B000A2FB00431B0D01FB130000F56140884273
:1056C00027D30133180142F20C04174A174B916992
:1056D00041F004019161916941F4804191615968FF
:1056E000A2F5584221F47F615960596841F0B00138
:1056F0005960596841F4806159609060D460D36802
:1057000013F400530CD09368181AB0FA80F04009D3
:1057100010BDA2FB00201B0153EA1040D3D110BDE5
:10572000184610BDC5B3A291001002400008014008
:1057300010B5FFF719FD002832D04FF4E1111D4AD2
:10574000A2FB00431B0D01FB130000F561408842E2
:1057500027D30133180142F20C04174A174B916901
:1057600041F008019161D16941F48021D16159680A
:10577000A2F5E43221F47F415960596841F4306167
:105780005960596841F4804159609060D460D36891
:1057900013F400530CD09368181AB0FA80F0400943
:1057A00010BDA2FB00201B0153EA1040D3D110BD55
:1057B000184610BDC5B3A29100100240000C014074
:1057C00072B64FF4802404200A490B4A8B6943F0D7
:1057D00008038B61136823F470631360136843F448
:1057E0000073136014611061136983F00403136183
:1057F000FAE700BF00100240000C014030B591B044
:105800002422002107A801F0E9FA01240023022242
:10581000102506A8CDE90A45CDE90133CDE90333CA
:105820000692059300F08EFA60B901460F2301A895
:10583000CDE90211CDE90411019300F071FC08B922
:1058400011B030BDFFF7BCFF38B500F0EBF9FFF742
:10585000D5FFFFF741FDFFF723FF40B15E48FFF79B
:10586000F9FEFFF765FF20B95C48FFF7F3FEFFF78D
:10587000A7FF5B48FFF7EEFEFFF792FD50B15948D6
:10588000FFF7E8FEFFF746F848B95748FFF7E2FE92
:10589000FFF796FF5548FFF7DDFEFFF791FF5448ED
:1058A000FFF7D8FEFFF72EF950B15248FFF7D2FEAE
:1058B000FFF7E4FD40B95048FFF7CCFEFFF780FF4B
:1058C0004E48FFF7C7FEF3E74D48FFF7C3FEFBF76F
:1058D0008DFF20B94B48FFF7BDFEFFF771FF4A4827
:1058E000FFF7B8FEFBF708FC4848FFF7B3FEFEF7EA
:1058F00057FD0028B8D04648FFF7ACFEFBF774FB15
:1059000020B94448FFF7A6FEFFF75AFF4248FFF7C9
:10591000A1FEFFF74FFE002846D14048FFF79AFE50
:10592000FEF72AFD002853D13D48FFF793FEFBF711
:105930003BFB002848D13B48FFF78CFEFDF70AFAF5
:1059400000283DD13848FFF785FEFCF7A1FB98BB46
:105950003648FFF77FFEFEF7BBF848BB3448FFF739
:1059600079FEFEF7C9F84FF4FA60FEF745FE3148BC
:10597000FFF770FE304DFFF77BFD0446FEF762FE39
:10598000FFF768FBFFF742FBFEF76AFBFBF720FB24
:10599000FEF77AF8FFF7EEFDFFF76AFD01462846AD
:1059A000091BFFF757FEE6E72448FFF753FEB7E76A
:1059B0002348FFF74FFED4E72248FFF74BFECAE724
:1059C0002148FFF747FEC0E72048FFF743FEB5E751
:1059D0001F48FFF73FFEAAE7A4A60008C4A60008D8
:1059E000E8A600082CA7000848A7000808A7000898
:1059F00070A70008C0A70008E8A7000890A7000843
:105A000010A8000830A8000854A8000874A80008CE
:105A100094A80008B4A80008D8A80008F8A80008AE
:105A200044A900089CA90008F8A9000854AA000885
:105A3000B0AA000814AB000838AB000824A900087D
:105A4000E8AA000888AA00082CAA0008D0A9000823
:105A500070A900080E4B82B09A690E4942F001020B
:105A60009A619A6902F001020092009ADA6942F0A2
:105A70008052DA61DB6903F080530193019B4B682C
:105A800023F0E06343F080634B6002B0704700BFD7
:105A90000010024000000140FEE700BFFEE700BF2B
:105AA000FEE700BFFEE700BFFEE700BF704700BF94
:105AB000704700BF704700BF08B500F0C5F8024A44
:105AC00013680133136008BD800C0020012070476B
:105AD00008B501F0D5F9162203464FF0FF301A60E1
